{
	"cryptoMonster.sol": {
		"cryptoMonster": {
			"abi": [
				{
					"inputs": [
						{
							"internalType": "address",
							"name": "provider1",
							"type": "address"
						},
						{
							"internalType": "address",
							"name": "provider2",
							"type": "address"
						},
						{
							"internalType": "address",
							"name": "investor1",
							"type": "address"
						},
						{
							"internalType": "address",
							"name": "investor2",
							"type": "address"
						},
						{
							"internalType": "address",
							"name": "bestFriend",
							"type": "address"
						}
					],
					"stateMutability": "nonpayable",
					"type": "constructor"
				},
				{
					"inputs": [
						{
							"internalType": "address",
							"name": "from",
							"type": "address"
						},
						{
							"internalType": "uint256",
							"name": "fromBalance",
							"type": "uint256"
						},
						{
							"internalType": "uint256",
							"name": "value",
							"type": "uint256"
						}
					],
					"name": "ERC20InsufficientBalance",
					"type": "error"
				},
				{
					"inputs": [
						{
							"internalType": "address",
							"name": "wallet",
							"type": "address"
						},
						{
							"internalType": "uint256",
							"name": "balance",
							"type": "uint256"
						},
						{
							"internalType": "uint256",
							"name": "value",
							"type": "uint256"
						}
					],
					"name": "Overflow",
					"type": "error"
				},
				{
					"inputs": [],
					"name": "PermissionDenied",
					"type": "error"
				},
				{
					"anonymous": false,
					"inputs": [
						{
							"indexed": true,
							"internalType": "address",
							"name": "owner",
							"type": "address"
						},
						{
							"indexed": true,
							"internalType": "address",
							"name": "spender",
							"type": "address"
						},
						{
							"indexed": false,
							"internalType": "uint256",
							"name": "value",
							"type": "uint256"
						}
					],
					"name": "Approval",
					"type": "event"
				},
				{
					"anonymous": false,
					"inputs": [
						{
							"indexed": true,
							"internalType": "address",
							"name": "from",
							"type": "address"
						},
						{
							"indexed": true,
							"internalType": "address",
							"name": "to",
							"type": "address"
						},
						{
							"indexed": false,
							"internalType": "uint256",
							"name": "value",
							"type": "uint256"
						}
					],
					"name": "Transfer",
					"type": "event"
				},
				{
					"inputs": [],
					"name": "IncSysLifeTime1Min",
					"outputs": [],
					"stateMutability": "nonpayable",
					"type": "function"
				},
				{
					"inputs": [
						{
							"internalType": "address",
							"name": "owner",
							"type": "address"
						},
						{
							"internalType": "address",
							"name": "spender",
							"type": "address"
						}
					],
					"name": "allowance",
					"outputs": [
						{
							"internalType": "uint256",
							"name": "",
							"type": "uint256"
						}
					],
					"stateMutability": "view",
					"type": "function"
				},
				{
					"inputs": [
						{
							"internalType": "address",
							"name": "spender",
							"type": "address"
						},
						{
							"internalType": "uint256",
							"name": "amount",
							"type": "uint256"
						}
					],
					"name": "approve",
					"outputs": [
						{
							"internalType": "bool",
							"name": "",
							"type": "bool"
						}
					],
					"stateMutability": "nonpayable",
					"type": "function"
				},
				{
					"inputs": [
						{
							"internalType": "address",
							"name": "account",
							"type": "address"
						}
					],
					"name": "balanceOf",
					"outputs": [
						{
							"internalType": "uint256",
							"name": "",
							"type": "uint256"
						}
					],
					"stateMutability": "view",
					"type": "function"
				},
				{
					"inputs": [],
					"name": "buyToken",
					"outputs": [],
					"stateMutability": "nonpayable",
					"type": "function"
				},
				{
					"inputs": [],
					"name": "decimals",
					"outputs": [
						{
							"internalType": "uint8",
							"name": "",
							"type": "uint8"
						}
					],
					"stateMutability": "pure",
					"type": "function"
				},
				{
					"inputs": [
						{
							"internalType": "address",
							"name": "spender",
							"type": "address"
						},
						{
							"internalType": "uint256",
							"name": "subtractedValue",
							"type": "uint256"
						}
					],
					"name": "decreaseAllowance",
					"outputs": [
						{
							"internalType": "bool",
							"name": "",
							"type": "bool"
						}
					],
					"stateMutability": "nonpayable",
					"type": "function"
				},
				{
					"inputs": [
						{
							"internalType": "address",
							"name": "spender",
							"type": "address"
						},
						{
							"internalType": "uint256",
							"name": "addedValue",
							"type": "uint256"
						}
					],
					"name": "increaseAllowance",
					"outputs": [
						{
							"internalType": "bool",
							"name": "",
							"type": "bool"
						}
					],
					"stateMutability": "nonpayable",
					"type": "function"
				},
				{
					"inputs": [],
					"name": "name",
					"outputs": [
						{
							"internalType": "string",
							"name": "",
							"type": "string"
						}
					],
					"stateMutability": "view",
					"type": "function"
				},
				{
					"inputs": [],
					"name": "processRequest",
					"outputs": [],
					"stateMutability": "nonpayable",
					"type": "function"
				},
				{
					"inputs": [],
					"name": "symbol",
					"outputs": [
						{
							"internalType": "string",
							"name": "",
							"type": "string"
						}
					],
					"stateMutability": "view",
					"type": "function"
				},
				{
					"inputs": [],
					"name": "totalSupply",
					"outputs": [
						{
							"internalType": "uint256",
							"name": "",
							"type": "uint256"
						}
					],
					"stateMutability": "view",
					"type": "function"
				},
				{
					"inputs": [
						{
							"internalType": "address",
							"name": "to",
							"type": "address"
						},
						{
							"internalType": "uint256",
							"name": "amount",
							"type": "uint256"
						}
					],
					"name": "transfer",
					"outputs": [
						{
							"internalType": "bool",
							"name": "",
							"type": "bool"
						}
					],
					"stateMutability": "nonpayable",
					"type": "function"
				},
				{
					"inputs": [
						{
							"internalType": "address",
							"name": "from",
							"type": "address"
						},
						{
							"internalType": "address",
							"name": "to",
							"type": "address"
						},
						{
							"internalType": "uint256",
							"name": "amount",
							"type": "uint256"
						}
					],
					"name": "transferFrom",
					"outputs": [
						{
							"internalType": "bool",
							"name": "",
							"type": "bool"
						}
					],
					"stateMutability": "nonpayable",
					"type": "function"
				},
				{
					"inputs": [
						{
							"internalType": "address",
							"name": "to",
							"type": "address"
						},
						{
							"internalType": "uint256",
							"name": "value",
							"type": "uint256"
						}
					],
					"name": "transferToken",
					"outputs": [],
					"stateMutability": "nonpayable",
					"type": "function"
				},
				{
					"inputs": [
						{
							"internalType": "address",
							"name": "from",
							"type": "address"
						},
						{
							"internalType": "address",
							"name": "to",
							"type": "address"
						},
						{
							"internalType": "uint256",
							"name": "value",
							"type": "uint256"
						}
					],
					"name": "transferTokenFrom",
					"outputs": [],
					"stateMutability": "nonpayable",
					"type": "function"
				},
				{
					"inputs": [
						{
							"internalType": "string",
							"name": "login",
							"type": "string"
						},
						{
							"internalType": "address",
							"name": "wallet",
							"type": "address"
						}
					],
					"name": "whitelistRequest",
					"outputs": [],
					"stateMutability": "nonpayable",
					"type": "function"
				}
			],
			"devdoc": {
				"events": {
					"Approval(address,address,uint256)": {
						"details": "Emitted when the allowance of a `spender` for an `owner` is set by a call to {approve}. `value` is the new allowance."
					},
					"Transfer(address,address,uint256)": {
						"details": "Emitted when `value` tokens are moved from one account (`from`) to another (`to`). Note that `value` may be zero."
					}
				},
				"kind": "dev",
				"methods": {
					"allowance(address,address)": {
						"details": "See {IERC20-allowance}."
					},
					"approve(address,uint256)": {
						"details": "See {IERC20-approve}. NOTE: If `amount` is the maximum `uint256`, the allowance is not updated on `transferFrom`. This is semantically equivalent to an infinite approval. Requirements: - `spender` cannot be the zero address."
					},
					"balanceOf(address)": {
						"details": "See {IERC20-balanceOf}."
					},
					"decimals()": {
						"details": "Returns the number of decimals used to get its user representation. For example, if `decimals` equals `2`, a balance of `505` tokens should be displayed to a user as `5.05` (`505 / 10 ** 2`). Tokens usually opt for a value of 18, imitating the relationship between Ether and Wei. This is the default value returned by this function, unless it's overridden. NOTE: This information is only used for _display_ purposes: it in no way affects any of the arithmetic of the contract, including {IERC20-balanceOf} and {IERC20-transfer}."
					},
					"decreaseAllowance(address,uint256)": {
						"details": "Atomically decreases the allowance granted to `spender` by the caller. This is an alternative to {approve} that can be used as a mitigation for problems described in {IERC20-approve}. Emits an {Approval} event indicating the updated allowance. Requirements: - `spender` cannot be the zero address. - `spender` must have allowance for the caller of at least `subtractedValue`."
					},
					"increaseAllowance(address,uint256)": {
						"details": "Atomically increases the allowance granted to `spender` by the caller. This is an alternative to {approve} that can be used as a mitigation for problems described in {IERC20-approve}. Emits an {Approval} event indicating the updated allowance. Requirements: - `spender` cannot be the zero address."
					},
					"name()": {
						"details": "Returns the name of the token."
					},
					"symbol()": {
						"details": "Returns the symbol of the token, usually a shorter version of the name."
					},
					"totalSupply()": {
						"details": "See {IERC20-totalSupply}."
					},
					"transfer(address,uint256)": {
						"details": "See {IERC20-transfer}. Requirements: - `to` cannot be the zero address. - the caller must have a balance of at least `amount`."
					},
					"transferFrom(address,address,uint256)": {
						"details": "See {IERC20-transferFrom}. Emits an {Approval} event indicating the updated allowance. This is not required by the EIP. See the note at the beginning of {ERC20}. NOTE: Does not update the allowance if the current allowance is the maximum `uint256`. Requirements: - `from` and `to` cannot be the zero address. - `from` must have a balance of at least `amount`. - the caller must have allowance for ``from``'s tokens of at least `amount`."
					}
				},
				"version": 1
			},
			"evm": {
				"assembly": "    /* \"cryptoMonster.sol\":128:5579  contract cryptoMonster is ERC20(\"CryptoMonster\", \"CMON\") {... */\n  mstore(0x40, 0x80)\n    /* \"cryptoMonster.sol\":475:485  phase.Seed */\n  0x00\n    /* \"cryptoMonster.sol\":454:485  phase currentPhase = phase.Seed */\n  0x05\n  exp(0x0100, 0x00)\n  dup2\n  sload\n  dup2\n  0xff\n  mul\n  not\n  and\n  swap1\n  dup4\n  0x02\n  dup2\n  gt\n  iszero\n  tag_1\n  jumpi\n  tag_2\n  tag_3\n  jump\t// in\ntag_2:\ntag_1:\n  mul\n  or\n  swap1\n  sstore\n  pop\n    /* \"cryptoMonster.sol\":700:715  block.timestamp */\n  timestamp\n    /* \"cryptoMonster.sol\":679:715  uint256 Time_start = block.timestamp */\n  0x07\n  sstore\n    /* \"cryptoMonster.sol\":783:793  Time_start */\n  sload(0x07)\n    /* \"cryptoMonster.sol\":764:793  uint256 Time_now = Time_start */\n  0x08\n  sstore\n    /* \"cryptoMonster.sol\":851:859  Time_now */\n  sload(0x08)\n    /* \"cryptoMonster.sol\":829:859  uint256 Time_system = Time_now */\n  0x09\n  sstore\n    /* \"cryptoMonster.sol\":987:988  0 */\n  0x00\n    /* \"cryptoMonster.sol\":968:988  uint256 Time_dif = 0 */\n  0x0a\n  sstore\n    /* \"cryptoMonster.sol\":1930:2888  constructor (... */\n  callvalue\n  dup1\n  iszero\n  tag_4\n  jumpi\n  0x00\n  dup1\n  revert\ntag_4:\n  pop\n  mload(0x40)\n  sub(codesize, bytecodeSize)\n  dup1\n  bytecodeSize\n  dup4\n  codecopy\n  dup2\n  dup2\n  add\n  0x40\n  mstore\n  dup2\n  add\n  swap1\n  tag_5\n  swap2\n  swap1\n  tag_6\n  jump\t// in\ntag_5:\n    /* \"@openzeppelin/contracts/token/ERC20/ERC20.sol\":1980:2093  constructor(string memory name_, string memory symbol_) {... */\n  mload(0x40)\n  dup1\n  0x40\n  add\n  0x40\n  mstore\n  dup1\n  0x0d\n  dup2\n  mstore\n  0x20\n  add\n  0x43727970746f4d6f6e7374657200000000000000000000000000000000000000\n  dup2\n  mstore\n  pop\n  mload(0x40)\n  dup1\n  0x40\n  add\n  0x40\n  mstore\n  dup1\n  0x04\n  dup2\n  mstore\n  0x20\n  add\n  0x434d4f4e00000000000000000000000000000000000000000000000000000000\n  dup2\n  mstore\n  pop\n    /* \"@openzeppelin/contracts/token/ERC20/ERC20.sol\":2054:2059  name_ */\n  dup2\n    /* \"@openzeppelin/contracts/token/ERC20/ERC20.sol\":2046:2051  _name */\n  0x03\n    /* \"@openzeppelin/contracts/token/ERC20/ERC20.sol\":2046:2059  _name = name_ */\n  swap1\n  dup2\n  tag_10\n  swap2\n  swap1\n  tag_11\n  jump\t// in\ntag_10:\n  pop\n    /* \"@openzeppelin/contracts/token/ERC20/ERC20.sol\":2079:2086  symbol_ */\n  dup1\n    /* \"@openzeppelin/contracts/token/ERC20/ERC20.sol\":2069:2076  _symbol */\n  0x04\n    /* \"@openzeppelin/contracts/token/ERC20/ERC20.sol\":2069:2086  _symbol = symbol_ */\n  swap1\n  dup2\n  tag_12\n  swap2\n  swap1\n  tag_11\n  jump\t// in\ntag_12:\n  pop\n    /* \"@openzeppelin/contracts/token/ERC20/ERC20.sol\":1980:2093  constructor(string memory name_, string memory symbol_) {... */\n  pop\n  pop\n    /* \"cryptoMonster.sol\":2106:2152  _mint(msg.sender, 10000000 * 10 ** decimals()) */\n  tag_14\n    /* \"cryptoMonster.sol\":2112:2122  msg.sender */\n  caller\n    /* \"cryptoMonster.sol\":2141:2151  decimals() */\n  tag_15\n    /* \"cryptoMonster.sol\":2141:2149  decimals */\n  shl(0x20, tag_16)\n    /* \"cryptoMonster.sol\":2141:2151  decimals() */\n  0x20\n  shr\n  jump\t// in\ntag_15:\n    /* \"cryptoMonster.sol\":2135:2137  10 */\n  0x0a\n    /* \"cryptoMonster.sol\":2135:2151  10 ** decimals() */\n  tag_17\n  swap2\n  swap1\n  tag_18\n  jump\t// in\ntag_17:\n    /* \"cryptoMonster.sol\":2124:2132  10000000 */\n  0x989680\n    /* \"cryptoMonster.sol\":2124:2151  10000000 * 10 ** decimals() */\n  tag_19\n  swap2\n  swap1\n  tag_20\n  jump\t// in\ntag_19:\n    /* \"cryptoMonster.sol\":2106:2111  _mint */\n  shl(0x20, tag_21)\n    /* \"cryptoMonster.sol\":2106:2152  _mint(msg.sender, 10000000 * 10 ** decimals()) */\n  0x20\n  shr\n  jump\t// in\ntag_14:\n    /* \"cryptoMonster.sol\":2178:2188  phase.Seed */\n  0x00\n    /* \"cryptoMonster.sol\":2163:2175  currentPhase */\n  0x05\n  0x00\n    /* \"cryptoMonster.sol\":2163:2188  currentPhase = phase.Seed */\n  0x0100\n  exp\n  dup2\n  sload\n  dup2\n  0xff\n  mul\n  not\n  and\n  swap1\n  dup4\n  0x02\n  dup2\n  gt\n  iszero\n  tag_22\n  jumpi\n  tag_23\n  tag_3\n  jump\t// in\ntag_23:\ntag_22:\n  mul\n  or\n  swap1\n  sstore\n  pop\n    /* \"cryptoMonster.sol\":2217:2226  provider1 */\n  dup5\n    /* \"cryptoMonster.sol\":2199:2214  privateProvider */\n  0x0d\n  0x00\n    /* \"cryptoMonster.sol\":2199:2226  privateProvider = provider1 */\n  0x0100\n  exp\n  dup2\n  sload\n  dup2\n  0xffffffffffffffffffffffffffffffffffffffff\n  mul\n  not\n  and\n  swap1\n  dup4\n  0xffffffffffffffffffffffffffffffffffffffff\n  and\n  mul\n  or\n  swap1\n  sstore\n  pop\n    /* \"cryptoMonster.sol\":2254:2263  provider2 */\n  dup4\n    /* \"cryptoMonster.sol\":2237:2251  publicProvider */\n  0x0e\n  0x00\n    /* \"cryptoMonster.sol\":2237:2263  publicProvider = provider2 */\n  0x0100\n  exp\n  dup2\n  sload\n  dup2\n  0xffffffffffffffffffffffffffffffffffffffff\n  mul\n  not\n  and\n  swap1\n  dup4\n  0xffffffffffffffffffffffffffffffffffffffff\n  and\n  mul\n  or\n  swap1\n  sstore\n  pop\n    /* \"cryptoMonster.sol\":2304:2358  User(msg.sender, \"owner\", 10000000 * 10 ** decimals()) */\n  mload(0x40)\n  dup1\n  0x60\n  add\n  0x40\n  mstore\n  dup1\n    /* \"cryptoMonster.sol\":2309:2319  msg.sender */\n  caller\n    /* \"cryptoMonster.sol\":2304:2358  User(msg.sender, \"owner\", 10000000 * 10 ** decimals()) */\n  0xffffffffffffffffffffffffffffffffffffffff\n  and\n  dup2\n  mstore\n  0x20\n  add\n  mload(0x40)\n  dup1\n  0x40\n  add\n  0x40\n  mstore\n  dup1\n  0x05\n  dup2\n  mstore\n  0x20\n  add\n  0x6f776e6572000000000000000000000000000000000000000000000000000000\n  dup2\n  mstore\n  pop\n  dup2\n  mstore\n  0x20\n  add\n    /* \"cryptoMonster.sol\":2347:2357  decimals() */\n  tag_24\n    /* \"cryptoMonster.sol\":2347:2355  decimals */\n  shl(0x20, tag_16)\n    /* \"cryptoMonster.sol\":2347:2357  decimals() */\n  0x20\n  shr\n  jump\t// in\ntag_24:\n    /* \"cryptoMonster.sol\":2341:2343  10 */\n  0x0a\n    /* \"cryptoMonster.sol\":2341:2357  10 ** decimals() */\n  tag_25\n  swap2\n  swap1\n  tag_18\n  jump\t// in\ntag_25:\n    /* \"cryptoMonster.sol\":2330:2338  10000000 */\n  0x989680\n    /* \"cryptoMonster.sol\":2330:2357  10000000 * 10 ** decimals() */\n  tag_26\n  swap2\n  swap1\n  tag_20\n  jump\t// in\ntag_26:\n    /* \"cryptoMonster.sol\":2304:2358  User(msg.sender, \"owner\", 10000000 * 10 ** decimals()) */\n  dup2\n  mstore\n  pop\n    /* \"cryptoMonster.sol\":2276:2289  addressToUser */\n  0x0f\n    /* \"cryptoMonster.sol\":2276:2301  addressToUser[msg.sender] */\n  0x00\n    /* \"cryptoMonster.sol\":2290:2300  msg.sender */\n  caller\n    /* \"cryptoMonster.sol\":2276:2301  addressToUser[msg.sender] */\n  0xffffffffffffffffffffffffffffffffffffffff\n  and\n  0xffffffffffffffffffffffffffffffffffffffff\n  and\n  dup2\n  mstore\n  0x20\n  add\n  swap1\n  dup2\n  mstore\n  0x20\n  add\n  0x00\n  keccak256\n    /* \"cryptoMonster.sol\":2276:2358  addressToUser[msg.sender] = User(msg.sender, \"owner\", 10000000 * 10 ** decimals()) */\n  0x00\n  dup3\n  add\n  mload\n  dup2\n  0x00\n  add\n  exp(0x0100, 0x00)\n  dup2\n  sload\n  dup2\n  0xffffffffffffffffffffffffffffffffffffffff\n  mul\n  not\n  and\n  swap1\n  dup4\n  0xffffffffffffffffffffffffffffffffffffffff\n  and\n  mul\n  or\n  swap1\n  sstore\n  pop\n  0x20\n  dup3\n  add\n  mload\n  dup2\n  0x01\n  add\n  swap1\n  dup2\n  tag_27\n  swap2\n  swap1\n  tag_11\n  jump\t// in\ntag_27:\n  pop\n  0x40\n  dup3\n  add\n  mload\n  dup2\n  0x02\n  add\n  sstore\n  swap1\n  pop\n  pop\n    /* \"cryptoMonster.sol\":2396:2427  User(provider1, \"provider1\", 0) */\n  mload(0x40)\n  dup1\n  0x60\n  add\n  0x40\n  mstore\n  dup1\n    /* \"cryptoMonster.sol\":2401:2410  provider1 */\n  dup7\n    /* \"cryptoMonster.sol\":2396:2427  User(provider1, \"provider1\", 0) */\n  0xffffffffffffffffffffffffffffffffffffffff\n  and\n  dup2\n  mstore\n  0x20\n  add\n  mload(0x40)\n  dup1\n  0x40\n  add\n  0x40\n  mstore\n  dup1\n  0x09\n  dup2\n  mstore\n  0x20\n  add\n  0x70726f7669646572310000000000000000000000000000000000000000000000\n  dup2\n  mstore\n  pop\n  dup2\n  mstore\n  0x20\n  add\n    /* \"cryptoMonster.sol\":2425:2426  0 */\n  0x00\n    /* \"cryptoMonster.sol\":2396:2427  User(provider1, \"provider1\", 0) */\n  dup2\n  mstore\n  pop\n    /* \"cryptoMonster.sol\":2369:2382  addressToUser */\n  0x0f\n    /* \"cryptoMonster.sol\":2369:2393  addressToUser[provider1] */\n  0x00\n    /* \"cryptoMonster.sol\":2383:2392  provider1 */\n  dup8\n    /* \"cryptoMonster.sol\":2369:2393  addressToUser[provider1] */\n  0xffffffffffffffffffffffffffffffffffffffff\n  and\n  0xffffffffffffffffffffffffffffffffffffffff\n  and\n  dup2\n  mstore\n  0x20\n  add\n  swap1\n  dup2\n  mstore\n  0x20\n  add\n  0x00\n  keccak256\n    /* \"cryptoMonster.sol\":2369:2427  addressToUser[provider1] = User(provider1, \"provider1\", 0) */\n  0x00\n  dup3\n  add\n  mload\n  dup2\n  0x00\n  add\n  exp(0x0100, 0x00)\n  dup2\n  sload\n  dup2\n  0xffffffffffffffffffffffffffffffffffffffff\n  mul\n  not\n  and\n  swap1\n  dup4\n  0xffffffffffffffffffffffffffffffffffffffff\n  and\n  mul\n  or\n  swap1\n  sstore\n  pop\n  0x20\n  dup3\n  add\n  mload\n  dup2\n  0x01\n  add\n  swap1\n  dup2\n  tag_28\n  swap2\n  swap1\n  tag_11\n  jump\t// in\ntag_28:\n  pop\n  0x40\n  dup3\n  add\n  mload\n  dup2\n  0x02\n  add\n  sstore\n  swap1\n  pop\n  pop\n    /* \"cryptoMonster.sol\":2465:2496  User(provider2, \"provider2\", 0) */\n  mload(0x40)\n  dup1\n  0x60\n  add\n  0x40\n  mstore\n  dup1\n    /* \"cryptoMonster.sol\":2470:2479  provider2 */\n  dup6\n    /* \"cryptoMonster.sol\":2465:2496  User(provider2, \"provider2\", 0) */\n  0xffffffffffffffffffffffffffffffffffffffff\n  and\n  dup2\n  mstore\n  0x20\n  add\n  mload(0x40)\n  dup1\n  0x40\n  add\n  0x40\n  mstore\n  dup1\n  0x09\n  dup2\n  mstore\n  0x20\n  add\n  0x70726f7669646572320000000000000000000000000000000000000000000000\n  dup2\n  mstore\n  pop\n  dup2\n  mstore\n  0x20\n  add\n    /* \"cryptoMonster.sol\":2494:2495  0 */\n  0x00\n    /* \"cryptoMonster.sol\":2465:2496  User(provider2, \"provider2\", 0) */\n  dup2\n  mstore\n  pop\n    /* \"cryptoMonster.sol\":2438:2451  addressToUser */\n  0x0f\n    /* \"cryptoMonster.sol\":2438:2462  addressToUser[provider2] */\n  0x00\n    /* \"cryptoMonster.sol\":2452:2461  provider2 */\n  dup7\n    /* \"cryptoMonster.sol\":2438:2462  addressToUser[provider2] */\n  0xffffffffffffffffffffffffffffffffffffffff\n  and\n  0xffffffffffffffffffffffffffffffffffffffff\n  and\n  dup2\n  mstore\n  0x20\n  add\n  swap1\n  dup2\n  mstore\n  0x20\n  add\n  0x00\n  keccak256\n    /* \"cryptoMonster.sol\":2438:2496  addressToUser[provider2] = User(provider2, \"provider2\", 0) */\n  0x00\n  dup3\n  add\n  mload\n  dup2\n  0x00\n  add\n  exp(0x0100, 0x00)\n  dup2\n  sload\n  dup2\n  0xffffffffffffffffffffffffffffffffffffffff\n  mul\n  not\n  and\n  swap1\n  dup4\n  0xffffffffffffffffffffffffffffffffffffffff\n  and\n  mul\n  or\n  swap1\n  sstore\n  pop\n  0x20\n  dup3\n  add\n  mload\n  dup2\n  0x01\n  add\n  swap1\n  dup2\n  tag_29\n  swap2\n  swap1\n  tag_11\n  jump\t// in\ntag_29:\n  pop\n  0x40\n  dup3\n  add\n  mload\n  dup2\n  0x02\n  add\n  sstore\n  swap1\n  pop\n  pop\n    /* \"cryptoMonster.sol\":2534:2565  User(investor1, \"investor1\", 0) */\n  mload(0x40)\n  dup1\n  0x60\n  add\n  0x40\n  mstore\n  dup1\n    /* \"cryptoMonster.sol\":2539:2548  investor1 */\n  dup5\n    /* \"cryptoMonster.sol\":2534:2565  User(investor1, \"investor1\", 0) */\n  0xffffffffffffffffffffffffffffffffffffffff\n  and\n  dup2\n  mstore\n  0x20\n  add\n  mload(0x40)\n  dup1\n  0x40\n  add\n  0x40\n  mstore\n  dup1\n  0x09\n  dup2\n  mstore\n  0x20\n  add\n  0x696e766573746f72310000000000000000000000000000000000000000000000\n  dup2\n  mstore\n  pop\n  dup2\n  mstore\n  0x20\n  add\n    /* \"cryptoMonster.sol\":2563:2564  0 */\n  0x00\n    /* \"cryptoMonster.sol\":2534:2565  User(investor1, \"investor1\", 0) */\n  dup2\n  mstore\n  pop\n    /* \"cryptoMonster.sol\":2507:2520  addressToUser */\n  0x0f\n    /* \"cryptoMonster.sol\":2507:2531  addressToUser[investor1] */\n  0x00\n    /* \"cryptoMonster.sol\":2521:2530  investor1 */\n  dup6\n    /* \"cryptoMonster.sol\":2507:2531  addressToUser[investor1] */\n  0xffffffffffffffffffffffffffffffffffffffff\n  and\n  0xffffffffffffffffffffffffffffffffffffffff\n  and\n  dup2\n  mstore\n  0x20\n  add\n  swap1\n  dup2\n  mstore\n  0x20\n  add\n  0x00\n  keccak256\n    /* \"cryptoMonster.sol\":2507:2565  addressToUser[investor1] = User(investor1, \"investor1\", 0) */\n  0x00\n  dup3\n  add\n  mload\n  dup2\n  0x00\n  add\n  exp(0x0100, 0x00)\n  dup2\n  sload\n  dup2\n  0xffffffffffffffffffffffffffffffffffffffff\n  mul\n  not\n  and\n  swap1\n  dup4\n  0xffffffffffffffffffffffffffffffffffffffff\n  and\n  mul\n  or\n  swap1\n  sstore\n  pop\n  0x20\n  dup3\n  add\n  mload\n  dup2\n  0x01\n  add\n  swap1\n  dup2\n  tag_30\n  swap2\n  swap1\n  tag_11\n  jump\t// in\ntag_30:\n  pop\n  0x40\n  dup3\n  add\n  mload\n  dup2\n  0x02\n  add\n  sstore\n  swap1\n  pop\n  pop\n    /* \"cryptoMonster.sol\":2603:2634  User(investor2, \"investor2\", 0) */\n  mload(0x40)\n  dup1\n  0x60\n  add\n  0x40\n  mstore\n  dup1\n    /* \"cryptoMonster.sol\":2608:2617  investor2 */\n  dup4\n    /* \"cryptoMonster.sol\":2603:2634  User(investor2, \"investor2\", 0) */\n  0xffffffffffffffffffffffffffffffffffffffff\n  and\n  dup2\n  mstore\n  0x20\n  add\n  mload(0x40)\n  dup1\n  0x40\n  add\n  0x40\n  mstore\n  dup1\n  0x09\n  dup2\n  mstore\n  0x20\n  add\n  0x696e766573746f72320000000000000000000000000000000000000000000000\n  dup2\n  mstore\n  pop\n  dup2\n  mstore\n  0x20\n  add\n    /* \"cryptoMonster.sol\":2632:2633  0 */\n  0x00\n    /* \"cryptoMonster.sol\":2603:2634  User(investor2, \"investor2\", 0) */\n  dup2\n  mstore\n  pop\n    /* \"cryptoMonster.sol\":2576:2589  addressToUser */\n  0x0f\n    /* \"cryptoMonster.sol\":2576:2600  addressToUser[investor2] */\n  0x00\n    /* \"cryptoMonster.sol\":2590:2599  investor2 */\n  dup5\n    /* \"cryptoMonster.sol\":2576:2600  addressToUser[investor2] */\n  0xffffffffffffffffffffffffffffffffffffffff\n  and\n  0xffffffffffffffffffffffffffffffffffffffff\n  and\n  dup2\n  mstore\n  0x20\n  add\n  swap1\n  dup2\n  mstore\n  0x20\n  add\n  0x00\n  keccak256\n    /* \"cryptoMonster.sol\":2576:2634  addressToUser[investor2] = User(investor2, \"investor2\", 0) */\n  0x00\n  dup3\n  add\n  mload\n  dup2\n  0x00\n  add\n  exp(0x0100, 0x00)\n  dup2\n  sload\n  dup2\n  0xffffffffffffffffffffffffffffffffffffffff\n  mul\n  not\n  and\n  swap1\n  dup4\n  0xffffffffffffffffffffffffffffffffffffffff\n  and\n  mul\n  or\n  swap1\n  sstore\n  pop\n  0x20\n  dup3\n  add\n  mload\n  dup2\n  0x01\n  add\n  swap1\n  dup2\n  tag_31\n  swap2\n  swap1\n  tag_11\n  jump\t// in\ntag_31:\n  pop\n  0x40\n  dup3\n  add\n  mload\n  dup2\n  0x02\n  add\n  sstore\n  swap1\n  pop\n  pop\n    /* \"cryptoMonster.sol\":2673:2706  User(bestFriend, \"bestFriend\", 0) */\n  mload(0x40)\n  dup1\n  0x60\n  add\n  0x40\n  mstore\n  dup1\n    /* \"cryptoMonster.sol\":2678:2688  bestFriend */\n  dup3\n    /* \"cryptoMonster.sol\":2673:2706  User(bestFriend, \"bestFriend\", 0) */\n  0xffffffffffffffffffffffffffffffffffffffff\n  and\n  dup2\n  mstore\n  0x20\n  add\n  mload(0x40)\n  dup1\n  0x40\n  add\n  0x40\n  mstore\n  dup1\n  0x0a\n  dup2\n  mstore\n  0x20\n  add\n  0x62657374467269656e6400000000000000000000000000000000000000000000\n  dup2\n  mstore\n  pop\n  dup2\n  mstore\n  0x20\n  add\n    /* \"cryptoMonster.sol\":2704:2705  0 */\n  0x00\n    /* \"cryptoMonster.sol\":2673:2706  User(bestFriend, \"bestFriend\", 0) */\n  dup2\n  mstore\n  pop\n    /* \"cryptoMonster.sol\":2645:2658  addressToUser */\n  0x0f\n    /* \"cryptoMonster.sol\":2645:2670  addressToUser[bestFriend] */\n  0x00\n    /* \"cryptoMonster.sol\":2659:2669  bestFriend */\n  dup4\n    /* \"cryptoMonster.sol\":2645:2670  addressToUser[bestFriend] */\n  0xffffffffffffffffffffffffffffffffffffffff\n  and\n  0xffffffffffffffffffffffffffffffffffffffff\n  and\n  dup2\n  mstore\n  0x20\n  add\n  swap1\n  dup2\n  mstore\n  0x20\n  add\n  0x00\n  keccak256\n    /* \"cryptoMonster.sol\":2645:2706  addressToUser[bestFriend] = User(bestFriend, \"bestFriend\", 0) */\n  0x00\n  dup3\n  add\n  mload\n  dup2\n  0x00\n  add\n  exp(0x0100, 0x00)\n  dup2\n  sload\n  dup2\n  0xffffffffffffffffffffffffffffffffffffffff\n  mul\n  not\n  and\n  swap1\n  dup4\n  0xffffffffffffffffffffffffffffffffffffffff\n  and\n  mul\n  or\n  swap1\n  sstore\n  pop\n  0x20\n  dup3\n  add\n  mload\n  dup2\n  0x01\n  add\n  swap1\n  dup2\n  tag_32\n  swap2\n  swap1\n  tag_11\n  jump\t// in\ntag_32:\n  pop\n  0x40\n  dup3\n  add\n  mload\n  dup2\n  0x02\n  add\n  sstore\n  swap1\n  pop\n  pop\n    /* \"cryptoMonster.sol\":2719:2765  transfer(investor1, 300000 * 10 ** decimals()) */\n  tag_33\n    /* \"cryptoMonster.sol\":2728:2737  investor1 */\n  dup4\n    /* \"cryptoMonster.sol\":2754:2764  decimals() */\n  tag_34\n    /* \"cryptoMonster.sol\":2754:2762  decimals */\n  shl(0x20, tag_16)\n    /* \"cryptoMonster.sol\":2754:2764  decimals() */\n  0x20\n  shr\n  jump\t// in\ntag_34:\n    /* \"cryptoMonster.sol\":2748:2750  10 */\n  0x0a\n    /* \"cryptoMonster.sol\":2748:2764  10 ** decimals() */\n  tag_35\n  swap2\n  swap1\n  tag_18\n  jump\t// in\ntag_35:\n    /* \"cryptoMonster.sol\":2739:2745  300000 */\n  0x0493e0\n    /* \"cryptoMonster.sol\":2739:2764  300000 * 10 ** decimals() */\n  tag_36\n  swap2\n  swap1\n  tag_20\n  jump\t// in\ntag_36:\n    /* \"cryptoMonster.sol\":2719:2727  transfer */\n  shl(0x20, tag_37)\n    /* \"cryptoMonster.sol\":2719:2765  transfer(investor1, 300000 * 10 ** decimals()) */\n  0x20\n  shr\n  jump\t// in\ntag_33:\n  pop\n    /* \"cryptoMonster.sol\":2776:2822  transfer(investor2, 400000 * 10 ** decimals()) */\n  tag_38\n    /* \"cryptoMonster.sol\":2785:2794  investor2 */\n  dup3\n    /* \"cryptoMonster.sol\":2811:2821  decimals() */\n  tag_39\n    /* \"cryptoMonster.sol\":2811:2819  decimals */\n  shl(0x20, tag_16)\n    /* \"cryptoMonster.sol\":2811:2821  decimals() */\n  0x20\n  shr\n  jump\t// in\ntag_39:\n    /* \"cryptoMonster.sol\":2805:2807  10 */\n  0x0a\n    /* \"cryptoMonster.sol\":2805:2821  10 ** decimals() */\n  tag_40\n  swap2\n  swap1\n  tag_18\n  jump\t// in\ntag_40:\n    /* \"cryptoMonster.sol\":2796:2802  400000 */\n  0x061a80\n    /* \"cryptoMonster.sol\":2796:2821  400000 * 10 ** decimals() */\n  tag_41\n  swap2\n  swap1\n  tag_20\n  jump\t// in\ntag_41:\n    /* \"cryptoMonster.sol\":2776:2784  transfer */\n  shl(0x20, tag_37)\n    /* \"cryptoMonster.sol\":2776:2822  transfer(investor2, 400000 * 10 ** decimals()) */\n  0x20\n  shr\n  jump\t// in\ntag_38:\n  pop\n    /* \"cryptoMonster.sol\":2833:2880  transfer(bestFriend, 200000 * 10 ** decimals()) */\n  tag_42\n    /* \"cryptoMonster.sol\":2842:2852  bestFriend */\n  dup2\n    /* \"cryptoMonster.sol\":2869:2879  decimals() */\n  tag_43\n    /* \"cryptoMonster.sol\":2869:2877  decimals */\n  shl(0x20, tag_16)\n    /* \"cryptoMonster.sol\":2869:2879  decimals() */\n  0x20\n  shr\n  jump\t// in\ntag_43:\n    /* \"cryptoMonster.sol\":2863:2865  10 */\n  0x0a\n    /* \"cryptoMonster.sol\":2863:2879  10 ** decimals() */\n  tag_44\n  swap2\n  swap1\n  tag_18\n  jump\t// in\ntag_44:\n    /* \"cryptoMonster.sol\":2854:2860  200000 */\n  0x030d40\n    /* \"cryptoMonster.sol\":2854:2879  200000 * 10 ** decimals() */\n  tag_45\n  swap2\n  swap1\n  tag_20\n  jump\t// in\ntag_45:\n    /* \"cryptoMonster.sol\":2833:2841  transfer */\n  shl(0x20, tag_37)\n    /* \"cryptoMonster.sol\":2833:2880  transfer(bestFriend, 200000 * 10 ** decimals()) */\n  0x20\n  shr\n  jump\t// in\ntag_42:\n  pop\n    /* \"cryptoMonster.sol\":1930:2888  constructor (... */\n  pop\n  pop\n  pop\n  pop\n  pop\n    /* \"cryptoMonster.sol\":128:5579  contract cryptoMonster is ERC20(\"CryptoMonster\", \"CMON\") {... */\n  jump(tag_46)\n    /* \"cryptoMonster.sol\":3165:3250  function decimals() public pure override returns (uint8) {... */\ntag_16:\n    /* \"cryptoMonster.sol\":3215:3220  uint8 */\n  0x00\n    /* \"cryptoMonster.sol\":3240:3242  12 */\n  0x0c\n    /* \"cryptoMonster.sol\":3233:3242  return 12 */\n  swap1\n  pop\n    /* \"cryptoMonster.sol\":3165:3250  function decimals() public pure override returns (uint8) {... */\n  swap1\n  jump\t// out\n    /* \"@openzeppelin/contracts/token/ERC20/ERC20.sol\":8520:9055  function _mint(address account, uint256 amount) internal virtual {... */\ntag_21:\n    /* \"@openzeppelin/contracts/token/ERC20/ERC20.sol\":8622:8623  0 */\n  0x00\n    /* \"@openzeppelin/contracts/token/ERC20/ERC20.sol\":8603:8624  account != address(0) */\n  0xffffffffffffffffffffffffffffffffffffffff\n  and\n    /* \"@openzeppelin/contracts/token/ERC20/ERC20.sol\":8603:8610  account */\n  dup3\n    /* \"@openzeppelin/contracts/token/ERC20/ERC20.sol\":8603:8624  account != address(0) */\n  0xffffffffffffffffffffffffffffffffffffffff\n  and\n  sub\n    /* \"@openzeppelin/contracts/token/ERC20/ERC20.sol\":8595:8660  require(account != address(0), \"ERC20: mint to the zero address\") */\n  tag_49\n  jumpi\n  mload(0x40)\n  0x08c379a000000000000000000000000000000000000000000000000000000000\n  dup2\n  mstore\n  0x04\n  add\n  tag_50\n  swap1\n  tag_51\n  jump\t// in\ntag_50:\n  mload(0x40)\n  dup1\n  swap2\n  sub\n  swap1\n  revert\ntag_49:\n    /* \"@openzeppelin/contracts/token/ERC20/ERC20.sol\":8671:8720  _beforeTokenTransfer(address(0), account, amount) */\n  tag_52\n    /* \"@openzeppelin/contracts/token/ERC20/ERC20.sol\":8700:8701  0 */\n  0x00\n    /* \"@openzeppelin/contracts/token/ERC20/ERC20.sol\":8704:8711  account */\n  dup4\n    /* \"@openzeppelin/contracts/token/ERC20/ERC20.sol\":8713:8719  amount */\n  dup4\n    /* \"@openzeppelin/contracts/token/ERC20/ERC20.sol\":8671:8691  _beforeTokenTransfer */\n  shl(0x20, tag_53)\n    /* \"@openzeppelin/contracts/token/ERC20/ERC20.sol\":8671:8720  _beforeTokenTransfer(address(0), account, amount) */\n  0x20\n  shr\n  jump\t// in\ntag_52:\n    /* \"@openzeppelin/contracts/token/ERC20/ERC20.sol\":8747:8753  amount */\n  dup1\n    /* \"@openzeppelin/contracts/token/ERC20/ERC20.sol\":8731:8743  _totalSupply */\n  0x02\n  0x00\n    /* \"@openzeppelin/contracts/token/ERC20/ERC20.sol\":8731:8753  _totalSupply += amount */\n  dup3\n  dup3\n  sload\n  tag_54\n  swap2\n  swap1\n  tag_55\n  jump\t// in\ntag_54:\n  swap3\n  pop\n  pop\n  dup2\n  swap1\n  sstore\n  pop\n    /* \"@openzeppelin/contracts/token/ERC20/ERC20.sol\":8921:8927  amount */\n  dup1\n    /* \"@openzeppelin/contracts/token/ERC20/ERC20.sol\":8899:8908  _balances */\n  0x00\n    /* \"@openzeppelin/contracts/token/ERC20/ERC20.sol\":8899:8917  _balances[account] */\n  dup1\n    /* \"@openzeppelin/contracts/token/ERC20/ERC20.sol\":8909:8916  account */\n  dup5\n    /* \"@openzeppelin/contracts/token/ERC20/ERC20.sol\":8899:8917  _balances[account] */\n  0xffffffffffffffffffffffffffffffffffffffff\n  and\n  0xffffffffffffffffffffffffffffffffffffffff\n  and\n  dup2\n  mstore\n  0x20\n  add\n  swap1\n  dup2\n  mstore\n  0x20\n  add\n  0x00\n  keccak256\n  0x00\n    /* \"@openzeppelin/contracts/token/ERC20/ERC20.sol\":8899:8927  _balances[account] += amount */\n  dup3\n  dup3\n  sload\n  add\n  swap3\n  pop\n  pop\n  dup2\n  swap1\n  sstore\n  pop\n    /* \"@openzeppelin/contracts/token/ERC20/ERC20.sol\":8973:8980  account */\n  dup2\n    /* \"@openzeppelin/contracts/token/ERC20/ERC20.sol\":8952:8989  Transfer(address(0), account, amount) */\n  0xffffffffffffffffffffffffffffffffffffffff\n  and\n    /* \"@openzeppelin/contracts/token/ERC20/ERC20.sol\":8969:8970  0 */\n  0x00\n    /* \"@openzeppelin/contracts/token/ERC20/ERC20.sol\":8952:8989  Transfer(address(0), account, amount) */\n  0xffffffffffffffffffffffffffffffffffffffff\n  and\n  0xddf252ad1be2c89b69c2b068fc378daa952ba7f163c4a11628f55a4df523b3ef\n    /* \"@openzeppelin/contracts/token/ERC20/ERC20.sol\":8982:8988  amount */\n  dup4\n    /* \"@openzeppelin/contracts/token/ERC20/ERC20.sol\":8952:8989  Transfer(address(0), account, amount) */\n  mload(0x40)\n  tag_56\n  swap2\n  swap1\n  tag_57\n  jump\t// in\ntag_56:\n  mload(0x40)\n  dup1\n  swap2\n  sub\n  swap1\n  log3\n    /* \"@openzeppelin/contracts/token/ERC20/ERC20.sol\":9000:9048  _afterTokenTransfer(address(0), account, amount) */\n  tag_58\n    /* \"@openzeppelin/contracts/token/ERC20/ERC20.sol\":9028:9029  0 */\n  0x00\n    /* \"@openzeppelin/contracts/token/ERC20/ERC20.sol\":9032:9039  account */\n  dup4\n    /* \"@openzeppelin/contracts/token/ERC20/ERC20.sol\":9041:9047  amount */\n  dup4\n    /* \"@openzeppelin/contracts/token/ERC20/ERC20.sol\":9000:9019  _afterTokenTransfer */\n  shl(0x20, tag_59)\n    /* \"@openzeppelin/contracts/token/ERC20/ERC20.sol\":9000:9048  _afterTokenTransfer(address(0), account, amount) */\n  0x20\n  shr\n  jump\t// in\ntag_58:\n    /* \"@openzeppelin/contracts/token/ERC20/ERC20.sol\":8520:9055  function _mint(address account, uint256 amount) internal virtual {... */\n  pop\n  pop\n  jump\t// out\n    /* \"@openzeppelin/contracts/token/ERC20/ERC20.sol\":3740:3929  function transfer(address to, uint256 amount) public virtual override returns (bool) {... */\ntag_37:\n    /* \"@openzeppelin/contracts/token/ERC20/ERC20.sol\":3819:3823  bool */\n  0x00\n    /* \"@openzeppelin/contracts/token/ERC20/ERC20.sol\":3835:3848  address owner */\n  dup1\n    /* \"@openzeppelin/contracts/token/ERC20/ERC20.sol\":3851:3863  _msgSender() */\n  tag_61\n    /* \"@openzeppelin/contracts/token/ERC20/ERC20.sol\":3851:3861  _msgSender */\n  shl(0x20, tag_62)\n    /* \"@openzeppelin/contracts/token/ERC20/ERC20.sol\":3851:3863  _msgSender() */\n  0x20\n  shr\n  jump\t// in\ntag_61:\n    /* \"@openzeppelin/contracts/token/ERC20/ERC20.sol\":3835:3863  address owner = _msgSender() */\n  swap1\n  pop\n    /* \"@openzeppelin/contracts/token/ERC20/ERC20.sol\":3873:3901  _transfer(owner, to, amount) */\n  tag_63\n    /* \"@openzeppelin/contracts/token/ERC20/ERC20.sol\":3883:3888  owner */\n  dup2\n    /* \"@openzeppelin/contracts/token/ERC20/ERC20.sol\":3890:3892  to */\n  dup6\n    /* \"@openzeppelin/contracts/token/ERC20/ERC20.sol\":3894:3900  amount */\n  dup6\n    /* \"@openzeppelin/contracts/token/ERC20/ERC20.sol\":3873:3882  _transfer */\n  shl(0x20, tag_64)\n    /* \"@openzeppelin/contracts/token/ERC20/ERC20.sol\":3873:3901  _transfer(owner, to, amount) */\n  0x20\n  shr\n  jump\t// in\ntag_63:\n    /* \"@openzeppelin/contracts/token/ERC20/ERC20.sol\":3918:3922  true */\n  0x01\n    /* \"@openzeppelin/contracts/token/ERC20/ERC20.sol\":3911:3922  return true */\n  swap2\n  pop\n  pop\n    /* \"@openzeppelin/contracts/token/ERC20/ERC20.sol\":3740:3929  function transfer(address to, uint256 amount) public virtual override returns (bool) {... */\n  swap3\n  swap2\n  pop\n  pop\n  jump\t// out\n    /* \"@openzeppelin/contracts/token/ERC20/ERC20.sol\":12073:12164  function _beforeTokenTransfer(address from, address to, uint256 amount) internal virtual {} */\ntag_53:\n  pop\n  pop\n  pop\n  jump\t// out\n    /* \"@openzeppelin/contracts/token/ERC20/ERC20.sol\":12752:12842  function _afterTokenTransfer(address from, address to, uint256 amount) internal virtual {} */\ntag_59:\n  pop\n  pop\n  pop\n  jump\t// out\n    /* \"@openzeppelin/contracts/utils/Context.sol\":640:736  function _msgSender() internal view virtual returns (address) {... */\ntag_62:\n    /* \"@openzeppelin/contracts/utils/Context.sol\":693:700  address */\n  0x00\n    /* \"@openzeppelin/contracts/utils/Context.sol\":719:729  msg.sender */\n  caller\n    /* \"@openzeppelin/contracts/utils/Context.sol\":712:729  return msg.sender */\n  swap1\n  pop\n    /* \"@openzeppelin/contracts/utils/Context.sol\":640:736  function _msgSender() internal view virtual returns (address) {... */\n  swap1\n  jump\t// out\n    /* \"@openzeppelin/contracts/token/ERC20/ERC20.sol\":7456:8244  function _transfer(address from, address to, uint256 amount) internal virtual {... */\ntag_64:\n    /* \"@openzeppelin/contracts/token/ERC20/ERC20.sol\":7568:7569  0 */\n  0x00\n    /* \"@openzeppelin/contracts/token/ERC20/ERC20.sol\":7552:7570  from != address(0) */\n  0xffffffffffffffffffffffffffffffffffffffff\n  and\n    /* \"@openzeppelin/contracts/token/ERC20/ERC20.sol\":7552:7556  from */\n  dup4\n    /* \"@openzeppelin/contracts/token/ERC20/ERC20.sol\":7552:7570  from != address(0) */\n  0xffffffffffffffffffffffffffffffffffffffff\n  and\n  sub\n    /* \"@openzeppelin/contracts/token/ERC20/ERC20.sol\":7544:7612  require(from != address(0), \"ERC20: transfer from the zero address\") */\n  tag_69\n  jumpi\n  mload(0x40)\n  0x08c379a000000000000000000000000000000000000000000000000000000000\n  dup2\n  mstore\n  0x04\n  add\n  tag_70\n  swap1\n  tag_71\n  jump\t// in\ntag_70:\n  mload(0x40)\n  dup1\n  swap2\n  sub\n  swap1\n  revert\ntag_69:\n    /* \"@openzeppelin/contracts/token/ERC20/ERC20.sol\":7644:7645  0 */\n  0x00\n    /* \"@openzeppelin/contracts/token/ERC20/ERC20.sol\":7630:7646  to != address(0) */\n  0xffffffffffffffffffffffffffffffffffffffff\n  and\n    /* \"@openzeppelin/contracts/token/ERC20/ERC20.sol\":7630:7632  to */\n  dup3\n    /* \"@openzeppelin/contracts/token/ERC20/ERC20.sol\":7630:7646  to != address(0) */\n  0xffffffffffffffffffffffffffffffffffffffff\n  and\n  sub\n    /* \"@openzeppelin/contracts/token/ERC20/ERC20.sol\":7622:7686  require(to != address(0), \"ERC20: transfer to the zero address\") */\n  tag_72\n  jumpi\n  mload(0x40)\n  0x08c379a000000000000000000000000000000000000000000000000000000000\n  dup2\n  mstore\n  0x04\n  add\n  tag_73\n  swap1\n  tag_74\n  jump\t// in\ntag_73:\n  mload(0x40)\n  dup1\n  swap2\n  sub\n  swap1\n  revert\ntag_72:\n    /* \"@openzeppelin/contracts/token/ERC20/ERC20.sol\":7697:7735  _beforeTokenTransfer(from, to, amount) */\n  tag_75\n    /* \"@openzeppelin/contracts/token/ERC20/ERC20.sol\":7718:7722  from */\n  dup4\n    /* \"@openzeppelin/contracts/token/ERC20/ERC20.sol\":7724:7726  to */\n  dup4\n    /* \"@openzeppelin/contracts/token/ERC20/ERC20.sol\":7728:7734  amount */\n  dup4\n    /* \"@openzeppelin/contracts/token/ERC20/ERC20.sol\":7697:7717  _beforeTokenTransfer */\n  shl(0x20, tag_53)\n    /* \"@openzeppelin/contracts/token/ERC20/ERC20.sol\":7697:7735  _beforeTokenTransfer(from, to, amount) */\n  0x20\n  shr\n  jump\t// in\ntag_75:\n    /* \"@openzeppelin/contracts/token/ERC20/ERC20.sol\":7746:7765  uint256 fromBalance */\n  0x00\n    /* \"@openzeppelin/contracts/token/ERC20/ERC20.sol\":7768:7777  _balances */\n  dup1\n    /* \"@openzeppelin/contracts/token/ERC20/ERC20.sol\":7768:7783  _balances[from] */\n  0x00\n    /* \"@openzeppelin/contracts/token/ERC20/ERC20.sol\":7778:7782  from */\n  dup6\n    /* \"@openzeppelin/contracts/token/ERC20/ERC20.sol\":7768:7783  _balances[from] */\n  0xffffffffffffffffffffffffffffffffffffffff\n  and\n  0xffffffffffffffffffffffffffffffffffffffff\n  and\n  dup2\n  mstore\n  0x20\n  add\n  swap1\n  dup2\n  mstore\n  0x20\n  add\n  0x00\n  keccak256\n  sload\n    /* \"@openzeppelin/contracts/token/ERC20/ERC20.sol\":7746:7783  uint256 fromBalance = _balances[from] */\n  swap1\n  pop\n    /* \"@openzeppelin/contracts/token/ERC20/ERC20.sol\":7816:7822  amount */\n  dup2\n    /* \"@openzeppelin/contracts/token/ERC20/ERC20.sol\":7801:7812  fromBalance */\n  dup2\n    /* \"@openzeppelin/contracts/token/ERC20/ERC20.sol\":7801:7822  fromBalance >= amount */\n  lt\n  iszero\n    /* \"@openzeppelin/contracts/token/ERC20/ERC20.sol\":7793:7865  require(fromBalance >= amount, \"ERC20: transfer amount exceeds balance\") */\n  tag_76\n  jumpi\n  mload(0x40)\n  0x08c379a000000000000000000000000000000000000000000000000000000000\n  dup2\n  mstore\n  0x04\n  add\n  tag_77\n  swap1\n  tag_78\n  jump\t// in\ntag_77:\n  mload(0x40)\n  dup1\n  swap2\n  sub\n  swap1\n  revert\ntag_76:\n    /* \"@openzeppelin/contracts/token/ERC20/ERC20.sol\":7931:7937  amount */\n  dup2\n    /* \"@openzeppelin/contracts/token/ERC20/ERC20.sol\":7917:7928  fromBalance */\n  dup2\n    /* \"@openzeppelin/contracts/token/ERC20/ERC20.sol\":7917:7937  fromBalance - amount */\n  sub\n    /* \"@openzeppelin/contracts/token/ERC20/ERC20.sol\":7899:7908  _balances */\n  0x00\n    /* \"@openzeppelin/contracts/token/ERC20/ERC20.sol\":7899:7914  _balances[from] */\n  dup1\n    /* \"@openzeppelin/contracts/token/ERC20/ERC20.sol\":7909:7913  from */\n  dup7\n    /* \"@openzeppelin/contracts/token/ERC20/ERC20.sol\":7899:7914  _balances[from] */\n  0xffffffffffffffffffffffffffffffffffffffff\n  and\n  0xffffffffffffffffffffffffffffffffffffffff\n  and\n  dup2\n  mstore\n  0x20\n  add\n  swap1\n  dup2\n  mstore\n  0x20\n  add\n  0x00\n  keccak256\n    /* \"@openzeppelin/contracts/token/ERC20/ERC20.sol\":7899:7937  _balances[from] = fromBalance - amount */\n  dup2\n  swap1\n  sstore\n  pop\n    /* \"@openzeppelin/contracts/token/ERC20/ERC20.sol\":8131:8137  amount */\n  dup2\n    /* \"@openzeppelin/contracts/token/ERC20/ERC20.sol\":8114:8123  _balances */\n  0x00\n    /* \"@openzeppelin/contracts/token/ERC20/ERC20.sol\":8114:8127  _balances[to] */\n  dup1\n    /* \"@openzeppelin/contracts/token/ERC20/ERC20.sol\":8124:8126  to */\n  dup6\n    /* \"@openzeppelin/contracts/token/ERC20/ERC20.sol\":8114:8127  _balances[to] */\n  0xffffffffffffffffffffffffffffffffffffffff\n  and\n  0xffffffffffffffffffffffffffffffffffffffff\n  and\n  dup2\n  mstore\n  0x20\n  add\n  swap1\n  dup2\n  mstore\n  0x20\n  add\n  0x00\n  keccak256\n  0x00\n    /* \"@openzeppelin/contracts/token/ERC20/ERC20.sol\":8114:8137  _balances[to] += amount */\n  dup3\n  dup3\n  sload\n  add\n  swap3\n  pop\n  pop\n  dup2\n  swap1\n  sstore\n  pop\n    /* \"@openzeppelin/contracts/token/ERC20/ERC20.sol\":8178:8180  to */\n  dup3\n    /* \"@openzeppelin/contracts/token/ERC20/ERC20.sol\":8163:8189  Transfer(from, to, amount) */\n  0xffffffffffffffffffffffffffffffffffffffff\n  and\n    /* \"@openzeppelin/contracts/token/ERC20/ERC20.sol\":8172:8176  from */\n  dup5\n    /* \"@openzeppelin/contracts/token/ERC20/ERC20.sol\":8163:8189  Transfer(from, to, amount) */\n  0xffffffffffffffffffffffffffffffffffffffff\n  and\n  0xddf252ad1be2c89b69c2b068fc378daa952ba7f163c4a11628f55a4df523b3ef\n    /* \"@openzeppelin/contracts/token/ERC20/ERC20.sol\":8182:8188  amount */\n  dup5\n    /* \"@openzeppelin/contracts/token/ERC20/ERC20.sol\":8163:8189  Transfer(from, to, amount) */\n  mload(0x40)\n  tag_79\n  swap2\n  swap1\n  tag_57\n  jump\t// in\ntag_79:\n  mload(0x40)\n  dup1\n  swap2\n  sub\n  swap1\n  log3\n    /* \"@openzeppelin/contracts/token/ERC20/ERC20.sol\":8200:8237  _afterTokenTransfer(from, to, amount) */\n  tag_80\n    /* \"@openzeppelin/contracts/token/ERC20/ERC20.sol\":8220:8224  from */\n  dup5\n    /* \"@openzeppelin/contracts/token/ERC20/ERC20.sol\":8226:8228  to */\n  dup5\n    /* \"@openzeppelin/contracts/token/ERC20/ERC20.sol\":8230:8236  amount */\n  dup5\n    /* \"@openzeppelin/contracts/token/ERC20/ERC20.sol\":8200:8219  _afterTokenTransfer */\n  shl(0x20, tag_59)\n    /* \"@openzeppelin/contracts/token/ERC20/ERC20.sol\":8200:8237  _afterTokenTransfer(from, to, amount) */\n  0x20\n  shr\n  jump\t// in\ntag_80:\n    /* \"@openzeppelin/contracts/token/ERC20/ERC20.sol\":7534:8244  {... */\n  pop\n    /* \"@openzeppelin/contracts/token/ERC20/ERC20.sol\":7456:8244  function _transfer(address from, address to, uint256 amount) internal virtual {... */\n  pop\n  pop\n  pop\n  jump\t// out\n    /* \"#utility.yul\":7:187   */\ntag_3:\n    /* \"#utility.yul\":55:132   */\n  0x4e487b7100000000000000000000000000000000000000000000000000000000\n    /* \"#utility.yul\":52:53   */\n  0x00\n    /* \"#utility.yul\":45:133   */\n  mstore\n    /* \"#utility.yul\":152:156   */\n  0x21\n    /* \"#utility.yul\":149:150   */\n  0x04\n    /* \"#utility.yul\":142:157   */\n  mstore\n    /* \"#utility.yul\":176:180   */\n  0x24\n    /* \"#utility.yul\":173:174   */\n  0x00\n    /* \"#utility.yul\":166:181   */\n  revert\n    /* \"#utility.yul\":274:391   */\ntag_82:\n    /* \"#utility.yul\":383:384   */\n  0x00\n    /* \"#utility.yul\":380:381   */\n  dup1\n    /* \"#utility.yul\":373:385   */\n  revert\n    /* \"#utility.yul\":520:646   */\ntag_84:\n    /* \"#utility.yul\":557:564   */\n  0x00\n    /* \"#utility.yul\":597:639   */\n  0xffffffffffffffffffffffffffffffffffffffff\n    /* \"#utility.yul\":590:595   */\n  dup3\n    /* \"#utility.yul\":586:640   */\n  and\n    /* \"#utility.yul\":575:640   */\n  swap1\n  pop\n    /* \"#utility.yul\":520:646   */\n  swap2\n  swap1\n  pop\n  jump\t// out\n    /* \"#utility.yul\":652:748   */\ntag_85:\n    /* \"#utility.yul\":689:696   */\n  0x00\n    /* \"#utility.yul\":718:742   */\n  tag_130\n    /* \"#utility.yul\":736:741   */\n  dup3\n    /* \"#utility.yul\":718:742   */\n  tag_84\n  jump\t// in\ntag_130:\n    /* \"#utility.yul\":707:742   */\n  swap1\n  pop\n    /* \"#utility.yul\":652:748   */\n  swap2\n  swap1\n  pop\n  jump\t// out\n    /* \"#utility.yul\":754:876   */\ntag_86:\n    /* \"#utility.yul\":827:851   */\n  tag_132\n    /* \"#utility.yul\":845:850   */\n  dup2\n    /* \"#utility.yul\":827:851   */\n  tag_85\n  jump\t// in\ntag_132:\n    /* \"#utility.yul\":820:825   */\n  dup2\n    /* \"#utility.yul\":817:852   */\n  eq\n    /* \"#utility.yul\":807:870   */\n  tag_133\n  jumpi\n    /* \"#utility.yul\":866:867   */\n  0x00\n    /* \"#utility.yul\":863:864   */\n  dup1\n    /* \"#utility.yul\":856:868   */\n  revert\n    /* \"#utility.yul\":807:870   */\ntag_133:\n    /* \"#utility.yul\":754:876   */\n  pop\n  jump\t// out\n    /* \"#utility.yul\":882:1025   */\ntag_87:\n    /* \"#utility.yul\":939:944   */\n  0x00\n    /* \"#utility.yul\":970:976   */\n  dup2\n    /* \"#utility.yul\":964:977   */\n  mload\n    /* \"#utility.yul\":955:977   */\n  swap1\n  pop\n    /* \"#utility.yul\":986:1019   */\n  tag_135\n    /* \"#utility.yul\":1013:1018   */\n  dup2\n    /* \"#utility.yul\":986:1019   */\n  tag_86\n  jump\t// in\ntag_135:\n    /* \"#utility.yul\":882:1025   */\n  swap3\n  swap2\n  pop\n  pop\n  jump\t// out\n    /* \"#utility.yul\":1031:2008   */\ntag_6:\n    /* \"#utility.yul\":1137:1143   */\n  0x00\n    /* \"#utility.yul\":1145:1151   */\n  dup1\n    /* \"#utility.yul\":1153:1159   */\n  0x00\n    /* \"#utility.yul\":1161:1167   */\n  dup1\n    /* \"#utility.yul\":1169:1175   */\n  0x00\n    /* \"#utility.yul\":1218:1221   */\n  0xa0\n    /* \"#utility.yul\":1206:1215   */\n  dup7\n    /* \"#utility.yul\":1197:1204   */\n  dup9\n    /* \"#utility.yul\":1193:1216   */\n  sub\n    /* \"#utility.yul\":1189:1222   */\n  slt\n    /* \"#utility.yul\":1186:1306   */\n  iszero\n  tag_137\n  jumpi\n    /* \"#utility.yul\":1225:1304   */\n  tag_138\n  tag_82\n  jump\t// in\ntag_138:\n    /* \"#utility.yul\":1186:1306   */\ntag_137:\n    /* \"#utility.yul\":1345:1346   */\n  0x00\n    /* \"#utility.yul\":1370:1434   */\n  tag_139\n    /* \"#utility.yul\":1426:1433   */\n  dup9\n    /* \"#utility.yul\":1417:1423   */\n  dup3\n    /* \"#utility.yul\":1406:1415   */\n  dup10\n    /* \"#utility.yul\":1402:1424   */\n  add\n    /* \"#utility.yul\":1370:1434   */\n  tag_87\n  jump\t// in\ntag_139:\n    /* \"#utility.yul\":1360:1434   */\n  swap6\n  pop\n    /* \"#utility.yul\":1316:1444   */\n  pop\n    /* \"#utility.yul\":1483:1485   */\n  0x20\n    /* \"#utility.yul\":1509:1573   */\n  tag_140\n    /* \"#utility.yul\":1565:1572   */\n  dup9\n    /* \"#utility.yul\":1556:1562   */\n  dup3\n    /* \"#utility.yul\":1545:1554   */\n  dup10\n    /* \"#utility.yul\":1541:1563   */\n  add\n    /* \"#utility.yul\":1509:1573   */\n  tag_87\n  jump\t// in\ntag_140:\n    /* \"#utility.yul\":1499:1573   */\n  swap5\n  pop\n    /* \"#utility.yul\":1454:1583   */\n  pop\n    /* \"#utility.yul\":1622:1624   */\n  0x40\n    /* \"#utility.yul\":1648:1712   */\n  tag_141\n    /* \"#utility.yul\":1704:1711   */\n  dup9\n    /* \"#utility.yul\":1695:1701   */\n  dup3\n    /* \"#utility.yul\":1684:1693   */\n  dup10\n    /* \"#utility.yul\":1680:1702   */\n  add\n    /* \"#utility.yul\":1648:1712   */\n  tag_87\n  jump\t// in\ntag_141:\n    /* \"#utility.yul\":1638:1712   */\n  swap4\n  pop\n    /* \"#utility.yul\":1593:1722   */\n  pop\n    /* \"#utility.yul\":1761:1763   */\n  0x60\n    /* \"#utility.yul\":1787:1851   */\n  tag_142\n    /* \"#utility.yul\":1843:1850   */\n  dup9\n    /* \"#utility.yul\":1834:1840   */\n  dup3\n    /* \"#utility.yul\":1823:1832   */\n  dup10\n    /* \"#utility.yul\":1819:1841   */\n  add\n    /* \"#utility.yul\":1787:1851   */\n  tag_87\n  jump\t// in\ntag_142:\n    /* \"#utility.yul\":1777:1851   */\n  swap3\n  pop\n    /* \"#utility.yul\":1732:1861   */\n  pop\n    /* \"#utility.yul\":1900:1903   */\n  0x80\n    /* \"#utility.yul\":1927:1991   */\n  tag_143\n    /* \"#utility.yul\":1983:1990   */\n  dup9\n    /* \"#utility.yul\":1974:1980   */\n  dup3\n    /* \"#utility.yul\":1963:1972   */\n  dup10\n    /* \"#utility.yul\":1959:1981   */\n  add\n    /* \"#utility.yul\":1927:1991   */\n  tag_87\n  jump\t// in\ntag_143:\n    /* \"#utility.yul\":1917:1991   */\n  swap2\n  pop\n    /* \"#utility.yul\":1871:2001   */\n  pop\n    /* \"#utility.yul\":1031:2008   */\n  swap3\n  swap6\n  pop\n  swap3\n  swap6\n  swap1\n  swap4\n  pop\n  jump\t// out\n    /* \"#utility.yul\":2014:2113   */\ntag_88:\n    /* \"#utility.yul\":2066:2072   */\n  0x00\n    /* \"#utility.yul\":2100:2105   */\n  dup2\n    /* \"#utility.yul\":2094:2106   */\n  mload\n    /* \"#utility.yul\":2084:2106   */\n  swap1\n  pop\n    /* \"#utility.yul\":2014:2113   */\n  swap2\n  swap1\n  pop\n  jump\t// out\n    /* \"#utility.yul\":2119:2299   */\ntag_89:\n    /* \"#utility.yul\":2167:2244   */\n  0x4e487b7100000000000000000000000000000000000000000000000000000000\n    /* \"#utility.yul\":2164:2165   */\n  0x00\n    /* \"#utility.yul\":2157:2245   */\n  mstore\n    /* \"#utility.yul\":2264:2268   */\n  0x41\n    /* \"#utility.yul\":2261:2262   */\n  0x04\n    /* \"#utility.yul\":2254:2269   */\n  mstore\n    /* \"#utility.yul\":2288:2292   */\n  0x24\n    /* \"#utility.yul\":2285:2286   */\n  0x00\n    /* \"#utility.yul\":2278:2293   */\n  revert\n    /* \"#utility.yul\":2305:2485   */\ntag_90:\n    /* \"#utility.yul\":2353:2430   */\n  0x4e487b7100000000000000000000000000000000000000000000000000000000\n    /* \"#utility.yul\":2350:2351   */\n  0x00\n    /* \"#utility.yul\":2343:2431   */\n  mstore\n    /* \"#utility.yul\":2450:2454   */\n  0x22\n    /* \"#utility.yul\":2447:2448   */\n  0x04\n    /* \"#utility.yul\":2440:2455   */\n  mstore\n    /* \"#utility.yul\":2474:2478   */\n  0x24\n    /* \"#utility.yul\":2471:2472   */\n  0x00\n    /* \"#utility.yul\":2464:2479   */\n  revert\n    /* \"#utility.yul\":2491:2811   */\ntag_91:\n    /* \"#utility.yul\":2535:2541   */\n  0x00\n    /* \"#utility.yul\":2572:2573   */\n  0x02\n    /* \"#utility.yul\":2566:2570   */\n  dup3\n    /* \"#utility.yul\":2562:2574   */\n  div\n    /* \"#utility.yul\":2552:2574   */\n  swap1\n  pop\n    /* \"#utility.yul\":2619:2620   */\n  0x01\n    /* \"#utility.yul\":2613:2617   */\n  dup3\n    /* \"#utility.yul\":2609:2621   */\n  and\n    /* \"#utility.yul\":2640:2658   */\n  dup1\n    /* \"#utility.yul\":2630:2711   */\n  tag_148\n  jumpi\n    /* \"#utility.yul\":2696:2700   */\n  0x7f\n    /* \"#utility.yul\":2688:2694   */\n  dup3\n    /* \"#utility.yul\":2684:2701   */\n  and\n    /* \"#utility.yul\":2674:2701   */\n  swap2\n  pop\n    /* \"#utility.yul\":2630:2711   */\ntag_148:\n    /* \"#utility.yul\":2758:2760   */\n  0x20\n    /* \"#utility.yul\":2750:2756   */\n  dup3\n    /* \"#utility.yul\":2747:2761   */\n  lt\n    /* \"#utility.yul\":2727:2745   */\n  dup2\n    /* \"#utility.yul\":2724:2762   */\n  sub\n    /* \"#utility.yul\":2721:2805   */\n  tag_149\n  jumpi\n    /* \"#utility.yul\":2777:2795   */\n  tag_150\n  tag_90\n  jump\t// in\ntag_150:\n    /* \"#utility.yul\":2721:2805   */\ntag_149:\n    /* \"#utility.yul\":2542:2811   */\n  pop\n    /* \"#utility.yul\":2491:2811   */\n  swap2\n  swap1\n  pop\n  jump\t// out\n    /* \"#utility.yul\":2817:2958   */\ntag_92:\n    /* \"#utility.yul\":2866:2870   */\n  0x00\n    /* \"#utility.yul\":2889:2892   */\n  dup2\n    /* \"#utility.yul\":2881:2892   */\n  swap1\n  pop\n    /* \"#utility.yul\":2912:2915   */\n  dup2\n    /* \"#utility.yul\":2909:2910   */\n  0x00\n    /* \"#utility.yul\":2902:2916   */\n  mstore\n    /* \"#utility.yul\":2946:2950   */\n  0x20\n    /* \"#utility.yul\":2943:2944   */\n  0x00\n    /* \"#utility.yul\":2933:2951   */\n  keccak256\n    /* \"#utility.yul\":2925:2951   */\n  swap1\n  pop\n    /* \"#utility.yul\":2817:2958   */\n  swap2\n  swap1\n  pop\n  jump\t// out\n    /* \"#utility.yul\":2964:3057   */\ntag_93:\n    /* \"#utility.yul\":3001:3007   */\n  0x00\n    /* \"#utility.yul\":3048:3050   */\n  0x20\n    /* \"#utility.yul\":3043:3045   */\n  0x1f\n    /* \"#utility.yul\":3036:3041   */\n  dup4\n    /* \"#utility.yul\":3032:3046   */\n  add\n    /* \"#utility.yul\":3028:3051   */\n  div\n    /* \"#utility.yul\":3018:3051   */\n  swap1\n  pop\n    /* \"#utility.yul\":2964:3057   */\n  swap2\n  swap1\n  pop\n  jump\t// out\n    /* \"#utility.yul\":3063:3170   */\ntag_94:\n    /* \"#utility.yul\":3107:3115   */\n  0x00\n    /* \"#utility.yul\":3157:3162   */\n  dup3\n    /* \"#utility.yul\":3151:3155   */\n  dup3\n    /* \"#utility.yul\":3147:3163   */\n  shl\n    /* \"#utility.yul\":3126:3163   */\n  swap1\n  pop\n    /* \"#utility.yul\":3063:3170   */\n  swap3\n  swap2\n  pop\n  pop\n  jump\t// out\n    /* \"#utility.yul\":3176:3569   */\ntag_95:\n    /* \"#utility.yul\":3245:3251   */\n  0x00\n    /* \"#utility.yul\":3295:3296   */\n  0x08\n    /* \"#utility.yul\":3283:3293   */\n  dup4\n    /* \"#utility.yul\":3279:3297   */\n  mul\n    /* \"#utility.yul\":3318:3415   */\n  tag_155\n    /* \"#utility.yul\":3348:3414   */\n  0xffffffffffffffffffffffffffffffffffffffffffffffffffffffffffffffff\n    /* \"#utility.yul\":3337:3346   */\n  dup3\n    /* \"#utility.yul\":3318:3415   */\n  tag_94\n  jump\t// in\ntag_155:\n    /* \"#utility.yul\":3436:3475   */\n  tag_156\n    /* \"#utility.yul\":3466:3474   */\n  dup7\n    /* \"#utility.yul\":3455:3464   */\n  dup4\n    /* \"#utility.yul\":3436:3475   */\n  tag_94\n  jump\t// in\ntag_156:\n    /* \"#utility.yul\":3424:3475   */\n  swap6\n  pop\n    /* \"#utility.yul\":3508:3512   */\n  dup1\n    /* \"#utility.yul\":3504:3513   */\n  not\n    /* \"#utility.yul\":3497:3502   */\n  dup5\n    /* \"#utility.yul\":3493:3514   */\n  and\n    /* \"#utility.yul\":3484:3514   */\n  swap4\n  pop\n    /* \"#utility.yul\":3557:3561   */\n  dup1\n    /* \"#utility.yul\":3547:3555   */\n  dup7\n    /* \"#utility.yul\":3543:3562   */\n  and\n    /* \"#utility.yul\":3536:3541   */\n  dup5\n    /* \"#utility.yul\":3533:3563   */\n  or\n    /* \"#utility.yul\":3523:3563   */\n  swap3\n  pop\n    /* \"#utility.yul\":3252:3569   */\n  pop\n  pop\n    /* \"#utility.yul\":3176:3569   */\n  swap4\n  swap3\n  pop\n  pop\n  pop\n  jump\t// out\n    /* \"#utility.yul\":3575:3652   */\ntag_96:\n    /* \"#utility.yul\":3612:3619   */\n  0x00\n    /* \"#utility.yul\":3641:3646   */\n  dup2\n    /* \"#utility.yul\":3630:3646   */\n  swap1\n  pop\n    /* \"#utility.yul\":3575:3652   */\n  swap2\n  swap1\n  pop\n  jump\t// out\n    /* \"#utility.yul\":3658:3718   */\ntag_97:\n    /* \"#utility.yul\":3686:3689   */\n  0x00\n    /* \"#utility.yul\":3707:3712   */\n  dup2\n    /* \"#utility.yul\":3700:3712   */\n  swap1\n  pop\n    /* \"#utility.yul\":3658:3718   */\n  swap2\n  swap1\n  pop\n  jump\t// out\n    /* \"#utility.yul\":3724:3866   */\ntag_98:\n    /* \"#utility.yul\":3774:3783   */\n  0x00\n    /* \"#utility.yul\":3807:3860   */\n  tag_160\n    /* \"#utility.yul\":3825:3859   */\n  tag_161\n    /* \"#utility.yul\":3834:3858   */\n  tag_162\n    /* \"#utility.yul\":3852:3857   */\n  dup5\n    /* \"#utility.yul\":3834:3858   */\n  tag_96\n  jump\t// in\ntag_162:\n    /* \"#utility.yul\":3825:3859   */\n  tag_97\n  jump\t// in\ntag_161:\n    /* \"#utility.yul\":3807:3860   */\n  tag_96\n  jump\t// in\ntag_160:\n    /* \"#utility.yul\":3794:3860   */\n  swap1\n  pop\n    /* \"#utility.yul\":3724:3866   */\n  swap2\n  swap1\n  pop\n  jump\t// out\n    /* \"#utility.yul\":3872:3947   */\ntag_99:\n    /* \"#utility.yul\":3915:3918   */\n  0x00\n    /* \"#utility.yul\":3936:3941   */\n  dup2\n    /* \"#utility.yul\":3929:3941   */\n  swap1\n  pop\n    /* \"#utility.yul\":3872:3947   */\n  swap2\n  swap1\n  pop\n  jump\t// out\n    /* \"#utility.yul\":3953:4222   */\ntag_100:\n    /* \"#utility.yul\":4063:4102   */\n  tag_165\n    /* \"#utility.yul\":4094:4101   */\n  dup4\n    /* \"#utility.yul\":4063:4102   */\n  tag_98\n  jump\t// in\ntag_165:\n    /* \"#utility.yul\":4124:4215   */\n  tag_166\n    /* \"#utility.yul\":4173:4214   */\n  tag_167\n    /* \"#utility.yul\":4197:4213   */\n  dup3\n    /* \"#utility.yul\":4173:4214   */\n  tag_99\n  jump\t// in\ntag_167:\n    /* \"#utility.yul\":4165:4171   */\n  dup5\n    /* \"#utility.yul\":4158:4162   */\n  dup5\n    /* \"#utility.yul\":4152:4163   */\n  sload\n    /* \"#utility.yul\":4124:4215   */\n  tag_95\n  jump\t// in\ntag_166:\n    /* \"#utility.yul\":4118:4122   */\n  dup3\n    /* \"#utility.yul\":4111:4216   */\n  sstore\n    /* \"#utility.yul\":4029:4222   */\n  pop\n    /* \"#utility.yul\":3953:4222   */\n  pop\n  pop\n  pop\n  jump\t// out\n    /* \"#utility.yul\":4228:4301   */\ntag_101:\n    /* \"#utility.yul\":4273:4276   */\n  0x00\n    /* \"#utility.yul\":4228:4301   */\n  swap1\n  jump\t// out\n    /* \"#utility.yul\":4307:4496   */\ntag_102:\n    /* \"#utility.yul\":4384:4416   */\n  tag_170\n  tag_101\n  jump\t// in\ntag_170:\n    /* \"#utility.yul\":4425:4490   */\n  tag_171\n    /* \"#utility.yul\":4483:4489   */\n  dup2\n    /* \"#utility.yul\":4475:4481   */\n  dup5\n    /* \"#utility.yul\":4469:4473   */\n  dup5\n    /* \"#utility.yul\":4425:4490   */\n  tag_100\n  jump\t// in\ntag_171:\n    /* \"#utility.yul\":4360:4496   */\n  pop\n    /* \"#utility.yul\":4307:4496   */\n  pop\n  pop\n  jump\t// out\n    /* \"#utility.yul\":4502:4688   */\ntag_103:\n    /* \"#utility.yul\":4562:4682   */\ntag_173:\n    /* \"#utility.yul\":4579:4582   */\n  dup2\n    /* \"#utility.yul\":4572:4577   */\n  dup2\n    /* \"#utility.yul\":4569:4583   */\n  lt\n    /* \"#utility.yul\":4562:4682   */\n  iszero\n  tag_175\n  jumpi\n    /* \"#utility.yul\":4633:4672   */\n  tag_176\n    /* \"#utility.yul\":4670:4671   */\n  0x00\n    /* \"#utility.yul\":4663:4668   */\n  dup3\n    /* \"#utility.yul\":4633:4672   */\n  tag_102\n  jump\t// in\ntag_176:\n    /* \"#utility.yul\":4606:4607   */\n  0x01\n    /* \"#utility.yul\":4599:4604   */\n  dup2\n    /* \"#utility.yul\":4595:4608   */\n  add\n    /* \"#utility.yul\":4586:4608   */\n  swap1\n  pop\n    /* \"#utility.yul\":4562:4682   */\n  jump(tag_173)\ntag_175:\n    /* \"#utility.yul\":4502:4688   */\n  pop\n  pop\n  jump\t// out\n    /* \"#utility.yul\":4694:5237   */\ntag_104:\n    /* \"#utility.yul\":4795:4797   */\n  0x1f\n    /* \"#utility.yul\":4790:4793   */\n  dup3\n    /* \"#utility.yul\":4787:4798   */\n  gt\n    /* \"#utility.yul\":4784:5230   */\n  iszero\n  tag_178\n  jumpi\n    /* \"#utility.yul\":4829:4867   */\n  tag_179\n    /* \"#utility.yul\":4861:4866   */\n  dup2\n    /* \"#utility.yul\":4829:4867   */\n  tag_92\n  jump\t// in\ntag_179:\n    /* \"#utility.yul\":4913:4942   */\n  tag_180\n    /* \"#utility.yul\":4931:4941   */\n  dup5\n    /* \"#utility.yul\":4913:4942   */\n  tag_93\n  jump\t// in\ntag_180:\n    /* \"#utility.yul\":4903:4911   */\n  dup2\n    /* \"#utility.yul\":4899:4943   */\n  add\n    /* \"#utility.yul\":5096:5098   */\n  0x20\n    /* \"#utility.yul\":5084:5094   */\n  dup6\n    /* \"#utility.yul\":5081:5099   */\n  lt\n    /* \"#utility.yul\":5078:5127   */\n  iszero\n  tag_181\n  jumpi\n    /* \"#utility.yul\":5117:5125   */\n  dup2\n    /* \"#utility.yul\":5102:5125   */\n  swap1\n  pop\n    /* \"#utility.yul\":5078:5127   */\ntag_181:\n    /* \"#utility.yul\":5140:5220   */\n  tag_182\n    /* \"#utility.yul\":5196:5218   */\n  tag_183\n    /* \"#utility.yul\":5214:5217   */\n  dup6\n    /* \"#utility.yul\":5196:5218   */\n  tag_93\n  jump\t// in\ntag_183:\n    /* \"#utility.yul\":5186:5194   */\n  dup4\n    /* \"#utility.yul\":5182:5219   */\n  add\n    /* \"#utility.yul\":5169:5180   */\n  dup3\n    /* \"#utility.yul\":5140:5220   */\n  tag_103\n  jump\t// in\ntag_182:\n    /* \"#utility.yul\":4799:5230   */\n  pop\n  pop\n    /* \"#utility.yul\":4784:5230   */\ntag_178:\n    /* \"#utility.yul\":4694:5237   */\n  pop\n  pop\n  pop\n  jump\t// out\n    /* \"#utility.yul\":5243:5360   */\ntag_105:\n    /* \"#utility.yul\":5297:5305   */\n  0x00\n    /* \"#utility.yul\":5347:5352   */\n  dup3\n    /* \"#utility.yul\":5341:5345   */\n  dup3\n    /* \"#utility.yul\":5337:5353   */\n  shr\n    /* \"#utility.yul\":5316:5353   */\n  swap1\n  pop\n    /* \"#utility.yul\":5243:5360   */\n  swap3\n  swap2\n  pop\n  pop\n  jump\t// out\n    /* \"#utility.yul\":5366:5535   */\ntag_106:\n    /* \"#utility.yul\":5410:5416   */\n  0x00\n    /* \"#utility.yul\":5443:5494   */\n  tag_186\n    /* \"#utility.yul\":5491:5492   */\n  0x00\n    /* \"#utility.yul\":5487:5493   */\n  not\n    /* \"#utility.yul\":5479:5484   */\n  dup5\n    /* \"#utility.yul\":5476:5477   */\n  0x08\n    /* \"#utility.yul\":5472:5485   */\n  mul\n    /* \"#utility.yul\":5443:5494   */\n  tag_105\n  jump\t// in\ntag_186:\n    /* \"#utility.yul\":5439:5495   */\n  not\n    /* \"#utility.yul\":5524:5528   */\n  dup1\n    /* \"#utility.yul\":5518:5522   */\n  dup4\n    /* \"#utility.yul\":5514:5529   */\n  and\n    /* \"#utility.yul\":5504:5529   */\n  swap2\n  pop\n    /* \"#utility.yul\":5417:5535   */\n  pop\n    /* \"#utility.yul\":5366:5535   */\n  swap3\n  swap2\n  pop\n  pop\n  jump\t// out\n    /* \"#utility.yul\":5540:5835   */\ntag_107:\n    /* \"#utility.yul\":5616:5620   */\n  0x00\n    /* \"#utility.yul\":5762:5791   */\n  tag_188\n    /* \"#utility.yul\":5787:5790   */\n  dup4\n    /* \"#utility.yul\":5781:5785   */\n  dup4\n    /* \"#utility.yul\":5762:5791   */\n  tag_106\n  jump\t// in\ntag_188:\n    /* \"#utility.yul\":5754:5791   */\n  swap2\n  pop\n    /* \"#utility.yul\":5824:5827   */\n  dup3\n    /* \"#utility.yul\":5821:5822   */\n  0x02\n    /* \"#utility.yul\":5817:5828   */\n  mul\n    /* \"#utility.yul\":5811:5815   */\n  dup3\n    /* \"#utility.yul\":5808:5829   */\n  or\n    /* \"#utility.yul\":5800:5829   */\n  swap1\n  pop\n    /* \"#utility.yul\":5540:5835   */\n  swap3\n  swap2\n  pop\n  pop\n  jump\t// out\n    /* \"#utility.yul\":5840:7235   */\ntag_11:\n    /* \"#utility.yul\":5957:5994   */\n  tag_190\n    /* \"#utility.yul\":5990:5993   */\n  dup3\n    /* \"#utility.yul\":5957:5994   */\n  tag_88\n  jump\t// in\ntag_190:\n    /* \"#utility.yul\":6059:6077   */\n  0xffffffffffffffff\n    /* \"#utility.yul\":6051:6057   */\n  dup2\n    /* \"#utility.yul\":6048:6078   */\n  gt\n    /* \"#utility.yul\":6045:6101   */\n  iszero\n  tag_191\n  jumpi\n    /* \"#utility.yul\":6081:6099   */\n  tag_192\n  tag_89\n  jump\t// in\ntag_192:\n    /* \"#utility.yul\":6045:6101   */\ntag_191:\n    /* \"#utility.yul\":6125:6163   */\n  tag_193\n    /* \"#utility.yul\":6157:6161   */\n  dup3\n    /* \"#utility.yul\":6151:6162   */\n  sload\n    /* \"#utility.yul\":6125:6163   */\n  tag_91\n  jump\t// in\ntag_193:\n    /* \"#utility.yul\":6210:6277   */\n  tag_194\n    /* \"#utility.yul\":6270:6276   */\n  dup3\n    /* \"#utility.yul\":6262:6268   */\n  dup3\n    /* \"#utility.yul\":6256:6260   */\n  dup6\n    /* \"#utility.yul\":6210:6277   */\n  tag_104\n  jump\t// in\ntag_194:\n    /* \"#utility.yul\":6304:6305   */\n  0x00\n    /* \"#utility.yul\":6328:6332   */\n  0x20\n    /* \"#utility.yul\":6315:6332   */\n  swap1\n  pop\n    /* \"#utility.yul\":6360:6362   */\n  0x1f\n    /* \"#utility.yul\":6352:6358   */\n  dup4\n    /* \"#utility.yul\":6349:6363   */\n  gt\n    /* \"#utility.yul\":6377:6378   */\n  0x01\n    /* \"#utility.yul\":6372:6990   */\n  dup2\n  eq\n  tag_196\n  jumpi\n    /* \"#utility.yul\":7034:7035   */\n  0x00\n    /* \"#utility.yul\":7051:7057   */\n  dup5\n    /* \"#utility.yul\":7048:7125   */\n  iszero\n  tag_197\n  jumpi\n    /* \"#utility.yul\":7100:7109   */\n  dup3\n    /* \"#utility.yul\":7095:7098   */\n  dup8\n    /* \"#utility.yul\":7091:7110   */\n  add\n    /* \"#utility.yul\":7085:7111   */\n  mload\n    /* \"#utility.yul\":7076:7111   */\n  swap1\n  pop\n    /* \"#utility.yul\":7048:7125   */\ntag_197:\n    /* \"#utility.yul\":7151:7218   */\n  tag_198\n    /* \"#utility.yul\":7211:7217   */\n  dup6\n    /* \"#utility.yul\":7204:7209   */\n  dup3\n    /* \"#utility.yul\":7151:7218   */\n  tag_107\n  jump\t// in\ntag_198:\n    /* \"#utility.yul\":7145:7149   */\n  dup7\n    /* \"#utility.yul\":7138:7219   */\n  sstore\n    /* \"#utility.yul\":7007:7229   */\n  pop\n    /* \"#utility.yul\":6342:7229   */\n  jump(tag_195)\n    /* \"#utility.yul\":6372:6990   */\ntag_196:\n    /* \"#utility.yul\":6424:6428   */\n  0x1f\n    /* \"#utility.yul\":6420:6429   */\n  not\n    /* \"#utility.yul\":6412:6418   */\n  dup5\n    /* \"#utility.yul\":6408:6430   */\n  and\n    /* \"#utility.yul\":6458:6495   */\n  tag_199\n    /* \"#utility.yul\":6490:6494   */\n  dup7\n    /* \"#utility.yul\":6458:6495   */\n  tag_92\n  jump\t// in\ntag_199:\n    /* \"#utility.yul\":6517:6518   */\n  0x00\n    /* \"#utility.yul\":6531:6739   */\ntag_200:\n    /* \"#utility.yul\":6545:6552   */\n  dup3\n    /* \"#utility.yul\":6542:6543   */\n  dup2\n    /* \"#utility.yul\":6539:6553   */\n  lt\n    /* \"#utility.yul\":6531:6739   */\n  iszero\n  tag_202\n  jumpi\n    /* \"#utility.yul\":6624:6633   */\n  dup5\n    /* \"#utility.yul\":6619:6622   */\n  dup10\n    /* \"#utility.yul\":6615:6634   */\n  add\n    /* \"#utility.yul\":6609:6635   */\n  mload\n    /* \"#utility.yul\":6601:6607   */\n  dup3\n    /* \"#utility.yul\":6594:6636   */\n  sstore\n    /* \"#utility.yul\":6675:6676   */\n  0x01\n    /* \"#utility.yul\":6667:6673   */\n  dup3\n    /* \"#utility.yul\":6663:6677   */\n  add\n    /* \"#utility.yul\":6653:6677   */\n  swap2\n  pop\n    /* \"#utility.yul\":6722:6724   */\n  0x20\n    /* \"#utility.yul\":6711:6720   */\n  dup6\n    /* \"#utility.yul\":6707:6725   */\n  add\n    /* \"#utility.yul\":6694:6725   */\n  swap5\n  pop\n    /* \"#utility.yul\":6568:6572   */\n  0x20\n    /* \"#utility.yul\":6565:6566   */\n  dup2\n    /* \"#utility.yul\":6561:6573   */\n  add\n    /* \"#utility.yul\":6556:6573   */\n  swap1\n  pop\n    /* \"#utility.yul\":6531:6739   */\n  jump(tag_200)\ntag_202:\n    /* \"#utility.yul\":6767:6773   */\n  dup7\n    /* \"#utility.yul\":6758:6765   */\n  dup4\n    /* \"#utility.yul\":6755:6774   */\n  lt\n    /* \"#utility.yul\":6752:6931   */\n  iszero\n  tag_203\n  jumpi\n    /* \"#utility.yul\":6825:6834   */\n  dup5\n    /* \"#utility.yul\":6820:6823   */\n  dup10\n    /* \"#utility.yul\":6816:6835   */\n  add\n    /* \"#utility.yul\":6810:6836   */\n  mload\n    /* \"#utility.yul\":6868:6916   */\n  tag_204\n    /* \"#utility.yul\":6910:6914   */\n  0x1f\n    /* \"#utility.yul\":6902:6908   */\n  dup10\n    /* \"#utility.yul\":6898:6915   */\n  and\n    /* \"#utility.yul\":6887:6896   */\n  dup3\n    /* \"#utility.yul\":6868:6916   */\n  tag_106\n  jump\t// in\ntag_204:\n    /* \"#utility.yul\":6860:6866   */\n  dup4\n    /* \"#utility.yul\":6853:6917   */\n  sstore\n    /* \"#utility.yul\":6775:6931   */\n  pop\n    /* \"#utility.yul\":6752:6931   */\ntag_203:\n    /* \"#utility.yul\":6977:6978   */\n  0x01\n    /* \"#utility.yul\":6973:6974   */\n  0x02\n    /* \"#utility.yul\":6965:6971   */\n  dup9\n    /* \"#utility.yul\":6961:6975   */\n  mul\n    /* \"#utility.yul\":6957:6979   */\n  add\n    /* \"#utility.yul\":6951:6955   */\n  dup9\n    /* \"#utility.yul\":6944:6980   */\n  sstore\n    /* \"#utility.yul\":6379:6990   */\n  pop\n  pop\n  pop\n    /* \"#utility.yul\":6342:7229   */\ntag_195:\n  pop\n    /* \"#utility.yul\":5932:7235   */\n  pop\n  pop\n  pop\n    /* \"#utility.yul\":5840:7235   */\n  pop\n  pop\n  jump\t// out\n    /* \"#utility.yul\":7241:7421   */\ntag_108:\n    /* \"#utility.yul\":7289:7366   */\n  0x4e487b7100000000000000000000000000000000000000000000000000000000\n    /* \"#utility.yul\":7286:7287   */\n  0x00\n    /* \"#utility.yul\":7279:7367   */\n  mstore\n    /* \"#utility.yul\":7386:7390   */\n  0x11\n    /* \"#utility.yul\":7383:7384   */\n  0x04\n    /* \"#utility.yul\":7376:7391   */\n  mstore\n    /* \"#utility.yul\":7410:7414   */\n  0x24\n    /* \"#utility.yul\":7407:7408   */\n  0x00\n    /* \"#utility.yul\":7400:7415   */\n  revert\n    /* \"#utility.yul\":7427:7529   */\ntag_109:\n    /* \"#utility.yul\":7469:7477   */\n  0x00\n    /* \"#utility.yul\":7516:7521   */\n  dup2\n    /* \"#utility.yul\":7513:7514   */\n  0x01\n    /* \"#utility.yul\":7509:7522   */\n  shr\n    /* \"#utility.yul\":7488:7522   */\n  swap1\n  pop\n    /* \"#utility.yul\":7427:7529   */\n  swap2\n  swap1\n  pop\n  jump\t// out\n    /* \"#utility.yul\":7535:8383   */\ntag_110:\n    /* \"#utility.yul\":7596:7601   */\n  0x00\n    /* \"#utility.yul\":7603:7607   */\n  dup1\n    /* \"#utility.yul\":7627:7633   */\n  dup3\n    /* \"#utility.yul\":7618:7633   */\n  swap2\n  pop\n    /* \"#utility.yul\":7651:7656   */\n  dup4\n    /* \"#utility.yul\":7642:7656   */\n  swap1\n  pop\n    /* \"#utility.yul\":7665:8377   */\ntag_208:\n    /* \"#utility.yul\":7686:7687   */\n  0x01\n    /* \"#utility.yul\":7676:7684   */\n  dup6\n    /* \"#utility.yul\":7673:7688   */\n  gt\n    /* \"#utility.yul\":7665:8377   */\n  iszero\n  tag_210\n  jumpi\n    /* \"#utility.yul\":7781:7785   */\n  dup1\n    /* \"#utility.yul\":7776:7779   */\n  dup7\n    /* \"#utility.yul\":7772:7786   */\n  div\n    /* \"#utility.yul\":7766:7770   */\n  dup2\n    /* \"#utility.yul\":7763:7787   */\n  gt\n    /* \"#utility.yul\":7760:7810   */\n  iszero\n  tag_211\n  jumpi\n    /* \"#utility.yul\":7790:7808   */\n  tag_212\n  tag_108\n  jump\t// in\ntag_212:\n    /* \"#utility.yul\":7760:7810   */\ntag_211:\n    /* \"#utility.yul\":7840:7841   */\n  0x01\n    /* \"#utility.yul\":7830:7838   */\n  dup6\n    /* \"#utility.yul\":7826:7842   */\n  and\n    /* \"#utility.yul\":7823:8274   */\n  iszero\n  tag_213\n  jumpi\n    /* \"#utility.yul\":8255:8259   */\n  dup1\n    /* \"#utility.yul\":8248:8253   */\n  dup3\n    /* \"#utility.yul\":8244:8260   */\n  mul\n    /* \"#utility.yul\":8235:8260   */\n  swap2\n  pop\n    /* \"#utility.yul\":7823:8274   */\ntag_213:\n    /* \"#utility.yul\":8305:8309   */\n  dup1\n    /* \"#utility.yul\":8299:8303   */\n  dup2\n    /* \"#utility.yul\":8295:8310   */\n  mul\n    /* \"#utility.yul\":8287:8310   */\n  swap1\n  pop\n    /* \"#utility.yul\":8335:8367   */\n  tag_214\n    /* \"#utility.yul\":8358:8366   */\n  dup6\n    /* \"#utility.yul\":8335:8367   */\n  tag_109\n  jump\t// in\ntag_214:\n    /* \"#utility.yul\":8323:8367   */\n  swap5\n  pop\n    /* \"#utility.yul\":7665:8377   */\n  jump(tag_208)\ntag_210:\n    /* \"#utility.yul\":7535:8383   */\n  swap5\n  pop\n  swap5\n  swap3\n  pop\n  pop\n  pop\n  jump\t// out\n    /* \"#utility.yul\":8389:9462   */\ntag_111:\n    /* \"#utility.yul\":8443:8448   */\n  0x00\n    /* \"#utility.yul\":8634:8642   */\n  dup3\n    /* \"#utility.yul\":8624:8664   */\n  tag_216\n  jumpi\n    /* \"#utility.yul\":8655:8656   */\n  0x01\n    /* \"#utility.yul\":8646:8656   */\n  swap1\n  pop\n    /* \"#utility.yul\":8657:8662   */\n  jump(tag_215)\n    /* \"#utility.yul\":8624:8664   */\ntag_216:\n    /* \"#utility.yul\":8683:8687   */\n  dup2\n    /* \"#utility.yul\":8673:8709   */\n  tag_217\n  jumpi\n    /* \"#utility.yul\":8700:8701   */\n  0x00\n    /* \"#utility.yul\":8691:8701   */\n  swap1\n  pop\n    /* \"#utility.yul\":8702:8707   */\n  jump(tag_215)\n    /* \"#utility.yul\":8673:8709   */\ntag_217:\n    /* \"#utility.yul\":8769:8773   */\n  dup2\n    /* \"#utility.yul\":8817:8818   */\n  0x01\n    /* \"#utility.yul\":8812:8839   */\n  dup2\n  eq\n  tag_219\n  jumpi\n    /* \"#utility.yul\":8853:8854   */\n  0x02\n    /* \"#utility.yul\":8848:9039   */\n  dup2\n  eq\n  tag_220\n  jumpi\n    /* \"#utility.yul\":8762:9039   */\n  jump(tag_218)\n    /* \"#utility.yul\":8812:8839   */\ntag_219:\n    /* \"#utility.yul\":8830:8831   */\n  0x01\n    /* \"#utility.yul\":8821:8831   */\n  swap2\n  pop\n    /* \"#utility.yul\":8832:8837   */\n  pop\n  jump(tag_215)\n    /* \"#utility.yul\":8848:9039   */\ntag_220:\n    /* \"#utility.yul\":8893:8896   */\n  0xff\n    /* \"#utility.yul\":8883:8891   */\n  dup5\n    /* \"#utility.yul\":8880:8897   */\n  gt\n    /* \"#utility.yul\":8877:8920   */\n  iszero\n  tag_221\n  jumpi\n    /* \"#utility.yul\":8900:8918   */\n  tag_222\n  tag_108\n  jump\t// in\ntag_222:\n    /* \"#utility.yul\":8877:8920   */\ntag_221:\n    /* \"#utility.yul\":8949:8957   */\n  dup4\n    /* \"#utility.yul\":8946:8947   */\n  0x02\n    /* \"#utility.yul\":8942:8958   */\n  exp\n    /* \"#utility.yul\":8933:8958   */\n  swap2\n  pop\n    /* \"#utility.yul\":8984:8987   */\n  dup5\n    /* \"#utility.yul\":8977:8982   */\n  dup3\n    /* \"#utility.yul\":8974:8988   */\n  gt\n    /* \"#utility.yul\":8971:9011   */\n  iszero\n  tag_223\n  jumpi\n    /* \"#utility.yul\":8991:9009   */\n  tag_224\n  tag_108\n  jump\t// in\ntag_224:\n    /* \"#utility.yul\":8971:9011   */\ntag_223:\n    /* \"#utility.yul\":9024:9029   */\n  pop\n  jump(tag_215)\n    /* \"#utility.yul\":8762:9039   */\ntag_218:\n  pop\n    /* \"#utility.yul\":9148:9150   */\n  0x20\n    /* \"#utility.yul\":9138:9146   */\n  dup4\n    /* \"#utility.yul\":9135:9151   */\n  lt\n    /* \"#utility.yul\":9129:9132   */\n  0x0133\n    /* \"#utility.yul\":9123:9127   */\n  dup4\n    /* \"#utility.yul\":9120:9133   */\n  lt\n    /* \"#utility.yul\":9116:9152   */\n  and\n    /* \"#utility.yul\":9098:9100   */\n  0x4e\n    /* \"#utility.yul\":9088:9096   */\n  dup5\n    /* \"#utility.yul\":9085:9101   */\n  lt\n    /* \"#utility.yul\":9080:9082   */\n  0x0b\n    /* \"#utility.yul\":9074:9078   */\n  dup5\n    /* \"#utility.yul\":9071:9083   */\n  lt\n    /* \"#utility.yul\":9067:9102   */\n  and\n    /* \"#utility.yul\":9051:9162   */\n  or\n    /* \"#utility.yul\":9048:9294   */\n  iszero\n  tag_225\n  jumpi\n    /* \"#utility.yul\":9204:9212   */\n  dup3\n    /* \"#utility.yul\":9198:9202   */\n  dup3\n    /* \"#utility.yul\":9194:9213   */\n  exp\n    /* \"#utility.yul\":9185:9213   */\n  swap1\n  pop\n    /* \"#utility.yul\":9239:9242   */\n  dup4\n    /* \"#utility.yul\":9232:9237   */\n  dup2\n    /* \"#utility.yul\":9229:9243   */\n  gt\n    /* \"#utility.yul\":9226:9266   */\n  iszero\n  tag_226\n  jumpi\n    /* \"#utility.yul\":9246:9264   */\n  tag_227\n  tag_108\n  jump\t// in\ntag_227:\n    /* \"#utility.yul\":9226:9266   */\ntag_226:\n    /* \"#utility.yul\":9279:9284   */\n  jump(tag_215)\n    /* \"#utility.yul\":9048:9294   */\ntag_225:\n    /* \"#utility.yul\":9319:9361   */\n  tag_228\n    /* \"#utility.yul\":9357:9360   */\n  dup5\n    /* \"#utility.yul\":9347:9355   */\n  dup5\n    /* \"#utility.yul\":9341:9345   */\n  dup5\n    /* \"#utility.yul\":9338:9339   */\n  0x01\n    /* \"#utility.yul\":9319:9361   */\n  tag_110\n  jump\t// in\ntag_228:\n    /* \"#utility.yul\":9304:9361   */\n  swap3\n  pop\n  swap1\n  pop\n    /* \"#utility.yul\":9393:9397   */\n  dup2\n    /* \"#utility.yul\":9388:9391   */\n  dup5\n    /* \"#utility.yul\":9384:9398   */\n  div\n    /* \"#utility.yul\":9377:9382   */\n  dup2\n    /* \"#utility.yul\":9374:9399   */\n  gt\n    /* \"#utility.yul\":9371:9422   */\n  iszero\n  tag_229\n  jumpi\n    /* \"#utility.yul\":9402:9420   */\n  tag_230\n  tag_108\n  jump\t// in\ntag_230:\n    /* \"#utility.yul\":9371:9422   */\ntag_229:\n    /* \"#utility.yul\":9451:9455   */\n  dup2\n    /* \"#utility.yul\":9444:9449   */\n  dup2\n    /* \"#utility.yul\":9440:9456   */\n  mul\n    /* \"#utility.yul\":9431:9456   */\n  swap1\n  pop\n    /* \"#utility.yul\":8389:9462   */\ntag_215:\n  swap4\n  swap3\n  pop\n  pop\n  pop\n  jump\t// out\n    /* \"#utility.yul\":9468:9554   */\ntag_112:\n    /* \"#utility.yul\":9503:9510   */\n  0x00\n    /* \"#utility.yul\":9543:9547   */\n  0xff\n    /* \"#utility.yul\":9536:9541   */\n  dup3\n    /* \"#utility.yul\":9532:9548   */\n  and\n    /* \"#utility.yul\":9521:9548   */\n  swap1\n  pop\n    /* \"#utility.yul\":9468:9554   */\n  swap2\n  swap1\n  pop\n  jump\t// out\n    /* \"#utility.yul\":9560:9841   */\ntag_18:\n    /* \"#utility.yul\":9618:9623   */\n  0x00\n    /* \"#utility.yul\":9642:9665   */\n  tag_233\n    /* \"#utility.yul\":9660:9664   */\n  dup3\n    /* \"#utility.yul\":9642:9665   */\n  tag_96\n  jump\t// in\ntag_233:\n    /* \"#utility.yul\":9634:9665   */\n  swap2\n  pop\n    /* \"#utility.yul\":9686:9711   */\n  tag_234\n    /* \"#utility.yul\":9702:9710   */\n  dup4\n    /* \"#utility.yul\":9686:9711   */\n  tag_112\n  jump\t// in\ntag_234:\n    /* \"#utility.yul\":9674:9711   */\n  swap3\n  pop\n    /* \"#utility.yul\":9730:9834   */\n  tag_235\n    /* \"#utility.yul\":9767:9833   */\n  0xffffffffffffffffffffffffffffffffffffffffffffffffffffffffffffffff\n    /* \"#utility.yul\":9757:9765   */\n  dup5\n    /* \"#utility.yul\":9751:9755   */\n  dup5\n    /* \"#utility.yul\":9730:9834   */\n  tag_111\n  jump\t// in\ntag_235:\n    /* \"#utility.yul\":9721:9834   */\n  swap1\n  pop\n    /* \"#utility.yul\":9560:9841   */\n  swap3\n  swap2\n  pop\n  pop\n  jump\t// out\n    /* \"#utility.yul\":9847:10257   */\ntag_20:\n    /* \"#utility.yul\":9887:9894   */\n  0x00\n    /* \"#utility.yul\":9910:9930   */\n  tag_237\n    /* \"#utility.yul\":9928:9929   */\n  dup3\n    /* \"#utility.yul\":9910:9930   */\n  tag_96\n  jump\t// in\ntag_237:\n    /* \"#utility.yul\":9905:9930   */\n  swap2\n  pop\n    /* \"#utility.yul\":9944:9964   */\n  tag_238\n    /* \"#utility.yul\":9962:9963   */\n  dup4\n    /* \"#utility.yul\":9944:9964   */\n  tag_96\n  jump\t// in\ntag_238:\n    /* \"#utility.yul\":9939:9964   */\n  swap3\n  pop\n    /* \"#utility.yul\":9999:10000   */\n  dup3\n    /* \"#utility.yul\":9996:9997   */\n  dup3\n    /* \"#utility.yul\":9992:10001   */\n  mul\n    /* \"#utility.yul\":10021:10051   */\n  tag_239\n    /* \"#utility.yul\":10039:10050   */\n  dup2\n    /* \"#utility.yul\":10021:10051   */\n  tag_96\n  jump\t// in\ntag_239:\n    /* \"#utility.yul\":10010:10051   */\n  swap2\n  pop\n    /* \"#utility.yul\":10200:10201   */\n  dup3\n    /* \"#utility.yul\":10191:10198   */\n  dup3\n    /* \"#utility.yul\":10187:10202   */\n  div\n    /* \"#utility.yul\":10184:10185   */\n  dup5\n    /* \"#utility.yul\":10181:10203   */\n  eq\n    /* \"#utility.yul\":10161:10162   */\n  dup4\n    /* \"#utility.yul\":10154:10163   */\n  iszero\n    /* \"#utility.yul\":10134:10217   */\n  or\n    /* \"#utility.yul\":10111:10250   */\n  tag_240\n  jumpi\n    /* \"#utility.yul\":10230:10248   */\n  tag_241\n  tag_108\n  jump\t// in\ntag_241:\n    /* \"#utility.yul\":10111:10250   */\ntag_240:\n    /* \"#utility.yul\":9895:10257   */\n  pop\n    /* \"#utility.yul\":9847:10257   */\n  swap3\n  swap2\n  pop\n  pop\n  jump\t// out\n    /* \"#utility.yul\":10263:10432   */\ntag_113:\n    /* \"#utility.yul\":10347:10358   */\n  0x00\n    /* \"#utility.yul\":10381:10387   */\n  dup3\n    /* \"#utility.yul\":10376:10379   */\n  dup3\n    /* \"#utility.yul\":10369:10388   */\n  mstore\n    /* \"#utility.yul\":10421:10425   */\n  0x20\n    /* \"#utility.yul\":10416:10419   */\n  dup3\n    /* \"#utility.yul\":10412:10426   */\n  add\n    /* \"#utility.yul\":10397:10426   */\n  swap1\n  pop\n    /* \"#utility.yul\":10263:10432   */\n  swap3\n  swap2\n  pop\n  pop\n  jump\t// out\n    /* \"#utility.yul\":10438:10619   */\ntag_114:\n    /* \"#utility.yul\":10578:10611   */\n  0x45524332303a206d696e7420746f20746865207a65726f206164647265737300\n    /* \"#utility.yul\":10574:10575   */\n  0x00\n    /* \"#utility.yul\":10566:10572   */\n  dup3\n    /* \"#utility.yul\":10562:10576   */\n  add\n    /* \"#utility.yul\":10555:10612   */\n  mstore\n    /* \"#utility.yul\":10438:10619   */\n  pop\n  jump\t// out\n    /* \"#utility.yul\":10625:10991   */\ntag_115:\n    /* \"#utility.yul\":10767:10770   */\n  0x00\n    /* \"#utility.yul\":10788:10855   */\n  tag_245\n    /* \"#utility.yul\":10852:10854   */\n  0x1f\n    /* \"#utility.yul\":10847:10850   */\n  dup4\n    /* \"#utility.yul\":10788:10855   */\n  tag_113\n  jump\t// in\ntag_245:\n    /* \"#utility.yul\":10781:10855   */\n  swap2\n  pop\n    /* \"#utility.yul\":10864:10957   */\n  tag_246\n    /* \"#utility.yul\":10953:10956   */\n  dup3\n    /* \"#utility.yul\":10864:10957   */\n  tag_114\n  jump\t// in\ntag_246:\n    /* \"#utility.yul\":10982:10984   */\n  0x20\n    /* \"#utility.yul\":10977:10980   */\n  dup3\n    /* \"#utility.yul\":10973:10985   */\n  add\n    /* \"#utility.yul\":10966:10985   */\n  swap1\n  pop\n    /* \"#utility.yul\":10625:10991   */\n  swap2\n  swap1\n  pop\n  jump\t// out\n    /* \"#utility.yul\":10997:11416   */\ntag_51:\n    /* \"#utility.yul\":11163:11167   */\n  0x00\n    /* \"#utility.yul\":11201:11203   */\n  0x20\n    /* \"#utility.yul\":11190:11199   */\n  dup3\n    /* \"#utility.yul\":11186:11204   */\n  add\n    /* \"#utility.yul\":11178:11204   */\n  swap1\n  pop\n    /* \"#utility.yul\":11250:11259   */\n  dup2\n    /* \"#utility.yul\":11244:11248   */\n  dup2\n    /* \"#utility.yul\":11240:11260   */\n  sub\n    /* \"#utility.yul\":11236:11237   */\n  0x00\n    /* \"#utility.yul\":11225:11234   */\n  dup4\n    /* \"#utility.yul\":11221:11238   */\n  add\n    /* \"#utility.yul\":11214:11261   */\n  mstore\n    /* \"#utility.yul\":11278:11409   */\n  tag_248\n    /* \"#utility.yul\":11404:11408   */\n  dup2\n    /* \"#utility.yul\":11278:11409   */\n  tag_115\n  jump\t// in\ntag_248:\n    /* \"#utility.yul\":11270:11409   */\n  swap1\n  pop\n    /* \"#utility.yul\":10997:11416   */\n  swap2\n  swap1\n  pop\n  jump\t// out\n    /* \"#utility.yul\":11422:11613   */\ntag_55:\n    /* \"#utility.yul\":11462:11465   */\n  0x00\n    /* \"#utility.yul\":11481:11501   */\n  tag_250\n    /* \"#utility.yul\":11499:11500   */\n  dup3\n    /* \"#utility.yul\":11481:11501   */\n  tag_96\n  jump\t// in\ntag_250:\n    /* \"#utility.yul\":11476:11501   */\n  swap2\n  pop\n    /* \"#utility.yul\":11515:11535   */\n  tag_251\n    /* \"#utility.yul\":11533:11534   */\n  dup4\n    /* \"#utility.yul\":11515:11535   */\n  tag_96\n  jump\t// in\ntag_251:\n    /* \"#utility.yul\":11510:11535   */\n  swap3\n  pop\n    /* \"#utility.yul\":11558:11559   */\n  dup3\n    /* \"#utility.yul\":11555:11556   */\n  dup3\n    /* \"#utility.yul\":11551:11560   */\n  add\n    /* \"#utility.yul\":11544:11560   */\n  swap1\n  pop\n    /* \"#utility.yul\":11579:11582   */\n  dup1\n    /* \"#utility.yul\":11576:11577   */\n  dup3\n    /* \"#utility.yul\":11573:11583   */\n  gt\n    /* \"#utility.yul\":11570:11606   */\n  iszero\n  tag_252\n  jumpi\n    /* \"#utility.yul\":11586:11604   */\n  tag_253\n  tag_108\n  jump\t// in\ntag_253:\n    /* \"#utility.yul\":11570:11606   */\ntag_252:\n    /* \"#utility.yul\":11422:11613   */\n  swap3\n  swap2\n  pop\n  pop\n  jump\t// out\n    /* \"#utility.yul\":11619:11737   */\ntag_116:\n    /* \"#utility.yul\":11706:11730   */\n  tag_255\n    /* \"#utility.yul\":11724:11729   */\n  dup2\n    /* \"#utility.yul\":11706:11730   */\n  tag_96\n  jump\t// in\ntag_255:\n    /* \"#utility.yul\":11701:11704   */\n  dup3\n    /* \"#utility.yul\":11694:11731   */\n  mstore\n    /* \"#utility.yul\":11619:11737   */\n  pop\n  pop\n  jump\t// out\n    /* \"#utility.yul\":11743:11965   */\ntag_57:\n    /* \"#utility.yul\":11836:11840   */\n  0x00\n    /* \"#utility.yul\":11874:11876   */\n  0x20\n    /* \"#utility.yul\":11863:11872   */\n  dup3\n    /* \"#utility.yul\":11859:11877   */\n  add\n    /* \"#utility.yul\":11851:11877   */\n  swap1\n  pop\n    /* \"#utility.yul\":11887:11958   */\n  tag_257\n    /* \"#utility.yul\":11955:11956   */\n  0x00\n    /* \"#utility.yul\":11944:11953   */\n  dup4\n    /* \"#utility.yul\":11940:11957   */\n  add\n    /* \"#utility.yul\":11931:11937   */\n  dup5\n    /* \"#utility.yul\":11887:11958   */\n  tag_116\n  jump\t// in\ntag_257:\n    /* \"#utility.yul\":11743:11965   */\n  swap3\n  swap2\n  pop\n  pop\n  jump\t// out\n    /* \"#utility.yul\":11971:12195   */\ntag_117:\n    /* \"#utility.yul\":12111:12145   */\n  0x45524332303a207472616e736665722066726f6d20746865207a65726f206164\n    /* \"#utility.yul\":12107:12108   */\n  0x00\n    /* \"#utility.yul\":12099:12105   */\n  dup3\n    /* \"#utility.yul\":12095:12109   */\n  add\n    /* \"#utility.yul\":12088:12146   */\n  mstore\n    /* \"#utility.yul\":12180:12187   */\n  0x6472657373000000000000000000000000000000000000000000000000000000\n    /* \"#utility.yul\":12175:12177   */\n  0x20\n    /* \"#utility.yul\":12167:12173   */\n  dup3\n    /* \"#utility.yul\":12163:12178   */\n  add\n    /* \"#utility.yul\":12156:12188   */\n  mstore\n    /* \"#utility.yul\":11971:12195   */\n  pop\n  jump\t// out\n    /* \"#utility.yul\":12201:12567   */\ntag_118:\n    /* \"#utility.yul\":12343:12346   */\n  0x00\n    /* \"#utility.yul\":12364:12431   */\n  tag_260\n    /* \"#utility.yul\":12428:12430   */\n  0x25\n    /* \"#utility.yul\":12423:12426   */\n  dup4\n    /* \"#utility.yul\":12364:12431   */\n  tag_113\n  jump\t// in\ntag_260:\n    /* \"#utility.yul\":12357:12431   */\n  swap2\n  pop\n    /* \"#utility.yul\":12440:12533   */\n  tag_261\n    /* \"#utility.yul\":12529:12532   */\n  dup3\n    /* \"#utility.yul\":12440:12533   */\n  tag_117\n  jump\t// in\ntag_261:\n    /* \"#utility.yul\":12558:12560   */\n  0x40\n    /* \"#utility.yul\":12553:12556   */\n  dup3\n    /* \"#utility.yul\":12549:12561   */\n  add\n    /* \"#utility.yul\":12542:12561   */\n  swap1\n  pop\n    /* \"#utility.yul\":12201:12567   */\n  swap2\n  swap1\n  pop\n  jump\t// out\n    /* \"#utility.yul\":12573:12992   */\ntag_71:\n    /* \"#utility.yul\":12739:12743   */\n  0x00\n    /* \"#utility.yul\":12777:12779   */\n  0x20\n    /* \"#utility.yul\":12766:12775   */\n  dup3\n    /* \"#utility.yul\":12762:12780   */\n  add\n    /* \"#utility.yul\":12754:12780   */\n  swap1\n  pop\n    /* \"#utility.yul\":12826:12835   */\n  dup2\n    /* \"#utility.yul\":12820:12824   */\n  dup2\n    /* \"#utility.yul\":12816:12836   */\n  sub\n    /* \"#utility.yul\":12812:12813   */\n  0x00\n    /* \"#utility.yul\":12801:12810   */\n  dup4\n    /* \"#utility.yul\":12797:12814   */\n  add\n    /* \"#utility.yul\":12790:12837   */\n  mstore\n    /* \"#utility.yul\":12854:12985   */\n  tag_263\n    /* \"#utility.yul\":12980:12984   */\n  dup2\n    /* \"#utility.yul\":12854:12985   */\n  tag_118\n  jump\t// in\ntag_263:\n    /* \"#utility.yul\":12846:12985   */\n  swap1\n  pop\n    /* \"#utility.yul\":12573:12992   */\n  swap2\n  swap1\n  pop\n  jump\t// out\n    /* \"#utility.yul\":12998:13220   */\ntag_119:\n    /* \"#utility.yul\":13138:13172   */\n  0x45524332303a207472616e7366657220746f20746865207a65726f2061646472\n    /* \"#utility.yul\":13134:13135   */\n  0x00\n    /* \"#utility.yul\":13126:13132   */\n  dup3\n    /* \"#utility.yul\":13122:13136   */\n  add\n    /* \"#utility.yul\":13115:13173   */\n  mstore\n    /* \"#utility.yul\":13207:13212   */\n  0x6573730000000000000000000000000000000000000000000000000000000000\n    /* \"#utility.yul\":13202:13204   */\n  0x20\n    /* \"#utility.yul\":13194:13200   */\n  dup3\n    /* \"#utility.yul\":13190:13205   */\n  add\n    /* \"#utility.yul\":13183:13213   */\n  mstore\n    /* \"#utility.yul\":12998:13220   */\n  pop\n  jump\t// out\n    /* \"#utility.yul\":13226:13592   */\ntag_120:\n    /* \"#utility.yul\":13368:13371   */\n  0x00\n    /* \"#utility.yul\":13389:13456   */\n  tag_266\n    /* \"#utility.yul\":13453:13455   */\n  0x23\n    /* \"#utility.yul\":13448:13451   */\n  dup4\n    /* \"#utility.yul\":13389:13456   */\n  tag_113\n  jump\t// in\ntag_266:\n    /* \"#utility.yul\":13382:13456   */\n  swap2\n  pop\n    /* \"#utility.yul\":13465:13558   */\n  tag_267\n    /* \"#utility.yul\":13554:13557   */\n  dup3\n    /* \"#utility.yul\":13465:13558   */\n  tag_119\n  jump\t// in\ntag_267:\n    /* \"#utility.yul\":13583:13585   */\n  0x40\n    /* \"#utility.yul\":13578:13581   */\n  dup3\n    /* \"#utility.yul\":13574:13586   */\n  add\n    /* \"#utility.yul\":13567:13586   */\n  swap1\n  pop\n    /* \"#utility.yul\":13226:13592   */\n  swap2\n  swap1\n  pop\n  jump\t// out\n    /* \"#utility.yul\":13598:14017   */\ntag_74:\n    /* \"#utility.yul\":13764:13768   */\n  0x00\n    /* \"#utility.yul\":13802:13804   */\n  0x20\n    /* \"#utility.yul\":13791:13800   */\n  dup3\n    /* \"#utility.yul\":13787:13805   */\n  add\n    /* \"#utility.yul\":13779:13805   */\n  swap1\n  pop\n    /* \"#utility.yul\":13851:13860   */\n  dup2\n    /* \"#utility.yul\":13845:13849   */\n  dup2\n    /* \"#utility.yul\":13841:13861   */\n  sub\n    /* \"#utility.yul\":13837:13838   */\n  0x00\n    /* \"#utility.yul\":13826:13835   */\n  dup4\n    /* \"#utility.yul\":13822:13839   */\n  add\n    /* \"#utility.yul\":13815:13862   */\n  mstore\n    /* \"#utility.yul\":13879:14010   */\n  tag_269\n    /* \"#utility.yul\":14005:14009   */\n  dup2\n    /* \"#utility.yul\":13879:14010   */\n  tag_120\n  jump\t// in\ntag_269:\n    /* \"#utility.yul\":13871:14010   */\n  swap1\n  pop\n    /* \"#utility.yul\":13598:14017   */\n  swap2\n  swap1\n  pop\n  jump\t// out\n    /* \"#utility.yul\":14023:14248   */\ntag_121:\n    /* \"#utility.yul\":14163:14197   */\n  0x45524332303a207472616e7366657220616d6f756e7420657863656564732062\n    /* \"#utility.yul\":14159:14160   */\n  0x00\n    /* \"#utility.yul\":14151:14157   */\n  dup3\n    /* \"#utility.yul\":14147:14161   */\n  add\n    /* \"#utility.yul\":14140:14198   */\n  mstore\n    /* \"#utility.yul\":14232:14240   */\n  0x616c616e63650000000000000000000000000000000000000000000000000000\n    /* \"#utility.yul\":14227:14229   */\n  0x20\n    /* \"#utility.yul\":14219:14225   */\n  dup3\n    /* \"#utility.yul\":14215:14230   */\n  add\n    /* \"#utility.yul\":14208:14241   */\n  mstore\n    /* \"#utility.yul\":14023:14248   */\n  pop\n  jump\t// out\n    /* \"#utility.yul\":14254:14620   */\ntag_122:\n    /* \"#utility.yul\":14396:14399   */\n  0x00\n    /* \"#utility.yul\":14417:14484   */\n  tag_272\n    /* \"#utility.yul\":14481:14483   */\n  0x26\n    /* \"#utility.yul\":14476:14479   */\n  dup4\n    /* \"#utility.yul\":14417:14484   */\n  tag_113\n  jump\t// in\ntag_272:\n    /* \"#utility.yul\":14410:14484   */\n  swap2\n  pop\n    /* \"#utility.yul\":14493:14586   */\n  tag_273\n    /* \"#utility.yul\":14582:14585   */\n  dup3\n    /* \"#utility.yul\":14493:14586   */\n  tag_121\n  jump\t// in\ntag_273:\n    /* \"#utility.yul\":14611:14613   */\n  0x40\n    /* \"#utility.yul\":14606:14609   */\n  dup3\n    /* \"#utility.yul\":14602:14614   */\n  add\n    /* \"#utility.yul\":14595:14614   */\n  swap1\n  pop\n    /* \"#utility.yul\":14254:14620   */\n  swap2\n  swap1\n  pop\n  jump\t// out\n    /* \"#utility.yul\":14626:15045   */\ntag_78:\n    /* \"#utility.yul\":14792:14796   */\n  0x00\n    /* \"#utility.yul\":14830:14832   */\n  0x20\n    /* \"#utility.yul\":14819:14828   */\n  dup3\n    /* \"#utility.yul\":14815:14833   */\n  add\n    /* \"#utility.yul\":14807:14833   */\n  swap1\n  pop\n    /* \"#utility.yul\":14879:14888   */\n  dup2\n    /* \"#utility.yul\":14873:14877   */\n  dup2\n    /* \"#utility.yul\":14869:14889   */\n  sub\n    /* \"#utility.yul\":14865:14866   */\n  0x00\n    /* \"#utility.yul\":14854:14863   */\n  dup4\n    /* \"#utility.yul\":14850:14867   */\n  add\n    /* \"#utility.yul\":14843:14890   */\n  mstore\n    /* \"#utility.yul\":14907:15038   */\n  tag_275\n    /* \"#utility.yul\":15033:15037   */\n  dup2\n    /* \"#utility.yul\":14907:15038   */\n  tag_122\n  jump\t// in\ntag_275:\n    /* \"#utility.yul\":14899:15038   */\n  swap1\n  pop\n    /* \"#utility.yul\":14626:15045   */\n  swap2\n  swap1\n  pop\n  jump\t// out\n    /* \"cryptoMonster.sol\":128:5579  contract cryptoMonster is ERC20(\"CryptoMonster\", \"CMON\") {... */\ntag_46:\n  dataSize(sub_0)\n  dup1\n  dataOffset(sub_0)\n  0x00\n  codecopy\n  0x00\n  return\nstop\n\nsub_0: assembly {\n        /* \"cryptoMonster.sol\":128:5579  contract cryptoMonster is ERC20(\"CryptoMonster\", \"CMON\") {... */\n      mstore(0x40, 0x80)\n      callvalue\n      dup1\n      iszero\n      tag_1\n      jumpi\n      0x00\n      dup1\n      revert\n    tag_1:\n      pop\n      jumpi(tag_2, lt(calldatasize, 0x04))\n      shr(0xe0, calldataload(0x00))\n      dup1\n      0x8fc5668b\n      gt\n      tag_20\n      jumpi\n      dup1\n      0xa9059cbb\n      gt\n      tag_21\n      jumpi\n      dup1\n      0xa9059cbb\n      eq\n      tag_15\n      jumpi\n      dup1\n      0xad221195\n      eq\n      tag_16\n      jumpi\n      dup1\n      0xdcd7f537\n      eq\n      tag_17\n      jumpi\n      dup1\n      0xdd62ed3e\n      eq\n      tag_18\n      jumpi\n      dup1\n      0xfc58a74f\n      eq\n      tag_19\n      jumpi\n      jump(tag_2)\n    tag_21:\n      dup1\n      0x8fc5668b\n      eq\n      tag_11\n      jumpi\n      dup1\n      0x95d89b41\n      eq\n      tag_12\n      jumpi\n      dup1\n      0xa457c2d7\n      eq\n      tag_13\n      jumpi\n      dup1\n      0xa4821719\n      eq\n      tag_14\n      jumpi\n      jump(tag_2)\n    tag_20:\n      dup1\n      0x23b872dd\n      gt\n      tag_22\n      jumpi\n      dup1\n      0x23b872dd\n      eq\n      tag_7\n      jumpi\n      dup1\n      0x313ce567\n      eq\n      tag_8\n      jumpi\n      dup1\n      0x39509351\n      eq\n      tag_9\n      jumpi\n      dup1\n      0x70a08231\n      eq\n      tag_10\n      jumpi\n      jump(tag_2)\n    tag_22:\n      dup1\n      0x06fdde03\n      eq\n      tag_3\n      jumpi\n      dup1\n      0x095ea7b3\n      eq\n      tag_4\n      jumpi\n      dup1\n      0x1072cbea\n      eq\n      tag_5\n      jumpi\n      dup1\n      0x18160ddd\n      eq\n      tag_6\n      jumpi\n    tag_2:\n      0x00\n      dup1\n      revert\n        /* \"@openzeppelin/contracts/token/ERC20/ERC20.sol\":2158:2256  function name() public view virtual override returns (string memory) {... */\n    tag_3:\n      tag_23\n      tag_24\n      jump\t// in\n    tag_23:\n      mload(0x40)\n      tag_25\n      swap2\n      swap1\n      tag_26\n      jump\t// in\n    tag_25:\n      mload(0x40)\n      dup1\n      swap2\n      sub\n      swap1\n      return\n        /* \"@openzeppelin/contracts/token/ERC20/ERC20.sol\":4444:4641  function approve(address spender, uint256 amount) public virtual override returns (bool) {... */\n    tag_4:\n      tag_27\n      0x04\n      dup1\n      calldatasize\n      sub\n      dup2\n      add\n      swap1\n      tag_28\n      swap2\n      swap1\n      tag_29\n      jump\t// in\n    tag_28:\n      tag_30\n      jump\t// in\n    tag_27:\n      mload(0x40)\n      tag_31\n      swap2\n      swap1\n      tag_32\n      jump\t// in\n    tag_31:\n      mload(0x40)\n      dup1\n      swap2\n      sub\n      swap1\n      return\n        /* \"cryptoMonster.sol\":3336:3789  function transferToken(address to, uint256 value) public {... */\n    tag_5:\n      tag_33\n      0x04\n      dup1\n      calldatasize\n      sub\n      dup2\n      add\n      swap1\n      tag_34\n      swap2\n      swap1\n      tag_29\n      jump\t// in\n    tag_34:\n      tag_35\n      jump\t// in\n    tag_33:\n      stop\n        /* \"cryptoMonster.sol\":2896:3017  function totalSupply() public view override returns (uint256) {... */\n    tag_6:\n      tag_36\n      tag_37\n      jump\t// in\n    tag_36:\n      mload(0x40)\n      tag_38\n      swap2\n      swap1\n      tag_39\n      jump\t// in\n    tag_38:\n      mload(0x40)\n      dup1\n      swap2\n      sub\n      swap1\n      return\n        /* \"@openzeppelin/contracts/token/ERC20/ERC20.sol\":5203:5459  function transferFrom(address from, address to, uint256 amount) public virtual override returns (bool) {... */\n    tag_7:\n      tag_40\n      0x04\n      dup1\n      calldatasize\n      sub\n      dup2\n      add\n      swap1\n      tag_41\n      swap2\n      swap1\n      tag_42\n      jump\t// in\n    tag_41:\n      tag_43\n      jump\t// in\n    tag_40:\n      mload(0x40)\n      tag_44\n      swap2\n      swap1\n      tag_32\n      jump\t// in\n    tag_44:\n      mload(0x40)\n      dup1\n      swap2\n      sub\n      swap1\n      return\n        /* \"cryptoMonster.sol\":3165:3250  function decimals() public pure override returns (uint8) {... */\n    tag_8:\n      tag_45\n      tag_46\n      jump\t// in\n    tag_45:\n      mload(0x40)\n      tag_47\n      swap2\n      swap1\n      tag_48\n      jump\t// in\n    tag_47:\n      mload(0x40)\n      dup1\n      swap2\n      sub\n      swap1\n      return\n        /* \"@openzeppelin/contracts/token/ERC20/ERC20.sol\":5854:6088  function increaseAllowance(address spender, uint256 addedValue) public virtual returns (bool) {... */\n    tag_9:\n      tag_49\n      0x04\n      dup1\n      calldatasize\n      sub\n      dup2\n      add\n      swap1\n      tag_50\n      swap2\n      swap1\n      tag_29\n      jump\t// in\n    tag_50:\n      tag_51\n      jump\t// in\n    tag_49:\n      mload(0x40)\n      tag_52\n      swap2\n      swap1\n      tag_32\n      jump\t// in\n    tag_52:\n      mload(0x40)\n      dup1\n      swap2\n      sub\n      swap1\n      return\n        /* \"cryptoMonster.sol\":3025:3157  function balanceOf(address account) public view override  returns (uint256) {... */\n    tag_10:\n      tag_53\n      0x04\n      dup1\n      calldatasize\n      sub\n      dup2\n      add\n      swap1\n      tag_54\n      swap2\n      swap1\n      tag_55\n      jump\t// in\n    tag_54:\n      tag_56\n      jump\t// in\n    tag_53:\n      mload(0x40)\n      tag_57\n      swap2\n      swap1\n      tag_39\n      jump\t// in\n    tag_57:\n      mload(0x40)\n      dup1\n      swap2\n      sub\n      swap1\n      return\n        /* \"cryptoMonster.sol\":4448:4611  function processRequest() public onlyPhase(phase.Private) {... */\n    tag_11:\n      tag_58\n      tag_59\n      jump\t// in\n    tag_58:\n      stop\n        /* \"@openzeppelin/contracts/token/ERC20/ERC20.sol\":2369:2471  function symbol() public view virtual override returns (string memory) {... */\n    tag_12:\n      tag_60\n      tag_61\n      jump\t// in\n    tag_60:\n      mload(0x40)\n      tag_62\n      swap2\n      swap1\n      tag_26\n      jump\t// in\n    tag_62:\n      mload(0x40)\n      dup1\n      swap2\n      sub\n      swap1\n      return\n        /* \"@openzeppelin/contracts/token/ERC20/ERC20.sol\":6575:7002  function decreaseAllowance(address spender, uint256 subtractedValue) public virtual returns (bool) {... */\n    tag_13:\n      tag_63\n      0x04\n      dup1\n      calldatasize\n      sub\n      dup2\n      add\n      swap1\n      tag_64\n      swap2\n      swap1\n      tag_29\n      jump\t// in\n    tag_64:\n      tag_65\n      jump\t// in\n    tag_63:\n      mload(0x40)\n      tag_66\n      swap2\n      swap1\n      tag_32\n      jump\t// in\n    tag_66:\n      mload(0x40)\n      dup1\n      swap2\n      sub\n      swap1\n      return\n        /* \"cryptoMonster.sol\":4619:4664  function buyToken() public {... */\n    tag_14:\n      tag_67\n      tag_68\n      jump\t// in\n    tag_67:\n      stop\n        /* \"@openzeppelin/contracts/token/ERC20/ERC20.sol\":3740:3929  function transfer(address to, uint256 amount) public virtual override returns (bool) {... */\n    tag_15:\n      tag_69\n      0x04\n      dup1\n      calldatasize\n      sub\n      dup2\n      add\n      swap1\n      tag_70\n      swap2\n      swap1\n      tag_29\n      jump\t// in\n    tag_70:\n      tag_71\n      jump\t// in\n    tag_69:\n      mload(0x40)\n      tag_72\n      swap2\n      swap1\n      tag_32\n      jump\t// in\n    tag_72:\n      mload(0x40)\n      dup1\n      swap2\n      sub\n      swap1\n      return\n        /* \"cryptoMonster.sol\":3797:4270  function transferTokenFrom(address from, address to, uint256 value) public {... */\n    tag_16:\n      tag_73\n      0x04\n      dup1\n      calldatasize\n      sub\n      dup2\n      add\n      swap1\n      tag_74\n      swap2\n      swap1\n      tag_42\n      jump\t// in\n    tag_74:\n      tag_75\n      jump\t// in\n    tag_73:\n      stop\n        /* \"cryptoMonster.sol\":3258:3328  function IncSysLifeTime1Min() public {... */\n    tag_17:\n      tag_76\n      tag_77\n      jump\t// in\n    tag_76:\n      stop\n        /* \"@openzeppelin/contracts/token/ERC20/ERC20.sol\":3987:4136  function allowance(address owner, address spender) public view virtual override returns (uint256) {... */\n    tag_18:\n      tag_78\n      0x04\n      dup1\n      calldatasize\n      sub\n      dup2\n      add\n      swap1\n      tag_79\n      swap2\n      swap1\n      tag_80\n      jump\t// in\n    tag_79:\n      tag_81\n      jump\t// in\n    tag_78:\n      mload(0x40)\n      tag_82\n      swap2\n      swap1\n      tag_39\n      jump\t// in\n    tag_82:\n      mload(0x40)\n      dup1\n      swap2\n      sub\n      swap1\n      return\n        /* \"cryptoMonster.sol\":4278:4440  function whitelistRequest(string calldata login, address wallet) public onlyPhase(phase.Private) {... */\n    tag_19:\n      tag_83\n      0x04\n      dup1\n      calldatasize\n      sub\n      dup2\n      add\n      swap1\n      tag_84\n      swap2\n      swap1\n      tag_85\n      jump\t// in\n    tag_84:\n      tag_86\n      jump\t// in\n    tag_83:\n      stop\n        /* \"@openzeppelin/contracts/token/ERC20/ERC20.sol\":2158:2256  function name() public view virtual override returns (string memory) {... */\n    tag_24:\n        /* \"@openzeppelin/contracts/token/ERC20/ERC20.sol\":2212:2225  string memory */\n      0x60\n        /* \"@openzeppelin/contracts/token/ERC20/ERC20.sol\":2244:2249  _name */\n      0x03\n        /* \"@openzeppelin/contracts/token/ERC20/ERC20.sol\":2237:2249  return _name */\n      dup1\n      sload\n      tag_88\n      swap1\n      tag_89\n      jump\t// in\n    tag_88:\n      dup1\n      0x1f\n      add\n      0x20\n      dup1\n      swap2\n      div\n      mul\n      0x20\n      add\n      mload(0x40)\n      swap1\n      dup2\n      add\n      0x40\n      mstore\n      dup1\n      swap3\n      swap2\n      swap1\n      dup2\n      dup2\n      mstore\n      0x20\n      add\n      dup3\n      dup1\n      sload\n      tag_90\n      swap1\n      tag_89\n      jump\t// in\n    tag_90:\n      dup1\n      iszero\n      tag_91\n      jumpi\n      dup1\n      0x1f\n      lt\n      tag_92\n      jumpi\n      0x0100\n      dup1\n      dup4\n      sload\n      div\n      mul\n      dup4\n      mstore\n      swap2\n      0x20\n      add\n      swap2\n      jump(tag_91)\n    tag_92:\n      dup3\n      add\n      swap2\n      swap1\n      0x00\n      mstore\n      keccak256(0x00, 0x20)\n      swap1\n    tag_93:\n      dup2\n      sload\n      dup2\n      mstore\n      swap1\n      0x01\n      add\n      swap1\n      0x20\n      add\n      dup1\n      dup4\n      gt\n      tag_93\n      jumpi\n      dup3\n      swap1\n      sub\n      0x1f\n      and\n      dup3\n      add\n      swap2\n    tag_91:\n      pop\n      pop\n      pop\n      pop\n      pop\n      swap1\n      pop\n        /* \"@openzeppelin/contracts/token/ERC20/ERC20.sol\":2158:2256  function name() public view virtual override returns (string memory) {... */\n      swap1\n      jump\t// out\n        /* \"@openzeppelin/contracts/token/ERC20/ERC20.sol\":4444:4641  function approve(address spender, uint256 amount) public virtual override returns (bool) {... */\n    tag_30:\n        /* \"@openzeppelin/contracts/token/ERC20/ERC20.sol\":4527:4531  bool */\n      0x00\n        /* \"@openzeppelin/contracts/token/ERC20/ERC20.sol\":4543:4556  address owner */\n      dup1\n        /* \"@openzeppelin/contracts/token/ERC20/ERC20.sol\":4559:4571  _msgSender() */\n      tag_95\n        /* \"@openzeppelin/contracts/token/ERC20/ERC20.sol\":4559:4569  _msgSender */\n      tag_96\n        /* \"@openzeppelin/contracts/token/ERC20/ERC20.sol\":4559:4571  _msgSender() */\n      jump\t// in\n    tag_95:\n        /* \"@openzeppelin/contracts/token/ERC20/ERC20.sol\":4543:4571  address owner = _msgSender() */\n      swap1\n      pop\n        /* \"@openzeppelin/contracts/token/ERC20/ERC20.sol\":4581:4613  _approve(owner, spender, amount) */\n      tag_97\n        /* \"@openzeppelin/contracts/token/ERC20/ERC20.sol\":4590:4595  owner */\n      dup2\n        /* \"@openzeppelin/contracts/token/ERC20/ERC20.sol\":4597:4604  spender */\n      dup6\n        /* \"@openzeppelin/contracts/token/ERC20/ERC20.sol\":4606:4612  amount */\n      dup6\n        /* \"@openzeppelin/contracts/token/ERC20/ERC20.sol\":4581:4589  _approve */\n      tag_98\n        /* \"@openzeppelin/contracts/token/ERC20/ERC20.sol\":4581:4613  _approve(owner, spender, amount) */\n      jump\t// in\n    tag_97:\n        /* \"@openzeppelin/contracts/token/ERC20/ERC20.sol\":4630:4634  true */\n      0x01\n        /* \"@openzeppelin/contracts/token/ERC20/ERC20.sol\":4623:4634  return true */\n      swap2\n      pop\n      pop\n        /* \"@openzeppelin/contracts/token/ERC20/ERC20.sol\":4444:4641  function approve(address spender, uint256 amount) public virtual override returns (bool) {... */\n      swap3\n      swap2\n      pop\n      pop\n      jump\t// out\n        /* \"cryptoMonster.sol\":3336:3789  function transferToken(address to, uint256 value) public {... */\n    tag_35:\n        /* \"cryptoMonster.sol\":3404:3423  transfer(to, value) */\n      tag_100\n        /* \"cryptoMonster.sol\":3413:3415  to */\n      dup3\n        /* \"cryptoMonster.sol\":3417:3422  value */\n      dup3\n        /* \"cryptoMonster.sol\":3404:3412  transfer */\n      tag_71\n        /* \"cryptoMonster.sol\":3404:3423  transfer(to, value) */\n      jump\t// in\n    tag_100:\n      pop\n        /* \"cryptoMonster.sol\":3453:3458  value */\n      dup1\n        /* \"cryptoMonster.sol\":3437:3450  totalSupply() */\n      tag_101\n        /* \"cryptoMonster.sol\":3437:3448  totalSupply */\n      tag_37\n        /* \"cryptoMonster.sol\":3437:3450  totalSupply() */\n      jump\t// in\n    tag_101:\n        /* \"cryptoMonster.sol\":3437:3458  totalSupply() < value */\n      lt\n        /* \"cryptoMonster.sol\":3434:3552  if(totalSupply() < value) {... */\n      iszero\n      tag_102\n      jumpi\n        /* \"cryptoMonster.sol\":3507:3517  msg.sender */\n      caller\n        /* \"cryptoMonster.sol\":3519:3532  totalSupply() */\n      tag_103\n        /* \"cryptoMonster.sol\":3519:3530  totalSupply */\n      tag_37\n        /* \"cryptoMonster.sol\":3519:3532  totalSupply() */\n      jump\t// in\n    tag_103:\n        /* \"cryptoMonster.sol\":3534:3539  value */\n      dup3\n        /* \"cryptoMonster.sol\":3482:3540  ERC20InsufficientBalance(msg.sender, totalSupply(), value) */\n      mload(0x40)\n      0xe450d38c00000000000000000000000000000000000000000000000000000000\n      dup2\n      mstore\n      0x04\n      add\n      tag_104\n      swap4\n      swap3\n      swap2\n      swap1\n      tag_105\n      jump\t// in\n    tag_104:\n      mload(0x40)\n      dup1\n      swap2\n      sub\n      swap1\n      revert\n        /* \"cryptoMonster.sol\":3434:3552  if(totalSupply() < value) {... */\n    tag_102:\n        /* \"cryptoMonster.sol\":3589:3602  balanceOf(to) */\n      tag_106\n        /* \"cryptoMonster.sol\":3599:3601  to */\n      dup3\n        /* \"cryptoMonster.sol\":3589:3598  balanceOf */\n      tag_56\n        /* \"cryptoMonster.sol\":3589:3602  balanceOf(to) */\n      jump\t// in\n    tag_106:\n        /* \"cryptoMonster.sol\":3581:3586  value */\n      dup2\n        /* \"cryptoMonster.sol\":3565:3578  balanceOf(to) */\n      tag_107\n        /* \"cryptoMonster.sol\":3575:3577  to */\n      dup5\n        /* \"cryptoMonster.sol\":3565:3574  balanceOf */\n      tag_56\n        /* \"cryptoMonster.sol\":3565:3578  balanceOf(to) */\n      jump\t// in\n    tag_107:\n        /* \"cryptoMonster.sol\":3565:3586  balanceOf(to) + value */\n      tag_108\n      swap2\n      swap1\n      tag_109\n      jump\t// in\n    tag_108:\n        /* \"cryptoMonster.sol\":3565:3602  balanceOf(to) + value < balanceOf(to) */\n      lt\n        /* \"cryptoMonster.sol\":3562:3684  if(balanceOf(to) + value < balanceOf(to)) {... */\n      iszero\n      tag_110\n      jumpi\n        /* \"cryptoMonster.sol\":3635:3637  to */\n      dup2\n        /* \"cryptoMonster.sol\":3639:3652  addressToUser */\n      0x0f\n        /* \"cryptoMonster.sol\":3639:3656  addressToUser[to] */\n      0x00\n        /* \"cryptoMonster.sol\":3653:3655  to */\n      dup5\n        /* \"cryptoMonster.sol\":3639:3656  addressToUser[to] */\n      0xffffffffffffffffffffffffffffffffffffffff\n      and\n      0xffffffffffffffffffffffffffffffffffffffff\n      and\n      dup2\n      mstore\n      0x20\n      add\n      swap1\n      dup2\n      mstore\n      0x20\n      add\n      0x00\n      keccak256\n        /* \"cryptoMonster.sol\":3639:3664  addressToUser[to].balance */\n      0x02\n      add\n      sload\n        /* \"cryptoMonster.sol\":3666:3671  value */\n      dup3\n        /* \"cryptoMonster.sol\":3626:3672  Overflow(to, addressToUser[to].balance, value) */\n      mload(0x40)\n      0x33a418de00000000000000000000000000000000000000000000000000000000\n      dup2\n      mstore\n      0x04\n      add\n      tag_111\n      swap4\n      swap3\n      swap2\n      swap1\n      tag_105\n      jump\t// in\n    tag_111:\n      mload(0x40)\n      dup1\n      swap2\n      sub\n      swap1\n      revert\n        /* \"cryptoMonster.sol\":3562:3684  if(balanceOf(to) + value < balanceOf(to)) {... */\n    tag_110:\n        /* \"cryptoMonster.sol\":3731:3736  value */\n      dup1\n        /* \"cryptoMonster.sol\":3694:3707  addressToUser */\n      0x0f\n        /* \"cryptoMonster.sol\":3694:3719  addressToUser[msg.sender] */\n      0x00\n        /* \"cryptoMonster.sol\":3708:3718  msg.sender */\n      caller\n        /* \"cryptoMonster.sol\":3694:3719  addressToUser[msg.sender] */\n      0xffffffffffffffffffffffffffffffffffffffff\n      and\n      0xffffffffffffffffffffffffffffffffffffffff\n      and\n      dup2\n      mstore\n      0x20\n      add\n      swap1\n      dup2\n      mstore\n      0x20\n      add\n      0x00\n      keccak256\n        /* \"cryptoMonster.sol\":3694:3727  addressToUser[msg.sender].balance */\n      0x02\n      add\n      0x00\n        /* \"cryptoMonster.sol\":3694:3736  addressToUser[msg.sender].balance -= value */\n      dup3\n      dup3\n      sload\n      tag_112\n      swap2\n      swap1\n      tag_113\n      jump\t// in\n    tag_112:\n      swap3\n      pop\n      pop\n      dup2\n      swap1\n      sstore\n      pop\n        /* \"cryptoMonster.sol\":3776:3781  value */\n      dup1\n        /* \"cryptoMonster.sol\":3747:3760  addressToUser */\n      0x0f\n        /* \"cryptoMonster.sol\":3747:3764  addressToUser[to] */\n      0x00\n        /* \"cryptoMonster.sol\":3761:3763  to */\n      dup5\n        /* \"cryptoMonster.sol\":3747:3764  addressToUser[to] */\n      0xffffffffffffffffffffffffffffffffffffffff\n      and\n      0xffffffffffffffffffffffffffffffffffffffff\n      and\n      dup2\n      mstore\n      0x20\n      add\n      swap1\n      dup2\n      mstore\n      0x20\n      add\n      0x00\n      keccak256\n        /* \"cryptoMonster.sol\":3747:3772  addressToUser[to].balance */\n      0x02\n      add\n      0x00\n        /* \"cryptoMonster.sol\":3747:3781  addressToUser[to].balance += value */\n      dup3\n      dup3\n      sload\n      tag_114\n      swap2\n      swap1\n      tag_109\n      jump\t// in\n    tag_114:\n      swap3\n      pop\n      pop\n      dup2\n      swap1\n      sstore\n      pop\n        /* \"cryptoMonster.sol\":3336:3789  function transferToken(address to, uint256 value) public {... */\n      pop\n      pop\n      jump\t// out\n        /* \"cryptoMonster.sol\":2896:3017  function totalSupply() public view override returns (uint256) {... */\n    tag_37:\n        /* \"cryptoMonster.sol\":2949:2956  uint256 */\n      0x00\n        /* \"cryptoMonster.sol\":2976:2989  addressToUser */\n      0x0f\n        /* \"cryptoMonster.sol\":2976:3001  addressToUser[msg.sender] */\n      0x00\n        /* \"cryptoMonster.sol\":2990:3000  msg.sender */\n      caller\n        /* \"cryptoMonster.sol\":2976:3001  addressToUser[msg.sender] */\n      0xffffffffffffffffffffffffffffffffffffffff\n      and\n      0xffffffffffffffffffffffffffffffffffffffff\n      and\n      dup2\n      mstore\n      0x20\n      add\n      swap1\n      dup2\n      mstore\n      0x20\n      add\n      0x00\n      keccak256\n        /* \"cryptoMonster.sol\":2976:3009  addressToUser[msg.sender].balance */\n      0x02\n      add\n      sload\n        /* \"cryptoMonster.sol\":2969:3009  return addressToUser[msg.sender].balance */\n      swap1\n      pop\n        /* \"cryptoMonster.sol\":2896:3017  function totalSupply() public view override returns (uint256) {... */\n      swap1\n      jump\t// out\n        /* \"@openzeppelin/contracts/token/ERC20/ERC20.sol\":5203:5459  function transferFrom(address from, address to, uint256 amount) public virtual override returns (bool) {... */\n    tag_43:\n        /* \"@openzeppelin/contracts/token/ERC20/ERC20.sol\":5300:5304  bool */\n      0x00\n        /* \"@openzeppelin/contracts/token/ERC20/ERC20.sol\":5316:5331  address spender */\n      dup1\n        /* \"@openzeppelin/contracts/token/ERC20/ERC20.sol\":5334:5346  _msgSender() */\n      tag_117\n        /* \"@openzeppelin/contracts/token/ERC20/ERC20.sol\":5334:5344  _msgSender */\n      tag_96\n        /* \"@openzeppelin/contracts/token/ERC20/ERC20.sol\":5334:5346  _msgSender() */\n      jump\t// in\n    tag_117:\n        /* \"@openzeppelin/contracts/token/ERC20/ERC20.sol\":5316:5346  address spender = _msgSender() */\n      swap1\n      pop\n        /* \"@openzeppelin/contracts/token/ERC20/ERC20.sol\":5356:5394  _spendAllowance(from, spender, amount) */\n      tag_118\n        /* \"@openzeppelin/contracts/token/ERC20/ERC20.sol\":5372:5376  from */\n      dup6\n        /* \"@openzeppelin/contracts/token/ERC20/ERC20.sol\":5378:5385  spender */\n      dup3\n        /* \"@openzeppelin/contracts/token/ERC20/ERC20.sol\":5387:5393  amount */\n      dup6\n        /* \"@openzeppelin/contracts/token/ERC20/ERC20.sol\":5356:5371  _spendAllowance */\n      tag_119\n        /* \"@openzeppelin/contracts/token/ERC20/ERC20.sol\":5356:5394  _spendAllowance(from, spender, amount) */\n      jump\t// in\n    tag_118:\n        /* \"@openzeppelin/contracts/token/ERC20/ERC20.sol\":5404:5431  _transfer(from, to, amount) */\n      tag_120\n        /* \"@openzeppelin/contracts/token/ERC20/ERC20.sol\":5414:5418  from */\n      dup6\n        /* \"@openzeppelin/contracts/token/ERC20/ERC20.sol\":5420:5422  to */\n      dup6\n        /* \"@openzeppelin/contracts/token/ERC20/ERC20.sol\":5424:5430  amount */\n      dup6\n        /* \"@openzeppelin/contracts/token/ERC20/ERC20.sol\":5404:5413  _transfer */\n      tag_121\n        /* \"@openzeppelin/contracts/token/ERC20/ERC20.sol\":5404:5431  _transfer(from, to, amount) */\n      jump\t// in\n    tag_120:\n        /* \"@openzeppelin/contracts/token/ERC20/ERC20.sol\":5448:5452  true */\n      0x01\n        /* \"@openzeppelin/contracts/token/ERC20/ERC20.sol\":5441:5452  return true */\n      swap2\n      pop\n      pop\n        /* \"@openzeppelin/contracts/token/ERC20/ERC20.sol\":5203:5459  function transferFrom(address from, address to, uint256 amount) public virtual override returns (bool) {... */\n      swap4\n      swap3\n      pop\n      pop\n      pop\n      jump\t// out\n        /* \"cryptoMonster.sol\":3165:3250  function decimals() public pure override returns (uint8) {... */\n    tag_46:\n        /* \"cryptoMonster.sol\":3215:3220  uint8 */\n      0x00\n        /* \"cryptoMonster.sol\":3240:3242  12 */\n      0x0c\n        /* \"cryptoMonster.sol\":3233:3242  return 12 */\n      swap1\n      pop\n        /* \"cryptoMonster.sol\":3165:3250  function decimals() public pure override returns (uint8) {... */\n      swap1\n      jump\t// out\n        /* \"@openzeppelin/contracts/token/ERC20/ERC20.sol\":5854:6088  function increaseAllowance(address spender, uint256 addedValue) public virtual returns (bool) {... */\n    tag_51:\n        /* \"@openzeppelin/contracts/token/ERC20/ERC20.sol\":5942:5946  bool */\n      0x00\n        /* \"@openzeppelin/contracts/token/ERC20/ERC20.sol\":5958:5971  address owner */\n      dup1\n        /* \"@openzeppelin/contracts/token/ERC20/ERC20.sol\":5974:5986  _msgSender() */\n      tag_124\n        /* \"@openzeppelin/contracts/token/ERC20/ERC20.sol\":5974:5984  _msgSender */\n      tag_96\n        /* \"@openzeppelin/contracts/token/ERC20/ERC20.sol\":5974:5986  _msgSender() */\n      jump\t// in\n    tag_124:\n        /* \"@openzeppelin/contracts/token/ERC20/ERC20.sol\":5958:5986  address owner = _msgSender() */\n      swap1\n      pop\n        /* \"@openzeppelin/contracts/token/ERC20/ERC20.sol\":5996:6060  _approve(owner, spender, allowance(owner, spender) + addedValue) */\n      tag_125\n        /* \"@openzeppelin/contracts/token/ERC20/ERC20.sol\":6005:6010  owner */\n      dup2\n        /* \"@openzeppelin/contracts/token/ERC20/ERC20.sol\":6012:6019  spender */\n      dup6\n        /* \"@openzeppelin/contracts/token/ERC20/ERC20.sol\":6049:6059  addedValue */\n      dup6\n        /* \"@openzeppelin/contracts/token/ERC20/ERC20.sol\":6021:6046  allowance(owner, spender) */\n      tag_126\n        /* \"@openzeppelin/contracts/token/ERC20/ERC20.sol\":6031:6036  owner */\n      dup6\n        /* \"@openzeppelin/contracts/token/ERC20/ERC20.sol\":6038:6045  spender */\n      dup10\n        /* \"@openzeppelin/contracts/token/ERC20/ERC20.sol\":6021:6030  allowance */\n      tag_81\n        /* \"@openzeppelin/contracts/token/ERC20/ERC20.sol\":6021:6046  allowance(owner, spender) */\n      jump\t// in\n    tag_126:\n        /* \"@openzeppelin/contracts/token/ERC20/ERC20.sol\":6021:6059  allowance(owner, spender) + addedValue */\n      tag_127\n      swap2\n      swap1\n      tag_109\n      jump\t// in\n    tag_127:\n        /* \"@openzeppelin/contracts/token/ERC20/ERC20.sol\":5996:6004  _approve */\n      tag_98\n        /* \"@openzeppelin/contracts/token/ERC20/ERC20.sol\":5996:6060  _approve(owner, spender, allowance(owner, spender) + addedValue) */\n      jump\t// in\n    tag_125:\n        /* \"@openzeppelin/contracts/token/ERC20/ERC20.sol\":6077:6081  true */\n      0x01\n        /* \"@openzeppelin/contracts/token/ERC20/ERC20.sol\":6070:6081  return true */\n      swap2\n      pop\n      pop\n        /* \"@openzeppelin/contracts/token/ERC20/ERC20.sol\":5854:6088  function increaseAllowance(address spender, uint256 addedValue) public virtual returns (bool) {... */\n      swap3\n      swap2\n      pop\n      pop\n      jump\t// out\n        /* \"cryptoMonster.sol\":3025:3157  function balanceOf(address account) public view override  returns (uint256) {... */\n    tag_56:\n        /* \"cryptoMonster.sol\":3092:3099  uint256 */\n      0x00\n        /* \"cryptoMonster.sol\":3119:3132  addressToUser */\n      0x0f\n        /* \"cryptoMonster.sol\":3119:3141  addressToUser[account] */\n      0x00\n        /* \"cryptoMonster.sol\":3133:3140  account */\n      dup4\n        /* \"cryptoMonster.sol\":3119:3141  addressToUser[account] */\n      0xffffffffffffffffffffffffffffffffffffffff\n      and\n      0xffffffffffffffffffffffffffffffffffffffff\n      and\n      dup2\n      mstore\n      0x20\n      add\n      swap1\n      dup2\n      mstore\n      0x20\n      add\n      0x00\n      keccak256\n        /* \"cryptoMonster.sol\":3119:3149  addressToUser[account].balance */\n      0x02\n      add\n      sload\n        /* \"cryptoMonster.sol\":3112:3149  return addressToUser[account].balance */\n      swap1\n      pop\n        /* \"cryptoMonster.sol\":3025:3157  function balanceOf(address account) public view override  returns (uint256) {... */\n      swap2\n      swap1\n      pop\n      jump\t// out\n        /* \"cryptoMonster.sol\":4448:4611  function processRequest() public onlyPhase(phase.Private) {... */\n    tag_59:\n        /* \"cryptoMonster.sol\":4491:4504  phase.Private */\n      0x01\n        /* \"cryptoMonster.sol\":1609:1623  _updatePhase() */\n      tag_130\n        /* \"cryptoMonster.sol\":1609:1621  _updatePhase */\n      tag_131\n        /* \"cryptoMonster.sol\":1609:1623  _updatePhase() */\n      jump\t// in\n    tag_130:\n        /* \"cryptoMonster.sol\":1654:1660  _phase */\n      dup1\n        /* \"cryptoMonster.sol\":1638:1660  currentPhase != _phase */\n      0x02\n      dup2\n      gt\n      iszero\n      tag_132\n      jumpi\n      tag_133\n      tag_134\n      jump\t// in\n    tag_133:\n    tag_132:\n        /* \"cryptoMonster.sol\":1638:1650  currentPhase */\n      0x05\n      0x00\n      swap1\n      sload\n      swap1\n      0x0100\n      exp\n      swap1\n      div\n      0xff\n      and\n        /* \"cryptoMonster.sol\":1638:1660  currentPhase != _phase */\n      0x02\n      dup2\n      gt\n      iszero\n      tag_135\n      jumpi\n      tag_136\n      tag_134\n      jump\t// in\n    tag_136:\n    tag_135:\n      eq\n        /* \"cryptoMonster.sol\":1634:1714  if (currentPhase != _phase) {... */\n      tag_137\n      jumpi\n        /* \"cryptoMonster.sol\":1684:1702  PermissionDenied() */\n      mload(0x40)\n      0x1e09210400000000000000000000000000000000000000000000000000000000\n      dup2\n      mstore\n      0x04\n      add\n      mload(0x40)\n      dup1\n      swap2\n      sub\n      swap1\n      revert\n        /* \"cryptoMonster.sol\":1634:1714  if (currentPhase != _phase) {... */\n    tag_137:\n        /* \"cryptoMonster.sol\":4535:4550  privateProvider */\n      0x0d\n      0x00\n      swap1\n      sload\n      swap1\n      0x0100\n      exp\n      swap1\n      div\n      0xffffffffffffffffffffffffffffffffffffffff\n      and\n        /* \"cryptoMonster.sol\":4521:4550  msg.sender != privateProvider */\n      0xffffffffffffffffffffffffffffffffffffffff\n      and\n        /* \"cryptoMonster.sol\":4521:4531  msg.sender */\n      caller\n        /* \"cryptoMonster.sol\":4521:4550  msg.sender != privateProvider */\n      0xffffffffffffffffffffffffffffffffffffffff\n      and\n      eq\n        /* \"cryptoMonster.sol\":4517:4604  if (msg.sender != privateProvider) {... */\n      tag_139\n      jumpi\n        /* \"cryptoMonster.sol\":4574:4592  PermissionDenied() */\n      mload(0x40)\n      0x1e09210400000000000000000000000000000000000000000000000000000000\n      dup2\n      mstore\n      0x04\n      add\n      mload(0x40)\n      dup1\n      swap2\n      sub\n      swap1\n      revert\n        /* \"cryptoMonster.sol\":4517:4604  if (msg.sender != privateProvider) {... */\n    tag_139:\n        /* \"cryptoMonster.sol\":4448:4611  function processRequest() public onlyPhase(phase.Private) {... */\n      pop\n      jump\t// out\n        /* \"@openzeppelin/contracts/token/ERC20/ERC20.sol\":2369:2471  function symbol() public view virtual override returns (string memory) {... */\n    tag_61:\n        /* \"@openzeppelin/contracts/token/ERC20/ERC20.sol\":2425:2438  string memory */\n      0x60\n        /* \"@openzeppelin/contracts/token/ERC20/ERC20.sol\":2457:2464  _symbol */\n      0x04\n        /* \"@openzeppelin/contracts/token/ERC20/ERC20.sol\":2450:2464  return _symbol */\n      dup1\n      sload\n      tag_141\n      swap1\n      tag_89\n      jump\t// in\n    tag_141:\n      dup1\n      0x1f\n      add\n      0x20\n      dup1\n      swap2\n      div\n      mul\n      0x20\n      add\n      mload(0x40)\n      swap1\n      dup2\n      add\n      0x40\n      mstore\n      dup1\n      swap3\n      swap2\n      swap1\n      dup2\n      dup2\n      mstore\n      0x20\n      add\n      dup3\n      dup1\n      sload\n      tag_142\n      swap1\n      tag_89\n      jump\t// in\n    tag_142:\n      dup1\n      iszero\n      tag_143\n      jumpi\n      dup1\n      0x1f\n      lt\n      tag_144\n      jumpi\n      0x0100\n      dup1\n      dup4\n      sload\n      div\n      mul\n      dup4\n      mstore\n      swap2\n      0x20\n      add\n      swap2\n      jump(tag_143)\n    tag_144:\n      dup3\n      add\n      swap2\n      swap1\n      0x00\n      mstore\n      keccak256(0x00, 0x20)\n      swap1\n    tag_145:\n      dup2\n      sload\n      dup2\n      mstore\n      swap1\n      0x01\n      add\n      swap1\n      0x20\n      add\n      dup1\n      dup4\n      gt\n      tag_145\n      jumpi\n      dup3\n      swap1\n      sub\n      0x1f\n      and\n      dup3\n      add\n      swap2\n    tag_143:\n      pop\n      pop\n      pop\n      pop\n      pop\n      swap1\n      pop\n        /* \"@openzeppelin/contracts/token/ERC20/ERC20.sol\":2369:2471  function symbol() public view virtual override returns (string memory) {... */\n      swap1\n      jump\t// out\n        /* \"@openzeppelin/contracts/token/ERC20/ERC20.sol\":6575:7002  function decreaseAllowance(address spender, uint256 subtractedValue) public virtual returns (bool) {... */\n    tag_65:\n        /* \"@openzeppelin/contracts/token/ERC20/ERC20.sol\":6668:6672  bool */\n      0x00\n        /* \"@openzeppelin/contracts/token/ERC20/ERC20.sol\":6684:6697  address owner */\n      dup1\n        /* \"@openzeppelin/contracts/token/ERC20/ERC20.sol\":6700:6712  _msgSender() */\n      tag_147\n        /* \"@openzeppelin/contracts/token/ERC20/ERC20.sol\":6700:6710  _msgSender */\n      tag_96\n        /* \"@openzeppelin/contracts/token/ERC20/ERC20.sol\":6700:6712  _msgSender() */\n      jump\t// in\n    tag_147:\n        /* \"@openzeppelin/contracts/token/ERC20/ERC20.sol\":6684:6712  address owner = _msgSender() */\n      swap1\n      pop\n        /* \"@openzeppelin/contracts/token/ERC20/ERC20.sol\":6722:6746  uint256 currentAllowance */\n      0x00\n        /* \"@openzeppelin/contracts/token/ERC20/ERC20.sol\":6749:6774  allowance(owner, spender) */\n      tag_148\n        /* \"@openzeppelin/contracts/token/ERC20/ERC20.sol\":6759:6764  owner */\n      dup3\n        /* \"@openzeppelin/contracts/token/ERC20/ERC20.sol\":6766:6773  spender */\n      dup7\n        /* \"@openzeppelin/contracts/token/ERC20/ERC20.sol\":6749:6758  allowance */\n      tag_81\n        /* \"@openzeppelin/contracts/token/ERC20/ERC20.sol\":6749:6774  allowance(owner, spender) */\n      jump\t// in\n    tag_148:\n        /* \"@openzeppelin/contracts/token/ERC20/ERC20.sol\":6722:6774  uint256 currentAllowance = allowance(owner, spender) */\n      swap1\n      pop\n        /* \"@openzeppelin/contracts/token/ERC20/ERC20.sol\":6812:6827  subtractedValue */\n      dup4\n        /* \"@openzeppelin/contracts/token/ERC20/ERC20.sol\":6792:6808  currentAllowance */\n      dup2\n        /* \"@openzeppelin/contracts/token/ERC20/ERC20.sol\":6792:6827  currentAllowance >= subtractedValue */\n      lt\n      iszero\n        /* \"@openzeppelin/contracts/token/ERC20/ERC20.sol\":6784:6869  require(currentAllowance >= subtractedValue, \"ERC20: decreased allowance below zero\") */\n      tag_149\n      jumpi\n      mload(0x40)\n      0x08c379a000000000000000000000000000000000000000000000000000000000\n      dup2\n      mstore\n      0x04\n      add\n      tag_150\n      swap1\n      tag_151\n      jump\t// in\n    tag_150:\n      mload(0x40)\n      dup1\n      swap2\n      sub\n      swap1\n      revert\n    tag_149:\n        /* \"@openzeppelin/contracts/token/ERC20/ERC20.sol\":6903:6963  _approve(owner, spender, currentAllowance - subtractedValue) */\n      tag_152\n        /* \"@openzeppelin/contracts/token/ERC20/ERC20.sol\":6912:6917  owner */\n      dup3\n        /* \"@openzeppelin/contracts/token/ERC20/ERC20.sol\":6919:6926  spender */\n      dup7\n        /* \"@openzeppelin/contracts/token/ERC20/ERC20.sol\":6947:6962  subtractedValue */\n      dup7\n        /* \"@openzeppelin/contracts/token/ERC20/ERC20.sol\":6928:6944  currentAllowance */\n      dup5\n        /* \"@openzeppelin/contracts/token/ERC20/ERC20.sol\":6928:6962  currentAllowance - subtractedValue */\n      sub\n        /* \"@openzeppelin/contracts/token/ERC20/ERC20.sol\":6903:6911  _approve */\n      tag_98\n        /* \"@openzeppelin/contracts/token/ERC20/ERC20.sol\":6903:6963  _approve(owner, spender, currentAllowance - subtractedValue) */\n      jump\t// in\n    tag_152:\n        /* \"@openzeppelin/contracts/token/ERC20/ERC20.sol\":6991:6995  true */\n      0x01\n        /* \"@openzeppelin/contracts/token/ERC20/ERC20.sol\":6984:6995  return true */\n      swap3\n      pop\n      pop\n      pop\n        /* \"@openzeppelin/contracts/token/ERC20/ERC20.sol\":6575:7002  function decreaseAllowance(address spender, uint256 subtractedValue) public virtual returns (bool) {... */\n      swap3\n      swap2\n      pop\n      pop\n      jump\t// out\n        /* \"cryptoMonster.sol\":4619:4664  function buyToken() public {... */\n    tag_68:\n      jump\t// out\n        /* \"@openzeppelin/contracts/token/ERC20/ERC20.sol\":3740:3929  function transfer(address to, uint256 amount) public virtual override returns (bool) {... */\n    tag_71:\n        /* \"@openzeppelin/contracts/token/ERC20/ERC20.sol\":3819:3823  bool */\n      0x00\n        /* \"@openzeppelin/contracts/token/ERC20/ERC20.sol\":3835:3848  address owner */\n      dup1\n        /* \"@openzeppelin/contracts/token/ERC20/ERC20.sol\":3851:3863  _msgSender() */\n      tag_155\n        /* \"@openzeppelin/contracts/token/ERC20/ERC20.sol\":3851:3861  _msgSender */\n      tag_96\n        /* \"@openzeppelin/contracts/token/ERC20/ERC20.sol\":3851:3863  _msgSender() */\n      jump\t// in\n    tag_155:\n        /* \"@openzeppelin/contracts/token/ERC20/ERC20.sol\":3835:3863  address owner = _msgSender() */\n      swap1\n      pop\n        /* \"@openzeppelin/contracts/token/ERC20/ERC20.sol\":3873:3901  _transfer(owner, to, amount) */\n      tag_156\n        /* \"@openzeppelin/contracts/token/ERC20/ERC20.sol\":3883:3888  owner */\n      dup2\n        /* \"@openzeppelin/contracts/token/ERC20/ERC20.sol\":3890:3892  to */\n      dup6\n        /* \"@openzeppelin/contracts/token/ERC20/ERC20.sol\":3894:3900  amount */\n      dup6\n        /* \"@openzeppelin/contracts/token/ERC20/ERC20.sol\":3873:3882  _transfer */\n      tag_121\n        /* \"@openzeppelin/contracts/token/ERC20/ERC20.sol\":3873:3901  _transfer(owner, to, amount) */\n      jump\t// in\n    tag_156:\n        /* \"@openzeppelin/contracts/token/ERC20/ERC20.sol\":3918:3922  true */\n      0x01\n        /* \"@openzeppelin/contracts/token/ERC20/ERC20.sol\":3911:3922  return true */\n      swap2\n      pop\n      pop\n        /* \"@openzeppelin/contracts/token/ERC20/ERC20.sol\":3740:3929  function transfer(address to, uint256 amount) public virtual override returns (bool) {... */\n      swap3\n      swap2\n      pop\n      pop\n      jump\t// out\n        /* \"cryptoMonster.sol\":3797:4270  function transferTokenFrom(address from, address to, uint256 value) public {... */\n    tag_75:\n        /* \"cryptoMonster.sol\":3883:3912  transferFrom(from, to, value) */\n      tag_158\n        /* \"cryptoMonster.sol\":3896:3900  from */\n      dup4\n        /* \"cryptoMonster.sol\":3902:3904  to */\n      dup4\n        /* \"cryptoMonster.sol\":3906:3911  value */\n      dup4\n        /* \"cryptoMonster.sol\":3883:3895  transferFrom */\n      tag_43\n        /* \"cryptoMonster.sol\":3883:3912  transferFrom(from, to, value) */\n      jump\t// in\n    tag_158:\n      pop\n        /* \"cryptoMonster.sol\":3944:3949  value */\n      dup1\n        /* \"cryptoMonster.sol\":3926:3941  balanceOf(from) */\n      tag_159\n        /* \"cryptoMonster.sol\":3936:3940  from */\n      dup5\n        /* \"cryptoMonster.sol\":3926:3935  balanceOf */\n      tag_56\n        /* \"cryptoMonster.sol\":3926:3941  balanceOf(from) */\n      jump\t// in\n    tag_159:\n        /* \"cryptoMonster.sol\":3926:3949  balanceOf(from) < value */\n      lt\n        /* \"cryptoMonster.sol\":3923:4039  if(balanceOf(from) < value) {... */\n      iszero\n      tag_160\n      jumpi\n        /* \"cryptoMonster.sol\":3998:4002  from */\n      dup3\n        /* \"cryptoMonster.sol\":4004:4019  balanceOf(from) */\n      tag_161\n        /* \"cryptoMonster.sol\":4014:4018  from */\n      dup5\n        /* \"cryptoMonster.sol\":4004:4013  balanceOf */\n      tag_56\n        /* \"cryptoMonster.sol\":4004:4019  balanceOf(from) */\n      jump\t// in\n    tag_161:\n        /* \"cryptoMonster.sol\":4021:4026  value */\n      dup3\n        /* \"cryptoMonster.sol\":3973:4027  ERC20InsufficientBalance(from, balanceOf(from), value) */\n      mload(0x40)\n      0xe450d38c00000000000000000000000000000000000000000000000000000000\n      dup2\n      mstore\n      0x04\n      add\n      tag_162\n      swap4\n      swap3\n      swap2\n      swap1\n      tag_105\n      jump\t// in\n    tag_162:\n      mload(0x40)\n      dup1\n      swap2\n      sub\n      swap1\n      revert\n        /* \"cryptoMonster.sol\":3923:4039  if(balanceOf(from) < value) {... */\n    tag_160:\n        /* \"cryptoMonster.sol\":4076:4089  balanceOf(to) */\n      tag_163\n        /* \"cryptoMonster.sol\":4086:4088  to */\n      dup3\n        /* \"cryptoMonster.sol\":4076:4085  balanceOf */\n      tag_56\n        /* \"cryptoMonster.sol\":4076:4089  balanceOf(to) */\n      jump\t// in\n    tag_163:\n        /* \"cryptoMonster.sol\":4068:4073  value */\n      dup2\n        /* \"cryptoMonster.sol\":4052:4065  balanceOf(to) */\n      tag_164\n        /* \"cryptoMonster.sol\":4062:4064  to */\n      dup5\n        /* \"cryptoMonster.sol\":4052:4061  balanceOf */\n      tag_56\n        /* \"cryptoMonster.sol\":4052:4065  balanceOf(to) */\n      jump\t// in\n    tag_164:\n        /* \"cryptoMonster.sol\":4052:4073  balanceOf(to) + value */\n      tag_165\n      swap2\n      swap1\n      tag_109\n      jump\t// in\n    tag_165:\n        /* \"cryptoMonster.sol\":4052:4089  balanceOf(to) + value < balanceOf(to) */\n      lt\n        /* \"cryptoMonster.sol\":4049:4171  if(balanceOf(to) + value < balanceOf(to)) {... */\n      iszero\n      tag_166\n      jumpi\n        /* \"cryptoMonster.sol\":4122:4124  to */\n      dup2\n        /* \"cryptoMonster.sol\":4126:4139  addressToUser */\n      0x0f\n        /* \"cryptoMonster.sol\":4126:4143  addressToUser[to] */\n      0x00\n        /* \"cryptoMonster.sol\":4140:4142  to */\n      dup5\n        /* \"cryptoMonster.sol\":4126:4143  addressToUser[to] */\n      0xffffffffffffffffffffffffffffffffffffffff\n      and\n      0xffffffffffffffffffffffffffffffffffffffff\n      and\n      dup2\n      mstore\n      0x20\n      add\n      swap1\n      dup2\n      mstore\n      0x20\n      add\n      0x00\n      keccak256\n        /* \"cryptoMonster.sol\":4126:4151  addressToUser[to].balance */\n      0x02\n      add\n      sload\n        /* \"cryptoMonster.sol\":4153:4158  value */\n      dup3\n        /* \"cryptoMonster.sol\":4113:4159  Overflow(to, addressToUser[to].balance, value) */\n      mload(0x40)\n      0x33a418de00000000000000000000000000000000000000000000000000000000\n      dup2\n      mstore\n      0x04\n      add\n      tag_167\n      swap4\n      swap3\n      swap2\n      swap1\n      tag_105\n      jump\t// in\n    tag_167:\n      mload(0x40)\n      dup1\n      swap2\n      sub\n      swap1\n      revert\n        /* \"cryptoMonster.sol\":4049:4171  if(balanceOf(to) + value < balanceOf(to)) {... */\n    tag_166:\n        /* \"cryptoMonster.sol\":4212:4217  value */\n      dup1\n        /* \"cryptoMonster.sol\":4181:4194  addressToUser */\n      0x0f\n        /* \"cryptoMonster.sol\":4181:4200  addressToUser[from] */\n      0x00\n        /* \"cryptoMonster.sol\":4195:4199  from */\n      dup6\n        /* \"cryptoMonster.sol\":4181:4200  addressToUser[from] */\n      0xffffffffffffffffffffffffffffffffffffffff\n      and\n      0xffffffffffffffffffffffffffffffffffffffff\n      and\n      dup2\n      mstore\n      0x20\n      add\n      swap1\n      dup2\n      mstore\n      0x20\n      add\n      0x00\n      keccak256\n        /* \"cryptoMonster.sol\":4181:4208  addressToUser[from].balance */\n      0x02\n      add\n      0x00\n        /* \"cryptoMonster.sol\":4181:4217  addressToUser[from].balance -= value */\n      dup3\n      dup3\n      sload\n      tag_168\n      swap2\n      swap1\n      tag_113\n      jump\t// in\n    tag_168:\n      swap3\n      pop\n      pop\n      dup2\n      swap1\n      sstore\n      pop\n        /* \"cryptoMonster.sol\":4257:4262  value */\n      dup1\n        /* \"cryptoMonster.sol\":4228:4241  addressToUser */\n      0x0f\n        /* \"cryptoMonster.sol\":4228:4245  addressToUser[to] */\n      0x00\n        /* \"cryptoMonster.sol\":4242:4244  to */\n      dup5\n        /* \"cryptoMonster.sol\":4228:4245  addressToUser[to] */\n      0xffffffffffffffffffffffffffffffffffffffff\n      and\n      0xffffffffffffffffffffffffffffffffffffffff\n      and\n      dup2\n      mstore\n      0x20\n      add\n      swap1\n      dup2\n      mstore\n      0x20\n      add\n      0x00\n      keccak256\n        /* \"cryptoMonster.sol\":4228:4253  addressToUser[to].balance */\n      0x02\n      add\n      0x00\n        /* \"cryptoMonster.sol\":4228:4262  addressToUser[to].balance += value */\n      dup3\n      dup3\n      sload\n      tag_169\n      swap2\n      swap1\n      tag_109\n      jump\t// in\n    tag_169:\n      swap3\n      pop\n      pop\n      dup2\n      swap1\n      sstore\n      pop\n        /* \"cryptoMonster.sol\":3797:4270  function transferTokenFrom(address from, address to, uint256 value) public {... */\n      pop\n      pop\n      pop\n      jump\t// out\n        /* \"cryptoMonster.sol\":3258:3328  function IncSysLifeTime1Min() public {... */\n    tag_77:\n        /* \"cryptoMonster.sol\":3318:3320  60 */\n      0x3c\n        /* \"cryptoMonster.sol\":3306:3314  Time_dif */\n      0x0a\n      0x00\n        /* \"cryptoMonster.sol\":3306:3320  Time_dif += 60 */\n      dup3\n      dup3\n      sload\n      tag_171\n      swap2\n      swap1\n      tag_109\n      jump\t// in\n    tag_171:\n      swap3\n      pop\n      pop\n      dup2\n      swap1\n      sstore\n      pop\n        /* \"cryptoMonster.sol\":3258:3328  function IncSysLifeTime1Min() public {... */\n      jump\t// out\n        /* \"@openzeppelin/contracts/token/ERC20/ERC20.sol\":3987:4136  function allowance(address owner, address spender) public view virtual override returns (uint256) {... */\n    tag_81:\n        /* \"@openzeppelin/contracts/token/ERC20/ERC20.sol\":4076:4083  uint256 */\n      0x00\n        /* \"@openzeppelin/contracts/token/ERC20/ERC20.sol\":4102:4113  _allowances */\n      0x01\n        /* \"@openzeppelin/contracts/token/ERC20/ERC20.sol\":4102:4120  _allowances[owner] */\n      0x00\n        /* \"@openzeppelin/contracts/token/ERC20/ERC20.sol\":4114:4119  owner */\n      dup5\n        /* \"@openzeppelin/contracts/token/ERC20/ERC20.sol\":4102:4120  _allowances[owner] */\n      0xffffffffffffffffffffffffffffffffffffffff\n      and\n      0xffffffffffffffffffffffffffffffffffffffff\n      and\n      dup2\n      mstore\n      0x20\n      add\n      swap1\n      dup2\n      mstore\n      0x20\n      add\n      0x00\n      keccak256\n        /* \"@openzeppelin/contracts/token/ERC20/ERC20.sol\":4102:4129  _allowances[owner][spender] */\n      0x00\n        /* \"@openzeppelin/contracts/token/ERC20/ERC20.sol\":4121:4128  spender */\n      dup4\n        /* \"@openzeppelin/contracts/token/ERC20/ERC20.sol\":4102:4129  _allowances[owner][spender] */\n      0xffffffffffffffffffffffffffffffffffffffff\n      and\n      0xffffffffffffffffffffffffffffffffffffffff\n      and\n      dup2\n      mstore\n      0x20\n      add\n      swap1\n      dup2\n      mstore\n      0x20\n      add\n      0x00\n      keccak256\n      sload\n        /* \"@openzeppelin/contracts/token/ERC20/ERC20.sol\":4095:4129  return _allowances[owner][spender] */\n      swap1\n      pop\n        /* \"@openzeppelin/contracts/token/ERC20/ERC20.sol\":3987:4136  function allowance(address owner, address spender) public view virtual override returns (uint256) {... */\n      swap3\n      swap2\n      pop\n      pop\n      jump\t// out\n        /* \"cryptoMonster.sol\":4278:4440  function whitelistRequest(string calldata login, address wallet) public onlyPhase(phase.Private) {... */\n    tag_86:\n        /* \"cryptoMonster.sol\":4360:4373  phase.Private */\n      0x01\n        /* \"cryptoMonster.sol\":1609:1623  _updatePhase() */\n      tag_174\n        /* \"cryptoMonster.sol\":1609:1621  _updatePhase */\n      tag_131\n        /* \"cryptoMonster.sol\":1609:1623  _updatePhase() */\n      jump\t// in\n    tag_174:\n        /* \"cryptoMonster.sol\":1654:1660  _phase */\n      dup1\n        /* \"cryptoMonster.sol\":1638:1660  currentPhase != _phase */\n      0x02\n      dup2\n      gt\n      iszero\n      tag_175\n      jumpi\n      tag_176\n      tag_134\n      jump\t// in\n    tag_176:\n    tag_175:\n        /* \"cryptoMonster.sol\":1638:1650  currentPhase */\n      0x05\n      0x00\n      swap1\n      sload\n      swap1\n      0x0100\n      exp\n      swap1\n      div\n      0xff\n      and\n        /* \"cryptoMonster.sol\":1638:1660  currentPhase != _phase */\n      0x02\n      dup2\n      gt\n      iszero\n      tag_177\n      jumpi\n      tag_178\n      tag_134\n      jump\t// in\n    tag_178:\n    tag_177:\n      eq\n        /* \"cryptoMonster.sol\":1634:1714  if (currentPhase != _phase) {... */\n      tag_179\n      jumpi\n        /* \"cryptoMonster.sol\":1684:1702  PermissionDenied() */\n      mload(0x40)\n      0x1e09210400000000000000000000000000000000000000000000000000000000\n      dup2\n      mstore\n      0x04\n      add\n      mload(0x40)\n      dup1\n      swap2\n      sub\n      swap1\n      revert\n        /* \"cryptoMonster.sol\":1634:1714  if (currentPhase != _phase) {... */\n    tag_179:\n        /* \"cryptoMonster.sol\":4386:4403  whitelistRequests */\n      0x06\n        /* \"cryptoMonster.sol\":4409:4431  Request(login, wallet) */\n      mload(0x40)\n      dup1\n      0x40\n      add\n      0x40\n      mstore\n      dup1\n        /* \"cryptoMonster.sol\":4417:4422  login */\n      dup7\n      dup7\n        /* \"cryptoMonster.sol\":4409:4431  Request(login, wallet) */\n      dup1\n      dup1\n      0x1f\n      add\n      0x20\n      dup1\n      swap2\n      div\n      mul\n      0x20\n      add\n      mload(0x40)\n      swap1\n      dup2\n      add\n      0x40\n      mstore\n      dup1\n      swap4\n      swap3\n      swap2\n      swap1\n      dup2\n      dup2\n      mstore\n      0x20\n      add\n      dup4\n      dup4\n      dup1\n      dup3\n      dup5\n      calldatacopy\n      0x00\n      dup2\n      dup5\n      add\n      mstore\n      not(0x1f)\n      0x1f\n      dup3\n      add\n      and\n      swap1\n      pop\n      dup1\n      dup4\n      add\n      swap3\n      pop\n      pop\n      pop\n      pop\n      pop\n      pop\n      pop\n      dup2\n      mstore\n      0x20\n      add\n        /* \"cryptoMonster.sol\":4424:4430  wallet */\n      dup5\n        /* \"cryptoMonster.sol\":4409:4431  Request(login, wallet) */\n      0xffffffffffffffffffffffffffffffffffffffff\n      and\n      dup2\n      mstore\n      pop\n        /* \"cryptoMonster.sol\":4386:4432  whitelistRequests.push(Request(login, wallet)) */\n      swap1\n      dup1\n      0x01\n      dup2\n      sload\n      add\n      dup1\n      dup3\n      sstore\n      dup1\n      swap2\n      pop\n      pop\n      0x01\n      swap1\n      sub\n      swap1\n      0x00\n      mstore\n      keccak256(0x00, 0x20)\n      swap1\n      0x02\n      mul\n      add\n      0x00\n      swap1\n      swap2\n      swap1\n      swap2\n      swap1\n      swap2\n      pop\n      0x00\n      dup3\n      add\n      mload\n      dup2\n      0x00\n      add\n      swap1\n      dup2\n      tag_182\n      swap2\n      swap1\n      tag_183\n      jump\t// in\n    tag_182:\n      pop\n      0x20\n      dup3\n      add\n      mload\n      dup2\n      0x01\n      add\n      exp(0x0100, 0x00)\n      dup2\n      sload\n      dup2\n      0xffffffffffffffffffffffffffffffffffffffff\n      mul\n      not\n      and\n      swap1\n      dup4\n      0xffffffffffffffffffffffffffffffffffffffff\n      and\n      mul\n      or\n      swap1\n      sstore\n      pop\n      pop\n      pop\n        /* \"cryptoMonster.sol\":4278:4440  function whitelistRequest(string calldata login, address wallet) public onlyPhase(phase.Private) {... */\n      pop\n      pop\n      pop\n      pop\n      jump\t// out\n        /* \"@openzeppelin/contracts/utils/Context.sol\":640:736  function _msgSender() internal view virtual returns (address) {... */\n    tag_96:\n        /* \"@openzeppelin/contracts/utils/Context.sol\":693:700  address */\n      0x00\n        /* \"@openzeppelin/contracts/utils/Context.sol\":719:729  msg.sender */\n      caller\n        /* \"@openzeppelin/contracts/utils/Context.sol\":712:729  return msg.sender */\n      swap1\n      pop\n        /* \"@openzeppelin/contracts/utils/Context.sol\":640:736  function _msgSender() internal view virtual returns (address) {... */\n      swap1\n      jump\t// out\n        /* \"@openzeppelin/contracts/token/ERC20/ERC20.sol\":10457:10797  function _approve(address owner, address spender, uint256 amount) internal virtual {... */\n    tag_98:\n        /* \"@openzeppelin/contracts/token/ERC20/ERC20.sol\":10575:10576  0 */\n      0x00\n        /* \"@openzeppelin/contracts/token/ERC20/ERC20.sol\":10558:10577  owner != address(0) */\n      0xffffffffffffffffffffffffffffffffffffffff\n      and\n        /* \"@openzeppelin/contracts/token/ERC20/ERC20.sol\":10558:10563  owner */\n      dup4\n        /* \"@openzeppelin/contracts/token/ERC20/ERC20.sol\":10558:10577  owner != address(0) */\n      0xffffffffffffffffffffffffffffffffffffffff\n      and\n      sub\n        /* \"@openzeppelin/contracts/token/ERC20/ERC20.sol\":10550:10618  require(owner != address(0), \"ERC20: approve from the zero address\") */\n      tag_186\n      jumpi\n      mload(0x40)\n      0x08c379a000000000000000000000000000000000000000000000000000000000\n      dup2\n      mstore\n      0x04\n      add\n      tag_187\n      swap1\n      tag_188\n      jump\t// in\n    tag_187:\n      mload(0x40)\n      dup1\n      swap2\n      sub\n      swap1\n      revert\n    tag_186:\n        /* \"@openzeppelin/contracts/token/ERC20/ERC20.sol\":10655:10656  0 */\n      0x00\n        /* \"@openzeppelin/contracts/token/ERC20/ERC20.sol\":10636:10657  spender != address(0) */\n      0xffffffffffffffffffffffffffffffffffffffff\n      and\n        /* \"@openzeppelin/contracts/token/ERC20/ERC20.sol\":10636:10643  spender */\n      dup3\n        /* \"@openzeppelin/contracts/token/ERC20/ERC20.sol\":10636:10657  spender != address(0) */\n      0xffffffffffffffffffffffffffffffffffffffff\n      and\n      sub\n        /* \"@openzeppelin/contracts/token/ERC20/ERC20.sol\":10628:10696  require(spender != address(0), \"ERC20: approve to the zero address\") */\n      tag_189\n      jumpi\n      mload(0x40)\n      0x08c379a000000000000000000000000000000000000000000000000000000000\n      dup2\n      mstore\n      0x04\n      add\n      tag_190\n      swap1\n      tag_191\n      jump\t// in\n    tag_190:\n      mload(0x40)\n      dup1\n      swap2\n      sub\n      swap1\n      revert\n    tag_189:\n        /* \"@openzeppelin/contracts/token/ERC20/ERC20.sol\":10737:10743  amount */\n      dup1\n        /* \"@openzeppelin/contracts/token/ERC20/ERC20.sol\":10707:10718  _allowances */\n      0x01\n        /* \"@openzeppelin/contracts/token/ERC20/ERC20.sol\":10707:10725  _allowances[owner] */\n      0x00\n        /* \"@openzeppelin/contracts/token/ERC20/ERC20.sol\":10719:10724  owner */\n      dup6\n        /* \"@openzeppelin/contracts/token/ERC20/ERC20.sol\":10707:10725  _allowances[owner] */\n      0xffffffffffffffffffffffffffffffffffffffff\n      and\n      0xffffffffffffffffffffffffffffffffffffffff\n      and\n      dup2\n      mstore\n      0x20\n      add\n      swap1\n      dup2\n      mstore\n      0x20\n      add\n      0x00\n      keccak256\n        /* \"@openzeppelin/contracts/token/ERC20/ERC20.sol\":10707:10734  _allowances[owner][spender] */\n      0x00\n        /* \"@openzeppelin/contracts/token/ERC20/ERC20.sol\":10726:10733  spender */\n      dup5\n        /* \"@openzeppelin/contracts/token/ERC20/ERC20.sol\":10707:10734  _allowances[owner][spender] */\n      0xffffffffffffffffffffffffffffffffffffffff\n      and\n      0xffffffffffffffffffffffffffffffffffffffff\n      and\n      dup2\n      mstore\n      0x20\n      add\n      swap1\n      dup2\n      mstore\n      0x20\n      add\n      0x00\n      keccak256\n        /* \"@openzeppelin/contracts/token/ERC20/ERC20.sol\":10707:10743  _allowances[owner][spender] = amount */\n      dup2\n      swap1\n      sstore\n      pop\n        /* \"@openzeppelin/contracts/token/ERC20/ERC20.sol\":10774:10781  spender */\n      dup2\n        /* \"@openzeppelin/contracts/token/ERC20/ERC20.sol\":10758:10790  Approval(owner, spender, amount) */\n      0xffffffffffffffffffffffffffffffffffffffff\n      and\n        /* \"@openzeppelin/contracts/token/ERC20/ERC20.sol\":10767:10772  owner */\n      dup4\n        /* \"@openzeppelin/contracts/token/ERC20/ERC20.sol\":10758:10790  Approval(owner, spender, amount) */\n      0xffffffffffffffffffffffffffffffffffffffff\n      and\n      0x8c5be1e5ebec7d5bd14f71427d1e84f3dd0314c0f7b2291e5b200ac8c7c3b925\n        /* \"@openzeppelin/contracts/token/ERC20/ERC20.sol\":10783:10789  amount */\n      dup4\n        /* \"@openzeppelin/contracts/token/ERC20/ERC20.sol\":10758:10790  Approval(owner, spender, amount) */\n      mload(0x40)\n      tag_192\n      swap2\n      swap1\n      tag_39\n      jump\t// in\n    tag_192:\n      mload(0x40)\n      dup1\n      swap2\n      sub\n      swap1\n      log3\n        /* \"@openzeppelin/contracts/token/ERC20/ERC20.sol\":10457:10797  function _approve(address owner, address spender, uint256 amount) internal virtual {... */\n      pop\n      pop\n      pop\n      jump\t// out\n        /* \"@openzeppelin/contracts/token/ERC20/ERC20.sol\":11078:11489  function _spendAllowance(address owner, address spender, uint256 amount) internal virtual {... */\n    tag_119:\n        /* \"@openzeppelin/contracts/token/ERC20/ERC20.sol\":11178:11202  uint256 currentAllowance */\n      0x00\n        /* \"@openzeppelin/contracts/token/ERC20/ERC20.sol\":11205:11230  allowance(owner, spender) */\n      tag_194\n        /* \"@openzeppelin/contracts/token/ERC20/ERC20.sol\":11215:11220  owner */\n      dup5\n        /* \"@openzeppelin/contracts/token/ERC20/ERC20.sol\":11222:11229  spender */\n      dup5\n        /* \"@openzeppelin/contracts/token/ERC20/ERC20.sol\":11205:11214  allowance */\n      tag_81\n        /* \"@openzeppelin/contracts/token/ERC20/ERC20.sol\":11205:11230  allowance(owner, spender) */\n      jump\t// in\n    tag_194:\n        /* \"@openzeppelin/contracts/token/ERC20/ERC20.sol\":11178:11230  uint256 currentAllowance = allowance(owner, spender) */\n      swap1\n      pop\n        /* \"@openzeppelin/contracts/token/ERC20/ERC20.sol\":11264:11281  type(uint256).max */\n      0xffffffffffffffffffffffffffffffffffffffffffffffffffffffffffffffff\n        /* \"@openzeppelin/contracts/token/ERC20/ERC20.sol\":11244:11260  currentAllowance */\n      dup2\n        /* \"@openzeppelin/contracts/token/ERC20/ERC20.sol\":11244:11281  currentAllowance != type(uint256).max */\n      eq\n        /* \"@openzeppelin/contracts/token/ERC20/ERC20.sol\":11240:11483  if (currentAllowance != type(uint256).max) {... */\n      tag_195\n      jumpi\n        /* \"@openzeppelin/contracts/token/ERC20/ERC20.sol\":11325:11331  amount */\n      dup2\n        /* \"@openzeppelin/contracts/token/ERC20/ERC20.sol\":11305:11321  currentAllowance */\n      dup2\n        /* \"@openzeppelin/contracts/token/ERC20/ERC20.sol\":11305:11331  currentAllowance >= amount */\n      lt\n      iszero\n        /* \"@openzeppelin/contracts/token/ERC20/ERC20.sol\":11297:11365  require(currentAllowance >= amount, \"ERC20: insufficient allowance\") */\n      tag_196\n      jumpi\n      mload(0x40)\n      0x08c379a000000000000000000000000000000000000000000000000000000000\n      dup2\n      mstore\n      0x04\n      add\n      tag_197\n      swap1\n      tag_198\n      jump\t// in\n    tag_197:\n      mload(0x40)\n      dup1\n      swap2\n      sub\n      swap1\n      revert\n    tag_196:\n        /* \"@openzeppelin/contracts/token/ERC20/ERC20.sol\":11407:11458  _approve(owner, spender, currentAllowance - amount) */\n      tag_199\n        /* \"@openzeppelin/contracts/token/ERC20/ERC20.sol\":11416:11421  owner */\n      dup5\n        /* \"@openzeppelin/contracts/token/ERC20/ERC20.sol\":11423:11430  spender */\n      dup5\n        /* \"@openzeppelin/contracts/token/ERC20/ERC20.sol\":11451:11457  amount */\n      dup5\n        /* \"@openzeppelin/contracts/token/ERC20/ERC20.sol\":11432:11448  currentAllowance */\n      dup5\n        /* \"@openzeppelin/contracts/token/ERC20/ERC20.sol\":11432:11457  currentAllowance - amount */\n      sub\n        /* \"@openzeppelin/contracts/token/ERC20/ERC20.sol\":11407:11415  _approve */\n      tag_98\n        /* \"@openzeppelin/contracts/token/ERC20/ERC20.sol\":11407:11458  _approve(owner, spender, currentAllowance - amount) */\n      jump\t// in\n    tag_199:\n        /* \"@openzeppelin/contracts/token/ERC20/ERC20.sol\":11240:11483  if (currentAllowance != type(uint256).max) {... */\n    tag_195:\n        /* \"@openzeppelin/contracts/token/ERC20/ERC20.sol\":11168:11489  {... */\n      pop\n        /* \"@openzeppelin/contracts/token/ERC20/ERC20.sol\":11078:11489  function _spendAllowance(address owner, address spender, uint256 amount) internal virtual {... */\n      pop\n      pop\n      pop\n      jump\t// out\n        /* \"@openzeppelin/contracts/token/ERC20/ERC20.sol\":7456:8244  function _transfer(address from, address to, uint256 amount) internal virtual {... */\n    tag_121:\n        /* \"@openzeppelin/contracts/token/ERC20/ERC20.sol\":7568:7569  0 */\n      0x00\n        /* \"@openzeppelin/contracts/token/ERC20/ERC20.sol\":7552:7570  from != address(0) */\n      0xffffffffffffffffffffffffffffffffffffffff\n      and\n        /* \"@openzeppelin/contracts/token/ERC20/ERC20.sol\":7552:7556  from */\n      dup4\n        /* \"@openzeppelin/contracts/token/ERC20/ERC20.sol\":7552:7570  from != address(0) */\n      0xffffffffffffffffffffffffffffffffffffffff\n      and\n      sub\n        /* \"@openzeppelin/contracts/token/ERC20/ERC20.sol\":7544:7612  require(from != address(0), \"ERC20: transfer from the zero address\") */\n      tag_201\n      jumpi\n      mload(0x40)\n      0x08c379a000000000000000000000000000000000000000000000000000000000\n      dup2\n      mstore\n      0x04\n      add\n      tag_202\n      swap1\n      tag_203\n      jump\t// in\n    tag_202:\n      mload(0x40)\n      dup1\n      swap2\n      sub\n      swap1\n      revert\n    tag_201:\n        /* \"@openzeppelin/contracts/token/ERC20/ERC20.sol\":7644:7645  0 */\n      0x00\n        /* \"@openzeppelin/contracts/token/ERC20/ERC20.sol\":7630:7646  to != address(0) */\n      0xffffffffffffffffffffffffffffffffffffffff\n      and\n        /* \"@openzeppelin/contracts/token/ERC20/ERC20.sol\":7630:7632  to */\n      dup3\n        /* \"@openzeppelin/contracts/token/ERC20/ERC20.sol\":7630:7646  to != address(0) */\n      0xffffffffffffffffffffffffffffffffffffffff\n      and\n      sub\n        /* \"@openzeppelin/contracts/token/ERC20/ERC20.sol\":7622:7686  require(to != address(0), \"ERC20: transfer to the zero address\") */\n      tag_204\n      jumpi\n      mload(0x40)\n      0x08c379a000000000000000000000000000000000000000000000000000000000\n      dup2\n      mstore\n      0x04\n      add\n      tag_205\n      swap1\n      tag_206\n      jump\t// in\n    tag_205:\n      mload(0x40)\n      dup1\n      swap2\n      sub\n      swap1\n      revert\n    tag_204:\n        /* \"@openzeppelin/contracts/token/ERC20/ERC20.sol\":7697:7735  _beforeTokenTransfer(from, to, amount) */\n      tag_207\n        /* \"@openzeppelin/contracts/token/ERC20/ERC20.sol\":7718:7722  from */\n      dup4\n        /* \"@openzeppelin/contracts/token/ERC20/ERC20.sol\":7724:7726  to */\n      dup4\n        /* \"@openzeppelin/contracts/token/ERC20/ERC20.sol\":7728:7734  amount */\n      dup4\n        /* \"@openzeppelin/contracts/token/ERC20/ERC20.sol\":7697:7717  _beforeTokenTransfer */\n      tag_208\n        /* \"@openzeppelin/contracts/token/ERC20/ERC20.sol\":7697:7735  _beforeTokenTransfer(from, to, amount) */\n      jump\t// in\n    tag_207:\n        /* \"@openzeppelin/contracts/token/ERC20/ERC20.sol\":7746:7765  uint256 fromBalance */\n      0x00\n        /* \"@openzeppelin/contracts/token/ERC20/ERC20.sol\":7768:7777  _balances */\n      dup1\n        /* \"@openzeppelin/contracts/token/ERC20/ERC20.sol\":7768:7783  _balances[from] */\n      0x00\n        /* \"@openzeppelin/contracts/token/ERC20/ERC20.sol\":7778:7782  from */\n      dup6\n        /* \"@openzeppelin/contracts/token/ERC20/ERC20.sol\":7768:7783  _balances[from] */\n      0xffffffffffffffffffffffffffffffffffffffff\n      and\n      0xffffffffffffffffffffffffffffffffffffffff\n      and\n      dup2\n      mstore\n      0x20\n      add\n      swap1\n      dup2\n      mstore\n      0x20\n      add\n      0x00\n      keccak256\n      sload\n        /* \"@openzeppelin/contracts/token/ERC20/ERC20.sol\":7746:7783  uint256 fromBalance = _balances[from] */\n      swap1\n      pop\n        /* \"@openzeppelin/contracts/token/ERC20/ERC20.sol\":7816:7822  amount */\n      dup2\n        /* \"@openzeppelin/contracts/token/ERC20/ERC20.sol\":7801:7812  fromBalance */\n      dup2\n        /* \"@openzeppelin/contracts/token/ERC20/ERC20.sol\":7801:7822  fromBalance >= amount */\n      lt\n      iszero\n        /* \"@openzeppelin/contracts/token/ERC20/ERC20.sol\":7793:7865  require(fromBalance >= amount, \"ERC20: transfer amount exceeds balance\") */\n      tag_209\n      jumpi\n      mload(0x40)\n      0x08c379a000000000000000000000000000000000000000000000000000000000\n      dup2\n      mstore\n      0x04\n      add\n      tag_210\n      swap1\n      tag_211\n      jump\t// in\n    tag_210:\n      mload(0x40)\n      dup1\n      swap2\n      sub\n      swap1\n      revert\n    tag_209:\n        /* \"@openzeppelin/contracts/token/ERC20/ERC20.sol\":7931:7937  amount */\n      dup2\n        /* \"@openzeppelin/contracts/token/ERC20/ERC20.sol\":7917:7928  fromBalance */\n      dup2\n        /* \"@openzeppelin/contracts/token/ERC20/ERC20.sol\":7917:7937  fromBalance - amount */\n      sub\n        /* \"@openzeppelin/contracts/token/ERC20/ERC20.sol\":7899:7908  _balances */\n      0x00\n        /* \"@openzeppelin/contracts/token/ERC20/ERC20.sol\":7899:7914  _balances[from] */\n      dup1\n        /* \"@openzeppelin/contracts/token/ERC20/ERC20.sol\":7909:7913  from */\n      dup7\n        /* \"@openzeppelin/contracts/token/ERC20/ERC20.sol\":7899:7914  _balances[from] */\n      0xffffffffffffffffffffffffffffffffffffffff\n      and\n      0xffffffffffffffffffffffffffffffffffffffff\n      and\n      dup2\n      mstore\n      0x20\n      add\n      swap1\n      dup2\n      mstore\n      0x20\n      add\n      0x00\n      keccak256\n        /* \"@openzeppelin/contracts/token/ERC20/ERC20.sol\":7899:7937  _balances[from] = fromBalance - amount */\n      dup2\n      swap1\n      sstore\n      pop\n        /* \"@openzeppelin/contracts/token/ERC20/ERC20.sol\":8131:8137  amount */\n      dup2\n        /* \"@openzeppelin/contracts/token/ERC20/ERC20.sol\":8114:8123  _balances */\n      0x00\n        /* \"@openzeppelin/contracts/token/ERC20/ERC20.sol\":8114:8127  _balances[to] */\n      dup1\n        /* \"@openzeppelin/contracts/token/ERC20/ERC20.sol\":8124:8126  to */\n      dup6\n        /* \"@openzeppelin/contracts/token/ERC20/ERC20.sol\":8114:8127  _balances[to] */\n      0xffffffffffffffffffffffffffffffffffffffff\n      and\n      0xffffffffffffffffffffffffffffffffffffffff\n      and\n      dup2\n      mstore\n      0x20\n      add\n      swap1\n      dup2\n      mstore\n      0x20\n      add\n      0x00\n      keccak256\n      0x00\n        /* \"@openzeppelin/contracts/token/ERC20/ERC20.sol\":8114:8137  _balances[to] += amount */\n      dup3\n      dup3\n      sload\n      add\n      swap3\n      pop\n      pop\n      dup2\n      swap1\n      sstore\n      pop\n        /* \"@openzeppelin/contracts/token/ERC20/ERC20.sol\":8178:8180  to */\n      dup3\n        /* \"@openzeppelin/contracts/token/ERC20/ERC20.sol\":8163:8189  Transfer(from, to, amount) */\n      0xffffffffffffffffffffffffffffffffffffffff\n      and\n        /* \"@openzeppelin/contracts/token/ERC20/ERC20.sol\":8172:8176  from */\n      dup5\n        /* \"@openzeppelin/contracts/token/ERC20/ERC20.sol\":8163:8189  Transfer(from, to, amount) */\n      0xffffffffffffffffffffffffffffffffffffffff\n      and\n      0xddf252ad1be2c89b69c2b068fc378daa952ba7f163c4a11628f55a4df523b3ef\n        /* \"@openzeppelin/contracts/token/ERC20/ERC20.sol\":8182:8188  amount */\n      dup5\n        /* \"@openzeppelin/contracts/token/ERC20/ERC20.sol\":8163:8189  Transfer(from, to, amount) */\n      mload(0x40)\n      tag_212\n      swap2\n      swap1\n      tag_39\n      jump\t// in\n    tag_212:\n      mload(0x40)\n      dup1\n      swap2\n      sub\n      swap1\n      log3\n        /* \"@openzeppelin/contracts/token/ERC20/ERC20.sol\":8200:8237  _afterTokenTransfer(from, to, amount) */\n      tag_213\n        /* \"@openzeppelin/contracts/token/ERC20/ERC20.sol\":8220:8224  from */\n      dup5\n        /* \"@openzeppelin/contracts/token/ERC20/ERC20.sol\":8226:8228  to */\n      dup5\n        /* \"@openzeppelin/contracts/token/ERC20/ERC20.sol\":8230:8236  amount */\n      dup5\n        /* \"@openzeppelin/contracts/token/ERC20/ERC20.sol\":8200:8219  _afterTokenTransfer */\n      tag_214\n        /* \"@openzeppelin/contracts/token/ERC20/ERC20.sol\":8200:8237  _afterTokenTransfer(from, to, amount) */\n      jump\t// in\n    tag_213:\n        /* \"@openzeppelin/contracts/token/ERC20/ERC20.sol\":7534:8244  {... */\n      pop\n        /* \"@openzeppelin/contracts/token/ERC20/ERC20.sol\":7456:8244  function _transfer(address from, address to, uint256 amount) internal virtual {... */\n      pop\n      pop\n      pop\n      jump\t// out\n        /* \"cryptoMonster.sol\":4672:5576  function _updatePhase() private {... */\n    tag_131:\n        /* \"cryptoMonster.sol\":4735:4747  phase.Public */\n      0x02\n        /* \"cryptoMonster.sol\":4719:4747  currentPhase != phase.Public */\n      dup1\n      dup2\n      gt\n      iszero\n      tag_216\n      jumpi\n      tag_217\n      tag_134\n      jump\t// in\n    tag_217:\n    tag_216:\n        /* \"cryptoMonster.sol\":4719:4731  currentPhase */\n      0x05\n      0x00\n      swap1\n      sload\n      swap1\n      0x0100\n      exp\n      swap1\n      div\n      0xff\n      and\n        /* \"cryptoMonster.sol\":4719:4747  currentPhase != phase.Public */\n      0x02\n      dup2\n      gt\n      iszero\n      tag_218\n      jumpi\n      tag_219\n      tag_134\n      jump\t// in\n    tag_219:\n    tag_218:\n      eq\n        /* \"cryptoMonster.sol\":4715:5569  if (currentPhase != phase.Public) {... */\n      tag_220\n      jumpi\n        /* \"cryptoMonster.sol\":4775:4790  block.timestamp */\n      timestamp\n        /* \"cryptoMonster.sol\":4764:4772  Time_now */\n      0x08\n        /* \"cryptoMonster.sol\":4764:4790  Time_now = block.timestamp */\n      dup2\n      swap1\n      sstore\n      pop\n        /* \"cryptoMonster.sol\":4830:4838  Time_dif */\n      sload(0x0a)\n        /* \"cryptoMonster.sol\":4819:4827  Time_now */\n      sload(0x08)\n        /* \"cryptoMonster.sol\":4819:4838  Time_now + Time_dif */\n      tag_221\n      swap2\n      swap1\n      tag_109\n      jump\t// in\n    tag_221:\n        /* \"cryptoMonster.sol\":4805:4816  Time_system */\n      0x09\n        /* \"cryptoMonster.sol\":4805:4838  Time_system = Time_now + Time_dif */\n      dup2\n      swap1\n      sstore\n      pop\n        /* \"cryptoMonster.sol\":4853:4877  uint256 minutesFromStart */\n      0x00\n        /* \"cryptoMonster.sol\":4909:4911  60 */\n      0x3c\n        /* \"cryptoMonster.sol\":4895:4905  Time_start */\n      sload(0x07)\n        /* \"cryptoMonster.sol\":4881:4892  Time_system */\n      sload(0x09)\n        /* \"cryptoMonster.sol\":4881:4905  Time_system - Time_start */\n      tag_222\n      swap2\n      swap1\n      tag_113\n      jump\t// in\n    tag_222:\n        /* \"cryptoMonster.sol\":4880:4911  (Time_system - Time_start) / 60 */\n      tag_223\n      swap2\n      swap1\n      tag_224\n      jump\t// in\n    tag_223:\n        /* \"cryptoMonster.sol\":4853:4911  uint256 minutesFromStart = (Time_system - Time_start) / 60 */\n      swap1\n      pop\n        /* \"cryptoMonster.sol\":4946:4956  phase.Seed */\n      0x00\n        /* \"cryptoMonster.sol\":4930:4956  currentPhase == phase.Seed */\n      0x02\n      dup2\n      gt\n      iszero\n      tag_225\n      jumpi\n      tag_226\n      tag_134\n      jump\t// in\n    tag_226:\n    tag_225:\n        /* \"cryptoMonster.sol\":4930:4942  currentPhase */\n      0x05\n      0x00\n      swap1\n      sload\n      swap1\n      0x0100\n      exp\n      swap1\n      div\n      0xff\n      and\n        /* \"cryptoMonster.sol\":4930:4956  currentPhase == phase.Seed */\n      0x02\n      dup2\n      gt\n      iszero\n      tag_227\n      jumpi\n      tag_228\n      tag_134\n      jump\t// in\n    tag_228:\n    tag_227:\n      sub\n        /* \"cryptoMonster.sol\":4926:5558  if (currentPhase == phase.Seed) {... */\n      tag_229\n      jumpi\n        /* \"cryptoMonster.sol\":5000:5002  15 */\n      0x0f\n        /* \"cryptoMonster.sol\":4981:4997  minutesFromStart */\n      dup2\n        /* \"cryptoMonster.sol\":4981:5002  minutesFromStart < 15 */\n      lt\n        /* \"cryptoMonster.sol\":4977:5246  if (minutesFromStart < 15) {... */\n      iszero\n      tag_230\n      jumpi\n        /* \"cryptoMonster.sol\":5042:5055  phase.Private */\n      0x01\n        /* \"cryptoMonster.sol\":5027:5039  currentPhase */\n      0x05\n      0x00\n        /* \"cryptoMonster.sol\":5027:5055  currentPhase = phase.Private */\n      0x0100\n      exp\n      dup2\n      sload\n      dup2\n      0xff\n      mul\n      not\n      and\n      swap1\n      dup4\n      0x02\n      dup2\n      gt\n      iszero\n      tag_231\n      jumpi\n      tag_232\n      tag_134\n      jump\t// in\n    tag_232:\n    tag_231:\n      mul\n      or\n      swap1\n      sstore\n      pop\n        /* \"cryptoMonster.sol\":5090:5103  0.00075 ether */\n      0x02aa1efb94e000\n        /* \"cryptoMonster.sol\":5078:5087  tokenCost */\n      0x0b\n        /* \"cryptoMonster.sol\":5078:5103  tokenCost = 0.00075 ether */\n      dup2\n      swap1\n      sstore\n      pop\n        /* \"cryptoMonster.sol\":5145:5151  100000 */\n      0x0186a0\n        /* \"cryptoMonster.sol\":5126:5142  transactionLimit */\n      0x0c\n        /* \"cryptoMonster.sol\":5126:5151  transactionLimit = 100000 */\n      dup2\n      swap1\n      sstore\n      pop\n        /* \"cryptoMonster.sol\":5174:5226  approve(privateProvider, 3000000 * 10 ** decimals()) */\n      tag_233\n        /* \"cryptoMonster.sol\":5182:5197  privateProvider */\n      0x0d\n      0x00\n      swap1\n      sload\n      swap1\n      0x0100\n      exp\n      swap1\n      div\n      0xffffffffffffffffffffffffffffffffffffffff\n      and\n        /* \"cryptoMonster.sol\":5215:5225  decimals() */\n      tag_234\n        /* \"cryptoMonster.sol\":5215:5223  decimals */\n      tag_46\n        /* \"cryptoMonster.sol\":5215:5225  decimals() */\n      jump\t// in\n    tag_234:\n        /* \"cryptoMonster.sol\":5209:5211  10 */\n      0x0a\n        /* \"cryptoMonster.sol\":5209:5225  10 ** decimals() */\n      tag_235\n      swap2\n      swap1\n      tag_236\n      jump\t// in\n    tag_235:\n        /* \"cryptoMonster.sol\":5199:5206  3000000 */\n      0x2dc6c0\n        /* \"cryptoMonster.sol\":5199:5225  3000000 * 10 ** decimals() */\n      tag_237\n      swap2\n      swap1\n      tag_238\n      jump\t// in\n    tag_237:\n        /* \"cryptoMonster.sol\":5174:5181  approve */\n      tag_30\n        /* \"cryptoMonster.sol\":5174:5226  approve(privateProvider, 3000000 * 10 ** decimals()) */\n      jump\t// in\n    tag_233:\n      pop\n        /* \"cryptoMonster.sol\":4977:5246  if (minutesFromStart < 15) {... */\n    tag_230:\n        /* \"cryptoMonster.sol\":4926:5558  if (currentPhase == phase.Seed) {... */\n      jump(tag_239)\n    tag_229:\n        /* \"cryptoMonster.sol\":5287:5300  phase.Private */\n      0x01\n        /* \"cryptoMonster.sol\":5271:5300  currentPhase == phase.Private */\n      0x02\n      dup2\n      gt\n      iszero\n      tag_240\n      jumpi\n      tag_241\n      tag_134\n      jump\t// in\n    tag_241:\n    tag_240:\n        /* \"cryptoMonster.sol\":5271:5283  currentPhase */\n      0x05\n      0x00\n      swap1\n      sload\n      swap1\n      0x0100\n      exp\n      swap1\n      div\n      0xff\n      and\n        /* \"cryptoMonster.sol\":5271:5300  currentPhase == phase.Private */\n      0x02\n      dup2\n      gt\n      iszero\n      tag_242\n      jumpi\n      tag_243\n      tag_134\n      jump\t// in\n    tag_243:\n    tag_242:\n      sub\n        /* \"cryptoMonster.sol\":5267:5558  if (currentPhase == phase.Private) {... */\n      tag_244\n      jumpi\n        /* \"cryptoMonster.sol\":5345:5347  15 */\n      0x0f\n        /* \"cryptoMonster.sol\":5325:5341  minutesFromStart */\n      dup2\n        /* \"cryptoMonster.sol\":5325:5347  minutesFromStart >= 15 */\n      lt\n        /* \"cryptoMonster.sol\":5321:5543  if (minutesFromStart >= 15) {... */\n      tag_245\n      jumpi\n        /* \"cryptoMonster.sol\":5387:5399  phase.Public */\n      0x02\n        /* \"cryptoMonster.sol\":5372:5384  currentPhase */\n      0x05\n      0x00\n        /* \"cryptoMonster.sol\":5372:5399  currentPhase = phase.Public */\n      0x0100\n      exp\n      dup2\n      sload\n      dup2\n      0xff\n      mul\n      not\n      and\n      swap1\n      dup4\n      0x02\n      dup2\n      gt\n      iszero\n      tag_246\n      jumpi\n      tag_247\n      tag_134\n      jump\t// in\n    tag_247:\n    tag_246:\n      mul\n      or\n      swap1\n      sstore\n      pop\n        /* \"cryptoMonster.sol\":5422:5449  approve(privateProvider, 0) */\n      tag_248\n        /* \"cryptoMonster.sol\":5430:5445  privateProvider */\n      0x0d\n      0x00\n      swap1\n      sload\n      swap1\n      0x0100\n      exp\n      swap1\n      div\n      0xffffffffffffffffffffffffffffffffffffffff\n      and\n        /* \"cryptoMonster.sol\":5447:5448  0 */\n      0x00\n        /* \"cryptoMonster.sol\":5422:5429  approve */\n      tag_30\n        /* \"cryptoMonster.sol\":5422:5449  approve(privateProvider, 0) */\n      jump\t// in\n    tag_248:\n      pop\n        /* \"cryptoMonster.sol\":5472:5523  approve(publicProvider, 6000000 * 10 ** decimals()) */\n      tag_249\n        /* \"cryptoMonster.sol\":5480:5494  publicProvider */\n      0x0e\n      0x00\n      swap1\n      sload\n      swap1\n      0x0100\n      exp\n      swap1\n      div\n      0xffffffffffffffffffffffffffffffffffffffff\n      and\n        /* \"cryptoMonster.sol\":5512:5522  decimals() */\n      tag_250\n        /* \"cryptoMonster.sol\":5512:5520  decimals */\n      tag_46\n        /* \"cryptoMonster.sol\":5512:5522  decimals() */\n      jump\t// in\n    tag_250:\n        /* \"cryptoMonster.sol\":5506:5508  10 */\n      0x0a\n        /* \"cryptoMonster.sol\":5506:5522  10 ** decimals() */\n      tag_251\n      swap2\n      swap1\n      tag_236\n      jump\t// in\n    tag_251:\n        /* \"cryptoMonster.sol\":5496:5503  6000000 */\n      0x5b8d80\n        /* \"cryptoMonster.sol\":5496:5522  6000000 * 10 ** decimals() */\n      tag_252\n      swap2\n      swap1\n      tag_238\n      jump\t// in\n    tag_252:\n        /* \"cryptoMonster.sol\":5472:5479  approve */\n      tag_30\n        /* \"cryptoMonster.sol\":5472:5523  approve(publicProvider, 6000000 * 10 ** decimals()) */\n      jump\t// in\n    tag_249:\n      pop\n        /* \"cryptoMonster.sol\":5321:5543  if (minutesFromStart >= 15) {... */\n    tag_245:\n        /* \"cryptoMonster.sol\":5267:5558  if (currentPhase == phase.Private) {... */\n    tag_244:\n        /* \"cryptoMonster.sol\":4926:5558  if (currentPhase == phase.Seed) {... */\n    tag_239:\n        /* \"cryptoMonster.sol\":4749:5569  {... */\n      pop\n        /* \"cryptoMonster.sol\":4715:5569  if (currentPhase != phase.Public) {... */\n    tag_220:\n        /* \"cryptoMonster.sol\":4672:5576  function _updatePhase() private {... */\n      jump\t// out\n        /* \"@openzeppelin/contracts/token/ERC20/ERC20.sol\":12073:12164  function _beforeTokenTransfer(address from, address to, uint256 amount) internal virtual {} */\n    tag_208:\n      pop\n      pop\n      pop\n      jump\t// out\n        /* \"@openzeppelin/contracts/token/ERC20/ERC20.sol\":12752:12842  function _afterTokenTransfer(address from, address to, uint256 amount) internal virtual {} */\n    tag_214:\n      pop\n      pop\n      pop\n      jump\t// out\n        /* \"#utility.yul\":7:106   */\n    tag_255:\n        /* \"#utility.yul\":59:65   */\n      0x00\n        /* \"#utility.yul\":93:98   */\n      dup2\n        /* \"#utility.yul\":87:99   */\n      mload\n        /* \"#utility.yul\":77:99   */\n      swap1\n      pop\n        /* \"#utility.yul\":7:106   */\n      swap2\n      swap1\n      pop\n      jump\t// out\n        /* \"#utility.yul\":112:281   */\n    tag_256:\n        /* \"#utility.yul\":196:207   */\n      0x00\n        /* \"#utility.yul\":230:236   */\n      dup3\n        /* \"#utility.yul\":225:228   */\n      dup3\n        /* \"#utility.yul\":218:237   */\n      mstore\n        /* \"#utility.yul\":270:274   */\n      0x20\n        /* \"#utility.yul\":265:268   */\n      dup3\n        /* \"#utility.yul\":261:275   */\n      add\n        /* \"#utility.yul\":246:275   */\n      swap1\n      pop\n        /* \"#utility.yul\":112:281   */\n      swap3\n      swap2\n      pop\n      pop\n      jump\t// out\n        /* \"#utility.yul\":287:533   */\n    tag_257:\n        /* \"#utility.yul\":368:369   */\n      0x00\n        /* \"#utility.yul\":378:491   */\n    tag_320:\n        /* \"#utility.yul\":392:398   */\n      dup4\n        /* \"#utility.yul\":389:390   */\n      dup2\n        /* \"#utility.yul\":386:399   */\n      lt\n        /* \"#utility.yul\":378:491   */\n      iszero\n      tag_322\n      jumpi\n        /* \"#utility.yul\":477:478   */\n      dup1\n        /* \"#utility.yul\":472:475   */\n      dup3\n        /* \"#utility.yul\":468:479   */\n      add\n        /* \"#utility.yul\":462:480   */\n      mload\n        /* \"#utility.yul\":458:459   */\n      dup2\n        /* \"#utility.yul\":453:456   */\n      dup5\n        /* \"#utility.yul\":449:460   */\n      add\n        /* \"#utility.yul\":442:481   */\n      mstore\n        /* \"#utility.yul\":414:416   */\n      0x20\n        /* \"#utility.yul\":411:412   */\n      dup2\n        /* \"#utility.yul\":407:417   */\n      add\n        /* \"#utility.yul\":402:417   */\n      swap1\n      pop\n        /* \"#utility.yul\":378:491   */\n      jump(tag_320)\n    tag_322:\n        /* \"#utility.yul\":525:526   */\n      0x00\n        /* \"#utility.yul\":516:522   */\n      dup5\n        /* \"#utility.yul\":511:514   */\n      dup5\n        /* \"#utility.yul\":507:523   */\n      add\n        /* \"#utility.yul\":500:527   */\n      mstore\n        /* \"#utility.yul\":349:533   */\n      pop\n        /* \"#utility.yul\":287:533   */\n      pop\n      pop\n      pop\n      jump\t// out\n        /* \"#utility.yul\":539:641   */\n    tag_258:\n        /* \"#utility.yul\":580:586   */\n      0x00\n        /* \"#utility.yul\":631:633   */\n      0x1f\n        /* \"#utility.yul\":627:634   */\n      not\n        /* \"#utility.yul\":622:624   */\n      0x1f\n        /* \"#utility.yul\":615:620   */\n      dup4\n        /* \"#utility.yul\":611:625   */\n      add\n        /* \"#utility.yul\":607:635   */\n      and\n        /* \"#utility.yul\":597:635   */\n      swap1\n      pop\n        /* \"#utility.yul\":539:641   */\n      swap2\n      swap1\n      pop\n      jump\t// out\n        /* \"#utility.yul\":647:1024   */\n    tag_259:\n        /* \"#utility.yul\":735:738   */\n      0x00\n        /* \"#utility.yul\":763:802   */\n      tag_325\n        /* \"#utility.yul\":796:801   */\n      dup3\n        /* \"#utility.yul\":763:802   */\n      tag_255\n      jump\t// in\n    tag_325:\n        /* \"#utility.yul\":818:889   */\n      tag_326\n        /* \"#utility.yul\":882:888   */\n      dup2\n        /* \"#utility.yul\":877:880   */\n      dup6\n        /* \"#utility.yul\":818:889   */\n      tag_256\n      jump\t// in\n    tag_326:\n        /* \"#utility.yul\":811:889   */\n      swap4\n      pop\n        /* \"#utility.yul\":898:963   */\n      tag_327\n        /* \"#utility.yul\":956:962   */\n      dup2\n        /* \"#utility.yul\":951:954   */\n      dup6\n        /* \"#utility.yul\":944:948   */\n      0x20\n        /* \"#utility.yul\":937:942   */\n      dup7\n        /* \"#utility.yul\":933:949   */\n      add\n        /* \"#utility.yul\":898:963   */\n      tag_257\n      jump\t// in\n    tag_327:\n        /* \"#utility.yul\":988:1017   */\n      tag_328\n        /* \"#utility.yul\":1010:1016   */\n      dup2\n        /* \"#utility.yul\":988:1017   */\n      tag_258\n      jump\t// in\n    tag_328:\n        /* \"#utility.yul\":983:986   */\n      dup5\n        /* \"#utility.yul\":979:1018   */\n      add\n        /* \"#utility.yul\":972:1018   */\n      swap2\n      pop\n        /* \"#utility.yul\":739:1024   */\n      pop\n        /* \"#utility.yul\":647:1024   */\n      swap3\n      swap2\n      pop\n      pop\n      jump\t// out\n        /* \"#utility.yul\":1030:1343   */\n    tag_26:\n        /* \"#utility.yul\":1143:1147   */\n      0x00\n        /* \"#utility.yul\":1181:1183   */\n      0x20\n        /* \"#utility.yul\":1170:1179   */\n      dup3\n        /* \"#utility.yul\":1166:1184   */\n      add\n        /* \"#utility.yul\":1158:1184   */\n      swap1\n      pop\n        /* \"#utility.yul\":1230:1239   */\n      dup2\n        /* \"#utility.yul\":1224:1228   */\n      dup2\n        /* \"#utility.yul\":1220:1240   */\n      sub\n        /* \"#utility.yul\":1216:1217   */\n      0x00\n        /* \"#utility.yul\":1205:1214   */\n      dup4\n        /* \"#utility.yul\":1201:1218   */\n      add\n        /* \"#utility.yul\":1194:1241   */\n      mstore\n        /* \"#utility.yul\":1258:1336   */\n      tag_330\n        /* \"#utility.yul\":1331:1335   */\n      dup2\n        /* \"#utility.yul\":1322:1328   */\n      dup5\n        /* \"#utility.yul\":1258:1336   */\n      tag_259\n      jump\t// in\n    tag_330:\n        /* \"#utility.yul\":1250:1336   */\n      swap1\n      pop\n        /* \"#utility.yul\":1030:1343   */\n      swap3\n      swap2\n      pop\n      pop\n      jump\t// out\n        /* \"#utility.yul\":1430:1547   */\n    tag_261:\n        /* \"#utility.yul\":1539:1540   */\n      0x00\n        /* \"#utility.yul\":1536:1537   */\n      dup1\n        /* \"#utility.yul\":1529:1541   */\n      revert\n        /* \"#utility.yul\":1553:1670   */\n    tag_262:\n        /* \"#utility.yul\":1662:1663   */\n      0x00\n        /* \"#utility.yul\":1659:1660   */\n      dup1\n        /* \"#utility.yul\":1652:1664   */\n      revert\n        /* \"#utility.yul\":1676:1802   */\n    tag_263:\n        /* \"#utility.yul\":1713:1720   */\n      0x00\n        /* \"#utility.yul\":1753:1795   */\n      0xffffffffffffffffffffffffffffffffffffffff\n        /* \"#utility.yul\":1746:1751   */\n      dup3\n        /* \"#utility.yul\":1742:1796   */\n      and\n        /* \"#utility.yul\":1731:1796   */\n      swap1\n      pop\n        /* \"#utility.yul\":1676:1802   */\n      swap2\n      swap1\n      pop\n      jump\t// out\n        /* \"#utility.yul\":1808:1904   */\n    tag_264:\n        /* \"#utility.yul\":1845:1852   */\n      0x00\n        /* \"#utility.yul\":1874:1898   */\n      tag_336\n        /* \"#utility.yul\":1892:1897   */\n      dup3\n        /* \"#utility.yul\":1874:1898   */\n      tag_263\n      jump\t// in\n    tag_336:\n        /* \"#utility.yul\":1863:1898   */\n      swap1\n      pop\n        /* \"#utility.yul\":1808:1904   */\n      swap2\n      swap1\n      pop\n      jump\t// out\n        /* \"#utility.yul\":1910:2032   */\n    tag_265:\n        /* \"#utility.yul\":1983:2007   */\n      tag_338\n        /* \"#utility.yul\":2001:2006   */\n      dup2\n        /* \"#utility.yul\":1983:2007   */\n      tag_264\n      jump\t// in\n    tag_338:\n        /* \"#utility.yul\":1976:1981   */\n      dup2\n        /* \"#utility.yul\":1973:2008   */\n      eq\n        /* \"#utility.yul\":1963:2026   */\n      tag_339\n      jumpi\n        /* \"#utility.yul\":2022:2023   */\n      0x00\n        /* \"#utility.yul\":2019:2020   */\n      dup1\n        /* \"#utility.yul\":2012:2024   */\n      revert\n        /* \"#utility.yul\":1963:2026   */\n    tag_339:\n        /* \"#utility.yul\":1910:2032   */\n      pop\n      jump\t// out\n        /* \"#utility.yul\":2038:2177   */\n    tag_266:\n        /* \"#utility.yul\":2084:2089   */\n      0x00\n        /* \"#utility.yul\":2122:2128   */\n      dup2\n        /* \"#utility.yul\":2109:2129   */\n      calldataload\n        /* \"#utility.yul\":2100:2129   */\n      swap1\n      pop\n        /* \"#utility.yul\":2138:2171   */\n      tag_341\n        /* \"#utility.yul\":2165:2170   */\n      dup2\n        /* \"#utility.yul\":2138:2171   */\n      tag_265\n      jump\t// in\n    tag_341:\n        /* \"#utility.yul\":2038:2177   */\n      swap3\n      swap2\n      pop\n      pop\n      jump\t// out\n        /* \"#utility.yul\":2183:2260   */\n    tag_267:\n        /* \"#utility.yul\":2220:2227   */\n      0x00\n        /* \"#utility.yul\":2249:2254   */\n      dup2\n        /* \"#utility.yul\":2238:2254   */\n      swap1\n      pop\n        /* \"#utility.yul\":2183:2260   */\n      swap2\n      swap1\n      pop\n      jump\t// out\n        /* \"#utility.yul\":2266:2388   */\n    tag_268:\n        /* \"#utility.yul\":2339:2363   */\n      tag_344\n        /* \"#utility.yul\":2357:2362   */\n      dup2\n        /* \"#utility.yul\":2339:2363   */\n      tag_267\n      jump\t// in\n    tag_344:\n        /* \"#utility.yul\":2332:2337   */\n      dup2\n        /* \"#utility.yul\":2329:2364   */\n      eq\n        /* \"#utility.yul\":2319:2382   */\n      tag_345\n      jumpi\n        /* \"#utility.yul\":2378:2379   */\n      0x00\n        /* \"#utility.yul\":2375:2376   */\n      dup1\n        /* \"#utility.yul\":2368:2380   */\n      revert\n        /* \"#utility.yul\":2319:2382   */\n    tag_345:\n        /* \"#utility.yul\":2266:2388   */\n      pop\n      jump\t// out\n        /* \"#utility.yul\":2394:2533   */\n    tag_269:\n        /* \"#utility.yul\":2440:2445   */\n      0x00\n        /* \"#utility.yul\":2478:2484   */\n      dup2\n        /* \"#utility.yul\":2465:2485   */\n      calldataload\n        /* \"#utility.yul\":2456:2485   */\n      swap1\n      pop\n        /* \"#utility.yul\":2494:2527   */\n      tag_347\n        /* \"#utility.yul\":2521:2526   */\n      dup2\n        /* \"#utility.yul\":2494:2527   */\n      tag_268\n      jump\t// in\n    tag_347:\n        /* \"#utility.yul\":2394:2533   */\n      swap3\n      swap2\n      pop\n      pop\n      jump\t// out\n        /* \"#utility.yul\":2539:3013   */\n    tag_29:\n        /* \"#utility.yul\":2607:2613   */\n      0x00\n        /* \"#utility.yul\":2615:2621   */\n      dup1\n        /* \"#utility.yul\":2664:2666   */\n      0x40\n        /* \"#utility.yul\":2652:2661   */\n      dup4\n        /* \"#utility.yul\":2643:2650   */\n      dup6\n        /* \"#utility.yul\":2639:2662   */\n      sub\n        /* \"#utility.yul\":2635:2667   */\n      slt\n        /* \"#utility.yul\":2632:2751   */\n      iszero\n      tag_349\n      jumpi\n        /* \"#utility.yul\":2670:2749   */\n      tag_350\n      tag_261\n      jump\t// in\n    tag_350:\n        /* \"#utility.yul\":2632:2751   */\n    tag_349:\n        /* \"#utility.yul\":2790:2791   */\n      0x00\n        /* \"#utility.yul\":2815:2868   */\n      tag_351\n        /* \"#utility.yul\":2860:2867   */\n      dup6\n        /* \"#utility.yul\":2851:2857   */\n      dup3\n        /* \"#utility.yul\":2840:2849   */\n      dup7\n        /* \"#utility.yul\":2836:2858   */\n      add\n        /* \"#utility.yul\":2815:2868   */\n      tag_266\n      jump\t// in\n    tag_351:\n        /* \"#utility.yul\":2805:2868   */\n      swap3\n      pop\n        /* \"#utility.yul\":2761:2878   */\n      pop\n        /* \"#utility.yul\":2917:2919   */\n      0x20\n        /* \"#utility.yul\":2943:2996   */\n      tag_352\n        /* \"#utility.yul\":2988:2995   */\n      dup6\n        /* \"#utility.yul\":2979:2985   */\n      dup3\n        /* \"#utility.yul\":2968:2977   */\n      dup7\n        /* \"#utility.yul\":2964:2986   */\n      add\n        /* \"#utility.yul\":2943:2996   */\n      tag_269\n      jump\t// in\n    tag_352:\n        /* \"#utility.yul\":2933:2996   */\n      swap2\n      pop\n        /* \"#utility.yul\":2888:3006   */\n      pop\n        /* \"#utility.yul\":2539:3013   */\n      swap3\n      pop\n      swap3\n      swap1\n      pop\n      jump\t// out\n        /* \"#utility.yul\":3019:3109   */\n    tag_270:\n        /* \"#utility.yul\":3053:3060   */\n      0x00\n        /* \"#utility.yul\":3096:3101   */\n      dup2\n        /* \"#utility.yul\":3089:3102   */\n      iszero\n        /* \"#utility.yul\":3082:3103   */\n      iszero\n        /* \"#utility.yul\":3071:3103   */\n      swap1\n      pop\n        /* \"#utility.yul\":3019:3109   */\n      swap2\n      swap1\n      pop\n      jump\t// out\n        /* \"#utility.yul\":3115:3224   */\n    tag_271:\n        /* \"#utility.yul\":3196:3217   */\n      tag_355\n        /* \"#utility.yul\":3211:3216   */\n      dup2\n        /* \"#utility.yul\":3196:3217   */\n      tag_270\n      jump\t// in\n    tag_355:\n        /* \"#utility.yul\":3191:3194   */\n      dup3\n        /* \"#utility.yul\":3184:3218   */\n      mstore\n        /* \"#utility.yul\":3115:3224   */\n      pop\n      pop\n      jump\t// out\n        /* \"#utility.yul\":3230:3440   */\n    tag_32:\n        /* \"#utility.yul\":3317:3321   */\n      0x00\n        /* \"#utility.yul\":3355:3357   */\n      0x20\n        /* \"#utility.yul\":3344:3353   */\n      dup3\n        /* \"#utility.yul\":3340:3358   */\n      add\n        /* \"#utility.yul\":3332:3358   */\n      swap1\n      pop\n        /* \"#utility.yul\":3368:3433   */\n      tag_357\n        /* \"#utility.yul\":3430:3431   */\n      0x00\n        /* \"#utility.yul\":3419:3428   */\n      dup4\n        /* \"#utility.yul\":3415:3432   */\n      add\n        /* \"#utility.yul\":3406:3412   */\n      dup5\n        /* \"#utility.yul\":3368:3433   */\n      tag_271\n      jump\t// in\n    tag_357:\n        /* \"#utility.yul\":3230:3440   */\n      swap3\n      swap2\n      pop\n      pop\n      jump\t// out\n        /* \"#utility.yul\":3446:3564   */\n    tag_272:\n        /* \"#utility.yul\":3533:3557   */\n      tag_359\n        /* \"#utility.yul\":3551:3556   */\n      dup2\n        /* \"#utility.yul\":3533:3557   */\n      tag_267\n      jump\t// in\n    tag_359:\n        /* \"#utility.yul\":3528:3531   */\n      dup3\n        /* \"#utility.yul\":3521:3558   */\n      mstore\n        /* \"#utility.yul\":3446:3564   */\n      pop\n      pop\n      jump\t// out\n        /* \"#utility.yul\":3570:3792   */\n    tag_39:\n        /* \"#utility.yul\":3663:3667   */\n      0x00\n        /* \"#utility.yul\":3701:3703   */\n      0x20\n        /* \"#utility.yul\":3690:3699   */\n      dup3\n        /* \"#utility.yul\":3686:3704   */\n      add\n        /* \"#utility.yul\":3678:3704   */\n      swap1\n      pop\n        /* \"#utility.yul\":3714:3785   */\n      tag_361\n        /* \"#utility.yul\":3782:3783   */\n      0x00\n        /* \"#utility.yul\":3771:3780   */\n      dup4\n        /* \"#utility.yul\":3767:3784   */\n      add\n        /* \"#utility.yul\":3758:3764   */\n      dup5\n        /* \"#utility.yul\":3714:3785   */\n      tag_272\n      jump\t// in\n    tag_361:\n        /* \"#utility.yul\":3570:3792   */\n      swap3\n      swap2\n      pop\n      pop\n      jump\t// out\n        /* \"#utility.yul\":3798:4417   */\n    tag_42:\n        /* \"#utility.yul\":3875:3881   */\n      0x00\n        /* \"#utility.yul\":3883:3889   */\n      dup1\n        /* \"#utility.yul\":3891:3897   */\n      0x00\n        /* \"#utility.yul\":3940:3942   */\n      0x60\n        /* \"#utility.yul\":3928:3937   */\n      dup5\n        /* \"#utility.yul\":3919:3926   */\n      dup7\n        /* \"#utility.yul\":3915:3938   */\n      sub\n        /* \"#utility.yul\":3911:3943   */\n      slt\n        /* \"#utility.yul\":3908:4027   */\n      iszero\n      tag_363\n      jumpi\n        /* \"#utility.yul\":3946:4025   */\n      tag_364\n      tag_261\n      jump\t// in\n    tag_364:\n        /* \"#utility.yul\":3908:4027   */\n    tag_363:\n        /* \"#utility.yul\":4066:4067   */\n      0x00\n        /* \"#utility.yul\":4091:4144   */\n      tag_365\n        /* \"#utility.yul\":4136:4143   */\n      dup7\n        /* \"#utility.yul\":4127:4133   */\n      dup3\n        /* \"#utility.yul\":4116:4125   */\n      dup8\n        /* \"#utility.yul\":4112:4134   */\n      add\n        /* \"#utility.yul\":4091:4144   */\n      tag_266\n      jump\t// in\n    tag_365:\n        /* \"#utility.yul\":4081:4144   */\n      swap4\n      pop\n        /* \"#utility.yul\":4037:4154   */\n      pop\n        /* \"#utility.yul\":4193:4195   */\n      0x20\n        /* \"#utility.yul\":4219:4272   */\n      tag_366\n        /* \"#utility.yul\":4264:4271   */\n      dup7\n        /* \"#utility.yul\":4255:4261   */\n      dup3\n        /* \"#utility.yul\":4244:4253   */\n      dup8\n        /* \"#utility.yul\":4240:4262   */\n      add\n        /* \"#utility.yul\":4219:4272   */\n      tag_266\n      jump\t// in\n    tag_366:\n        /* \"#utility.yul\":4209:4272   */\n      swap3\n      pop\n        /* \"#utility.yul\":4164:4282   */\n      pop\n        /* \"#utility.yul\":4321:4323   */\n      0x40\n        /* \"#utility.yul\":4347:4400   */\n      tag_367\n        /* \"#utility.yul\":4392:4399   */\n      dup7\n        /* \"#utility.yul\":4383:4389   */\n      dup3\n        /* \"#utility.yul\":4372:4381   */\n      dup8\n        /* \"#utility.yul\":4368:4390   */\n      add\n        /* \"#utility.yul\":4347:4400   */\n      tag_269\n      jump\t// in\n    tag_367:\n        /* \"#utility.yul\":4337:4400   */\n      swap2\n      pop\n        /* \"#utility.yul\":4292:4410   */\n      pop\n        /* \"#utility.yul\":3798:4417   */\n      swap3\n      pop\n      swap3\n      pop\n      swap3\n      jump\t// out\n        /* \"#utility.yul\":4423:4509   */\n    tag_273:\n        /* \"#utility.yul\":4458:4465   */\n      0x00\n        /* \"#utility.yul\":4498:4502   */\n      0xff\n        /* \"#utility.yul\":4491:4496   */\n      dup3\n        /* \"#utility.yul\":4487:4503   */\n      and\n        /* \"#utility.yul\":4476:4503   */\n      swap1\n      pop\n        /* \"#utility.yul\":4423:4509   */\n      swap2\n      swap1\n      pop\n      jump\t// out\n        /* \"#utility.yul\":4515:4627   */\n    tag_274:\n        /* \"#utility.yul\":4598:4620   */\n      tag_370\n        /* \"#utility.yul\":4614:4619   */\n      dup2\n        /* \"#utility.yul\":4598:4620   */\n      tag_273\n      jump\t// in\n    tag_370:\n        /* \"#utility.yul\":4593:4596   */\n      dup3\n        /* \"#utility.yul\":4586:4621   */\n      mstore\n        /* \"#utility.yul\":4515:4627   */\n      pop\n      pop\n      jump\t// out\n        /* \"#utility.yul\":4633:4847   */\n    tag_48:\n        /* \"#utility.yul\":4722:4726   */\n      0x00\n        /* \"#utility.yul\":4760:4762   */\n      0x20\n        /* \"#utility.yul\":4749:4758   */\n      dup3\n        /* \"#utility.yul\":4745:4763   */\n      add\n        /* \"#utility.yul\":4737:4763   */\n      swap1\n      pop\n        /* \"#utility.yul\":4773:4840   */\n      tag_372\n        /* \"#utility.yul\":4837:4838   */\n      0x00\n        /* \"#utility.yul\":4826:4835   */\n      dup4\n        /* \"#utility.yul\":4822:4839   */\n      add\n        /* \"#utility.yul\":4813:4819   */\n      dup5\n        /* \"#utility.yul\":4773:4840   */\n      tag_274\n      jump\t// in\n    tag_372:\n        /* \"#utility.yul\":4633:4847   */\n      swap3\n      swap2\n      pop\n      pop\n      jump\t// out\n        /* \"#utility.yul\":4853:5182   */\n    tag_55:\n        /* \"#utility.yul\":4912:4918   */\n      0x00\n        /* \"#utility.yul\":4961:4963   */\n      0x20\n        /* \"#utility.yul\":4949:4958   */\n      dup3\n        /* \"#utility.yul\":4940:4947   */\n      dup5\n        /* \"#utility.yul\":4936:4959   */\n      sub\n        /* \"#utility.yul\":4932:4964   */\n      slt\n        /* \"#utility.yul\":4929:5048   */\n      iszero\n      tag_374\n      jumpi\n        /* \"#utility.yul\":4967:5046   */\n      tag_375\n      tag_261\n      jump\t// in\n    tag_375:\n        /* \"#utility.yul\":4929:5048   */\n    tag_374:\n        /* \"#utility.yul\":5087:5088   */\n      0x00\n        /* \"#utility.yul\":5112:5165   */\n      tag_376\n        /* \"#utility.yul\":5157:5164   */\n      dup5\n        /* \"#utility.yul\":5148:5154   */\n      dup3\n        /* \"#utility.yul\":5137:5146   */\n      dup6\n        /* \"#utility.yul\":5133:5155   */\n      add\n        /* \"#utility.yul\":5112:5165   */\n      tag_266\n      jump\t// in\n    tag_376:\n        /* \"#utility.yul\":5102:5165   */\n      swap2\n      pop\n        /* \"#utility.yul\":5058:5175   */\n      pop\n        /* \"#utility.yul\":4853:5182   */\n      swap3\n      swap2\n      pop\n      pop\n      jump\t// out\n        /* \"#utility.yul\":5188:5662   */\n    tag_80:\n        /* \"#utility.yul\":5256:5262   */\n      0x00\n        /* \"#utility.yul\":5264:5270   */\n      dup1\n        /* \"#utility.yul\":5313:5315   */\n      0x40\n        /* \"#utility.yul\":5301:5310   */\n      dup4\n        /* \"#utility.yul\":5292:5299   */\n      dup6\n        /* \"#utility.yul\":5288:5311   */\n      sub\n        /* \"#utility.yul\":5284:5316   */\n      slt\n        /* \"#utility.yul\":5281:5400   */\n      iszero\n      tag_378\n      jumpi\n        /* \"#utility.yul\":5319:5398   */\n      tag_379\n      tag_261\n      jump\t// in\n    tag_379:\n        /* \"#utility.yul\":5281:5400   */\n    tag_378:\n        /* \"#utility.yul\":5439:5440   */\n      0x00\n        /* \"#utility.yul\":5464:5517   */\n      tag_380\n        /* \"#utility.yul\":5509:5516   */\n      dup6\n        /* \"#utility.yul\":5500:5506   */\n      dup3\n        /* \"#utility.yul\":5489:5498   */\n      dup7\n        /* \"#utility.yul\":5485:5507   */\n      add\n        /* \"#utility.yul\":5464:5517   */\n      tag_266\n      jump\t// in\n    tag_380:\n        /* \"#utility.yul\":5454:5517   */\n      swap3\n      pop\n        /* \"#utility.yul\":5410:5527   */\n      pop\n        /* \"#utility.yul\":5566:5568   */\n      0x20\n        /* \"#utility.yul\":5592:5645   */\n      tag_381\n        /* \"#utility.yul\":5637:5644   */\n      dup6\n        /* \"#utility.yul\":5628:5634   */\n      dup3\n        /* \"#utility.yul\":5617:5626   */\n      dup7\n        /* \"#utility.yul\":5613:5635   */\n      add\n        /* \"#utility.yul\":5592:5645   */\n      tag_266\n      jump\t// in\n    tag_381:\n        /* \"#utility.yul\":5582:5645   */\n      swap2\n      pop\n        /* \"#utility.yul\":5537:5655   */\n      pop\n        /* \"#utility.yul\":5188:5662   */\n      swap3\n      pop\n      swap3\n      swap1\n      pop\n      jump\t// out\n        /* \"#utility.yul\":5668:5785   */\n    tag_275:\n        /* \"#utility.yul\":5777:5778   */\n      0x00\n        /* \"#utility.yul\":5774:5775   */\n      dup1\n        /* \"#utility.yul\":5767:5779   */\n      revert\n        /* \"#utility.yul\":5791:5908   */\n    tag_276:\n        /* \"#utility.yul\":5900:5901   */\n      0x00\n        /* \"#utility.yul\":5897:5898   */\n      dup1\n        /* \"#utility.yul\":5890:5902   */\n      revert\n        /* \"#utility.yul\":5914:6031   */\n    tag_277:\n        /* \"#utility.yul\":6023:6024   */\n      0x00\n        /* \"#utility.yul\":6020:6021   */\n      dup1\n        /* \"#utility.yul\":6013:6025   */\n      revert\n        /* \"#utility.yul\":6051:6604   */\n    tag_278:\n        /* \"#utility.yul\":6109:6117   */\n      0x00\n        /* \"#utility.yul\":6119:6125   */\n      dup1\n        /* \"#utility.yul\":6169:6172   */\n      dup4\n        /* \"#utility.yul\":6162:6166   */\n      0x1f\n        /* \"#utility.yul\":6154:6160   */\n      dup5\n        /* \"#utility.yul\":6150:6167   */\n      add\n        /* \"#utility.yul\":6146:6173   */\n      slt\n        /* \"#utility.yul\":6136:6258   */\n      tag_386\n      jumpi\n        /* \"#utility.yul\":6177:6256   */\n      tag_387\n      tag_275\n      jump\t// in\n    tag_387:\n        /* \"#utility.yul\":6136:6258   */\n    tag_386:\n        /* \"#utility.yul\":6290:6296   */\n      dup3\n        /* \"#utility.yul\":6277:6297   */\n      calldataload\n        /* \"#utility.yul\":6267:6297   */\n      swap1\n      pop\n        /* \"#utility.yul\":6320:6338   */\n      0xffffffffffffffff\n        /* \"#utility.yul\":6312:6318   */\n      dup2\n        /* \"#utility.yul\":6309:6339   */\n      gt\n        /* \"#utility.yul\":6306:6423   */\n      iszero\n      tag_388\n      jumpi\n        /* \"#utility.yul\":6342:6421   */\n      tag_389\n      tag_276\n      jump\t// in\n    tag_389:\n        /* \"#utility.yul\":6306:6423   */\n    tag_388:\n        /* \"#utility.yul\":6456:6460   */\n      0x20\n        /* \"#utility.yul\":6448:6454   */\n      dup4\n        /* \"#utility.yul\":6444:6461   */\n      add\n        /* \"#utility.yul\":6432:6461   */\n      swap2\n      pop\n        /* \"#utility.yul\":6510:6513   */\n      dup4\n        /* \"#utility.yul\":6502:6506   */\n      0x01\n        /* \"#utility.yul\":6494:6500   */\n      dup3\n        /* \"#utility.yul\":6490:6507   */\n      mul\n        /* \"#utility.yul\":6480:6488   */\n      dup4\n        /* \"#utility.yul\":6476:6508   */\n      add\n        /* \"#utility.yul\":6473:6514   */\n      gt\n        /* \"#utility.yul\":6470:6598   */\n      iszero\n      tag_390\n      jumpi\n        /* \"#utility.yul\":6517:6596   */\n      tag_391\n      tag_277\n      jump\t// in\n    tag_391:\n        /* \"#utility.yul\":6470:6598   */\n    tag_390:\n        /* \"#utility.yul\":6051:6604   */\n      swap3\n      pop\n      swap3\n      swap1\n      pop\n      jump\t// out\n        /* \"#utility.yul\":6610:7284   */\n    tag_85:\n        /* \"#utility.yul\":6690:6696   */\n      0x00\n        /* \"#utility.yul\":6698:6704   */\n      dup1\n        /* \"#utility.yul\":6706:6712   */\n      0x00\n        /* \"#utility.yul\":6755:6757   */\n      0x40\n        /* \"#utility.yul\":6743:6752   */\n      dup5\n        /* \"#utility.yul\":6734:6741   */\n      dup7\n        /* \"#utility.yul\":6730:6753   */\n      sub\n        /* \"#utility.yul\":6726:6758   */\n      slt\n        /* \"#utility.yul\":6723:6842   */\n      iszero\n      tag_393\n      jumpi\n        /* \"#utility.yul\":6761:6840   */\n      tag_394\n      tag_261\n      jump\t// in\n    tag_394:\n        /* \"#utility.yul\":6723:6842   */\n    tag_393:\n        /* \"#utility.yul\":6909:6910   */\n      0x00\n        /* \"#utility.yul\":6898:6907   */\n      dup5\n        /* \"#utility.yul\":6894:6911   */\n      add\n        /* \"#utility.yul\":6881:6912   */\n      calldataload\n        /* \"#utility.yul\":6939:6957   */\n      0xffffffffffffffff\n        /* \"#utility.yul\":6931:6937   */\n      dup2\n        /* \"#utility.yul\":6928:6958   */\n      gt\n        /* \"#utility.yul\":6925:7042   */\n      iszero\n      tag_395\n      jumpi\n        /* \"#utility.yul\":6961:7040   */\n      tag_396\n      tag_262\n      jump\t// in\n    tag_396:\n        /* \"#utility.yul\":6925:7042   */\n    tag_395:\n        /* \"#utility.yul\":7074:7139   */\n      tag_397\n        /* \"#utility.yul\":7131:7138   */\n      dup7\n        /* \"#utility.yul\":7122:7128   */\n      dup3\n        /* \"#utility.yul\":7111:7120   */\n      dup8\n        /* \"#utility.yul\":7107:7129   */\n      add\n        /* \"#utility.yul\":7074:7139   */\n      tag_278\n      jump\t// in\n    tag_397:\n        /* \"#utility.yul\":7056:7139   */\n      swap4\n      pop\n      swap4\n      pop\n        /* \"#utility.yul\":6852:7149   */\n      pop\n        /* \"#utility.yul\":7188:7190   */\n      0x20\n        /* \"#utility.yul\":7214:7267   */\n      tag_398\n        /* \"#utility.yul\":7259:7266   */\n      dup7\n        /* \"#utility.yul\":7250:7256   */\n      dup3\n        /* \"#utility.yul\":7239:7248   */\n      dup8\n        /* \"#utility.yul\":7235:7257   */\n      add\n        /* \"#utility.yul\":7214:7267   */\n      tag_266\n      jump\t// in\n    tag_398:\n        /* \"#utility.yul\":7204:7267   */\n      swap2\n      pop\n        /* \"#utility.yul\":7159:7277   */\n      pop\n        /* \"#utility.yul\":6610:7284   */\n      swap3\n      pop\n      swap3\n      pop\n      swap3\n      jump\t// out\n        /* \"#utility.yul\":7290:7470   */\n    tag_279:\n        /* \"#utility.yul\":7338:7415   */\n      0x4e487b7100000000000000000000000000000000000000000000000000000000\n        /* \"#utility.yul\":7335:7336   */\n      0x00\n        /* \"#utility.yul\":7328:7416   */\n      mstore\n        /* \"#utility.yul\":7435:7439   */\n      0x22\n        /* \"#utility.yul\":7432:7433   */\n      0x04\n        /* \"#utility.yul\":7425:7440   */\n      mstore\n        /* \"#utility.yul\":7459:7463   */\n      0x24\n        /* \"#utility.yul\":7456:7457   */\n      0x00\n        /* \"#utility.yul\":7449:7464   */\n      revert\n        /* \"#utility.yul\":7476:7796   */\n    tag_89:\n        /* \"#utility.yul\":7520:7526   */\n      0x00\n        /* \"#utility.yul\":7557:7558   */\n      0x02\n        /* \"#utility.yul\":7551:7555   */\n      dup3\n        /* \"#utility.yul\":7547:7559   */\n      div\n        /* \"#utility.yul\":7537:7559   */\n      swap1\n      pop\n        /* \"#utility.yul\":7604:7605   */\n      0x01\n        /* \"#utility.yul\":7598:7602   */\n      dup3\n        /* \"#utility.yul\":7594:7606   */\n      and\n        /* \"#utility.yul\":7625:7643   */\n      dup1\n        /* \"#utility.yul\":7615:7696   */\n      tag_401\n      jumpi\n        /* \"#utility.yul\":7681:7685   */\n      0x7f\n        /* \"#utility.yul\":7673:7679   */\n      dup3\n        /* \"#utility.yul\":7669:7686   */\n      and\n        /* \"#utility.yul\":7659:7686   */\n      swap2\n      pop\n        /* \"#utility.yul\":7615:7696   */\n    tag_401:\n        /* \"#utility.yul\":7743:7745   */\n      0x20\n        /* \"#utility.yul\":7735:7741   */\n      dup3\n        /* \"#utility.yul\":7732:7746   */\n      lt\n        /* \"#utility.yul\":7712:7730   */\n      dup2\n        /* \"#utility.yul\":7709:7747   */\n      sub\n        /* \"#utility.yul\":7706:7790   */\n      tag_402\n      jumpi\n        /* \"#utility.yul\":7762:7780   */\n      tag_403\n      tag_279\n      jump\t// in\n    tag_403:\n        /* \"#utility.yul\":7706:7790   */\n    tag_402:\n        /* \"#utility.yul\":7527:7796   */\n      pop\n        /* \"#utility.yul\":7476:7796   */\n      swap2\n      swap1\n      pop\n      jump\t// out\n        /* \"#utility.yul\":7802:7920   */\n    tag_280:\n        /* \"#utility.yul\":7889:7913   */\n      tag_405\n        /* \"#utility.yul\":7907:7912   */\n      dup2\n        /* \"#utility.yul\":7889:7913   */\n      tag_264\n      jump\t// in\n    tag_405:\n        /* \"#utility.yul\":7884:7887   */\n      dup3\n        /* \"#utility.yul\":7877:7914   */\n      mstore\n        /* \"#utility.yul\":7802:7920   */\n      pop\n      pop\n      jump\t// out\n        /* \"#utility.yul\":7926:8368   */\n    tag_105:\n        /* \"#utility.yul\":8075:8079   */\n      0x00\n        /* \"#utility.yul\":8113:8115   */\n      0x60\n        /* \"#utility.yul\":8102:8111   */\n      dup3\n        /* \"#utility.yul\":8098:8116   */\n      add\n        /* \"#utility.yul\":8090:8116   */\n      swap1\n      pop\n        /* \"#utility.yul\":8126:8197   */\n      tag_407\n        /* \"#utility.yul\":8194:8195   */\n      0x00\n        /* \"#utility.yul\":8183:8192   */\n      dup4\n        /* \"#utility.yul\":8179:8196   */\n      add\n        /* \"#utility.yul\":8170:8176   */\n      dup7\n        /* \"#utility.yul\":8126:8197   */\n      tag_280\n      jump\t// in\n    tag_407:\n        /* \"#utility.yul\":8207:8279   */\n      tag_408\n        /* \"#utility.yul\":8275:8277   */\n      0x20\n        /* \"#utility.yul\":8264:8273   */\n      dup4\n        /* \"#utility.yul\":8260:8278   */\n      add\n        /* \"#utility.yul\":8251:8257   */\n      dup6\n        /* \"#utility.yul\":8207:8279   */\n      tag_272\n      jump\t// in\n    tag_408:\n        /* \"#utility.yul\":8289:8361   */\n      tag_409\n        /* \"#utility.yul\":8357:8359   */\n      0x40\n        /* \"#utility.yul\":8346:8355   */\n      dup4\n        /* \"#utility.yul\":8342:8360   */\n      add\n        /* \"#utility.yul\":8333:8339   */\n      dup5\n        /* \"#utility.yul\":8289:8361   */\n      tag_272\n      jump\t// in\n    tag_409:\n        /* \"#utility.yul\":7926:8368   */\n      swap5\n      swap4\n      pop\n      pop\n      pop\n      pop\n      jump\t// out\n        /* \"#utility.yul\":8374:8554   */\n    tag_281:\n        /* \"#utility.yul\":8422:8499   */\n      0x4e487b7100000000000000000000000000000000000000000000000000000000\n        /* \"#utility.yul\":8419:8420   */\n      0x00\n        /* \"#utility.yul\":8412:8500   */\n      mstore\n        /* \"#utility.yul\":8519:8523   */\n      0x11\n        /* \"#utility.yul\":8516:8517   */\n      0x04\n        /* \"#utility.yul\":8509:8524   */\n      mstore\n        /* \"#utility.yul\":8543:8547   */\n      0x24\n        /* \"#utility.yul\":8540:8541   */\n      0x00\n        /* \"#utility.yul\":8533:8548   */\n      revert\n        /* \"#utility.yul\":8560:8751   */\n    tag_109:\n        /* \"#utility.yul\":8600:8603   */\n      0x00\n        /* \"#utility.yul\":8619:8639   */\n      tag_412\n        /* \"#utility.yul\":8637:8638   */\n      dup3\n        /* \"#utility.yul\":8619:8639   */\n      tag_267\n      jump\t// in\n    tag_412:\n        /* \"#utility.yul\":8614:8639   */\n      swap2\n      pop\n        /* \"#utility.yul\":8653:8673   */\n      tag_413\n        /* \"#utility.yul\":8671:8672   */\n      dup4\n        /* \"#utility.yul\":8653:8673   */\n      tag_267\n      jump\t// in\n    tag_413:\n        /* \"#utility.yul\":8648:8673   */\n      swap3\n      pop\n        /* \"#utility.yul\":8696:8697   */\n      dup3\n        /* \"#utility.yul\":8693:8694   */\n      dup3\n        /* \"#utility.yul\":8689:8698   */\n      add\n        /* \"#utility.yul\":8682:8698   */\n      swap1\n      pop\n        /* \"#utility.yul\":8717:8720   */\n      dup1\n        /* \"#utility.yul\":8714:8715   */\n      dup3\n        /* \"#utility.yul\":8711:8721   */\n      gt\n        /* \"#utility.yul\":8708:8744   */\n      iszero\n      tag_414\n      jumpi\n        /* \"#utility.yul\":8724:8742   */\n      tag_415\n      tag_281\n      jump\t// in\n    tag_415:\n        /* \"#utility.yul\":8708:8744   */\n    tag_414:\n        /* \"#utility.yul\":8560:8751   */\n      swap3\n      swap2\n      pop\n      pop\n      jump\t// out\n        /* \"#utility.yul\":8757:8951   */\n    tag_113:\n        /* \"#utility.yul\":8797:8801   */\n      0x00\n        /* \"#utility.yul\":8817:8837   */\n      tag_417\n        /* \"#utility.yul\":8835:8836   */\n      dup3\n        /* \"#utility.yul\":8817:8837   */\n      tag_267\n      jump\t// in\n    tag_417:\n        /* \"#utility.yul\":8812:8837   */\n      swap2\n      pop\n        /* \"#utility.yul\":8851:8871   */\n      tag_418\n        /* \"#utility.yul\":8869:8870   */\n      dup4\n        /* \"#utility.yul\":8851:8871   */\n      tag_267\n      jump\t// in\n    tag_418:\n        /* \"#utility.yul\":8846:8871   */\n      swap3\n      pop\n        /* \"#utility.yul\":8895:8896   */\n      dup3\n        /* \"#utility.yul\":8892:8893   */\n      dup3\n        /* \"#utility.yul\":8888:8897   */\n      sub\n        /* \"#utility.yul\":8880:8897   */\n      swap1\n      pop\n        /* \"#utility.yul\":8919:8920   */\n      dup2\n        /* \"#utility.yul\":8913:8917   */\n      dup2\n        /* \"#utility.yul\":8910:8921   */\n      gt\n        /* \"#utility.yul\":8907:8944   */\n      iszero\n      tag_419\n      jumpi\n        /* \"#utility.yul\":8924:8942   */\n      tag_420\n      tag_281\n      jump\t// in\n    tag_420:\n        /* \"#utility.yul\":8907:8944   */\n    tag_419:\n        /* \"#utility.yul\":8757:8951   */\n      swap3\n      swap2\n      pop\n      pop\n      jump\t// out\n        /* \"#utility.yul\":8957:9137   */\n    tag_134:\n        /* \"#utility.yul\":9005:9082   */\n      0x4e487b7100000000000000000000000000000000000000000000000000000000\n        /* \"#utility.yul\":9002:9003   */\n      0x00\n        /* \"#utility.yul\":8995:9083   */\n      mstore\n        /* \"#utility.yul\":9102:9106   */\n      0x21\n        /* \"#utility.yul\":9099:9100   */\n      0x04\n        /* \"#utility.yul\":9092:9107   */\n      mstore\n        /* \"#utility.yul\":9126:9130   */\n      0x24\n        /* \"#utility.yul\":9123:9124   */\n      0x00\n        /* \"#utility.yul\":9116:9131   */\n      revert\n        /* \"#utility.yul\":9143:9367   */\n    tag_282:\n        /* \"#utility.yul\":9283:9317   */\n      0x45524332303a2064656372656173656420616c6c6f77616e63652062656c6f77\n        /* \"#utility.yul\":9279:9280   */\n      0x00\n        /* \"#utility.yul\":9271:9277   */\n      dup3\n        /* \"#utility.yul\":9267:9281   */\n      add\n        /* \"#utility.yul\":9260:9318   */\n      mstore\n        /* \"#utility.yul\":9352:9359   */\n      0x207a65726f000000000000000000000000000000000000000000000000000000\n        /* \"#utility.yul\":9347:9349   */\n      0x20\n        /* \"#utility.yul\":9339:9345   */\n      dup3\n        /* \"#utility.yul\":9335:9350   */\n      add\n        /* \"#utility.yul\":9328:9360   */\n      mstore\n        /* \"#utility.yul\":9143:9367   */\n      pop\n      jump\t// out\n        /* \"#utility.yul\":9373:9739   */\n    tag_283:\n        /* \"#utility.yul\":9515:9518   */\n      0x00\n        /* \"#utility.yul\":9536:9603   */\n      tag_424\n        /* \"#utility.yul\":9600:9602   */\n      0x25\n        /* \"#utility.yul\":9595:9598   */\n      dup4\n        /* \"#utility.yul\":9536:9603   */\n      tag_256\n      jump\t// in\n    tag_424:\n        /* \"#utility.yul\":9529:9603   */\n      swap2\n      pop\n        /* \"#utility.yul\":9612:9705   */\n      tag_425\n        /* \"#utility.yul\":9701:9704   */\n      dup3\n        /* \"#utility.yul\":9612:9705   */\n      tag_282\n      jump\t// in\n    tag_425:\n        /* \"#utility.yul\":9730:9732   */\n      0x40\n        /* \"#utility.yul\":9725:9728   */\n      dup3\n        /* \"#utility.yul\":9721:9733   */\n      add\n        /* \"#utility.yul\":9714:9733   */\n      swap1\n      pop\n        /* \"#utility.yul\":9373:9739   */\n      swap2\n      swap1\n      pop\n      jump\t// out\n        /* \"#utility.yul\":9745:10164   */\n    tag_151:\n        /* \"#utility.yul\":9911:9915   */\n      0x00\n        /* \"#utility.yul\":9949:9951   */\n      0x20\n        /* \"#utility.yul\":9938:9947   */\n      dup3\n        /* \"#utility.yul\":9934:9952   */\n      add\n        /* \"#utility.yul\":9926:9952   */\n      swap1\n      pop\n        /* \"#utility.yul\":9998:10007   */\n      dup2\n        /* \"#utility.yul\":9992:9996   */\n      dup2\n        /* \"#utility.yul\":9988:10008   */\n      sub\n        /* \"#utility.yul\":9984:9985   */\n      0x00\n        /* \"#utility.yul\":9973:9982   */\n      dup4\n        /* \"#utility.yul\":9969:9986   */\n      add\n        /* \"#utility.yul\":9962:10009   */\n      mstore\n        /* \"#utility.yul\":10026:10157   */\n      tag_427\n        /* \"#utility.yul\":10152:10156   */\n      dup2\n        /* \"#utility.yul\":10026:10157   */\n      tag_283\n      jump\t// in\n    tag_427:\n        /* \"#utility.yul\":10018:10157   */\n      swap1\n      pop\n        /* \"#utility.yul\":9745:10164   */\n      swap2\n      swap1\n      pop\n      jump\t// out\n        /* \"#utility.yul\":10170:10350   */\n    tag_284:\n        /* \"#utility.yul\":10218:10295   */\n      0x4e487b7100000000000000000000000000000000000000000000000000000000\n        /* \"#utility.yul\":10215:10216   */\n      0x00\n        /* \"#utility.yul\":10208:10296   */\n      mstore\n        /* \"#utility.yul\":10315:10319   */\n      0x41\n        /* \"#utility.yul\":10312:10313   */\n      0x04\n        /* \"#utility.yul\":10305:10320   */\n      mstore\n        /* \"#utility.yul\":10339:10343   */\n      0x24\n        /* \"#utility.yul\":10336:10337   */\n      0x00\n        /* \"#utility.yul\":10329:10344   */\n      revert\n        /* \"#utility.yul\":10356:10497   */\n    tag_285:\n        /* \"#utility.yul\":10405:10409   */\n      0x00\n        /* \"#utility.yul\":10428:10431   */\n      dup2\n        /* \"#utility.yul\":10420:10431   */\n      swap1\n      pop\n        /* \"#utility.yul\":10451:10454   */\n      dup2\n        /* \"#utility.yul\":10448:10449   */\n      0x00\n        /* \"#utility.yul\":10441:10455   */\n      mstore\n        /* \"#utility.yul\":10485:10489   */\n      0x20\n        /* \"#utility.yul\":10482:10483   */\n      0x00\n        /* \"#utility.yul\":10472:10490   */\n      keccak256\n        /* \"#utility.yul\":10464:10490   */\n      swap1\n      pop\n        /* \"#utility.yul\":10356:10497   */\n      swap2\n      swap1\n      pop\n      jump\t// out\n        /* \"#utility.yul\":10503:10596   */\n    tag_286:\n        /* \"#utility.yul\":10540:10546   */\n      0x00\n        /* \"#utility.yul\":10587:10589   */\n      0x20\n        /* \"#utility.yul\":10582:10584   */\n      0x1f\n        /* \"#utility.yul\":10575:10580   */\n      dup4\n        /* \"#utility.yul\":10571:10585   */\n      add\n        /* \"#utility.yul\":10567:10590   */\n      div\n        /* \"#utility.yul\":10557:10590   */\n      swap1\n      pop\n        /* \"#utility.yul\":10503:10596   */\n      swap2\n      swap1\n      pop\n      jump\t// out\n        /* \"#utility.yul\":10602:10709   */\n    tag_287:\n        /* \"#utility.yul\":10646:10654   */\n      0x00\n        /* \"#utility.yul\":10696:10701   */\n      dup3\n        /* \"#utility.yul\":10690:10694   */\n      dup3\n        /* \"#utility.yul\":10686:10702   */\n      shl\n        /* \"#utility.yul\":10665:10702   */\n      swap1\n      pop\n        /* \"#utility.yul\":10602:10709   */\n      swap3\n      swap2\n      pop\n      pop\n      jump\t// out\n        /* \"#utility.yul\":10715:11108   */\n    tag_288:\n        /* \"#utility.yul\":10784:10790   */\n      0x00\n        /* \"#utility.yul\":10834:10835   */\n      0x08\n        /* \"#utility.yul\":10822:10832   */\n      dup4\n        /* \"#utility.yul\":10818:10836   */\n      mul\n        /* \"#utility.yul\":10857:10954   */\n      tag_433\n        /* \"#utility.yul\":10887:10953   */\n      0xffffffffffffffffffffffffffffffffffffffffffffffffffffffffffffffff\n        /* \"#utility.yul\":10876:10885   */\n      dup3\n        /* \"#utility.yul\":10857:10954   */\n      tag_287\n      jump\t// in\n    tag_433:\n        /* \"#utility.yul\":10975:11014   */\n      tag_434\n        /* \"#utility.yul\":11005:11013   */\n      dup7\n        /* \"#utility.yul\":10994:11003   */\n      dup4\n        /* \"#utility.yul\":10975:11014   */\n      tag_287\n      jump\t// in\n    tag_434:\n        /* \"#utility.yul\":10963:11014   */\n      swap6\n      pop\n        /* \"#utility.yul\":11047:11051   */\n      dup1\n        /* \"#utility.yul\":11043:11052   */\n      not\n        /* \"#utility.yul\":11036:11041   */\n      dup5\n        /* \"#utility.yul\":11032:11053   */\n      and\n        /* \"#utility.yul\":11023:11053   */\n      swap4\n      pop\n        /* \"#utility.yul\":11096:11100   */\n      dup1\n        /* \"#utility.yul\":11086:11094   */\n      dup7\n        /* \"#utility.yul\":11082:11101   */\n      and\n        /* \"#utility.yul\":11075:11080   */\n      dup5\n        /* \"#utility.yul\":11072:11102   */\n      or\n        /* \"#utility.yul\":11062:11102   */\n      swap3\n      pop\n        /* \"#utility.yul\":10791:11108   */\n      pop\n      pop\n        /* \"#utility.yul\":10715:11108   */\n      swap4\n      swap3\n      pop\n      pop\n      pop\n      jump\t// out\n        /* \"#utility.yul\":11114:11174   */\n    tag_289:\n        /* \"#utility.yul\":11142:11145   */\n      0x00\n        /* \"#utility.yul\":11163:11168   */\n      dup2\n        /* \"#utility.yul\":11156:11168   */\n      swap1\n      pop\n        /* \"#utility.yul\":11114:11174   */\n      swap2\n      swap1\n      pop\n      jump\t// out\n        /* \"#utility.yul\":11180:11322   */\n    tag_290:\n        /* \"#utility.yul\":11230:11239   */\n      0x00\n        /* \"#utility.yul\":11263:11316   */\n      tag_437\n        /* \"#utility.yul\":11281:11315   */\n      tag_438\n        /* \"#utility.yul\":11290:11314   */\n      tag_439\n        /* \"#utility.yul\":11308:11313   */\n      dup5\n        /* \"#utility.yul\":11290:11314   */\n      tag_267\n      jump\t// in\n    tag_439:\n        /* \"#utility.yul\":11281:11315   */\n      tag_289\n      jump\t// in\n    tag_438:\n        /* \"#utility.yul\":11263:11316   */\n      tag_267\n      jump\t// in\n    tag_437:\n        /* \"#utility.yul\":11250:11316   */\n      swap1\n      pop\n        /* \"#utility.yul\":11180:11322   */\n      swap2\n      swap1\n      pop\n      jump\t// out\n        /* \"#utility.yul\":11328:11403   */\n    tag_291:\n        /* \"#utility.yul\":11371:11374   */\n      0x00\n        /* \"#utility.yul\":11392:11397   */\n      dup2\n        /* \"#utility.yul\":11385:11397   */\n      swap1\n      pop\n        /* \"#utility.yul\":11328:11403   */\n      swap2\n      swap1\n      pop\n      jump\t// out\n        /* \"#utility.yul\":11409:11678   */\n    tag_292:\n        /* \"#utility.yul\":11519:11558   */\n      tag_442\n        /* \"#utility.yul\":11550:11557   */\n      dup4\n        /* \"#utility.yul\":11519:11558   */\n      tag_290\n      jump\t// in\n    tag_442:\n        /* \"#utility.yul\":11580:11671   */\n      tag_443\n        /* \"#utility.yul\":11629:11670   */\n      tag_444\n        /* \"#utility.yul\":11653:11669   */\n      dup3\n        /* \"#utility.yul\":11629:11670   */\n      tag_291\n      jump\t// in\n    tag_444:\n        /* \"#utility.yul\":11621:11627   */\n      dup5\n        /* \"#utility.yul\":11614:11618   */\n      dup5\n        /* \"#utility.yul\":11608:11619   */\n      sload\n        /* \"#utility.yul\":11580:11671   */\n      tag_288\n      jump\t// in\n    tag_443:\n        /* \"#utility.yul\":11574:11578   */\n      dup3\n        /* \"#utility.yul\":11567:11672   */\n      sstore\n        /* \"#utility.yul\":11485:11678   */\n      pop\n        /* \"#utility.yul\":11409:11678   */\n      pop\n      pop\n      pop\n      jump\t// out\n        /* \"#utility.yul\":11684:11757   */\n    tag_293:\n        /* \"#utility.yul\":11729:11732   */\n      0x00\n        /* \"#utility.yul\":11684:11757   */\n      swap1\n      jump\t// out\n        /* \"#utility.yul\":11763:11952   */\n    tag_294:\n        /* \"#utility.yul\":11840:11872   */\n      tag_447\n      tag_293\n      jump\t// in\n    tag_447:\n        /* \"#utility.yul\":11881:11946   */\n      tag_448\n        /* \"#utility.yul\":11939:11945   */\n      dup2\n        /* \"#utility.yul\":11931:11937   */\n      dup5\n        /* \"#utility.yul\":11925:11929   */\n      dup5\n        /* \"#utility.yul\":11881:11946   */\n      tag_292\n      jump\t// in\n    tag_448:\n        /* \"#utility.yul\":11816:11952   */\n      pop\n        /* \"#utility.yul\":11763:11952   */\n      pop\n      pop\n      jump\t// out\n        /* \"#utility.yul\":11958:12144   */\n    tag_295:\n        /* \"#utility.yul\":12018:12138   */\n    tag_450:\n        /* \"#utility.yul\":12035:12038   */\n      dup2\n        /* \"#utility.yul\":12028:12033   */\n      dup2\n        /* \"#utility.yul\":12025:12039   */\n      lt\n        /* \"#utility.yul\":12018:12138   */\n      iszero\n      tag_452\n      jumpi\n        /* \"#utility.yul\":12089:12128   */\n      tag_453\n        /* \"#utility.yul\":12126:12127   */\n      0x00\n        /* \"#utility.yul\":12119:12124   */\n      dup3\n        /* \"#utility.yul\":12089:12128   */\n      tag_294\n      jump\t// in\n    tag_453:\n        /* \"#utility.yul\":12062:12063   */\n      0x01\n        /* \"#utility.yul\":12055:12060   */\n      dup2\n        /* \"#utility.yul\":12051:12064   */\n      add\n        /* \"#utility.yul\":12042:12064   */\n      swap1\n      pop\n        /* \"#utility.yul\":12018:12138   */\n      jump(tag_450)\n    tag_452:\n        /* \"#utility.yul\":11958:12144   */\n      pop\n      pop\n      jump\t// out\n        /* \"#utility.yul\":12150:12693   */\n    tag_296:\n        /* \"#utility.yul\":12251:12253   */\n      0x1f\n        /* \"#utility.yul\":12246:12249   */\n      dup3\n        /* \"#utility.yul\":12243:12254   */\n      gt\n        /* \"#utility.yul\":12240:12686   */\n      iszero\n      tag_455\n      jumpi\n        /* \"#utility.yul\":12285:12323   */\n      tag_456\n        /* \"#utility.yul\":12317:12322   */\n      dup2\n        /* \"#utility.yul\":12285:12323   */\n      tag_285\n      jump\t// in\n    tag_456:\n        /* \"#utility.yul\":12369:12398   */\n      tag_457\n        /* \"#utility.yul\":12387:12397   */\n      dup5\n        /* \"#utility.yul\":12369:12398   */\n      tag_286\n      jump\t// in\n    tag_457:\n        /* \"#utility.yul\":12359:12367   */\n      dup2\n        /* \"#utility.yul\":12355:12399   */\n      add\n        /* \"#utility.yul\":12552:12554   */\n      0x20\n        /* \"#utility.yul\":12540:12550   */\n      dup6\n        /* \"#utility.yul\":12537:12555   */\n      lt\n        /* \"#utility.yul\":12534:12583   */\n      iszero\n      tag_458\n      jumpi\n        /* \"#utility.yul\":12573:12581   */\n      dup2\n        /* \"#utility.yul\":12558:12581   */\n      swap1\n      pop\n        /* \"#utility.yul\":12534:12583   */\n    tag_458:\n        /* \"#utility.yul\":12596:12676   */\n      tag_459\n        /* \"#utility.yul\":12652:12674   */\n      tag_460\n        /* \"#utility.yul\":12670:12673   */\n      dup6\n        /* \"#utility.yul\":12652:12674   */\n      tag_286\n      jump\t// in\n    tag_460:\n        /* \"#utility.yul\":12642:12650   */\n      dup4\n        /* \"#utility.yul\":12638:12675   */\n      add\n        /* \"#utility.yul\":12625:12636   */\n      dup3\n        /* \"#utility.yul\":12596:12676   */\n      tag_295\n      jump\t// in\n    tag_459:\n        /* \"#utility.yul\":12255:12686   */\n      pop\n      pop\n        /* \"#utility.yul\":12240:12686   */\n    tag_455:\n        /* \"#utility.yul\":12150:12693   */\n      pop\n      pop\n      pop\n      jump\t// out\n        /* \"#utility.yul\":12699:12816   */\n    tag_297:\n        /* \"#utility.yul\":12753:12761   */\n      0x00\n        /* \"#utility.yul\":12803:12808   */\n      dup3\n        /* \"#utility.yul\":12797:12801   */\n      dup3\n        /* \"#utility.yul\":12793:12809   */\n      shr\n        /* \"#utility.yul\":12772:12809   */\n      swap1\n      pop\n        /* \"#utility.yul\":12699:12816   */\n      swap3\n      swap2\n      pop\n      pop\n      jump\t// out\n        /* \"#utility.yul\":12822:12991   */\n    tag_298:\n        /* \"#utility.yul\":12866:12872   */\n      0x00\n        /* \"#utility.yul\":12899:12950   */\n      tag_463\n        /* \"#utility.yul\":12947:12948   */\n      0x00\n        /* \"#utility.yul\":12943:12949   */\n      not\n        /* \"#utility.yul\":12935:12940   */\n      dup5\n        /* \"#utility.yul\":12932:12933   */\n      0x08\n        /* \"#utility.yul\":12928:12941   */\n      mul\n        /* \"#utility.yul\":12899:12950   */\n      tag_297\n      jump\t// in\n    tag_463:\n        /* \"#utility.yul\":12895:12951   */\n      not\n        /* \"#utility.yul\":12980:12984   */\n      dup1\n        /* \"#utility.yul\":12974:12978   */\n      dup4\n        /* \"#utility.yul\":12970:12985   */\n      and\n        /* \"#utility.yul\":12960:12985   */\n      swap2\n      pop\n        /* \"#utility.yul\":12873:12991   */\n      pop\n        /* \"#utility.yul\":12822:12991   */\n      swap3\n      swap2\n      pop\n      pop\n      jump\t// out\n        /* \"#utility.yul\":12996:13291   */\n    tag_299:\n        /* \"#utility.yul\":13072:13076   */\n      0x00\n        /* \"#utility.yul\":13218:13247   */\n      tag_465\n        /* \"#utility.yul\":13243:13246   */\n      dup4\n        /* \"#utility.yul\":13237:13241   */\n      dup4\n        /* \"#utility.yul\":13218:13247   */\n      tag_298\n      jump\t// in\n    tag_465:\n        /* \"#utility.yul\":13210:13247   */\n      swap2\n      pop\n        /* \"#utility.yul\":13280:13283   */\n      dup3\n        /* \"#utility.yul\":13277:13278   */\n      0x02\n        /* \"#utility.yul\":13273:13284   */\n      mul\n        /* \"#utility.yul\":13267:13271   */\n      dup3\n        /* \"#utility.yul\":13264:13285   */\n      or\n        /* \"#utility.yul\":13256:13285   */\n      swap1\n      pop\n        /* \"#utility.yul\":12996:13291   */\n      swap3\n      swap2\n      pop\n      pop\n      jump\t// out\n        /* \"#utility.yul\":13296:14691   */\n    tag_183:\n        /* \"#utility.yul\":13413:13450   */\n      tag_467\n        /* \"#utility.yul\":13446:13449   */\n      dup3\n        /* \"#utility.yul\":13413:13450   */\n      tag_255\n      jump\t// in\n    tag_467:\n        /* \"#utility.yul\":13515:13533   */\n      0xffffffffffffffff\n        /* \"#utility.yul\":13507:13513   */\n      dup2\n        /* \"#utility.yul\":13504:13534   */\n      gt\n        /* \"#utility.yul\":13501:13557   */\n      iszero\n      tag_468\n      jumpi\n        /* \"#utility.yul\":13537:13555   */\n      tag_469\n      tag_284\n      jump\t// in\n    tag_469:\n        /* \"#utility.yul\":13501:13557   */\n    tag_468:\n        /* \"#utility.yul\":13581:13619   */\n      tag_470\n        /* \"#utility.yul\":13613:13617   */\n      dup3\n        /* \"#utility.yul\":13607:13618   */\n      sload\n        /* \"#utility.yul\":13581:13619   */\n      tag_89\n      jump\t// in\n    tag_470:\n        /* \"#utility.yul\":13666:13733   */\n      tag_471\n        /* \"#utility.yul\":13726:13732   */\n      dup3\n        /* \"#utility.yul\":13718:13724   */\n      dup3\n        /* \"#utility.yul\":13712:13716   */\n      dup6\n        /* \"#utility.yul\":13666:13733   */\n      tag_296\n      jump\t// in\n    tag_471:\n        /* \"#utility.yul\":13760:13761   */\n      0x00\n        /* \"#utility.yul\":13784:13788   */\n      0x20\n        /* \"#utility.yul\":13771:13788   */\n      swap1\n      pop\n        /* \"#utility.yul\":13816:13818   */\n      0x1f\n        /* \"#utility.yul\":13808:13814   */\n      dup4\n        /* \"#utility.yul\":13805:13819   */\n      gt\n        /* \"#utility.yul\":13833:13834   */\n      0x01\n        /* \"#utility.yul\":13828:14446   */\n      dup2\n      eq\n      tag_473\n      jumpi\n        /* \"#utility.yul\":14490:14491   */\n      0x00\n        /* \"#utility.yul\":14507:14513   */\n      dup5\n        /* \"#utility.yul\":14504:14581   */\n      iszero\n      tag_474\n      jumpi\n        /* \"#utility.yul\":14556:14565   */\n      dup3\n        /* \"#utility.yul\":14551:14554   */\n      dup8\n        /* \"#utility.yul\":14547:14566   */\n      add\n        /* \"#utility.yul\":14541:14567   */\n      mload\n        /* \"#utility.yul\":14532:14567   */\n      swap1\n      pop\n        /* \"#utility.yul\":14504:14581   */\n    tag_474:\n        /* \"#utility.yul\":14607:14674   */\n      tag_475\n        /* \"#utility.yul\":14667:14673   */\n      dup6\n        /* \"#utility.yul\":14660:14665   */\n      dup3\n        /* \"#utility.yul\":14607:14674   */\n      tag_299\n      jump\t// in\n    tag_475:\n        /* \"#utility.yul\":14601:14605   */\n      dup7\n        /* \"#utility.yul\":14594:14675   */\n      sstore\n        /* \"#utility.yul\":14463:14685   */\n      pop\n        /* \"#utility.yul\":13798:14685   */\n      jump(tag_472)\n        /* \"#utility.yul\":13828:14446   */\n    tag_473:\n        /* \"#utility.yul\":13880:13884   */\n      0x1f\n        /* \"#utility.yul\":13876:13885   */\n      not\n        /* \"#utility.yul\":13868:13874   */\n      dup5\n        /* \"#utility.yul\":13864:13886   */\n      and\n        /* \"#utility.yul\":13914:13951   */\n      tag_476\n        /* \"#utility.yul\":13946:13950   */\n      dup7\n        /* \"#utility.yul\":13914:13951   */\n      tag_285\n      jump\t// in\n    tag_476:\n        /* \"#utility.yul\":13973:13974   */\n      0x00\n        /* \"#utility.yul\":13987:14195   */\n    tag_477:\n        /* \"#utility.yul\":14001:14008   */\n      dup3\n        /* \"#utility.yul\":13998:13999   */\n      dup2\n        /* \"#utility.yul\":13995:14009   */\n      lt\n        /* \"#utility.yul\":13987:14195   */\n      iszero\n      tag_479\n      jumpi\n        /* \"#utility.yul\":14080:14089   */\n      dup5\n        /* \"#utility.yul\":14075:14078   */\n      dup10\n        /* \"#utility.yul\":14071:14090   */\n      add\n        /* \"#utility.yul\":14065:14091   */\n      mload\n        /* \"#utility.yul\":14057:14063   */\n      dup3\n        /* \"#utility.yul\":14050:14092   */\n      sstore\n        /* \"#utility.yul\":14131:14132   */\n      0x01\n        /* \"#utility.yul\":14123:14129   */\n      dup3\n        /* \"#utility.yul\":14119:14133   */\n      add\n        /* \"#utility.yul\":14109:14133   */\n      swap2\n      pop\n        /* \"#utility.yul\":14178:14180   */\n      0x20\n        /* \"#utility.yul\":14167:14176   */\n      dup6\n        /* \"#utility.yul\":14163:14181   */\n      add\n        /* \"#utility.yul\":14150:14181   */\n      swap5\n      pop\n        /* \"#utility.yul\":14024:14028   */\n      0x20\n        /* \"#utility.yul\":14021:14022   */\n      dup2\n        /* \"#utility.yul\":14017:14029   */\n      add\n        /* \"#utility.yul\":14012:14029   */\n      swap1\n      pop\n        /* \"#utility.yul\":13987:14195   */\n      jump(tag_477)\n    tag_479:\n        /* \"#utility.yul\":14223:14229   */\n      dup7\n        /* \"#utility.yul\":14214:14221   */\n      dup4\n        /* \"#utility.yul\":14211:14230   */\n      lt\n        /* \"#utility.yul\":14208:14387   */\n      iszero\n      tag_480\n      jumpi\n        /* \"#utility.yul\":14281:14290   */\n      dup5\n        /* \"#utility.yul\":14276:14279   */\n      dup10\n        /* \"#utility.yul\":14272:14291   */\n      add\n        /* \"#utility.yul\":14266:14292   */\n      mload\n        /* \"#utility.yul\":14324:14372   */\n      tag_481\n        /* \"#utility.yul\":14366:14370   */\n      0x1f\n        /* \"#utility.yul\":14358:14364   */\n      dup10\n        /* \"#utility.yul\":14354:14371   */\n      and\n        /* \"#utility.yul\":14343:14352   */\n      dup3\n        /* \"#utility.yul\":14324:14372   */\n      tag_298\n      jump\t// in\n    tag_481:\n        /* \"#utility.yul\":14316:14322   */\n      dup4\n        /* \"#utility.yul\":14309:14373   */\n      sstore\n        /* \"#utility.yul\":14231:14387   */\n      pop\n        /* \"#utility.yul\":14208:14387   */\n    tag_480:\n        /* \"#utility.yul\":14433:14434   */\n      0x01\n        /* \"#utility.yul\":14429:14430   */\n      0x02\n        /* \"#utility.yul\":14421:14427   */\n      dup9\n        /* \"#utility.yul\":14417:14431   */\n      mul\n        /* \"#utility.yul\":14413:14435   */\n      add\n        /* \"#utility.yul\":14407:14411   */\n      dup9\n        /* \"#utility.yul\":14400:14436   */\n      sstore\n        /* \"#utility.yul\":13835:14446   */\n      pop\n      pop\n      pop\n        /* \"#utility.yul\":13798:14685   */\n    tag_472:\n      pop\n        /* \"#utility.yul\":13388:14691   */\n      pop\n      pop\n      pop\n        /* \"#utility.yul\":13296:14691   */\n      pop\n      pop\n      jump\t// out\n        /* \"#utility.yul\":14697:14920   */\n    tag_300:\n        /* \"#utility.yul\":14837:14871   */\n      0x45524332303a20617070726f76652066726f6d20746865207a65726f20616464\n        /* \"#utility.yul\":14833:14834   */\n      0x00\n        /* \"#utility.yul\":14825:14831   */\n      dup3\n        /* \"#utility.yul\":14821:14835   */\n      add\n        /* \"#utility.yul\":14814:14872   */\n      mstore\n        /* \"#utility.yul\":14906:14912   */\n      0x7265737300000000000000000000000000000000000000000000000000000000\n        /* \"#utility.yul\":14901:14903   */\n      0x20\n        /* \"#utility.yul\":14893:14899   */\n      dup3\n        /* \"#utility.yul\":14889:14904   */\n      add\n        /* \"#utility.yul\":14882:14913   */\n      mstore\n        /* \"#utility.yul\":14697:14920   */\n      pop\n      jump\t// out\n        /* \"#utility.yul\":14926:15292   */\n    tag_301:\n        /* \"#utility.yul\":15068:15071   */\n      0x00\n        /* \"#utility.yul\":15089:15156   */\n      tag_484\n        /* \"#utility.yul\":15153:15155   */\n      0x24\n        /* \"#utility.yul\":15148:15151   */\n      dup4\n        /* \"#utility.yul\":15089:15156   */\n      tag_256\n      jump\t// in\n    tag_484:\n        /* \"#utility.yul\":15082:15156   */\n      swap2\n      pop\n        /* \"#utility.yul\":15165:15258   */\n      tag_485\n        /* \"#utility.yul\":15254:15257   */\n      dup3\n        /* \"#utility.yul\":15165:15258   */\n      tag_300\n      jump\t// in\n    tag_485:\n        /* \"#utility.yul\":15283:15285   */\n      0x40\n        /* \"#utility.yul\":15278:15281   */\n      dup3\n        /* \"#utility.yul\":15274:15286   */\n      add\n        /* \"#utility.yul\":15267:15286   */\n      swap1\n      pop\n        /* \"#utility.yul\":14926:15292   */\n      swap2\n      swap1\n      pop\n      jump\t// out\n        /* \"#utility.yul\":15298:15717   */\n    tag_188:\n        /* \"#utility.yul\":15464:15468   */\n      0x00\n        /* \"#utility.yul\":15502:15504   */\n      0x20\n        /* \"#utility.yul\":15491:15500   */\n      dup3\n        /* \"#utility.yul\":15487:15505   */\n      add\n        /* \"#utility.yul\":15479:15505   */\n      swap1\n      pop\n        /* \"#utility.yul\":15551:15560   */\n      dup2\n        /* \"#utility.yul\":15545:15549   */\n      dup2\n        /* \"#utility.yul\":15541:15561   */\n      sub\n        /* \"#utility.yul\":15537:15538   */\n      0x00\n        /* \"#utility.yul\":15526:15535   */\n      dup4\n        /* \"#utility.yul\":15522:15539   */\n      add\n        /* \"#utility.yul\":15515:15562   */\n      mstore\n        /* \"#utility.yul\":15579:15710   */\n      tag_487\n        /* \"#utility.yul\":15705:15709   */\n      dup2\n        /* \"#utility.yul\":15579:15710   */\n      tag_301\n      jump\t// in\n    tag_487:\n        /* \"#utility.yul\":15571:15710   */\n      swap1\n      pop\n        /* \"#utility.yul\":15298:15717   */\n      swap2\n      swap1\n      pop\n      jump\t// out\n        /* \"#utility.yul\":15723:15944   */\n    tag_302:\n        /* \"#utility.yul\":15863:15897   */\n      0x45524332303a20617070726f766520746f20746865207a65726f206164647265\n        /* \"#utility.yul\":15859:15860   */\n      0x00\n        /* \"#utility.yul\":15851:15857   */\n      dup3\n        /* \"#utility.yul\":15847:15861   */\n      add\n        /* \"#utility.yul\":15840:15898   */\n      mstore\n        /* \"#utility.yul\":15932:15936   */\n      0x7373000000000000000000000000000000000000000000000000000000000000\n        /* \"#utility.yul\":15927:15929   */\n      0x20\n        /* \"#utility.yul\":15919:15925   */\n      dup3\n        /* \"#utility.yul\":15915:15930   */\n      add\n        /* \"#utility.yul\":15908:15937   */\n      mstore\n        /* \"#utility.yul\":15723:15944   */\n      pop\n      jump\t// out\n        /* \"#utility.yul\":15950:16316   */\n    tag_303:\n        /* \"#utility.yul\":16092:16095   */\n      0x00\n        /* \"#utility.yul\":16113:16180   */\n      tag_490\n        /* \"#utility.yul\":16177:16179   */\n      0x22\n        /* \"#utility.yul\":16172:16175   */\n      dup4\n        /* \"#utility.yul\":16113:16180   */\n      tag_256\n      jump\t// in\n    tag_490:\n        /* \"#utility.yul\":16106:16180   */\n      swap2\n      pop\n        /* \"#utility.yul\":16189:16282   */\n      tag_491\n        /* \"#utility.yul\":16278:16281   */\n      dup3\n        /* \"#utility.yul\":16189:16282   */\n      tag_302\n      jump\t// in\n    tag_491:\n        /* \"#utility.yul\":16307:16309   */\n      0x40\n        /* \"#utility.yul\":16302:16305   */\n      dup3\n        /* \"#utility.yul\":16298:16310   */\n      add\n        /* \"#utility.yul\":16291:16310   */\n      swap1\n      pop\n        /* \"#utility.yul\":15950:16316   */\n      swap2\n      swap1\n      pop\n      jump\t// out\n        /* \"#utility.yul\":16322:16741   */\n    tag_191:\n        /* \"#utility.yul\":16488:16492   */\n      0x00\n        /* \"#utility.yul\":16526:16528   */\n      0x20\n        /* \"#utility.yul\":16515:16524   */\n      dup3\n        /* \"#utility.yul\":16511:16529   */\n      add\n        /* \"#utility.yul\":16503:16529   */\n      swap1\n      pop\n        /* \"#utility.yul\":16575:16584   */\n      dup2\n        /* \"#utility.yul\":16569:16573   */\n      dup2\n        /* \"#utility.yul\":16565:16585   */\n      sub\n        /* \"#utility.yul\":16561:16562   */\n      0x00\n        /* \"#utility.yul\":16550:16559   */\n      dup4\n        /* \"#utility.yul\":16546:16563   */\n      add\n        /* \"#utility.yul\":16539:16586   */\n      mstore\n        /* \"#utility.yul\":16603:16734   */\n      tag_493\n        /* \"#utility.yul\":16729:16733   */\n      dup2\n        /* \"#utility.yul\":16603:16734   */\n      tag_303\n      jump\t// in\n    tag_493:\n        /* \"#utility.yul\":16595:16734   */\n      swap1\n      pop\n        /* \"#utility.yul\":16322:16741   */\n      swap2\n      swap1\n      pop\n      jump\t// out\n        /* \"#utility.yul\":16747:16926   */\n    tag_304:\n        /* \"#utility.yul\":16887:16918   */\n      0x45524332303a20696e73756666696369656e7420616c6c6f77616e6365000000\n        /* \"#utility.yul\":16883:16884   */\n      0x00\n        /* \"#utility.yul\":16875:16881   */\n      dup3\n        /* \"#utility.yul\":16871:16885   */\n      add\n        /* \"#utility.yul\":16864:16919   */\n      mstore\n        /* \"#utility.yul\":16747:16926   */\n      pop\n      jump\t// out\n        /* \"#utility.yul\":16932:17298   */\n    tag_305:\n        /* \"#utility.yul\":17074:17077   */\n      0x00\n        /* \"#utility.yul\":17095:17162   */\n      tag_496\n        /* \"#utility.yul\":17159:17161   */\n      0x1d\n        /* \"#utility.yul\":17154:17157   */\n      dup4\n        /* \"#utility.yul\":17095:17162   */\n      tag_256\n      jump\t// in\n    tag_496:\n        /* \"#utility.yul\":17088:17162   */\n      swap2\n      pop\n        /* \"#utility.yul\":17171:17264   */\n      tag_497\n        /* \"#utility.yul\":17260:17263   */\n      dup3\n        /* \"#utility.yul\":17171:17264   */\n      tag_304\n      jump\t// in\n    tag_497:\n        /* \"#utility.yul\":17289:17291   */\n      0x20\n        /* \"#utility.yul\":17284:17287   */\n      dup3\n        /* \"#utility.yul\":17280:17292   */\n      add\n        /* \"#utility.yul\":17273:17292   */\n      swap1\n      pop\n        /* \"#utility.yul\":16932:17298   */\n      swap2\n      swap1\n      pop\n      jump\t// out\n        /* \"#utility.yul\":17304:17723   */\n    tag_198:\n        /* \"#utility.yul\":17470:17474   */\n      0x00\n        /* \"#utility.yul\":17508:17510   */\n      0x20\n        /* \"#utility.yul\":17497:17506   */\n      dup3\n        /* \"#utility.yul\":17493:17511   */\n      add\n        /* \"#utility.yul\":17485:17511   */\n      swap1\n      pop\n        /* \"#utility.yul\":17557:17566   */\n      dup2\n        /* \"#utility.yul\":17551:17555   */\n      dup2\n        /* \"#utility.yul\":17547:17567   */\n      sub\n        /* \"#utility.yul\":17543:17544   */\n      0x00\n        /* \"#utility.yul\":17532:17541   */\n      dup4\n        /* \"#utility.yul\":17528:17545   */\n      add\n        /* \"#utility.yul\":17521:17568   */\n      mstore\n        /* \"#utility.yul\":17585:17716   */\n      tag_499\n        /* \"#utility.yul\":17711:17715   */\n      dup2\n        /* \"#utility.yul\":17585:17716   */\n      tag_305\n      jump\t// in\n    tag_499:\n        /* \"#utility.yul\":17577:17716   */\n      swap1\n      pop\n        /* \"#utility.yul\":17304:17723   */\n      swap2\n      swap1\n      pop\n      jump\t// out\n        /* \"#utility.yul\":17729:17953   */\n    tag_306:\n        /* \"#utility.yul\":17869:17903   */\n      0x45524332303a207472616e736665722066726f6d20746865207a65726f206164\n        /* \"#utility.yul\":17865:17866   */\n      0x00\n        /* \"#utility.yul\":17857:17863   */\n      dup3\n        /* \"#utility.yul\":17853:17867   */\n      add\n        /* \"#utility.yul\":17846:17904   */\n      mstore\n        /* \"#utility.yul\":17938:17945   */\n      0x6472657373000000000000000000000000000000000000000000000000000000\n        /* \"#utility.yul\":17933:17935   */\n      0x20\n        /* \"#utility.yul\":17925:17931   */\n      dup3\n        /* \"#utility.yul\":17921:17936   */\n      add\n        /* \"#utility.yul\":17914:17946   */\n      mstore\n        /* \"#utility.yul\":17729:17953   */\n      pop\n      jump\t// out\n        /* \"#utility.yul\":17959:18325   */\n    tag_307:\n        /* \"#utility.yul\":18101:18104   */\n      0x00\n        /* \"#utility.yul\":18122:18189   */\n      tag_502\n        /* \"#utility.yul\":18186:18188   */\n      0x25\n        /* \"#utility.yul\":18181:18184   */\n      dup4\n        /* \"#utility.yul\":18122:18189   */\n      tag_256\n      jump\t// in\n    tag_502:\n        /* \"#utility.yul\":18115:18189   */\n      swap2\n      pop\n        /* \"#utility.yul\":18198:18291   */\n      tag_503\n        /* \"#utility.yul\":18287:18290   */\n      dup3\n        /* \"#utility.yul\":18198:18291   */\n      tag_306\n      jump\t// in\n    tag_503:\n        /* \"#utility.yul\":18316:18318   */\n      0x40\n        /* \"#utility.yul\":18311:18314   */\n      dup3\n        /* \"#utility.yul\":18307:18319   */\n      add\n        /* \"#utility.yul\":18300:18319   */\n      swap1\n      pop\n        /* \"#utility.yul\":17959:18325   */\n      swap2\n      swap1\n      pop\n      jump\t// out\n        /* \"#utility.yul\":18331:18750   */\n    tag_203:\n        /* \"#utility.yul\":18497:18501   */\n      0x00\n        /* \"#utility.yul\":18535:18537   */\n      0x20\n        /* \"#utility.yul\":18524:18533   */\n      dup3\n        /* \"#utility.yul\":18520:18538   */\n      add\n        /* \"#utility.yul\":18512:18538   */\n      swap1\n      pop\n        /* \"#utility.yul\":18584:18593   */\n      dup2\n        /* \"#utility.yul\":18578:18582   */\n      dup2\n        /* \"#utility.yul\":18574:18594   */\n      sub\n        /* \"#utility.yul\":18570:18571   */\n      0x00\n        /* \"#utility.yul\":18559:18568   */\n      dup4\n        /* \"#utility.yul\":18555:18572   */\n      add\n        /* \"#utility.yul\":18548:18595   */\n      mstore\n        /* \"#utility.yul\":18612:18743   */\n      tag_505\n        /* \"#utility.yul\":18738:18742   */\n      dup2\n        /* \"#utility.yul\":18612:18743   */\n      tag_307\n      jump\t// in\n    tag_505:\n        /* \"#utility.yul\":18604:18743   */\n      swap1\n      pop\n        /* \"#utility.yul\":18331:18750   */\n      swap2\n      swap1\n      pop\n      jump\t// out\n        /* \"#utility.yul\":18756:18978   */\n    tag_308:\n        /* \"#utility.yul\":18896:18930   */\n      0x45524332303a207472616e7366657220746f20746865207a65726f2061646472\n        /* \"#utility.yul\":18892:18893   */\n      0x00\n        /* \"#utility.yul\":18884:18890   */\n      dup3\n        /* \"#utility.yul\":18880:18894   */\n      add\n        /* \"#utility.yul\":18873:18931   */\n      mstore\n        /* \"#utility.yul\":18965:18970   */\n      0x6573730000000000000000000000000000000000000000000000000000000000\n        /* \"#utility.yul\":18960:18962   */\n      0x20\n        /* \"#utility.yul\":18952:18958   */\n      dup3\n        /* \"#utility.yul\":18948:18963   */\n      add\n        /* \"#utility.yul\":18941:18971   */\n      mstore\n        /* \"#utility.yul\":18756:18978   */\n      pop\n      jump\t// out\n        /* \"#utility.yul\":18984:19350   */\n    tag_309:\n        /* \"#utility.yul\":19126:19129   */\n      0x00\n        /* \"#utility.yul\":19147:19214   */\n      tag_508\n        /* \"#utility.yul\":19211:19213   */\n      0x23\n        /* \"#utility.yul\":19206:19209   */\n      dup4\n        /* \"#utility.yul\":19147:19214   */\n      tag_256\n      jump\t// in\n    tag_508:\n        /* \"#utility.yul\":19140:19214   */\n      swap2\n      pop\n        /* \"#utility.yul\":19223:19316   */\n      tag_509\n        /* \"#utility.yul\":19312:19315   */\n      dup3\n        /* \"#utility.yul\":19223:19316   */\n      tag_308\n      jump\t// in\n    tag_509:\n        /* \"#utility.yul\":19341:19343   */\n      0x40\n        /* \"#utility.yul\":19336:19339   */\n      dup3\n        /* \"#utility.yul\":19332:19344   */\n      add\n        /* \"#utility.yul\":19325:19344   */\n      swap1\n      pop\n        /* \"#utility.yul\":18984:19350   */\n      swap2\n      swap1\n      pop\n      jump\t// out\n        /* \"#utility.yul\":19356:19775   */\n    tag_206:\n        /* \"#utility.yul\":19522:19526   */\n      0x00\n        /* \"#utility.yul\":19560:19562   */\n      0x20\n        /* \"#utility.yul\":19549:19558   */\n      dup3\n        /* \"#utility.yul\":19545:19563   */\n      add\n        /* \"#utility.yul\":19537:19563   */\n      swap1\n      pop\n        /* \"#utility.yul\":19609:19618   */\n      dup2\n        /* \"#utility.yul\":19603:19607   */\n      dup2\n        /* \"#utility.yul\":19599:19619   */\n      sub\n        /* \"#utility.yul\":19595:19596   */\n      0x00\n        /* \"#utility.yul\":19584:19593   */\n      dup4\n        /* \"#utility.yul\":19580:19597   */\n      add\n        /* \"#utility.yul\":19573:19620   */\n      mstore\n        /* \"#utility.yul\":19637:19768   */\n      tag_511\n        /* \"#utility.yul\":19763:19767   */\n      dup2\n        /* \"#utility.yul\":19637:19768   */\n      tag_309\n      jump\t// in\n    tag_511:\n        /* \"#utility.yul\":19629:19768   */\n      swap1\n      pop\n        /* \"#utility.yul\":19356:19775   */\n      swap2\n      swap1\n      pop\n      jump\t// out\n        /* \"#utility.yul\":19781:20006   */\n    tag_310:\n        /* \"#utility.yul\":19921:19955   */\n      0x45524332303a207472616e7366657220616d6f756e7420657863656564732062\n        /* \"#utility.yul\":19917:19918   */\n      0x00\n        /* \"#utility.yul\":19909:19915   */\n      dup3\n        /* \"#utility.yul\":19905:19919   */\n      add\n        /* \"#utility.yul\":19898:19956   */\n      mstore\n        /* \"#utility.yul\":19990:19998   */\n      0x616c616e63650000000000000000000000000000000000000000000000000000\n        /* \"#utility.yul\":19985:19987   */\n      0x20\n        /* \"#utility.yul\":19977:19983   */\n      dup3\n        /* \"#utility.yul\":19973:19988   */\n      add\n        /* \"#utility.yul\":19966:19999   */\n      mstore\n        /* \"#utility.yul\":19781:20006   */\n      pop\n      jump\t// out\n        /* \"#utility.yul\":20012:20378   */\n    tag_311:\n        /* \"#utility.yul\":20154:20157   */\n      0x00\n        /* \"#utility.yul\":20175:20242   */\n      tag_514\n        /* \"#utility.yul\":20239:20241   */\n      0x26\n        /* \"#utility.yul\":20234:20237   */\n      dup4\n        /* \"#utility.yul\":20175:20242   */\n      tag_256\n      jump\t// in\n    tag_514:\n        /* \"#utility.yul\":20168:20242   */\n      swap2\n      pop\n        /* \"#utility.yul\":20251:20344   */\n      tag_515\n        /* \"#utility.yul\":20340:20343   */\n      dup3\n        /* \"#utility.yul\":20251:20344   */\n      tag_310\n      jump\t// in\n    tag_515:\n        /* \"#utility.yul\":20369:20371   */\n      0x40\n        /* \"#utility.yul\":20364:20367   */\n      dup3\n        /* \"#utility.yul\":20360:20372   */\n      add\n        /* \"#utility.yul\":20353:20372   */\n      swap1\n      pop\n        /* \"#utility.yul\":20012:20378   */\n      swap2\n      swap1\n      pop\n      jump\t// out\n        /* \"#utility.yul\":20384:20803   */\n    tag_211:\n        /* \"#utility.yul\":20550:20554   */\n      0x00\n        /* \"#utility.yul\":20588:20590   */\n      0x20\n        /* \"#utility.yul\":20577:20586   */\n      dup3\n        /* \"#utility.yul\":20573:20591   */\n      add\n        /* \"#utility.yul\":20565:20591   */\n      swap1\n      pop\n        /* \"#utility.yul\":20637:20646   */\n      dup2\n        /* \"#utility.yul\":20631:20635   */\n      dup2\n        /* \"#utility.yul\":20627:20647   */\n      sub\n        /* \"#utility.yul\":20623:20624   */\n      0x00\n        /* \"#utility.yul\":20612:20621   */\n      dup4\n        /* \"#utility.yul\":20608:20625   */\n      add\n        /* \"#utility.yul\":20601:20648   */\n      mstore\n        /* \"#utility.yul\":20665:20796   */\n      tag_517\n        /* \"#utility.yul\":20791:20795   */\n      dup2\n        /* \"#utility.yul\":20665:20796   */\n      tag_311\n      jump\t// in\n    tag_517:\n        /* \"#utility.yul\":20657:20796   */\n      swap1\n      pop\n        /* \"#utility.yul\":20384:20803   */\n      swap2\n      swap1\n      pop\n      jump\t// out\n        /* \"#utility.yul\":20809:20989   */\n    tag_312:\n        /* \"#utility.yul\":20857:20934   */\n      0x4e487b7100000000000000000000000000000000000000000000000000000000\n        /* \"#utility.yul\":20854:20855   */\n      0x00\n        /* \"#utility.yul\":20847:20935   */\n      mstore\n        /* \"#utility.yul\":20954:20958   */\n      0x12\n        /* \"#utility.yul\":20951:20952   */\n      0x04\n        /* \"#utility.yul\":20944:20959   */\n      mstore\n        /* \"#utility.yul\":20978:20982   */\n      0x24\n        /* \"#utility.yul\":20975:20976   */\n      0x00\n        /* \"#utility.yul\":20968:20983   */\n      revert\n        /* \"#utility.yul\":20995:21180   */\n    tag_224:\n        /* \"#utility.yul\":21035:21036   */\n      0x00\n        /* \"#utility.yul\":21052:21072   */\n      tag_520\n        /* \"#utility.yul\":21070:21071   */\n      dup3\n        /* \"#utility.yul\":21052:21072   */\n      tag_267\n      jump\t// in\n    tag_520:\n        /* \"#utility.yul\":21047:21072   */\n      swap2\n      pop\n        /* \"#utility.yul\":21086:21106   */\n      tag_521\n        /* \"#utility.yul\":21104:21105   */\n      dup4\n        /* \"#utility.yul\":21086:21106   */\n      tag_267\n      jump\t// in\n    tag_521:\n        /* \"#utility.yul\":21081:21106   */\n      swap3\n      pop\n        /* \"#utility.yul\":21125:21126   */\n      dup3\n        /* \"#utility.yul\":21115:21150   */\n      tag_522\n      jumpi\n        /* \"#utility.yul\":21130:21148   */\n      tag_523\n      tag_312\n      jump\t// in\n    tag_523:\n        /* \"#utility.yul\":21115:21150   */\n    tag_522:\n        /* \"#utility.yul\":21172:21173   */\n      dup3\n        /* \"#utility.yul\":21169:21170   */\n      dup3\n        /* \"#utility.yul\":21165:21174   */\n      div\n        /* \"#utility.yul\":21160:21174   */\n      swap1\n      pop\n        /* \"#utility.yul\":20995:21180   */\n      swap3\n      swap2\n      pop\n      pop\n      jump\t// out\n        /* \"#utility.yul\":21186:21288   */\n    tag_313:\n        /* \"#utility.yul\":21228:21236   */\n      0x00\n        /* \"#utility.yul\":21275:21280   */\n      dup2\n        /* \"#utility.yul\":21272:21273   */\n      0x01\n        /* \"#utility.yul\":21268:21281   */\n      shr\n        /* \"#utility.yul\":21247:21281   */\n      swap1\n      pop\n        /* \"#utility.yul\":21186:21288   */\n      swap2\n      swap1\n      pop\n      jump\t// out\n        /* \"#utility.yul\":21294:22142   */\n    tag_314:\n        /* \"#utility.yul\":21355:21360   */\n      0x00\n        /* \"#utility.yul\":21362:21366   */\n      dup1\n        /* \"#utility.yul\":21386:21392   */\n      dup3\n        /* \"#utility.yul\":21377:21392   */\n      swap2\n      pop\n        /* \"#utility.yul\":21410:21415   */\n      dup4\n        /* \"#utility.yul\":21401:21415   */\n      swap1\n      pop\n        /* \"#utility.yul\":21424:22136   */\n    tag_526:\n        /* \"#utility.yul\":21445:21446   */\n      0x01\n        /* \"#utility.yul\":21435:21443   */\n      dup6\n        /* \"#utility.yul\":21432:21447   */\n      gt\n        /* \"#utility.yul\":21424:22136   */\n      iszero\n      tag_528\n      jumpi\n        /* \"#utility.yul\":21540:21544   */\n      dup1\n        /* \"#utility.yul\":21535:21538   */\n      dup7\n        /* \"#utility.yul\":21531:21545   */\n      div\n        /* \"#utility.yul\":21525:21529   */\n      dup2\n        /* \"#utility.yul\":21522:21546   */\n      gt\n        /* \"#utility.yul\":21519:21569   */\n      iszero\n      tag_529\n      jumpi\n        /* \"#utility.yul\":21549:21567   */\n      tag_530\n      tag_281\n      jump\t// in\n    tag_530:\n        /* \"#utility.yul\":21519:21569   */\n    tag_529:\n        /* \"#utility.yul\":21599:21600   */\n      0x01\n        /* \"#utility.yul\":21589:21597   */\n      dup6\n        /* \"#utility.yul\":21585:21601   */\n      and\n        /* \"#utility.yul\":21582:22033   */\n      iszero\n      tag_531\n      jumpi\n        /* \"#utility.yul\":22014:22018   */\n      dup1\n        /* \"#utility.yul\":22007:22012   */\n      dup3\n        /* \"#utility.yul\":22003:22019   */\n      mul\n        /* \"#utility.yul\":21994:22019   */\n      swap2\n      pop\n        /* \"#utility.yul\":21582:22033   */\n    tag_531:\n        /* \"#utility.yul\":22064:22068   */\n      dup1\n        /* \"#utility.yul\":22058:22062   */\n      dup2\n        /* \"#utility.yul\":22054:22069   */\n      mul\n        /* \"#utility.yul\":22046:22069   */\n      swap1\n      pop\n        /* \"#utility.yul\":22094:22126   */\n      tag_532\n        /* \"#utility.yul\":22117:22125   */\n      dup6\n        /* \"#utility.yul\":22094:22126   */\n      tag_313\n      jump\t// in\n    tag_532:\n        /* \"#utility.yul\":22082:22126   */\n      swap5\n      pop\n        /* \"#utility.yul\":21424:22136   */\n      jump(tag_526)\n    tag_528:\n        /* \"#utility.yul\":21294:22142   */\n      swap5\n      pop\n      swap5\n      swap3\n      pop\n      pop\n      pop\n      jump\t// out\n        /* \"#utility.yul\":22148:23221   */\n    tag_315:\n        /* \"#utility.yul\":22202:22207   */\n      0x00\n        /* \"#utility.yul\":22393:22401   */\n      dup3\n        /* \"#utility.yul\":22383:22423   */\n      tag_534\n      jumpi\n        /* \"#utility.yul\":22414:22415   */\n      0x01\n        /* \"#utility.yul\":22405:22415   */\n      swap1\n      pop\n        /* \"#utility.yul\":22416:22421   */\n      jump(tag_533)\n        /* \"#utility.yul\":22383:22423   */\n    tag_534:\n        /* \"#utility.yul\":22442:22446   */\n      dup2\n        /* \"#utility.yul\":22432:22468   */\n      tag_535\n      jumpi\n        /* \"#utility.yul\":22459:22460   */\n      0x00\n        /* \"#utility.yul\":22450:22460   */\n      swap1\n      pop\n        /* \"#utility.yul\":22461:22466   */\n      jump(tag_533)\n        /* \"#utility.yul\":22432:22468   */\n    tag_535:\n        /* \"#utility.yul\":22528:22532   */\n      dup2\n        /* \"#utility.yul\":22576:22577   */\n      0x01\n        /* \"#utility.yul\":22571:22598   */\n      dup2\n      eq\n      tag_537\n      jumpi\n        /* \"#utility.yul\":22612:22613   */\n      0x02\n        /* \"#utility.yul\":22607:22798   */\n      dup2\n      eq\n      tag_538\n      jumpi\n        /* \"#utility.yul\":22521:22798   */\n      jump(tag_536)\n        /* \"#utility.yul\":22571:22598   */\n    tag_537:\n        /* \"#utility.yul\":22589:22590   */\n      0x01\n        /* \"#utility.yul\":22580:22590   */\n      swap2\n      pop\n        /* \"#utility.yul\":22591:22596   */\n      pop\n      jump(tag_533)\n        /* \"#utility.yul\":22607:22798   */\n    tag_538:\n        /* \"#utility.yul\":22652:22655   */\n      0xff\n        /* \"#utility.yul\":22642:22650   */\n      dup5\n        /* \"#utility.yul\":22639:22656   */\n      gt\n        /* \"#utility.yul\":22636:22679   */\n      iszero\n      tag_539\n      jumpi\n        /* \"#utility.yul\":22659:22677   */\n      tag_540\n      tag_281\n      jump\t// in\n    tag_540:\n        /* \"#utility.yul\":22636:22679   */\n    tag_539:\n        /* \"#utility.yul\":22708:22716   */\n      dup4\n        /* \"#utility.yul\":22705:22706   */\n      0x02\n        /* \"#utility.yul\":22701:22717   */\n      exp\n        /* \"#utility.yul\":22692:22717   */\n      swap2\n      pop\n        /* \"#utility.yul\":22743:22746   */\n      dup5\n        /* \"#utility.yul\":22736:22741   */\n      dup3\n        /* \"#utility.yul\":22733:22747   */\n      gt\n        /* \"#utility.yul\":22730:22770   */\n      iszero\n      tag_541\n      jumpi\n        /* \"#utility.yul\":22750:22768   */\n      tag_542\n      tag_281\n      jump\t// in\n    tag_542:\n        /* \"#utility.yul\":22730:22770   */\n    tag_541:\n        /* \"#utility.yul\":22783:22788   */\n      pop\n      jump(tag_533)\n        /* \"#utility.yul\":22521:22798   */\n    tag_536:\n      pop\n        /* \"#utility.yul\":22907:22909   */\n      0x20\n        /* \"#utility.yul\":22897:22905   */\n      dup4\n        /* \"#utility.yul\":22894:22910   */\n      lt\n        /* \"#utility.yul\":22888:22891   */\n      0x0133\n        /* \"#utility.yul\":22882:22886   */\n      dup4\n        /* \"#utility.yul\":22879:22892   */\n      lt\n        /* \"#utility.yul\":22875:22911   */\n      and\n        /* \"#utility.yul\":22857:22859   */\n      0x4e\n        /* \"#utility.yul\":22847:22855   */\n      dup5\n        /* \"#utility.yul\":22844:22860   */\n      lt\n        /* \"#utility.yul\":22839:22841   */\n      0x0b\n        /* \"#utility.yul\":22833:22837   */\n      dup5\n        /* \"#utility.yul\":22830:22842   */\n      lt\n        /* \"#utility.yul\":22826:22861   */\n      and\n        /* \"#utility.yul\":22810:22921   */\n      or\n        /* \"#utility.yul\":22807:23053   */\n      iszero\n      tag_543\n      jumpi\n        /* \"#utility.yul\":22963:22971   */\n      dup3\n        /* \"#utility.yul\":22957:22961   */\n      dup3\n        /* \"#utility.yul\":22953:22972   */\n      exp\n        /* \"#utility.yul\":22944:22972   */\n      swap1\n      pop\n        /* \"#utility.yul\":22998:23001   */\n      dup4\n        /* \"#utility.yul\":22991:22996   */\n      dup2\n        /* \"#utility.yul\":22988:23002   */\n      gt\n        /* \"#utility.yul\":22985:23025   */\n      iszero\n      tag_544\n      jumpi\n        /* \"#utility.yul\":23005:23023   */\n      tag_545\n      tag_281\n      jump\t// in\n    tag_545:\n        /* \"#utility.yul\":22985:23025   */\n    tag_544:\n        /* \"#utility.yul\":23038:23043   */\n      jump(tag_533)\n        /* \"#utility.yul\":22807:23053   */\n    tag_543:\n        /* \"#utility.yul\":23078:23120   */\n      tag_546\n        /* \"#utility.yul\":23116:23119   */\n      dup5\n        /* \"#utility.yul\":23106:23114   */\n      dup5\n        /* \"#utility.yul\":23100:23104   */\n      dup5\n        /* \"#utility.yul\":23097:23098   */\n      0x01\n        /* \"#utility.yul\":23078:23120   */\n      tag_314\n      jump\t// in\n    tag_546:\n        /* \"#utility.yul\":23063:23120   */\n      swap3\n      pop\n      swap1\n      pop\n        /* \"#utility.yul\":23152:23156   */\n      dup2\n        /* \"#utility.yul\":23147:23150   */\n      dup5\n        /* \"#utility.yul\":23143:23157   */\n      div\n        /* \"#utility.yul\":23136:23141   */\n      dup2\n        /* \"#utility.yul\":23133:23158   */\n      gt\n        /* \"#utility.yul\":23130:23181   */\n      iszero\n      tag_547\n      jumpi\n        /* \"#utility.yul\":23161:23179   */\n      tag_548\n      tag_281\n      jump\t// in\n    tag_548:\n        /* \"#utility.yul\":23130:23181   */\n    tag_547:\n        /* \"#utility.yul\":23210:23214   */\n      dup2\n        /* \"#utility.yul\":23203:23208   */\n      dup2\n        /* \"#utility.yul\":23199:23215   */\n      mul\n        /* \"#utility.yul\":23190:23215   */\n      swap1\n      pop\n        /* \"#utility.yul\":22148:23221   */\n    tag_533:\n      swap4\n      swap3\n      pop\n      pop\n      pop\n      jump\t// out\n        /* \"#utility.yul\":23227:23508   */\n    tag_236:\n        /* \"#utility.yul\":23285:23290   */\n      0x00\n        /* \"#utility.yul\":23309:23332   */\n      tag_550\n        /* \"#utility.yul\":23327:23331   */\n      dup3\n        /* \"#utility.yul\":23309:23332   */\n      tag_267\n      jump\t// in\n    tag_550:\n        /* \"#utility.yul\":23301:23332   */\n      swap2\n      pop\n        /* \"#utility.yul\":23353:23378   */\n      tag_551\n        /* \"#utility.yul\":23369:23377   */\n      dup4\n        /* \"#utility.yul\":23353:23378   */\n      tag_273\n      jump\t// in\n    tag_551:\n        /* \"#utility.yul\":23341:23378   */\n      swap3\n      pop\n        /* \"#utility.yul\":23397:23501   */\n      tag_552\n        /* \"#utility.yul\":23434:23500   */\n      0xffffffffffffffffffffffffffffffffffffffffffffffffffffffffffffffff\n        /* \"#utility.yul\":23424:23432   */\n      dup5\n        /* \"#utility.yul\":23418:23422   */\n      dup5\n        /* \"#utility.yul\":23397:23501   */\n      tag_315\n      jump\t// in\n    tag_552:\n        /* \"#utility.yul\":23388:23501   */\n      swap1\n      pop\n        /* \"#utility.yul\":23227:23508   */\n      swap3\n      swap2\n      pop\n      pop\n      jump\t// out\n        /* \"#utility.yul\":23514:23924   */\n    tag_238:\n        /* \"#utility.yul\":23554:23561   */\n      0x00\n        /* \"#utility.yul\":23577:23597   */\n      tag_554\n        /* \"#utility.yul\":23595:23596   */\n      dup3\n        /* \"#utility.yul\":23577:23597   */\n      tag_267\n      jump\t// in\n    tag_554:\n        /* \"#utility.yul\":23572:23597   */\n      swap2\n      pop\n        /* \"#utility.yul\":23611:23631   */\n      tag_555\n        /* \"#utility.yul\":23629:23630   */\n      dup4\n        /* \"#utility.yul\":23611:23631   */\n      tag_267\n      jump\t// in\n    tag_555:\n        /* \"#utility.yul\":23606:23631   */\n      swap3\n      pop\n        /* \"#utility.yul\":23666:23667   */\n      dup3\n        /* \"#utility.yul\":23663:23664   */\n      dup3\n        /* \"#utility.yul\":23659:23668   */\n      mul\n        /* \"#utility.yul\":23688:23718   */\n      tag_556\n        /* \"#utility.yul\":23706:23717   */\n      dup2\n        /* \"#utility.yul\":23688:23718   */\n      tag_267\n      jump\t// in\n    tag_556:\n        /* \"#utility.yul\":23677:23718   */\n      swap2\n      pop\n        /* \"#utility.yul\":23867:23868   */\n      dup3\n        /* \"#utility.yul\":23858:23865   */\n      dup3\n        /* \"#utility.yul\":23854:23869   */\n      div\n        /* \"#utility.yul\":23851:23852   */\n      dup5\n        /* \"#utility.yul\":23848:23870   */\n      eq\n        /* \"#utility.yul\":23828:23829   */\n      dup4\n        /* \"#utility.yul\":23821:23830   */\n      iszero\n        /* \"#utility.yul\":23801:23884   */\n      or\n        /* \"#utility.yul\":23778:23917   */\n      tag_557\n      jumpi\n        /* \"#utility.yul\":23897:23915   */\n      tag_558\n      tag_281\n      jump\t// in\n    tag_558:\n        /* \"#utility.yul\":23778:23917   */\n    tag_557:\n        /* \"#utility.yul\":23562:23924   */\n      pop\n        /* \"#utility.yul\":23514:23924   */\n      swap3\n      swap2\n      pop\n      pop\n      jump\t// out\n\n    auxdata: 0xa2646970667358221220374c8ecbcdcb087327db61176e9e75d827b15dcb723ed1a165b0438bf974801364736f6c63430008120033\n}\n",
				"bytecode": {
					"linkReferences": {},
					"object": "60806040526000600560006101000a81548160ff021916908360028111156200002d576200002c62000daa565b5b0217905550426007556007546008556008546009556000600a553480156200005457600080fd5b50604051620038f9380380620038f983398181016040528101906200007a919062000e43565b6040518060400160405280600d81526020017f43727970746f4d6f6e73746572000000000000000000000000000000000000008152506040518060400160405280600481526020017f434d4f4e000000000000000000000000000000000000000000000000000000008152508160039081620000f7919062001145565b50806004908162000109919062001145565b5050506200014b33620001216200095e60201b60201c565b600a6200012f9190620013bc565b629896806200013f91906200140d565b6200096760201b60201c565b6000600560006101000a81548160ff0219169083600281111562000174576200017362000daa565b5b021790555084600d60006101000a81548173ffffffffffffffffffffffffffffffffffffffff021916908373ffffffffffffffffffffffffffffffffffffffff16021790555083600e60006101000a81548173ffffffffffffffffffffffffffffffffffffffff021916908373ffffffffffffffffffffffffffffffffffffffff16021790555060405180606001604052803373ffffffffffffffffffffffffffffffffffffffff1681526020016040518060400160405280600581526020017f6f776e657200000000000000000000000000000000000000000000000000000081525081526020016200026d6200095e60201b60201c565b600a6200027b9190620013bc565b629896806200028b91906200140d565b815250600f60003373ffffffffffffffffffffffffffffffffffffffff1673ffffffffffffffffffffffffffffffffffffffff16815260200190815260200160002060008201518160000160006101000a81548173ffffffffffffffffffffffffffffffffffffffff021916908373ffffffffffffffffffffffffffffffffffffffff16021790555060208201518160010190816200032b919062001145565b506040820151816002015590505060405180606001604052808673ffffffffffffffffffffffffffffffffffffffff1681526020016040518060400160405280600981526020017f70726f766964657231000000000000000000000000000000000000000000000081525081526020016000815250600f60008773ffffffffffffffffffffffffffffffffffffffff1673ffffffffffffffffffffffffffffffffffffffff16815260200190815260200160002060008201518160000160006101000a81548173ffffffffffffffffffffffffffffffffffffffff021916908373ffffffffffffffffffffffffffffffffffffffff16021790555060208201518160010190816200043d919062001145565b506040820151816002015590505060405180606001604052808573ffffffffffffffffffffffffffffffffffffffff1681526020016040518060400160405280600981526020017f70726f766964657232000000000000000000000000000000000000000000000081525081526020016000815250600f60008673ffffffffffffffffffffffffffffffffffffffff1673ffffffffffffffffffffffffffffffffffffffff16815260200190815260200160002060008201518160000160006101000a81548173ffffffffffffffffffffffffffffffffffffffff021916908373ffffffffffffffffffffffffffffffffffffffff16021790555060208201518160010190816200054f919062001145565b506040820151816002015590505060405180606001604052808473ffffffffffffffffffffffffffffffffffffffff1681526020016040518060400160405280600981526020017f696e766573746f7231000000000000000000000000000000000000000000000081525081526020016000815250600f60008573ffffffffffffffffffffffffffffffffffffffff1673ffffffffffffffffffffffffffffffffffffffff16815260200190815260200160002060008201518160000160006101000a81548173ffffffffffffffffffffffffffffffffffffffff021916908373ffffffffffffffffffffffffffffffffffffffff160217905550602082015181600101908162000661919062001145565b506040820151816002015590505060405180606001604052808373ffffffffffffffffffffffffffffffffffffffff1681526020016040518060400160405280600981526020017f696e766573746f7232000000000000000000000000000000000000000000000081525081526020016000815250600f60008473ffffffffffffffffffffffffffffffffffffffff1673ffffffffffffffffffffffffffffffffffffffff16815260200190815260200160002060008201518160000160006101000a81548173ffffffffffffffffffffffffffffffffffffffff021916908373ffffffffffffffffffffffffffffffffffffffff160217905550602082015181600101908162000773919062001145565b506040820151816002015590505060405180606001604052808273ffffffffffffffffffffffffffffffffffffffff1681526020016040518060400160405280600a81526020017f62657374467269656e640000000000000000000000000000000000000000000081525081526020016000815250600f60008373ffffffffffffffffffffffffffffffffffffffff1673ffffffffffffffffffffffffffffffffffffffff16815260200190815260200160002060008201518160000160006101000a81548173ffffffffffffffffffffffffffffffffffffffff021916908373ffffffffffffffffffffffffffffffffffffffff160217905550602082015181600101908162000885919062001145565b5060408201518160020155905050620008d283620008a86200095e60201b60201c565b600a620008b69190620013bc565b620493e0620008c691906200140d565b62000ad460201b60201c565b506200091282620008e86200095e60201b60201c565b600a620008f69190620013bc565b62061a806200090691906200140d565b62000ad460201b60201c565b506200095281620009286200095e60201b60201c565b600a620009369190620013bc565b62030d406200094691906200140d565b62000ad460201b60201c565b5050505050506200170c565b6000600c905090565b600073ffffffffffffffffffffffffffffffffffffffff168273ffffffffffffffffffffffffffffffffffffffff1603620009d9576040517f08c379a0000000000000000000000000000000000000000000000000000000008152600401620009d090620014b9565b60405180910390fd5b620009ed6000838362000b0760201b60201c565b806002600082825462000a019190620014db565b92505081905550806000808473ffffffffffffffffffffffffffffffffffffffff1673ffffffffffffffffffffffffffffffffffffffff168152602001908152602001600020600082825401925050819055508173ffffffffffffffffffffffffffffffffffffffff16600073ffffffffffffffffffffffffffffffffffffffff167fddf252ad1be2c89b69c2b068fc378daa952ba7f163c4a11628f55a4df523b3ef8360405162000ab4919062001527565b60405180910390a362000ad06000838362000b0c60201b60201c565b5050565b60008062000ae762000b1160201b60201c565b905062000afc81858562000b1960201b60201c565b600191505092915050565b505050565b505050565b600033905090565b600073ffffffffffffffffffffffffffffffffffffffff168373ffffffffffffffffffffffffffffffffffffffff160362000b8b576040517f08c379a000000000000000000000000000000000000000000000000000000000815260040162000b8290620015ba565b60405180910390fd5b600073ffffffffffffffffffffffffffffffffffffffff168273ffffffffffffffffffffffffffffffffffffffff160362000bfd576040517f08c379a000000000000000000000000000000000000000000000000000000000815260040162000bf49062001652565b60405180910390fd5b62000c1083838362000b0760201b60201c565b60008060008573ffffffffffffffffffffffffffffffffffffffff1673ffffffffffffffffffffffffffffffffffffffff1681526020019081526020016000205490508181101562000c99576040517f08c379a000000000000000000000000000000000000000000000000000000000815260040162000c9090620016ea565b60405180910390fd5b8181036000808673ffffffffffffffffffffffffffffffffffffffff1673ffffffffffffffffffffffffffffffffffffffff16815260200190815260200160002081905550816000808573ffffffffffffffffffffffffffffffffffffffff1673ffffffffffffffffffffffffffffffffffffffff168152602001908152602001600020600082825401925050819055508273ffffffffffffffffffffffffffffffffffffffff168473ffffffffffffffffffffffffffffffffffffffff167fddf252ad1be2c89b69c2b068fc378daa952ba7f163c4a11628f55a4df523b3ef8460405162000d89919062001527565b60405180910390a362000da484848462000b0c60201b60201c565b50505050565b7f4e487b7100000000000000000000000000000000000000000000000000000000600052602160045260246000fd5b600080fd5b600073ffffffffffffffffffffffffffffffffffffffff82169050919050565b600062000e0b8262000dde565b9050919050565b62000e1d8162000dfe565b811462000e2957600080fd5b50565b60008151905062000e3d8162000e12565b92915050565b600080600080600060a0868803121562000e625762000e6162000dd9565b5b600062000e728882890162000e2c565b955050602062000e858882890162000e2c565b945050604062000e988882890162000e2c565b935050606062000eab8882890162000e2c565b925050608062000ebe8882890162000e2c565b9150509295509295909350565b600081519050919050565b7f4e487b7100000000000000000000000000000000000000000000000000000000600052604160045260246000fd5b7f4e487b7100000000000000000000000000000000000000000000000000000000600052602260045260246000fd5b6000600282049050600182168062000f4d57607f821691505b60208210810362000f635762000f6262000f05565b5b50919050565b60008190508160005260206000209050919050565b60006020601f8301049050919050565b600082821b905092915050565b60006008830262000fcd7fffffffffffffffffffffffffffffffffffffffffffffffffffffffffffffffff8262000f8e565b62000fd9868362000f8e565b95508019841693508086168417925050509392505050565b6000819050919050565b6000819050919050565b600062001026620010206200101a8462000ff1565b62000ffb565b62000ff1565b9050919050565b6000819050919050565b620010428362001005565b6200105a62001051826200102d565b84845462000f9b565b825550505050565b600090565b6200107162001062565b6200107e81848462001037565b505050565b5b81811015620010a6576200109a60008262001067565b60018101905062001084565b5050565b601f821115620010f557620010bf8162000f69565b620010ca8462000f7e565b81016020851015620010da578190505b620010f2620010e98562000f7e565b83018262001083565b50505b505050565b600082821c905092915050565b60006200111a60001984600802620010fa565b1980831691505092915050565b600062001135838362001107565b9150826002028217905092915050565b620011508262000ecb565b67ffffffffffffffff8111156200116c576200116b62000ed6565b5b62001178825462000f34565b62001185828285620010aa565b600060209050601f831160018114620011bd5760008415620011a8578287015190505b620011b4858262001127565b86555062001224565b601f198416620011cd8662000f69565b60005b82811015620011f757848901518255600182019150602085019450602081019050620011d0565b8683101562001217578489015162001213601f89168262001107565b8355505b6001600288020188555050505b505050505050565b7f4e487b7100000000000000000000000000000000000000000000000000000000600052601160045260246000fd5b60008160011c9050919050565b6000808291508390505b6001851115620012ba578086048111156200129257620012916200122c565b5b6001851615620012a25780820291505b8081029050620012b2856200125b565b945062001272565b94509492505050565b600082620012d55760019050620013a8565b81620012e55760009050620013a8565b8160018114620012fe576002811462001309576200133f565b6001915050620013a8565b60ff8411156200131e576200131d6200122c565b5b8360020a9150848211156200133857620013376200122c565b5b50620013a8565b5060208310610133831016604e8410600b8410161715620013795782820a9050838111156200137357620013726200122c565b5b620013a8565b62001388848484600162001268565b92509050818404811115620013a257620013a16200122c565b5b81810290505b9392505050565b600060ff82169050919050565b6000620013c98262000ff1565b9150620013d683620013af565b9250620014057fffffffffffffffffffffffffffffffffffffffffffffffffffffffffffffffff8484620012c3565b905092915050565b60006200141a8262000ff1565b9150620014278362000ff1565b9250828202620014378162000ff1565b915082820484148315176200145157620014506200122c565b5b5092915050565b600082825260208201905092915050565b7f45524332303a206d696e7420746f20746865207a65726f206164647265737300600082015250565b6000620014a1601f8362001458565b9150620014ae8262001469565b602082019050919050565b60006020820190508181036000830152620014d48162001492565b9050919050565b6000620014e88262000ff1565b9150620014f58362000ff1565b925082820190508082111562001510576200150f6200122c565b5b92915050565b620015218162000ff1565b82525050565b60006020820190506200153e600083018462001516565b92915050565b7f45524332303a207472616e736665722066726f6d20746865207a65726f20616460008201527f6472657373000000000000000000000000000000000000000000000000000000602082015250565b6000620015a260258362001458565b9150620015af8262001544565b604082019050919050565b60006020820190508181036000830152620015d58162001593565b9050919050565b7f45524332303a207472616e7366657220746f20746865207a65726f206164647260008201527f6573730000000000000000000000000000000000000000000000000000000000602082015250565b60006200163a60238362001458565b91506200164782620015dc565b604082019050919050565b600060208201905081810360008301526200166d816200162b565b9050919050565b7f45524332303a207472616e7366657220616d6f756e742065786365656473206260008201527f616c616e63650000000000000000000000000000000000000000000000000000602082015250565b6000620016d260268362001458565b9150620016df8262001674565b604082019050919050565b600060208201905081810360008301526200170581620016c3565b9050919050565b6121dd806200171c6000396000f3fe608060405234801561001057600080fd5b506004361061010b5760003560e01c80638fc5668b116100a2578063a9059cbb11610071578063a9059cbb146102a8578063ad221195146102d8578063dcd7f537146102f4578063dd62ed3e146102fe578063fc58a74f1461032e5761010b565b80638fc5668b1461024657806395d89b4114610250578063a457c2d71461026e578063a48217191461029e5761010b565b806323b872dd116100de57806323b872dd14610198578063313ce567146101c857806339509351146101e657806370a08231146102165761010b565b806306fdde0314610110578063095ea7b31461012e5780631072cbea1461015e57806318160ddd1461017a575b600080fd5b61011861034a565b604051610125919061147a565b60405180910390f35b6101486004803603810190610143919061153a565b6103dc565b6040516101559190611595565b60405180910390f35b6101786004803603810190610173919061153a565b6103ff565b005b6101826105bd565b60405161018f91906115bf565b60405180910390f35b6101b260048036038101906101ad91906115da565b610607565b6040516101bf9190611595565b60405180910390f35b6101d0610636565b6040516101dd9190611649565b60405180910390f35b61020060048036038101906101fb919061153a565b61063f565b60405161020d9190611595565b60405180910390f35b610230600480360381019061022b9190611664565b610676565b60405161023d91906115bf565b60405180910390f35b61024e6106c2565b005b6102586107c2565b604051610265919061147a565b60405180910390f35b6102886004803603810190610283919061153a565b610854565b6040516102959190611595565b60405180910390f35b6102a66108cb565b005b6102c260048036038101906102bd919061153a565b6108cd565b6040516102cf9190611595565b60405180910390f35b6102f260048036038101906102ed91906115da565b6108f0565b005b6102fc610ab2565b005b61031860048036038101906103139190611691565b610ace565b60405161032591906115bf565b60405180910390f35b61034860048036038101906103439190611736565b610b55565b005b606060038054610359906117c5565b80601f0160208091040260200160405190810160405280929190818152602001828054610385906117c5565b80156103d25780601f106103a7576101008083540402835291602001916103d2565b820191906000526020600020905b8154815290600101906020018083116103b557829003601f168201915b5050505050905090565b6000806103e7610cca565b90506103f4818585610cd2565b600191505092915050565b61040982826108cd565b50806104136105bd565b101561046157336104226105bd565b826040517fe450d38c00000000000000000000000000000000000000000000000000000000815260040161045893929190611805565b60405180910390fd5b61046a82610676565b8161047484610676565b61047e919061186b565b10156105075781600f60008473ffffffffffffffffffffffffffffffffffffffff1673ffffffffffffffffffffffffffffffffffffffff16815260200190815260200160002060020154826040517f33a418de0000000000000000000000000000000000000000000000000000000081526004016104fe93929190611805565b60405180910390fd5b80600f60003373ffffffffffffffffffffffffffffffffffffffff1673ffffffffffffffffffffffffffffffffffffffff1681526020019081526020016000206002016000828254610559919061189f565b9250508190555080600f60008473ffffffffffffffffffffffffffffffffffffffff1673ffffffffffffffffffffffffffffffffffffffff16815260200190815260200160002060020160008282546105b2919061186b565b925050819055505050565b6000600f60003373ffffffffffffffffffffffffffffffffffffffff1673ffffffffffffffffffffffffffffffffffffffff16815260200190815260200160002060020154905090565b600080610612610cca565b905061061f858285610e9b565b61062a858585610f27565b60019150509392505050565b6000600c905090565b60008061064a610cca565b905061066b81858561065c8589610ace565b610666919061186b565b610cd2565b600191505092915050565b6000600f60008373ffffffffffffffffffffffffffffffffffffffff1673ffffffffffffffffffffffffffffffffffffffff168152602001908152602001600020600201549050919050565b60016106cc61119d565b8060028111156106df576106de6118d3565b5b600560009054906101000a900460ff166002811115610701576107006118d3565b5b14610738576040517f1e09210400000000000000000000000000000000000000000000000000000000815260040160405180910390fd5b600d60009054906101000a900473ffffffffffffffffffffffffffffffffffffffff1673ffffffffffffffffffffffffffffffffffffffff163373ffffffffffffffffffffffffffffffffffffffff16146107bf576040517f1e09210400000000000000000000000000000000000000000000000000000000815260040160405180910390fd5b50565b6060600480546107d1906117c5565b80601f01602080910402602001604051908101604052809291908181526020018280546107fd906117c5565b801561084a5780601f1061081f5761010080835404028352916020019161084a565b820191906000526020600020905b81548152906001019060200180831161082d57829003601f168201915b5050505050905090565b60008061085f610cca565b9050600061086d8286610ace565b9050838110156108b2576040517f08c379a00000000000000000000000000000000000000000000000000000000081526004016108a990611974565b60405180910390fd5b6108bf8286868403610cd2565b60019250505092915050565b565b6000806108d8610cca565b90506108e5818585610f27565b600191505092915050565b6108fb838383610607565b508061090684610676565b1015610955578261091684610676565b826040517fe450d38c00000000000000000000000000000000000000000000000000000000815260040161094c93929190611805565b60405180910390fd5b61095e82610676565b8161096884610676565b610972919061186b565b10156109fb5781600f60008473ffffffffffffffffffffffffffffffffffffffff1673ffffffffffffffffffffffffffffffffffffffff16815260200190815260200160002060020154826040517f33a418de0000000000000000000000000000000000000000000000000000000081526004016109f293929190611805565b60405180910390fd5b80600f60008573ffffffffffffffffffffffffffffffffffffffff1673ffffffffffffffffffffffffffffffffffffffff1681526020019081526020016000206002016000828254610a4d919061189f565b9250508190555080600f60008473ffffffffffffffffffffffffffffffffffffffff1673ffffffffffffffffffffffffffffffffffffffff1681526020019081526020016000206002016000828254610aa6919061186b565b92505081905550505050565b603c600a6000828254610ac5919061186b565b92505081905550565b6000600160008473ffffffffffffffffffffffffffffffffffffffff1673ffffffffffffffffffffffffffffffffffffffff16815260200190815260200160002060008373ffffffffffffffffffffffffffffffffffffffff1673ffffffffffffffffffffffffffffffffffffffff16815260200190815260200160002054905092915050565b6001610b5f61119d565b806002811115610b7257610b716118d3565b5b600560009054906101000a900460ff166002811115610b9457610b936118d3565b5b14610bcb576040517f1e09210400000000000000000000000000000000000000000000000000000000815260040160405180910390fd5b6006604051806040016040528086868080601f016020809104026020016040519081016040528093929190818152602001838380828437600081840152601f19601f8201169050808301925050505050505081526020018473ffffffffffffffffffffffffffffffffffffffff1681525090806001815401808255809150506001900390600052602060002090600202016000909190919091506000820151816000019081610c7a9190611b6f565b5060208201518160010160006101000a81548173ffffffffffffffffffffffffffffffffffffffff021916908373ffffffffffffffffffffffffffffffffffffffff160217905550505050505050565b600033905090565b600073ffffffffffffffffffffffffffffffffffffffff168373ffffffffffffffffffffffffffffffffffffffff1603610d41576040517f08c379a0000000000000000000000000000000000000000000000000000000008152600401610d3890611cb3565b60405180910390fd5b600073ffffffffffffffffffffffffffffffffffffffff168273ffffffffffffffffffffffffffffffffffffffff1603610db0576040517f08c379a0000000000000000000000000000000000000000000000000000000008152600401610da790611d45565b60405180910390fd5b80600160008573ffffffffffffffffffffffffffffffffffffffff1673ffffffffffffffffffffffffffffffffffffffff16815260200190815260200160002060008473ffffffffffffffffffffffffffffffffffffffff1673ffffffffffffffffffffffffffffffffffffffff168152602001908152602001600020819055508173ffffffffffffffffffffffffffffffffffffffff168373ffffffffffffffffffffffffffffffffffffffff167f8c5be1e5ebec7d5bd14f71427d1e84f3dd0314c0f7b2291e5b200ac8c7c3b92583604051610e8e91906115bf565b60405180910390a3505050565b6000610ea78484610ace565b90507fffffffffffffffffffffffffffffffffffffffffffffffffffffffffffffffff8114610f215781811015610f13576040517f08c379a0000000000000000000000000000000000000000000000000000000008152600401610f0a90611db1565b60405180910390fd5b610f208484848403610cd2565b5b50505050565b600073ffffffffffffffffffffffffffffffffffffffff168373ffffffffffffffffffffffffffffffffffffffff1603610f96576040517f08c379a0000000000000000000000000000000000000000000000000000000008152600401610f8d90611e43565b60405180910390fd5b600073ffffffffffffffffffffffffffffffffffffffff168273ffffffffffffffffffffffffffffffffffffffff1603611005576040517f08c379a0000000000000000000000000000000000000000000000000000000008152600401610ffc90611ed5565b60405180910390fd5b6110108383836113e0565b60008060008573ffffffffffffffffffffffffffffffffffffffff1673ffffffffffffffffffffffffffffffffffffffff16815260200190815260200160002054905081811015611096576040517f08c379a000000000000000000000000000000000000000000000000000000000815260040161108d90611f67565b60405180910390fd5b8181036000808673ffffffffffffffffffffffffffffffffffffffff1673ffffffffffffffffffffffffffffffffffffffff16815260200190815260200160002081905550816000808573ffffffffffffffffffffffffffffffffffffffff1673ffffffffffffffffffffffffffffffffffffffff168152602001908152602001600020600082825401925050819055508273ffffffffffffffffffffffffffffffffffffffff168473ffffffffffffffffffffffffffffffffffffffff167fddf252ad1be2c89b69c2b068fc378daa952ba7f163c4a11628f55a4df523b3ef8460405161118491906115bf565b60405180910390a36111978484846113e5565b50505050565b6002808111156111b0576111af6118d3565b5b600560009054906101000a900460ff1660028111156111d2576111d16118d3565b5b146113de5742600881905550600a546008546111ee919061186b565b6009819055506000603c600754600954611208919061189f565b6112129190611fb6565b905060006002811115611228576112276118d3565b5b600560009054906101000a900460ff16600281111561124a576112496118d3565b5b036112ef57600f8110156112ea576001600560006101000a81548160ff0219169083600281111561127e5761127d6118d3565b5b02179055506602aa1efb94e000600b81905550620186a0600c819055506112e8600d60009054906101000a900473ffffffffffffffffffffffffffffffffffffffff166112c9610636565b600a6112d5919061211a565b622dc6c06112e39190612165565b6103dc565b505b6113dc565b60016002811115611303576113026118d3565b5b600560009054906101000a900460ff166002811115611325576113246118d3565b5b036113db57600f81106113da576002600560006101000a81548160ff02191690836002811115611358576113576118d3565b5b021790555061138a600d60009054906101000a900473ffffffffffffffffffffffffffffffffffffffff1660006103dc565b506113d8600e60009054906101000a900473ffffffffffffffffffffffffffffffffffffffff166113b9610636565b600a6113c5919061211a565b625b8d806113d39190612165565b6103dc565b505b5b5b505b565b505050565b505050565b600081519050919050565b600082825260208201905092915050565b60005b83811015611424578082015181840152602081019050611409565b60008484015250505050565b6000601f19601f8301169050919050565b600061144c826113ea565b61145681856113f5565b9350611466818560208601611406565b61146f81611430565b840191505092915050565b600060208201905081810360008301526114948184611441565b905092915050565b600080fd5b600080fd5b600073ffffffffffffffffffffffffffffffffffffffff82169050919050565b60006114d1826114a6565b9050919050565b6114e1816114c6565b81146114ec57600080fd5b50565b6000813590506114fe816114d8565b92915050565b6000819050919050565b61151781611504565b811461152257600080fd5b50565b6000813590506115348161150e565b92915050565b600080604083850312156115515761155061149c565b5b600061155f858286016114ef565b925050602061157085828601611525565b9150509250929050565b60008115159050919050565b61158f8161157a565b82525050565b60006020820190506115aa6000830184611586565b92915050565b6115b981611504565b82525050565b60006020820190506115d460008301846115b0565b92915050565b6000806000606084860312156115f3576115f261149c565b5b6000611601868287016114ef565b9350506020611612868287016114ef565b925050604061162386828701611525565b9150509250925092565b600060ff82169050919050565b6116438161162d565b82525050565b600060208201905061165e600083018461163a565b92915050565b60006020828403121561167a5761167961149c565b5b6000611688848285016114ef565b91505092915050565b600080604083850312156116a8576116a761149c565b5b60006116b6858286016114ef565b92505060206116c7858286016114ef565b9150509250929050565b600080fd5b600080fd5b600080fd5b60008083601f8401126116f6576116f56116d1565b5b8235905067ffffffffffffffff811115611713576117126116d6565b5b60208301915083600182028301111561172f5761172e6116db565b5b9250929050565b60008060006040848603121561174f5761174e61149c565b5b600084013567ffffffffffffffff81111561176d5761176c6114a1565b5b611779868287016116e0565b9350935050602061178c868287016114ef565b9150509250925092565b7f4e487b7100000000000000000000000000000000000000000000000000000000600052602260045260246000fd5b600060028204905060018216806117dd57607f821691505b6020821081036117f0576117ef611796565b5b50919050565b6117ff816114c6565b82525050565b600060608201905061181a60008301866117f6565b61182760208301856115b0565b61183460408301846115b0565b949350505050565b7f4e487b7100000000000000000000000000000000000000000000000000000000600052601160045260246000fd5b600061187682611504565b915061188183611504565b92508282019050808211156118995761189861183c565b5b92915050565b60006118aa82611504565b91506118b583611504565b92508282039050818111156118cd576118cc61183c565b5b92915050565b7f4e487b7100000000000000000000000000000000000000000000000000000000600052602160045260246000fd5b7f45524332303a2064656372656173656420616c6c6f77616e63652062656c6f7760008201527f207a65726f000000000000000000000000000000000000000000000000000000602082015250565b600061195e6025836113f5565b915061196982611902565b604082019050919050565b6000602082019050818103600083015261198d81611951565b9050919050565b7f4e487b7100000000000000000000000000000000000000000000000000000000600052604160045260246000fd5b60008190508160005260206000209050919050565b60006020601f8301049050919050565b600082821b905092915050565b600060088302611a257fffffffffffffffffffffffffffffffffffffffffffffffffffffffffffffffff826119e8565b611a2f86836119e8565b95508019841693508086168417925050509392505050565b6000819050919050565b6000611a6c611a67611a6284611504565b611a47565b611504565b9050919050565b6000819050919050565b611a8683611a51565b611a9a611a9282611a73565b8484546119f5565b825550505050565b600090565b611aaf611aa2565b611aba818484611a7d565b505050565b5b81811015611ade57611ad3600082611aa7565b600181019050611ac0565b5050565b601f821115611b2357611af4816119c3565b611afd846119d8565b81016020851015611b0c578190505b611b20611b18856119d8565b830182611abf565b50505b505050565b600082821c905092915050565b6000611b4660001984600802611b28565b1980831691505092915050565b6000611b5f8383611b35565b9150826002028217905092915050565b611b78826113ea565b67ffffffffffffffff811115611b9157611b90611994565b5b611b9b82546117c5565b611ba6828285611ae2565b600060209050601f831160018114611bd95760008415611bc7578287015190505b611bd18582611b53565b865550611c39565b601f198416611be7866119c3565b60005b82811015611c0f57848901518255600182019150602085019450602081019050611bea565b86831015611c2c5784890151611c28601f891682611b35565b8355505b6001600288020188555050505b505050505050565b7f45524332303a20617070726f76652066726f6d20746865207a65726f2061646460008201527f7265737300000000000000000000000000000000000000000000000000000000602082015250565b6000611c9d6024836113f5565b9150611ca882611c41565b604082019050919050565b60006020820190508181036000830152611ccc81611c90565b9050919050565b7f45524332303a20617070726f766520746f20746865207a65726f20616464726560008201527f7373000000000000000000000000000000000000000000000000000000000000602082015250565b6000611d2f6022836113f5565b9150611d3a82611cd3565b604082019050919050565b60006020820190508181036000830152611d5e81611d22565b9050919050565b7f45524332303a20696e73756666696369656e7420616c6c6f77616e6365000000600082015250565b6000611d9b601d836113f5565b9150611da682611d65565b602082019050919050565b60006020820190508181036000830152611dca81611d8e565b9050919050565b7f45524332303a207472616e736665722066726f6d20746865207a65726f20616460008201527f6472657373000000000000000000000000000000000000000000000000000000602082015250565b6000611e2d6025836113f5565b9150611e3882611dd1565b604082019050919050565b60006020820190508181036000830152611e5c81611e20565b9050919050565b7f45524332303a207472616e7366657220746f20746865207a65726f206164647260008201527f6573730000000000000000000000000000000000000000000000000000000000602082015250565b6000611ebf6023836113f5565b9150611eca82611e63565b604082019050919050565b60006020820190508181036000830152611eee81611eb2565b9050919050565b7f45524332303a207472616e7366657220616d6f756e742065786365656473206260008201527f616c616e63650000000000000000000000000000000000000000000000000000602082015250565b6000611f516026836113f5565b9150611f5c82611ef5565b604082019050919050565b60006020820190508181036000830152611f8081611f44565b9050919050565b7f4e487b7100000000000000000000000000000000000000000000000000000000600052601260045260246000fd5b6000611fc182611504565b9150611fcc83611504565b925082611fdc57611fdb611f87565b5b828204905092915050565b60008160011c9050919050565b6000808291508390505b600185111561203e5780860481111561201a5761201961183c565b5b60018516156120295780820291505b808102905061203785611fe7565b9450611ffe565b94509492505050565b6000826120575760019050612113565b816120655760009050612113565b816001811461207b5760028114612085576120b4565b6001915050612113565b60ff8411156120975761209661183c565b5b8360020a9150848211156120ae576120ad61183c565b5b50612113565b5060208310610133831016604e8410600b84101617156120e95782820a9050838111156120e4576120e361183c565b5b612113565b6120f68484846001611ff4565b9250905081840481111561210d5761210c61183c565b5b81810290505b9392505050565b600061212582611504565b91506121308361162d565b925061215d7fffffffffffffffffffffffffffffffffffffffffffffffffffffffffffffffff8484612047565b905092915050565b600061217082611504565b915061217b83611504565b925082820261218981611504565b915082820484148315176121a05761219f61183c565b5b509291505056fea2646970667358221220374c8ecbcdcb087327db61176e9e75d827b15dcb723ed1a165b0438bf974801364736f6c63430008120033",
					"opcodes": "PUSH1 0x80 PUSH1 0x40 MSTORE PUSH1 0x0 PUSH1 0x5 PUSH1 0x0 PUSH2 0x100 EXP DUP2 SLOAD DUP2 PUSH1 0xFF MUL NOT AND SWAP1 DUP4 PUSH1 0x2 DUP2 GT ISZERO PUSH3 0x2D JUMPI PUSH3 0x2C PUSH3 0xDAA JUMP JUMPDEST JUMPDEST MUL OR SWAP1 SSTORE POP TIMESTAMP PUSH1 0x7 SSTORE PUSH1 0x7 SLOAD PUSH1 0x8 SSTORE PUSH1 0x8 SLOAD PUSH1 0x9 SSTORE PUSH1 0x0 PUSH1 0xA SSTORE CALLVALUE DUP1 ISZERO PUSH3 0x54 JUMPI PUSH1 0x0 DUP1 REVERT JUMPDEST POP PUSH1 0x40 MLOAD PUSH3 0x38F9 CODESIZE SUB DUP1 PUSH3 0x38F9 DUP4 CODECOPY DUP2 DUP2 ADD PUSH1 0x40 MSTORE DUP2 ADD SWAP1 PUSH3 0x7A SWAP2 SWAP1 PUSH3 0xE43 JUMP JUMPDEST PUSH1 0x40 MLOAD DUP1 PUSH1 0x40 ADD PUSH1 0x40 MSTORE DUP1 PUSH1 0xD DUP2 MSTORE PUSH1 0x20 ADD PUSH32 0x43727970746F4D6F6E7374657200000000000000000000000000000000000000 DUP2 MSTORE POP PUSH1 0x40 MLOAD DUP1 PUSH1 0x40 ADD PUSH1 0x40 MSTORE DUP1 PUSH1 0x4 DUP2 MSTORE PUSH1 0x20 ADD PUSH32 0x434D4F4E00000000000000000000000000000000000000000000000000000000 DUP2 MSTORE POP DUP2 PUSH1 0x3 SWAP1 DUP2 PUSH3 0xF7 SWAP2 SWAP1 PUSH3 0x1145 JUMP JUMPDEST POP DUP1 PUSH1 0x4 SWAP1 DUP2 PUSH3 0x109 SWAP2 SWAP1 PUSH3 0x1145 JUMP JUMPDEST POP POP POP PUSH3 0x14B CALLER PUSH3 0x121 PUSH3 0x95E PUSH1 0x20 SHL PUSH1 0x20 SHR JUMP JUMPDEST PUSH1 0xA PUSH3 0x12F SWAP2 SWAP1 PUSH3 0x13BC JUMP JUMPDEST PUSH3 0x989680 PUSH3 0x13F SWAP2 SWAP1 PUSH3 0x140D JUMP JUMPDEST PUSH3 0x967 PUSH1 0x20 SHL PUSH1 0x20 SHR JUMP JUMPDEST PUSH1 0x0 PUSH1 0x5 PUSH1 0x0 PUSH2 0x100 EXP DUP2 SLOAD DUP2 PUSH1 0xFF MUL NOT AND SWAP1 DUP4 PUSH1 0x2 DUP2 GT ISZERO PUSH3 0x174 JUMPI PUSH3 0x173 PUSH3 0xDAA JUMP JUMPDEST JUMPDEST MUL OR SWAP1 SSTORE POP DUP5 PUSH1 0xD PUSH1 0x0 PUSH2 0x100 EXP DUP2 SLOAD DUP2 PUSH20 0xFFFFFFFFFFFFFFFFFFFFFFFFFFFFFFFFFFFFFFFF MUL NOT AND SWAP1 DUP4 PUSH20 0xFFFFFFFFFFFFFFFFFFFFFFFFFFFFFFFFFFFFFFFF AND MUL OR SWAP1 SSTORE POP DUP4 PUSH1 0xE PUSH1 0x0 PUSH2 0x100 EXP DUP2 SLOAD DUP2 PUSH20 0xFFFFFFFFFFFFFFFFFFFFFFFFFFFFFFFFFFFFFFFF MUL NOT AND SWAP1 DUP4 PUSH20 0xFFFFFFFFFFFFFFFFFFFFFFFFFFFFFFFFFFFFFFFF AND MUL OR SWAP1 SSTORE POP PUSH1 0x40 MLOAD DUP1 PUSH1 0x60 ADD PUSH1 0x40 MSTORE DUP1 CALLER PUSH20 0xFFFFFFFFFFFFFFFFFFFFFFFFFFFFFFFFFFFFFFFF AND DUP2 MSTORE PUSH1 0x20 ADD PUSH1 0x40 MLOAD DUP1 PUSH1 0x40 ADD PUSH1 0x40 MSTORE DUP1 PUSH1 0x5 DUP2 MSTORE PUSH1 0x20 ADD PUSH32 0x6F776E6572000000000000000000000000000000000000000000000000000000 DUP2 MSTORE POP DUP2 MSTORE PUSH1 0x20 ADD PUSH3 0x26D PUSH3 0x95E PUSH1 0x20 SHL PUSH1 0x20 SHR JUMP JUMPDEST PUSH1 0xA PUSH3 0x27B SWAP2 SWAP1 PUSH3 0x13BC JUMP JUMPDEST PUSH3 0x989680 PUSH3 0x28B SWAP2 SWAP1 PUSH3 0x140D JUMP JUMPDEST DUP2 MSTORE POP PUSH1 0xF PUSH1 0x0 CALLER PUSH20 0xFFFFFFFFFFFFFFFFFFFFFFFFFFFFFFFFFFFFFFFF AND PUSH20 0xFFFFFFFFFFFFFFFFFFFFFFFFFFFFFFFFFFFFFFFF AND DUP2 MSTORE PUSH1 0x20 ADD SWAP1 DUP2 MSTORE PUSH1 0x20 ADD PUSH1 0x0 KECCAK256 PUSH1 0x0 DUP3 ADD MLOAD DUP2 PUSH1 0x0 ADD PUSH1 0x0 PUSH2 0x100 EXP DUP2 SLOAD DUP2 PUSH20 0xFFFFFFFFFFFFFFFFFFFFFFFFFFFFFFFFFFFFFFFF MUL NOT AND SWAP1 DUP4 PUSH20 0xFFFFFFFFFFFFFFFFFFFFFFFFFFFFFFFFFFFFFFFF AND MUL OR SWAP1 SSTORE POP PUSH1 0x20 DUP3 ADD MLOAD DUP2 PUSH1 0x1 ADD SWAP1 DUP2 PUSH3 0x32B SWAP2 SWAP1 PUSH3 0x1145 JUMP JUMPDEST POP PUSH1 0x40 DUP3 ADD MLOAD DUP2 PUSH1 0x2 ADD SSTORE SWAP1 POP POP PUSH1 0x40 MLOAD DUP1 PUSH1 0x60 ADD PUSH1 0x40 MSTORE DUP1 DUP7 PUSH20 0xFFFFFFFFFFFFFFFFFFFFFFFFFFFFFFFFFFFFFFFF AND DUP2 MSTORE PUSH1 0x20 ADD PUSH1 0x40 MLOAD DUP1 PUSH1 0x40 ADD PUSH1 0x40 MSTORE DUP1 PUSH1 0x9 DUP2 MSTORE PUSH1 0x20 ADD PUSH32 0x70726F7669646572310000000000000000000000000000000000000000000000 DUP2 MSTORE POP DUP2 MSTORE PUSH1 0x20 ADD PUSH1 0x0 DUP2 MSTORE POP PUSH1 0xF PUSH1 0x0 DUP8 PUSH20 0xFFFFFFFFFFFFFFFFFFFFFFFFFFFFFFFFFFFFFFFF AND PUSH20 0xFFFFFFFFFFFFFFFFFFFFFFFFFFFFFFFFFFFFFFFF AND DUP2 MSTORE PUSH1 0x20 ADD SWAP1 DUP2 MSTORE PUSH1 0x20 ADD PUSH1 0x0 KECCAK256 PUSH1 0x0 DUP3 ADD MLOAD DUP2 PUSH1 0x0 ADD PUSH1 0x0 PUSH2 0x100 EXP DUP2 SLOAD DUP2 PUSH20 0xFFFFFFFFFFFFFFFFFFFFFFFFFFFFFFFFFFFFFFFF MUL NOT AND SWAP1 DUP4 PUSH20 0xFFFFFFFFFFFFFFFFFFFFFFFFFFFFFFFFFFFFFFFF AND MUL OR SWAP1 SSTORE POP PUSH1 0x20 DUP3 ADD MLOAD DUP2 PUSH1 0x1 ADD SWAP1 DUP2 PUSH3 0x43D SWAP2 SWAP1 PUSH3 0x1145 JUMP JUMPDEST POP PUSH1 0x40 DUP3 ADD MLOAD DUP2 PUSH1 0x2 ADD SSTORE SWAP1 POP POP PUSH1 0x40 MLOAD DUP1 PUSH1 0x60 ADD PUSH1 0x40 MSTORE DUP1 DUP6 PUSH20 0xFFFFFFFFFFFFFFFFFFFFFFFFFFFFFFFFFFFFFFFF AND DUP2 MSTORE PUSH1 0x20 ADD PUSH1 0x40 MLOAD DUP1 PUSH1 0x40 ADD PUSH1 0x40 MSTORE DUP1 PUSH1 0x9 DUP2 MSTORE PUSH1 0x20 ADD PUSH32 0x70726F7669646572320000000000000000000000000000000000000000000000 DUP2 MSTORE POP DUP2 MSTORE PUSH1 0x20 ADD PUSH1 0x0 DUP2 MSTORE POP PUSH1 0xF PUSH1 0x0 DUP7 PUSH20 0xFFFFFFFFFFFFFFFFFFFFFFFFFFFFFFFFFFFFFFFF AND PUSH20 0xFFFFFFFFFFFFFFFFFFFFFFFFFFFFFFFFFFFFFFFF AND DUP2 MSTORE PUSH1 0x20 ADD SWAP1 DUP2 MSTORE PUSH1 0x20 ADD PUSH1 0x0 KECCAK256 PUSH1 0x0 DUP3 ADD MLOAD DUP2 PUSH1 0x0 ADD PUSH1 0x0 PUSH2 0x100 EXP DUP2 SLOAD DUP2 PUSH20 0xFFFFFFFFFFFFFFFFFFFFFFFFFFFFFFFFFFFFFFFF MUL NOT AND SWAP1 DUP4 PUSH20 0xFFFFFFFFFFFFFFFFFFFFFFFFFFFFFFFFFFFFFFFF AND MUL OR SWAP1 SSTORE POP PUSH1 0x20 DUP3 ADD MLOAD DUP2 PUSH1 0x1 ADD SWAP1 DUP2 PUSH3 0x54F SWAP2 SWAP1 PUSH3 0x1145 JUMP JUMPDEST POP PUSH1 0x40 DUP3 ADD MLOAD DUP2 PUSH1 0x2 ADD SSTORE SWAP1 POP POP PUSH1 0x40 MLOAD DUP1 PUSH1 0x60 ADD PUSH1 0x40 MSTORE DUP1 DUP5 PUSH20 0xFFFFFFFFFFFFFFFFFFFFFFFFFFFFFFFFFFFFFFFF AND DUP2 MSTORE PUSH1 0x20 ADD PUSH1 0x40 MLOAD DUP1 PUSH1 0x40 ADD PUSH1 0x40 MSTORE DUP1 PUSH1 0x9 DUP2 MSTORE PUSH1 0x20 ADD PUSH32 0x696E766573746F72310000000000000000000000000000000000000000000000 DUP2 MSTORE POP DUP2 MSTORE PUSH1 0x20 ADD PUSH1 0x0 DUP2 MSTORE POP PUSH1 0xF PUSH1 0x0 DUP6 PUSH20 0xFFFFFFFFFFFFFFFFFFFFFFFFFFFFFFFFFFFFFFFF AND PUSH20 0xFFFFFFFFFFFFFFFFFFFFFFFFFFFFFFFFFFFFFFFF AND DUP2 MSTORE PUSH1 0x20 ADD SWAP1 DUP2 MSTORE PUSH1 0x20 ADD PUSH1 0x0 KECCAK256 PUSH1 0x0 DUP3 ADD MLOAD DUP2 PUSH1 0x0 ADD PUSH1 0x0 PUSH2 0x100 EXP DUP2 SLOAD DUP2 PUSH20 0xFFFFFFFFFFFFFFFFFFFFFFFFFFFFFFFFFFFFFFFF MUL NOT AND SWAP1 DUP4 PUSH20 0xFFFFFFFFFFFFFFFFFFFFFFFFFFFFFFFFFFFFFFFF AND MUL OR SWAP1 SSTORE POP PUSH1 0x20 DUP3 ADD MLOAD DUP2 PUSH1 0x1 ADD SWAP1 DUP2 PUSH3 0x661 SWAP2 SWAP1 PUSH3 0x1145 JUMP JUMPDEST POP PUSH1 0x40 DUP3 ADD MLOAD DUP2 PUSH1 0x2 ADD SSTORE SWAP1 POP POP PUSH1 0x40 MLOAD DUP1 PUSH1 0x60 ADD PUSH1 0x40 MSTORE DUP1 DUP4 PUSH20 0xFFFFFFFFFFFFFFFFFFFFFFFFFFFFFFFFFFFFFFFF AND DUP2 MSTORE PUSH1 0x20 ADD PUSH1 0x40 MLOAD DUP1 PUSH1 0x40 ADD PUSH1 0x40 MSTORE DUP1 PUSH1 0x9 DUP2 MSTORE PUSH1 0x20 ADD PUSH32 0x696E766573746F72320000000000000000000000000000000000000000000000 DUP2 MSTORE POP DUP2 MSTORE PUSH1 0x20 ADD PUSH1 0x0 DUP2 MSTORE POP PUSH1 0xF PUSH1 0x0 DUP5 PUSH20 0xFFFFFFFFFFFFFFFFFFFFFFFFFFFFFFFFFFFFFFFF AND PUSH20 0xFFFFFFFFFFFFFFFFFFFFFFFFFFFFFFFFFFFFFFFF AND DUP2 MSTORE PUSH1 0x20 ADD SWAP1 DUP2 MSTORE PUSH1 0x20 ADD PUSH1 0x0 KECCAK256 PUSH1 0x0 DUP3 ADD MLOAD DUP2 PUSH1 0x0 ADD PUSH1 0x0 PUSH2 0x100 EXP DUP2 SLOAD DUP2 PUSH20 0xFFFFFFFFFFFFFFFFFFFFFFFFFFFFFFFFFFFFFFFF MUL NOT AND SWAP1 DUP4 PUSH20 0xFFFFFFFFFFFFFFFFFFFFFFFFFFFFFFFFFFFFFFFF AND MUL OR SWAP1 SSTORE POP PUSH1 0x20 DUP3 ADD MLOAD DUP2 PUSH1 0x1 ADD SWAP1 DUP2 PUSH3 0x773 SWAP2 SWAP1 PUSH3 0x1145 JUMP JUMPDEST POP PUSH1 0x40 DUP3 ADD MLOAD DUP2 PUSH1 0x2 ADD SSTORE SWAP1 POP POP PUSH1 0x40 MLOAD DUP1 PUSH1 0x60 ADD PUSH1 0x40 MSTORE DUP1 DUP3 PUSH20 0xFFFFFFFFFFFFFFFFFFFFFFFFFFFFFFFFFFFFFFFF AND DUP2 MSTORE PUSH1 0x20 ADD PUSH1 0x40 MLOAD DUP1 PUSH1 0x40 ADD PUSH1 0x40 MSTORE DUP1 PUSH1 0xA DUP2 MSTORE PUSH1 0x20 ADD PUSH32 0x62657374467269656E6400000000000000000000000000000000000000000000 DUP2 MSTORE POP DUP2 MSTORE PUSH1 0x20 ADD PUSH1 0x0 DUP2 MSTORE POP PUSH1 0xF PUSH1 0x0 DUP4 PUSH20 0xFFFFFFFFFFFFFFFFFFFFFFFFFFFFFFFFFFFFFFFF AND PUSH20 0xFFFFFFFFFFFFFFFFFFFFFFFFFFFFFFFFFFFFFFFF AND DUP2 MSTORE PUSH1 0x20 ADD SWAP1 DUP2 MSTORE PUSH1 0x20 ADD PUSH1 0x0 KECCAK256 PUSH1 0x0 DUP3 ADD MLOAD DUP2 PUSH1 0x0 ADD PUSH1 0x0 PUSH2 0x100 EXP DUP2 SLOAD DUP2 PUSH20 0xFFFFFFFFFFFFFFFFFFFFFFFFFFFFFFFFFFFFFFFF MUL NOT AND SWAP1 DUP4 PUSH20 0xFFFFFFFFFFFFFFFFFFFFFFFFFFFFFFFFFFFFFFFF AND MUL OR SWAP1 SSTORE POP PUSH1 0x20 DUP3 ADD MLOAD DUP2 PUSH1 0x1 ADD SWAP1 DUP2 PUSH3 0x885 SWAP2 SWAP1 PUSH3 0x1145 JUMP JUMPDEST POP PUSH1 0x40 DUP3 ADD MLOAD DUP2 PUSH1 0x2 ADD SSTORE SWAP1 POP POP PUSH3 0x8D2 DUP4 PUSH3 0x8A8 PUSH3 0x95E PUSH1 0x20 SHL PUSH1 0x20 SHR JUMP JUMPDEST PUSH1 0xA PUSH3 0x8B6 SWAP2 SWAP1 PUSH3 0x13BC JUMP JUMPDEST PUSH3 0x493E0 PUSH3 0x8C6 SWAP2 SWAP1 PUSH3 0x140D JUMP JUMPDEST PUSH3 0xAD4 PUSH1 0x20 SHL PUSH1 0x20 SHR JUMP JUMPDEST POP PUSH3 0x912 DUP3 PUSH3 0x8E8 PUSH3 0x95E PUSH1 0x20 SHL PUSH1 0x20 SHR JUMP JUMPDEST PUSH1 0xA PUSH3 0x8F6 SWAP2 SWAP1 PUSH3 0x13BC JUMP JUMPDEST PUSH3 0x61A80 PUSH3 0x906 SWAP2 SWAP1 PUSH3 0x140D JUMP JUMPDEST PUSH3 0xAD4 PUSH1 0x20 SHL PUSH1 0x20 SHR JUMP JUMPDEST POP PUSH3 0x952 DUP2 PUSH3 0x928 PUSH3 0x95E PUSH1 0x20 SHL PUSH1 0x20 SHR JUMP JUMPDEST PUSH1 0xA PUSH3 0x936 SWAP2 SWAP1 PUSH3 0x13BC JUMP JUMPDEST PUSH3 0x30D40 PUSH3 0x946 SWAP2 SWAP1 PUSH3 0x140D JUMP JUMPDEST PUSH3 0xAD4 PUSH1 0x20 SHL PUSH1 0x20 SHR JUMP JUMPDEST POP POP POP POP POP POP PUSH3 0x170C JUMP JUMPDEST PUSH1 0x0 PUSH1 0xC SWAP1 POP SWAP1 JUMP JUMPDEST PUSH1 0x0 PUSH20 0xFFFFFFFFFFFFFFFFFFFFFFFFFFFFFFFFFFFFFFFF AND DUP3 PUSH20 0xFFFFFFFFFFFFFFFFFFFFFFFFFFFFFFFFFFFFFFFF AND SUB PUSH3 0x9D9 JUMPI PUSH1 0x40 MLOAD PUSH32 0x8C379A000000000000000000000000000000000000000000000000000000000 DUP2 MSTORE PUSH1 0x4 ADD PUSH3 0x9D0 SWAP1 PUSH3 0x14B9 JUMP JUMPDEST PUSH1 0x40 MLOAD DUP1 SWAP2 SUB SWAP1 REVERT JUMPDEST PUSH3 0x9ED PUSH1 0x0 DUP4 DUP4 PUSH3 0xB07 PUSH1 0x20 SHL PUSH1 0x20 SHR JUMP JUMPDEST DUP1 PUSH1 0x2 PUSH1 0x0 DUP3 DUP3 SLOAD PUSH3 0xA01 SWAP2 SWAP1 PUSH3 0x14DB JUMP JUMPDEST SWAP3 POP POP DUP2 SWAP1 SSTORE POP DUP1 PUSH1 0x0 DUP1 DUP5 PUSH20 0xFFFFFFFFFFFFFFFFFFFFFFFFFFFFFFFFFFFFFFFF AND PUSH20 0xFFFFFFFFFFFFFFFFFFFFFFFFFFFFFFFFFFFFFFFF AND DUP2 MSTORE PUSH1 0x20 ADD SWAP1 DUP2 MSTORE PUSH1 0x20 ADD PUSH1 0x0 KECCAK256 PUSH1 0x0 DUP3 DUP3 SLOAD ADD SWAP3 POP POP DUP2 SWAP1 SSTORE POP DUP2 PUSH20 0xFFFFFFFFFFFFFFFFFFFFFFFFFFFFFFFFFFFFFFFF AND PUSH1 0x0 PUSH20 0xFFFFFFFFFFFFFFFFFFFFFFFFFFFFFFFFFFFFFFFF AND PUSH32 0xDDF252AD1BE2C89B69C2B068FC378DAA952BA7F163C4A11628F55A4DF523B3EF DUP4 PUSH1 0x40 MLOAD PUSH3 0xAB4 SWAP2 SWAP1 PUSH3 0x1527 JUMP JUMPDEST PUSH1 0x40 MLOAD DUP1 SWAP2 SUB SWAP1 LOG3 PUSH3 0xAD0 PUSH1 0x0 DUP4 DUP4 PUSH3 0xB0C PUSH1 0x20 SHL PUSH1 0x20 SHR JUMP JUMPDEST POP POP JUMP JUMPDEST PUSH1 0x0 DUP1 PUSH3 0xAE7 PUSH3 0xB11 PUSH1 0x20 SHL PUSH1 0x20 SHR JUMP JUMPDEST SWAP1 POP PUSH3 0xAFC DUP2 DUP6 DUP6 PUSH3 0xB19 PUSH1 0x20 SHL PUSH1 0x20 SHR JUMP JUMPDEST PUSH1 0x1 SWAP2 POP POP SWAP3 SWAP2 POP POP JUMP JUMPDEST POP POP POP JUMP JUMPDEST POP POP POP JUMP JUMPDEST PUSH1 0x0 CALLER SWAP1 POP SWAP1 JUMP JUMPDEST PUSH1 0x0 PUSH20 0xFFFFFFFFFFFFFFFFFFFFFFFFFFFFFFFFFFFFFFFF AND DUP4 PUSH20 0xFFFFFFFFFFFFFFFFFFFFFFFFFFFFFFFFFFFFFFFF AND SUB PUSH3 0xB8B JUMPI PUSH1 0x40 MLOAD PUSH32 0x8C379A000000000000000000000000000000000000000000000000000000000 DUP2 MSTORE PUSH1 0x4 ADD PUSH3 0xB82 SWAP1 PUSH3 0x15BA JUMP JUMPDEST PUSH1 0x40 MLOAD DUP1 SWAP2 SUB SWAP1 REVERT JUMPDEST PUSH1 0x0 PUSH20 0xFFFFFFFFFFFFFFFFFFFFFFFFFFFFFFFFFFFFFFFF AND DUP3 PUSH20 0xFFFFFFFFFFFFFFFFFFFFFFFFFFFFFFFFFFFFFFFF AND SUB PUSH3 0xBFD JUMPI PUSH1 0x40 MLOAD PUSH32 0x8C379A000000000000000000000000000000000000000000000000000000000 DUP2 MSTORE PUSH1 0x4 ADD PUSH3 0xBF4 SWAP1 PUSH3 0x1652 JUMP JUMPDEST PUSH1 0x40 MLOAD DUP1 SWAP2 SUB SWAP1 REVERT JUMPDEST PUSH3 0xC10 DUP4 DUP4 DUP4 PUSH3 0xB07 PUSH1 0x20 SHL PUSH1 0x20 SHR JUMP JUMPDEST PUSH1 0x0 DUP1 PUSH1 0x0 DUP6 PUSH20 0xFFFFFFFFFFFFFFFFFFFFFFFFFFFFFFFFFFFFFFFF AND PUSH20 0xFFFFFFFFFFFFFFFFFFFFFFFFFFFFFFFFFFFFFFFF AND DUP2 MSTORE PUSH1 0x20 ADD SWAP1 DUP2 MSTORE PUSH1 0x20 ADD PUSH1 0x0 KECCAK256 SLOAD SWAP1 POP DUP2 DUP2 LT ISZERO PUSH3 0xC99 JUMPI PUSH1 0x40 MLOAD PUSH32 0x8C379A000000000000000000000000000000000000000000000000000000000 DUP2 MSTORE PUSH1 0x4 ADD PUSH3 0xC90 SWAP1 PUSH3 0x16EA JUMP JUMPDEST PUSH1 0x40 MLOAD DUP1 SWAP2 SUB SWAP1 REVERT JUMPDEST DUP2 DUP2 SUB PUSH1 0x0 DUP1 DUP7 PUSH20 0xFFFFFFFFFFFFFFFFFFFFFFFFFFFFFFFFFFFFFFFF AND PUSH20 0xFFFFFFFFFFFFFFFFFFFFFFFFFFFFFFFFFFFFFFFF AND DUP2 MSTORE PUSH1 0x20 ADD SWAP1 DUP2 MSTORE PUSH1 0x20 ADD PUSH1 0x0 KECCAK256 DUP2 SWAP1 SSTORE POP DUP2 PUSH1 0x0 DUP1 DUP6 PUSH20 0xFFFFFFFFFFFFFFFFFFFFFFFFFFFFFFFFFFFFFFFF AND PUSH20 0xFFFFFFFFFFFFFFFFFFFFFFFFFFFFFFFFFFFFFFFF AND DUP2 MSTORE PUSH1 0x20 ADD SWAP1 DUP2 MSTORE PUSH1 0x20 ADD PUSH1 0x0 KECCAK256 PUSH1 0x0 DUP3 DUP3 SLOAD ADD SWAP3 POP POP DUP2 SWAP1 SSTORE POP DUP3 PUSH20 0xFFFFFFFFFFFFFFFFFFFFFFFFFFFFFFFFFFFFFFFF AND DUP5 PUSH20 0xFFFFFFFFFFFFFFFFFFFFFFFFFFFFFFFFFFFFFFFF AND PUSH32 0xDDF252AD1BE2C89B69C2B068FC378DAA952BA7F163C4A11628F55A4DF523B3EF DUP5 PUSH1 0x40 MLOAD PUSH3 0xD89 SWAP2 SWAP1 PUSH3 0x1527 JUMP JUMPDEST PUSH1 0x40 MLOAD DUP1 SWAP2 SUB SWAP1 LOG3 PUSH3 0xDA4 DUP5 DUP5 DUP5 PUSH3 0xB0C PUSH1 0x20 SHL PUSH1 0x20 SHR JUMP JUMPDEST POP POP POP POP JUMP JUMPDEST PUSH32 0x4E487B7100000000000000000000000000000000000000000000000000000000 PUSH1 0x0 MSTORE PUSH1 0x21 PUSH1 0x4 MSTORE PUSH1 0x24 PUSH1 0x0 REVERT JUMPDEST PUSH1 0x0 DUP1 REVERT JUMPDEST PUSH1 0x0 PUSH20 0xFFFFFFFFFFFFFFFFFFFFFFFFFFFFFFFFFFFFFFFF DUP3 AND SWAP1 POP SWAP2 SWAP1 POP JUMP JUMPDEST PUSH1 0x0 PUSH3 0xE0B DUP3 PUSH3 0xDDE JUMP JUMPDEST SWAP1 POP SWAP2 SWAP1 POP JUMP JUMPDEST PUSH3 0xE1D DUP2 PUSH3 0xDFE JUMP JUMPDEST DUP2 EQ PUSH3 0xE29 JUMPI PUSH1 0x0 DUP1 REVERT JUMPDEST POP JUMP JUMPDEST PUSH1 0x0 DUP2 MLOAD SWAP1 POP PUSH3 0xE3D DUP2 PUSH3 0xE12 JUMP JUMPDEST SWAP3 SWAP2 POP POP JUMP JUMPDEST PUSH1 0x0 DUP1 PUSH1 0x0 DUP1 PUSH1 0x0 PUSH1 0xA0 DUP7 DUP9 SUB SLT ISZERO PUSH3 0xE62 JUMPI PUSH3 0xE61 PUSH3 0xDD9 JUMP JUMPDEST JUMPDEST PUSH1 0x0 PUSH3 0xE72 DUP9 DUP3 DUP10 ADD PUSH3 0xE2C JUMP JUMPDEST SWAP6 POP POP PUSH1 0x20 PUSH3 0xE85 DUP9 DUP3 DUP10 ADD PUSH3 0xE2C JUMP JUMPDEST SWAP5 POP POP PUSH1 0x40 PUSH3 0xE98 DUP9 DUP3 DUP10 ADD PUSH3 0xE2C JUMP JUMPDEST SWAP4 POP POP PUSH1 0x60 PUSH3 0xEAB DUP9 DUP3 DUP10 ADD PUSH3 0xE2C JUMP JUMPDEST SWAP3 POP POP PUSH1 0x80 PUSH3 0xEBE DUP9 DUP3 DUP10 ADD PUSH3 0xE2C JUMP JUMPDEST SWAP2 POP POP SWAP3 SWAP6 POP SWAP3 SWAP6 SWAP1 SWAP4 POP JUMP JUMPDEST PUSH1 0x0 DUP2 MLOAD SWAP1 POP SWAP2 SWAP1 POP JUMP JUMPDEST PUSH32 0x4E487B7100000000000000000000000000000000000000000000000000000000 PUSH1 0x0 MSTORE PUSH1 0x41 PUSH1 0x4 MSTORE PUSH1 0x24 PUSH1 0x0 REVERT JUMPDEST PUSH32 0x4E487B7100000000000000000000000000000000000000000000000000000000 PUSH1 0x0 MSTORE PUSH1 0x22 PUSH1 0x4 MSTORE PUSH1 0x24 PUSH1 0x0 REVERT JUMPDEST PUSH1 0x0 PUSH1 0x2 DUP3 DIV SWAP1 POP PUSH1 0x1 DUP3 AND DUP1 PUSH3 0xF4D JUMPI PUSH1 0x7F DUP3 AND SWAP2 POP JUMPDEST PUSH1 0x20 DUP3 LT DUP2 SUB PUSH3 0xF63 JUMPI PUSH3 0xF62 PUSH3 0xF05 JUMP JUMPDEST JUMPDEST POP SWAP2 SWAP1 POP JUMP JUMPDEST PUSH1 0x0 DUP2 SWAP1 POP DUP2 PUSH1 0x0 MSTORE PUSH1 0x20 PUSH1 0x0 KECCAK256 SWAP1 POP SWAP2 SWAP1 POP JUMP JUMPDEST PUSH1 0x0 PUSH1 0x20 PUSH1 0x1F DUP4 ADD DIV SWAP1 POP SWAP2 SWAP1 POP JUMP JUMPDEST PUSH1 0x0 DUP3 DUP3 SHL SWAP1 POP SWAP3 SWAP2 POP POP JUMP JUMPDEST PUSH1 0x0 PUSH1 0x8 DUP4 MUL PUSH3 0xFCD PUSH32 0xFFFFFFFFFFFFFFFFFFFFFFFFFFFFFFFFFFFFFFFFFFFFFFFFFFFFFFFFFFFFFFFF DUP3 PUSH3 0xF8E JUMP JUMPDEST PUSH3 0xFD9 DUP7 DUP4 PUSH3 0xF8E JUMP JUMPDEST SWAP6 POP DUP1 NOT DUP5 AND SWAP4 POP DUP1 DUP7 AND DUP5 OR SWAP3 POP POP POP SWAP4 SWAP3 POP POP POP JUMP JUMPDEST PUSH1 0x0 DUP2 SWAP1 POP SWAP2 SWAP1 POP JUMP JUMPDEST PUSH1 0x0 DUP2 SWAP1 POP SWAP2 SWAP1 POP JUMP JUMPDEST PUSH1 0x0 PUSH3 0x1026 PUSH3 0x1020 PUSH3 0x101A DUP5 PUSH3 0xFF1 JUMP JUMPDEST PUSH3 0xFFB JUMP JUMPDEST PUSH3 0xFF1 JUMP JUMPDEST SWAP1 POP SWAP2 SWAP1 POP JUMP JUMPDEST PUSH1 0x0 DUP2 SWAP1 POP SWAP2 SWAP1 POP JUMP JUMPDEST PUSH3 0x1042 DUP4 PUSH3 0x1005 JUMP JUMPDEST PUSH3 0x105A PUSH3 0x1051 DUP3 PUSH3 0x102D JUMP JUMPDEST DUP5 DUP5 SLOAD PUSH3 0xF9B JUMP JUMPDEST DUP3 SSTORE POP POP POP POP JUMP JUMPDEST PUSH1 0x0 SWAP1 JUMP JUMPDEST PUSH3 0x1071 PUSH3 0x1062 JUMP JUMPDEST PUSH3 0x107E DUP2 DUP5 DUP5 PUSH3 0x1037 JUMP JUMPDEST POP POP POP JUMP JUMPDEST JUMPDEST DUP2 DUP2 LT ISZERO PUSH3 0x10A6 JUMPI PUSH3 0x109A PUSH1 0x0 DUP3 PUSH3 0x1067 JUMP JUMPDEST PUSH1 0x1 DUP2 ADD SWAP1 POP PUSH3 0x1084 JUMP JUMPDEST POP POP JUMP JUMPDEST PUSH1 0x1F DUP3 GT ISZERO PUSH3 0x10F5 JUMPI PUSH3 0x10BF DUP2 PUSH3 0xF69 JUMP JUMPDEST PUSH3 0x10CA DUP5 PUSH3 0xF7E JUMP JUMPDEST DUP2 ADD PUSH1 0x20 DUP6 LT ISZERO PUSH3 0x10DA JUMPI DUP2 SWAP1 POP JUMPDEST PUSH3 0x10F2 PUSH3 0x10E9 DUP6 PUSH3 0xF7E JUMP JUMPDEST DUP4 ADD DUP3 PUSH3 0x1083 JUMP JUMPDEST POP POP JUMPDEST POP POP POP JUMP JUMPDEST PUSH1 0x0 DUP3 DUP3 SHR SWAP1 POP SWAP3 SWAP2 POP POP JUMP JUMPDEST PUSH1 0x0 PUSH3 0x111A PUSH1 0x0 NOT DUP5 PUSH1 0x8 MUL PUSH3 0x10FA JUMP JUMPDEST NOT DUP1 DUP4 AND SWAP2 POP POP SWAP3 SWAP2 POP POP JUMP JUMPDEST PUSH1 0x0 PUSH3 0x1135 DUP4 DUP4 PUSH3 0x1107 JUMP JUMPDEST SWAP2 POP DUP3 PUSH1 0x2 MUL DUP3 OR SWAP1 POP SWAP3 SWAP2 POP POP JUMP JUMPDEST PUSH3 0x1150 DUP3 PUSH3 0xECB JUMP JUMPDEST PUSH8 0xFFFFFFFFFFFFFFFF DUP2 GT ISZERO PUSH3 0x116C JUMPI PUSH3 0x116B PUSH3 0xED6 JUMP JUMPDEST JUMPDEST PUSH3 0x1178 DUP3 SLOAD PUSH3 0xF34 JUMP JUMPDEST PUSH3 0x1185 DUP3 DUP3 DUP6 PUSH3 0x10AA JUMP JUMPDEST PUSH1 0x0 PUSH1 0x20 SWAP1 POP PUSH1 0x1F DUP4 GT PUSH1 0x1 DUP2 EQ PUSH3 0x11BD JUMPI PUSH1 0x0 DUP5 ISZERO PUSH3 0x11A8 JUMPI DUP3 DUP8 ADD MLOAD SWAP1 POP JUMPDEST PUSH3 0x11B4 DUP6 DUP3 PUSH3 0x1127 JUMP JUMPDEST DUP7 SSTORE POP PUSH3 0x1224 JUMP JUMPDEST PUSH1 0x1F NOT DUP5 AND PUSH3 0x11CD DUP7 PUSH3 0xF69 JUMP JUMPDEST PUSH1 0x0 JUMPDEST DUP3 DUP2 LT ISZERO PUSH3 0x11F7 JUMPI DUP5 DUP10 ADD MLOAD DUP3 SSTORE PUSH1 0x1 DUP3 ADD SWAP2 POP PUSH1 0x20 DUP6 ADD SWAP5 POP PUSH1 0x20 DUP2 ADD SWAP1 POP PUSH3 0x11D0 JUMP JUMPDEST DUP7 DUP4 LT ISZERO PUSH3 0x1217 JUMPI DUP5 DUP10 ADD MLOAD PUSH3 0x1213 PUSH1 0x1F DUP10 AND DUP3 PUSH3 0x1107 JUMP JUMPDEST DUP4 SSTORE POP JUMPDEST PUSH1 0x1 PUSH1 0x2 DUP9 MUL ADD DUP9 SSTORE POP POP POP JUMPDEST POP POP POP POP POP POP JUMP JUMPDEST PUSH32 0x4E487B7100000000000000000000000000000000000000000000000000000000 PUSH1 0x0 MSTORE PUSH1 0x11 PUSH1 0x4 MSTORE PUSH1 0x24 PUSH1 0x0 REVERT JUMPDEST PUSH1 0x0 DUP2 PUSH1 0x1 SHR SWAP1 POP SWAP2 SWAP1 POP JUMP JUMPDEST PUSH1 0x0 DUP1 DUP3 SWAP2 POP DUP4 SWAP1 POP JUMPDEST PUSH1 0x1 DUP6 GT ISZERO PUSH3 0x12BA JUMPI DUP1 DUP7 DIV DUP2 GT ISZERO PUSH3 0x1292 JUMPI PUSH3 0x1291 PUSH3 0x122C JUMP JUMPDEST JUMPDEST PUSH1 0x1 DUP6 AND ISZERO PUSH3 0x12A2 JUMPI DUP1 DUP3 MUL SWAP2 POP JUMPDEST DUP1 DUP2 MUL SWAP1 POP PUSH3 0x12B2 DUP6 PUSH3 0x125B JUMP JUMPDEST SWAP5 POP PUSH3 0x1272 JUMP JUMPDEST SWAP5 POP SWAP5 SWAP3 POP POP POP JUMP JUMPDEST PUSH1 0x0 DUP3 PUSH3 0x12D5 JUMPI PUSH1 0x1 SWAP1 POP PUSH3 0x13A8 JUMP JUMPDEST DUP2 PUSH3 0x12E5 JUMPI PUSH1 0x0 SWAP1 POP PUSH3 0x13A8 JUMP JUMPDEST DUP2 PUSH1 0x1 DUP2 EQ PUSH3 0x12FE JUMPI PUSH1 0x2 DUP2 EQ PUSH3 0x1309 JUMPI PUSH3 0x133F JUMP JUMPDEST PUSH1 0x1 SWAP2 POP POP PUSH3 0x13A8 JUMP JUMPDEST PUSH1 0xFF DUP5 GT ISZERO PUSH3 0x131E JUMPI PUSH3 0x131D PUSH3 0x122C JUMP JUMPDEST JUMPDEST DUP4 PUSH1 0x2 EXP SWAP2 POP DUP5 DUP3 GT ISZERO PUSH3 0x1338 JUMPI PUSH3 0x1337 PUSH3 0x122C JUMP JUMPDEST JUMPDEST POP PUSH3 0x13A8 JUMP JUMPDEST POP PUSH1 0x20 DUP4 LT PUSH2 0x133 DUP4 LT AND PUSH1 0x4E DUP5 LT PUSH1 0xB DUP5 LT AND OR ISZERO PUSH3 0x1379 JUMPI DUP3 DUP3 EXP SWAP1 POP DUP4 DUP2 GT ISZERO PUSH3 0x1373 JUMPI PUSH3 0x1372 PUSH3 0x122C JUMP JUMPDEST JUMPDEST PUSH3 0x13A8 JUMP JUMPDEST PUSH3 0x1388 DUP5 DUP5 DUP5 PUSH1 0x1 PUSH3 0x1268 JUMP JUMPDEST SWAP3 POP SWAP1 POP DUP2 DUP5 DIV DUP2 GT ISZERO PUSH3 0x13A2 JUMPI PUSH3 0x13A1 PUSH3 0x122C JUMP JUMPDEST JUMPDEST DUP2 DUP2 MUL SWAP1 POP JUMPDEST SWAP4 SWAP3 POP POP POP JUMP JUMPDEST PUSH1 0x0 PUSH1 0xFF DUP3 AND SWAP1 POP SWAP2 SWAP1 POP JUMP JUMPDEST PUSH1 0x0 PUSH3 0x13C9 DUP3 PUSH3 0xFF1 JUMP JUMPDEST SWAP2 POP PUSH3 0x13D6 DUP4 PUSH3 0x13AF JUMP JUMPDEST SWAP3 POP PUSH3 0x1405 PUSH32 0xFFFFFFFFFFFFFFFFFFFFFFFFFFFFFFFFFFFFFFFFFFFFFFFFFFFFFFFFFFFFFFFF DUP5 DUP5 PUSH3 0x12C3 JUMP JUMPDEST SWAP1 POP SWAP3 SWAP2 POP POP JUMP JUMPDEST PUSH1 0x0 PUSH3 0x141A DUP3 PUSH3 0xFF1 JUMP JUMPDEST SWAP2 POP PUSH3 0x1427 DUP4 PUSH3 0xFF1 JUMP JUMPDEST SWAP3 POP DUP3 DUP3 MUL PUSH3 0x1437 DUP2 PUSH3 0xFF1 JUMP JUMPDEST SWAP2 POP DUP3 DUP3 DIV DUP5 EQ DUP4 ISZERO OR PUSH3 0x1451 JUMPI PUSH3 0x1450 PUSH3 0x122C JUMP JUMPDEST JUMPDEST POP SWAP3 SWAP2 POP POP JUMP JUMPDEST PUSH1 0x0 DUP3 DUP3 MSTORE PUSH1 0x20 DUP3 ADD SWAP1 POP SWAP3 SWAP2 POP POP JUMP JUMPDEST PUSH32 0x45524332303A206D696E7420746F20746865207A65726F206164647265737300 PUSH1 0x0 DUP3 ADD MSTORE POP JUMP JUMPDEST PUSH1 0x0 PUSH3 0x14A1 PUSH1 0x1F DUP4 PUSH3 0x1458 JUMP JUMPDEST SWAP2 POP PUSH3 0x14AE DUP3 PUSH3 0x1469 JUMP JUMPDEST PUSH1 0x20 DUP3 ADD SWAP1 POP SWAP2 SWAP1 POP JUMP JUMPDEST PUSH1 0x0 PUSH1 0x20 DUP3 ADD SWAP1 POP DUP2 DUP2 SUB PUSH1 0x0 DUP4 ADD MSTORE PUSH3 0x14D4 DUP2 PUSH3 0x1492 JUMP JUMPDEST SWAP1 POP SWAP2 SWAP1 POP JUMP JUMPDEST PUSH1 0x0 PUSH3 0x14E8 DUP3 PUSH3 0xFF1 JUMP JUMPDEST SWAP2 POP PUSH3 0x14F5 DUP4 PUSH3 0xFF1 JUMP JUMPDEST SWAP3 POP DUP3 DUP3 ADD SWAP1 POP DUP1 DUP3 GT ISZERO PUSH3 0x1510 JUMPI PUSH3 0x150F PUSH3 0x122C JUMP JUMPDEST JUMPDEST SWAP3 SWAP2 POP POP JUMP JUMPDEST PUSH3 0x1521 DUP2 PUSH3 0xFF1 JUMP JUMPDEST DUP3 MSTORE POP POP JUMP JUMPDEST PUSH1 0x0 PUSH1 0x20 DUP3 ADD SWAP1 POP PUSH3 0x153E PUSH1 0x0 DUP4 ADD DUP5 PUSH3 0x1516 JUMP JUMPDEST SWAP3 SWAP2 POP POP JUMP JUMPDEST PUSH32 0x45524332303A207472616E736665722066726F6D20746865207A65726F206164 PUSH1 0x0 DUP3 ADD MSTORE PUSH32 0x6472657373000000000000000000000000000000000000000000000000000000 PUSH1 0x20 DUP3 ADD MSTORE POP JUMP JUMPDEST PUSH1 0x0 PUSH3 0x15A2 PUSH1 0x25 DUP4 PUSH3 0x1458 JUMP JUMPDEST SWAP2 POP PUSH3 0x15AF DUP3 PUSH3 0x1544 JUMP JUMPDEST PUSH1 0x40 DUP3 ADD SWAP1 POP SWAP2 SWAP1 POP JUMP JUMPDEST PUSH1 0x0 PUSH1 0x20 DUP3 ADD SWAP1 POP DUP2 DUP2 SUB PUSH1 0x0 DUP4 ADD MSTORE PUSH3 0x15D5 DUP2 PUSH3 0x1593 JUMP JUMPDEST SWAP1 POP SWAP2 SWAP1 POP JUMP JUMPDEST PUSH32 0x45524332303A207472616E7366657220746F20746865207A65726F2061646472 PUSH1 0x0 DUP3 ADD MSTORE PUSH32 0x6573730000000000000000000000000000000000000000000000000000000000 PUSH1 0x20 DUP3 ADD MSTORE POP JUMP JUMPDEST PUSH1 0x0 PUSH3 0x163A PUSH1 0x23 DUP4 PUSH3 0x1458 JUMP JUMPDEST SWAP2 POP PUSH3 0x1647 DUP3 PUSH3 0x15DC JUMP JUMPDEST PUSH1 0x40 DUP3 ADD SWAP1 POP SWAP2 SWAP1 POP JUMP JUMPDEST PUSH1 0x0 PUSH1 0x20 DUP3 ADD SWAP1 POP DUP2 DUP2 SUB PUSH1 0x0 DUP4 ADD MSTORE PUSH3 0x166D DUP2 PUSH3 0x162B JUMP JUMPDEST SWAP1 POP SWAP2 SWAP1 POP JUMP JUMPDEST PUSH32 0x45524332303A207472616E7366657220616D6F756E7420657863656564732062 PUSH1 0x0 DUP3 ADD MSTORE PUSH32 0x616C616E63650000000000000000000000000000000000000000000000000000 PUSH1 0x20 DUP3 ADD MSTORE POP JUMP JUMPDEST PUSH1 0x0 PUSH3 0x16D2 PUSH1 0x26 DUP4 PUSH3 0x1458 JUMP JUMPDEST SWAP2 POP PUSH3 0x16DF DUP3 PUSH3 0x1674 JUMP JUMPDEST PUSH1 0x40 DUP3 ADD SWAP1 POP SWAP2 SWAP1 POP JUMP JUMPDEST PUSH1 0x0 PUSH1 0x20 DUP3 ADD SWAP1 POP DUP2 DUP2 SUB PUSH1 0x0 DUP4 ADD MSTORE PUSH3 0x1705 DUP2 PUSH3 0x16C3 JUMP JUMPDEST SWAP1 POP SWAP2 SWAP1 POP JUMP JUMPDEST PUSH2 0x21DD DUP1 PUSH3 0x171C PUSH1 0x0 CODECOPY PUSH1 0x0 RETURN INVALID PUSH1 0x80 PUSH1 0x40 MSTORE CALLVALUE DUP1 ISZERO PUSH2 0x10 JUMPI PUSH1 0x0 DUP1 REVERT JUMPDEST POP PUSH1 0x4 CALLDATASIZE LT PUSH2 0x10B JUMPI PUSH1 0x0 CALLDATALOAD PUSH1 0xE0 SHR DUP1 PUSH4 0x8FC5668B GT PUSH2 0xA2 JUMPI DUP1 PUSH4 0xA9059CBB GT PUSH2 0x71 JUMPI DUP1 PUSH4 0xA9059CBB EQ PUSH2 0x2A8 JUMPI DUP1 PUSH4 0xAD221195 EQ PUSH2 0x2D8 JUMPI DUP1 PUSH4 0xDCD7F537 EQ PUSH2 0x2F4 JUMPI DUP1 PUSH4 0xDD62ED3E EQ PUSH2 0x2FE JUMPI DUP1 PUSH4 0xFC58A74F EQ PUSH2 0x32E JUMPI PUSH2 0x10B JUMP JUMPDEST DUP1 PUSH4 0x8FC5668B EQ PUSH2 0x246 JUMPI DUP1 PUSH4 0x95D89B41 EQ PUSH2 0x250 JUMPI DUP1 PUSH4 0xA457C2D7 EQ PUSH2 0x26E JUMPI DUP1 PUSH4 0xA4821719 EQ PUSH2 0x29E JUMPI PUSH2 0x10B JUMP JUMPDEST DUP1 PUSH4 0x23B872DD GT PUSH2 0xDE JUMPI DUP1 PUSH4 0x23B872DD EQ PUSH2 0x198 JUMPI DUP1 PUSH4 0x313CE567 EQ PUSH2 0x1C8 JUMPI DUP1 PUSH4 0x39509351 EQ PUSH2 0x1E6 JUMPI DUP1 PUSH4 0x70A08231 EQ PUSH2 0x216 JUMPI PUSH2 0x10B JUMP JUMPDEST DUP1 PUSH4 0x6FDDE03 EQ PUSH2 0x110 JUMPI DUP1 PUSH4 0x95EA7B3 EQ PUSH2 0x12E JUMPI DUP1 PUSH4 0x1072CBEA EQ PUSH2 0x15E JUMPI DUP1 PUSH4 0x18160DDD EQ PUSH2 0x17A JUMPI JUMPDEST PUSH1 0x0 DUP1 REVERT JUMPDEST PUSH2 0x118 PUSH2 0x34A JUMP JUMPDEST PUSH1 0x40 MLOAD PUSH2 0x125 SWAP2 SWAP1 PUSH2 0x147A JUMP JUMPDEST PUSH1 0x40 MLOAD DUP1 SWAP2 SUB SWAP1 RETURN JUMPDEST PUSH2 0x148 PUSH1 0x4 DUP1 CALLDATASIZE SUB DUP2 ADD SWAP1 PUSH2 0x143 SWAP2 SWAP1 PUSH2 0x153A JUMP JUMPDEST PUSH2 0x3DC JUMP JUMPDEST PUSH1 0x40 MLOAD PUSH2 0x155 SWAP2 SWAP1 PUSH2 0x1595 JUMP JUMPDEST PUSH1 0x40 MLOAD DUP1 SWAP2 SUB SWAP1 RETURN JUMPDEST PUSH2 0x178 PUSH1 0x4 DUP1 CALLDATASIZE SUB DUP2 ADD SWAP1 PUSH2 0x173 SWAP2 SWAP1 PUSH2 0x153A JUMP JUMPDEST PUSH2 0x3FF JUMP JUMPDEST STOP JUMPDEST PUSH2 0x182 PUSH2 0x5BD JUMP JUMPDEST PUSH1 0x40 MLOAD PUSH2 0x18F SWAP2 SWAP1 PUSH2 0x15BF JUMP JUMPDEST PUSH1 0x40 MLOAD DUP1 SWAP2 SUB SWAP1 RETURN JUMPDEST PUSH2 0x1B2 PUSH1 0x4 DUP1 CALLDATASIZE SUB DUP2 ADD SWAP1 PUSH2 0x1AD SWAP2 SWAP1 PUSH2 0x15DA JUMP JUMPDEST PUSH2 0x607 JUMP JUMPDEST PUSH1 0x40 MLOAD PUSH2 0x1BF SWAP2 SWAP1 PUSH2 0x1595 JUMP JUMPDEST PUSH1 0x40 MLOAD DUP1 SWAP2 SUB SWAP1 RETURN JUMPDEST PUSH2 0x1D0 PUSH2 0x636 JUMP JUMPDEST PUSH1 0x40 MLOAD PUSH2 0x1DD SWAP2 SWAP1 PUSH2 0x1649 JUMP JUMPDEST PUSH1 0x40 MLOAD DUP1 SWAP2 SUB SWAP1 RETURN JUMPDEST PUSH2 0x200 PUSH1 0x4 DUP1 CALLDATASIZE SUB DUP2 ADD SWAP1 PUSH2 0x1FB SWAP2 SWAP1 PUSH2 0x153A JUMP JUMPDEST PUSH2 0x63F JUMP JUMPDEST PUSH1 0x40 MLOAD PUSH2 0x20D SWAP2 SWAP1 PUSH2 0x1595 JUMP JUMPDEST PUSH1 0x40 MLOAD DUP1 SWAP2 SUB SWAP1 RETURN JUMPDEST PUSH2 0x230 PUSH1 0x4 DUP1 CALLDATASIZE SUB DUP2 ADD SWAP1 PUSH2 0x22B SWAP2 SWAP1 PUSH2 0x1664 JUMP JUMPDEST PUSH2 0x676 JUMP JUMPDEST PUSH1 0x40 MLOAD PUSH2 0x23D SWAP2 SWAP1 PUSH2 0x15BF JUMP JUMPDEST PUSH1 0x40 MLOAD DUP1 SWAP2 SUB SWAP1 RETURN JUMPDEST PUSH2 0x24E PUSH2 0x6C2 JUMP JUMPDEST STOP JUMPDEST PUSH2 0x258 PUSH2 0x7C2 JUMP JUMPDEST PUSH1 0x40 MLOAD PUSH2 0x265 SWAP2 SWAP1 PUSH2 0x147A JUMP JUMPDEST PUSH1 0x40 MLOAD DUP1 SWAP2 SUB SWAP1 RETURN JUMPDEST PUSH2 0x288 PUSH1 0x4 DUP1 CALLDATASIZE SUB DUP2 ADD SWAP1 PUSH2 0x283 SWAP2 SWAP1 PUSH2 0x153A JUMP JUMPDEST PUSH2 0x854 JUMP JUMPDEST PUSH1 0x40 MLOAD PUSH2 0x295 SWAP2 SWAP1 PUSH2 0x1595 JUMP JUMPDEST PUSH1 0x40 MLOAD DUP1 SWAP2 SUB SWAP1 RETURN JUMPDEST PUSH2 0x2A6 PUSH2 0x8CB JUMP JUMPDEST STOP JUMPDEST PUSH2 0x2C2 PUSH1 0x4 DUP1 CALLDATASIZE SUB DUP2 ADD SWAP1 PUSH2 0x2BD SWAP2 SWAP1 PUSH2 0x153A JUMP JUMPDEST PUSH2 0x8CD JUMP JUMPDEST PUSH1 0x40 MLOAD PUSH2 0x2CF SWAP2 SWAP1 PUSH2 0x1595 JUMP JUMPDEST PUSH1 0x40 MLOAD DUP1 SWAP2 SUB SWAP1 RETURN JUMPDEST PUSH2 0x2F2 PUSH1 0x4 DUP1 CALLDATASIZE SUB DUP2 ADD SWAP1 PUSH2 0x2ED SWAP2 SWAP1 PUSH2 0x15DA JUMP JUMPDEST PUSH2 0x8F0 JUMP JUMPDEST STOP JUMPDEST PUSH2 0x2FC PUSH2 0xAB2 JUMP JUMPDEST STOP JUMPDEST PUSH2 0x318 PUSH1 0x4 DUP1 CALLDATASIZE SUB DUP2 ADD SWAP1 PUSH2 0x313 SWAP2 SWAP1 PUSH2 0x1691 JUMP JUMPDEST PUSH2 0xACE JUMP JUMPDEST PUSH1 0x40 MLOAD PUSH2 0x325 SWAP2 SWAP1 PUSH2 0x15BF JUMP JUMPDEST PUSH1 0x40 MLOAD DUP1 SWAP2 SUB SWAP1 RETURN JUMPDEST PUSH2 0x348 PUSH1 0x4 DUP1 CALLDATASIZE SUB DUP2 ADD SWAP1 PUSH2 0x343 SWAP2 SWAP1 PUSH2 0x1736 JUMP JUMPDEST PUSH2 0xB55 JUMP JUMPDEST STOP JUMPDEST PUSH1 0x60 PUSH1 0x3 DUP1 SLOAD PUSH2 0x359 SWAP1 PUSH2 0x17C5 JUMP JUMPDEST DUP1 PUSH1 0x1F ADD PUSH1 0x20 DUP1 SWAP2 DIV MUL PUSH1 0x20 ADD PUSH1 0x40 MLOAD SWAP1 DUP2 ADD PUSH1 0x40 MSTORE DUP1 SWAP3 SWAP2 SWAP1 DUP2 DUP2 MSTORE PUSH1 0x20 ADD DUP3 DUP1 SLOAD PUSH2 0x385 SWAP1 PUSH2 0x17C5 JUMP JUMPDEST DUP1 ISZERO PUSH2 0x3D2 JUMPI DUP1 PUSH1 0x1F LT PUSH2 0x3A7 JUMPI PUSH2 0x100 DUP1 DUP4 SLOAD DIV MUL DUP4 MSTORE SWAP2 PUSH1 0x20 ADD SWAP2 PUSH2 0x3D2 JUMP JUMPDEST DUP3 ADD SWAP2 SWAP1 PUSH1 0x0 MSTORE PUSH1 0x20 PUSH1 0x0 KECCAK256 SWAP1 JUMPDEST DUP2 SLOAD DUP2 MSTORE SWAP1 PUSH1 0x1 ADD SWAP1 PUSH1 0x20 ADD DUP1 DUP4 GT PUSH2 0x3B5 JUMPI DUP3 SWAP1 SUB PUSH1 0x1F AND DUP3 ADD SWAP2 JUMPDEST POP POP POP POP POP SWAP1 POP SWAP1 JUMP JUMPDEST PUSH1 0x0 DUP1 PUSH2 0x3E7 PUSH2 0xCCA JUMP JUMPDEST SWAP1 POP PUSH2 0x3F4 DUP2 DUP6 DUP6 PUSH2 0xCD2 JUMP JUMPDEST PUSH1 0x1 SWAP2 POP POP SWAP3 SWAP2 POP POP JUMP JUMPDEST PUSH2 0x409 DUP3 DUP3 PUSH2 0x8CD JUMP JUMPDEST POP DUP1 PUSH2 0x413 PUSH2 0x5BD JUMP JUMPDEST LT ISZERO PUSH2 0x461 JUMPI CALLER PUSH2 0x422 PUSH2 0x5BD JUMP JUMPDEST DUP3 PUSH1 0x40 MLOAD PUSH32 0xE450D38C00000000000000000000000000000000000000000000000000000000 DUP2 MSTORE PUSH1 0x4 ADD PUSH2 0x458 SWAP4 SWAP3 SWAP2 SWAP1 PUSH2 0x1805 JUMP JUMPDEST PUSH1 0x40 MLOAD DUP1 SWAP2 SUB SWAP1 REVERT JUMPDEST PUSH2 0x46A DUP3 PUSH2 0x676 JUMP JUMPDEST DUP2 PUSH2 0x474 DUP5 PUSH2 0x676 JUMP JUMPDEST PUSH2 0x47E SWAP2 SWAP1 PUSH2 0x186B JUMP JUMPDEST LT ISZERO PUSH2 0x507 JUMPI DUP2 PUSH1 0xF PUSH1 0x0 DUP5 PUSH20 0xFFFFFFFFFFFFFFFFFFFFFFFFFFFFFFFFFFFFFFFF AND PUSH20 0xFFFFFFFFFFFFFFFFFFFFFFFFFFFFFFFFFFFFFFFF AND DUP2 MSTORE PUSH1 0x20 ADD SWAP1 DUP2 MSTORE PUSH1 0x20 ADD PUSH1 0x0 KECCAK256 PUSH1 0x2 ADD SLOAD DUP3 PUSH1 0x40 MLOAD PUSH32 0x33A418DE00000000000000000000000000000000000000000000000000000000 DUP2 MSTORE PUSH1 0x4 ADD PUSH2 0x4FE SWAP4 SWAP3 SWAP2 SWAP1 PUSH2 0x1805 JUMP JUMPDEST PUSH1 0x40 MLOAD DUP1 SWAP2 SUB SWAP1 REVERT JUMPDEST DUP1 PUSH1 0xF PUSH1 0x0 CALLER PUSH20 0xFFFFFFFFFFFFFFFFFFFFFFFFFFFFFFFFFFFFFFFF AND PUSH20 0xFFFFFFFFFFFFFFFFFFFFFFFFFFFFFFFFFFFFFFFF AND DUP2 MSTORE PUSH1 0x20 ADD SWAP1 DUP2 MSTORE PUSH1 0x20 ADD PUSH1 0x0 KECCAK256 PUSH1 0x2 ADD PUSH1 0x0 DUP3 DUP3 SLOAD PUSH2 0x559 SWAP2 SWAP1 PUSH2 0x189F JUMP JUMPDEST SWAP3 POP POP DUP2 SWAP1 SSTORE POP DUP1 PUSH1 0xF PUSH1 0x0 DUP5 PUSH20 0xFFFFFFFFFFFFFFFFFFFFFFFFFFFFFFFFFFFFFFFF AND PUSH20 0xFFFFFFFFFFFFFFFFFFFFFFFFFFFFFFFFFFFFFFFF AND DUP2 MSTORE PUSH1 0x20 ADD SWAP1 DUP2 MSTORE PUSH1 0x20 ADD PUSH1 0x0 KECCAK256 PUSH1 0x2 ADD PUSH1 0x0 DUP3 DUP3 SLOAD PUSH2 0x5B2 SWAP2 SWAP1 PUSH2 0x186B JUMP JUMPDEST SWAP3 POP POP DUP2 SWAP1 SSTORE POP POP POP JUMP JUMPDEST PUSH1 0x0 PUSH1 0xF PUSH1 0x0 CALLER PUSH20 0xFFFFFFFFFFFFFFFFFFFFFFFFFFFFFFFFFFFFFFFF AND PUSH20 0xFFFFFFFFFFFFFFFFFFFFFFFFFFFFFFFFFFFFFFFF AND DUP2 MSTORE PUSH1 0x20 ADD SWAP1 DUP2 MSTORE PUSH1 0x20 ADD PUSH1 0x0 KECCAK256 PUSH1 0x2 ADD SLOAD SWAP1 POP SWAP1 JUMP JUMPDEST PUSH1 0x0 DUP1 PUSH2 0x612 PUSH2 0xCCA JUMP JUMPDEST SWAP1 POP PUSH2 0x61F DUP6 DUP3 DUP6 PUSH2 0xE9B JUMP JUMPDEST PUSH2 0x62A DUP6 DUP6 DUP6 PUSH2 0xF27 JUMP JUMPDEST PUSH1 0x1 SWAP2 POP POP SWAP4 SWAP3 POP POP POP JUMP JUMPDEST PUSH1 0x0 PUSH1 0xC SWAP1 POP SWAP1 JUMP JUMPDEST PUSH1 0x0 DUP1 PUSH2 0x64A PUSH2 0xCCA JUMP JUMPDEST SWAP1 POP PUSH2 0x66B DUP2 DUP6 DUP6 PUSH2 0x65C DUP6 DUP10 PUSH2 0xACE JUMP JUMPDEST PUSH2 0x666 SWAP2 SWAP1 PUSH2 0x186B JUMP JUMPDEST PUSH2 0xCD2 JUMP JUMPDEST PUSH1 0x1 SWAP2 POP POP SWAP3 SWAP2 POP POP JUMP JUMPDEST PUSH1 0x0 PUSH1 0xF PUSH1 0x0 DUP4 PUSH20 0xFFFFFFFFFFFFFFFFFFFFFFFFFFFFFFFFFFFFFFFF AND PUSH20 0xFFFFFFFFFFFFFFFFFFFFFFFFFFFFFFFFFFFFFFFF AND DUP2 MSTORE PUSH1 0x20 ADD SWAP1 DUP2 MSTORE PUSH1 0x20 ADD PUSH1 0x0 KECCAK256 PUSH1 0x2 ADD SLOAD SWAP1 POP SWAP2 SWAP1 POP JUMP JUMPDEST PUSH1 0x1 PUSH2 0x6CC PUSH2 0x119D JUMP JUMPDEST DUP1 PUSH1 0x2 DUP2 GT ISZERO PUSH2 0x6DF JUMPI PUSH2 0x6DE PUSH2 0x18D3 JUMP JUMPDEST JUMPDEST PUSH1 0x5 PUSH1 0x0 SWAP1 SLOAD SWAP1 PUSH2 0x100 EXP SWAP1 DIV PUSH1 0xFF AND PUSH1 0x2 DUP2 GT ISZERO PUSH2 0x701 JUMPI PUSH2 0x700 PUSH2 0x18D3 JUMP JUMPDEST JUMPDEST EQ PUSH2 0x738 JUMPI PUSH1 0x40 MLOAD PUSH32 0x1E09210400000000000000000000000000000000000000000000000000000000 DUP2 MSTORE PUSH1 0x4 ADD PUSH1 0x40 MLOAD DUP1 SWAP2 SUB SWAP1 REVERT JUMPDEST PUSH1 0xD PUSH1 0x0 SWAP1 SLOAD SWAP1 PUSH2 0x100 EXP SWAP1 DIV PUSH20 0xFFFFFFFFFFFFFFFFFFFFFFFFFFFFFFFFFFFFFFFF AND PUSH20 0xFFFFFFFFFFFFFFFFFFFFFFFFFFFFFFFFFFFFFFFF AND CALLER PUSH20 0xFFFFFFFFFFFFFFFFFFFFFFFFFFFFFFFFFFFFFFFF AND EQ PUSH2 0x7BF JUMPI PUSH1 0x40 MLOAD PUSH32 0x1E09210400000000000000000000000000000000000000000000000000000000 DUP2 MSTORE PUSH1 0x4 ADD PUSH1 0x40 MLOAD DUP1 SWAP2 SUB SWAP1 REVERT JUMPDEST POP JUMP JUMPDEST PUSH1 0x60 PUSH1 0x4 DUP1 SLOAD PUSH2 0x7D1 SWAP1 PUSH2 0x17C5 JUMP JUMPDEST DUP1 PUSH1 0x1F ADD PUSH1 0x20 DUP1 SWAP2 DIV MUL PUSH1 0x20 ADD PUSH1 0x40 MLOAD SWAP1 DUP2 ADD PUSH1 0x40 MSTORE DUP1 SWAP3 SWAP2 SWAP1 DUP2 DUP2 MSTORE PUSH1 0x20 ADD DUP3 DUP1 SLOAD PUSH2 0x7FD SWAP1 PUSH2 0x17C5 JUMP JUMPDEST DUP1 ISZERO PUSH2 0x84A JUMPI DUP1 PUSH1 0x1F LT PUSH2 0x81F JUMPI PUSH2 0x100 DUP1 DUP4 SLOAD DIV MUL DUP4 MSTORE SWAP2 PUSH1 0x20 ADD SWAP2 PUSH2 0x84A JUMP JUMPDEST DUP3 ADD SWAP2 SWAP1 PUSH1 0x0 MSTORE PUSH1 0x20 PUSH1 0x0 KECCAK256 SWAP1 JUMPDEST DUP2 SLOAD DUP2 MSTORE SWAP1 PUSH1 0x1 ADD SWAP1 PUSH1 0x20 ADD DUP1 DUP4 GT PUSH2 0x82D JUMPI DUP3 SWAP1 SUB PUSH1 0x1F AND DUP3 ADD SWAP2 JUMPDEST POP POP POP POP POP SWAP1 POP SWAP1 JUMP JUMPDEST PUSH1 0x0 DUP1 PUSH2 0x85F PUSH2 0xCCA JUMP JUMPDEST SWAP1 POP PUSH1 0x0 PUSH2 0x86D DUP3 DUP7 PUSH2 0xACE JUMP JUMPDEST SWAP1 POP DUP4 DUP2 LT ISZERO PUSH2 0x8B2 JUMPI PUSH1 0x40 MLOAD PUSH32 0x8C379A000000000000000000000000000000000000000000000000000000000 DUP2 MSTORE PUSH1 0x4 ADD PUSH2 0x8A9 SWAP1 PUSH2 0x1974 JUMP JUMPDEST PUSH1 0x40 MLOAD DUP1 SWAP2 SUB SWAP1 REVERT JUMPDEST PUSH2 0x8BF DUP3 DUP7 DUP7 DUP5 SUB PUSH2 0xCD2 JUMP JUMPDEST PUSH1 0x1 SWAP3 POP POP POP SWAP3 SWAP2 POP POP JUMP JUMPDEST JUMP JUMPDEST PUSH1 0x0 DUP1 PUSH2 0x8D8 PUSH2 0xCCA JUMP JUMPDEST SWAP1 POP PUSH2 0x8E5 DUP2 DUP6 DUP6 PUSH2 0xF27 JUMP JUMPDEST PUSH1 0x1 SWAP2 POP POP SWAP3 SWAP2 POP POP JUMP JUMPDEST PUSH2 0x8FB DUP4 DUP4 DUP4 PUSH2 0x607 JUMP JUMPDEST POP DUP1 PUSH2 0x906 DUP5 PUSH2 0x676 JUMP JUMPDEST LT ISZERO PUSH2 0x955 JUMPI DUP3 PUSH2 0x916 DUP5 PUSH2 0x676 JUMP JUMPDEST DUP3 PUSH1 0x40 MLOAD PUSH32 0xE450D38C00000000000000000000000000000000000000000000000000000000 DUP2 MSTORE PUSH1 0x4 ADD PUSH2 0x94C SWAP4 SWAP3 SWAP2 SWAP1 PUSH2 0x1805 JUMP JUMPDEST PUSH1 0x40 MLOAD DUP1 SWAP2 SUB SWAP1 REVERT JUMPDEST PUSH2 0x95E DUP3 PUSH2 0x676 JUMP JUMPDEST DUP2 PUSH2 0x968 DUP5 PUSH2 0x676 JUMP JUMPDEST PUSH2 0x972 SWAP2 SWAP1 PUSH2 0x186B JUMP JUMPDEST LT ISZERO PUSH2 0x9FB JUMPI DUP2 PUSH1 0xF PUSH1 0x0 DUP5 PUSH20 0xFFFFFFFFFFFFFFFFFFFFFFFFFFFFFFFFFFFFFFFF AND PUSH20 0xFFFFFFFFFFFFFFFFFFFFFFFFFFFFFFFFFFFFFFFF AND DUP2 MSTORE PUSH1 0x20 ADD SWAP1 DUP2 MSTORE PUSH1 0x20 ADD PUSH1 0x0 KECCAK256 PUSH1 0x2 ADD SLOAD DUP3 PUSH1 0x40 MLOAD PUSH32 0x33A418DE00000000000000000000000000000000000000000000000000000000 DUP2 MSTORE PUSH1 0x4 ADD PUSH2 0x9F2 SWAP4 SWAP3 SWAP2 SWAP1 PUSH2 0x1805 JUMP JUMPDEST PUSH1 0x40 MLOAD DUP1 SWAP2 SUB SWAP1 REVERT JUMPDEST DUP1 PUSH1 0xF PUSH1 0x0 DUP6 PUSH20 0xFFFFFFFFFFFFFFFFFFFFFFFFFFFFFFFFFFFFFFFF AND PUSH20 0xFFFFFFFFFFFFFFFFFFFFFFFFFFFFFFFFFFFFFFFF AND DUP2 MSTORE PUSH1 0x20 ADD SWAP1 DUP2 MSTORE PUSH1 0x20 ADD PUSH1 0x0 KECCAK256 PUSH1 0x2 ADD PUSH1 0x0 DUP3 DUP3 SLOAD PUSH2 0xA4D SWAP2 SWAP1 PUSH2 0x189F JUMP JUMPDEST SWAP3 POP POP DUP2 SWAP1 SSTORE POP DUP1 PUSH1 0xF PUSH1 0x0 DUP5 PUSH20 0xFFFFFFFFFFFFFFFFFFFFFFFFFFFFFFFFFFFFFFFF AND PUSH20 0xFFFFFFFFFFFFFFFFFFFFFFFFFFFFFFFFFFFFFFFF AND DUP2 MSTORE PUSH1 0x20 ADD SWAP1 DUP2 MSTORE PUSH1 0x20 ADD PUSH1 0x0 KECCAK256 PUSH1 0x2 ADD PUSH1 0x0 DUP3 DUP3 SLOAD PUSH2 0xAA6 SWAP2 SWAP1 PUSH2 0x186B JUMP JUMPDEST SWAP3 POP POP DUP2 SWAP1 SSTORE POP POP POP POP JUMP JUMPDEST PUSH1 0x3C PUSH1 0xA PUSH1 0x0 DUP3 DUP3 SLOAD PUSH2 0xAC5 SWAP2 SWAP1 PUSH2 0x186B JUMP JUMPDEST SWAP3 POP POP DUP2 SWAP1 SSTORE POP JUMP JUMPDEST PUSH1 0x0 PUSH1 0x1 PUSH1 0x0 DUP5 PUSH20 0xFFFFFFFFFFFFFFFFFFFFFFFFFFFFFFFFFFFFFFFF AND PUSH20 0xFFFFFFFFFFFFFFFFFFFFFFFFFFFFFFFFFFFFFFFF AND DUP2 MSTORE PUSH1 0x20 ADD SWAP1 DUP2 MSTORE PUSH1 0x20 ADD PUSH1 0x0 KECCAK256 PUSH1 0x0 DUP4 PUSH20 0xFFFFFFFFFFFFFFFFFFFFFFFFFFFFFFFFFFFFFFFF AND PUSH20 0xFFFFFFFFFFFFFFFFFFFFFFFFFFFFFFFFFFFFFFFF AND DUP2 MSTORE PUSH1 0x20 ADD SWAP1 DUP2 MSTORE PUSH1 0x20 ADD PUSH1 0x0 KECCAK256 SLOAD SWAP1 POP SWAP3 SWAP2 POP POP JUMP JUMPDEST PUSH1 0x1 PUSH2 0xB5F PUSH2 0x119D JUMP JUMPDEST DUP1 PUSH1 0x2 DUP2 GT ISZERO PUSH2 0xB72 JUMPI PUSH2 0xB71 PUSH2 0x18D3 JUMP JUMPDEST JUMPDEST PUSH1 0x5 PUSH1 0x0 SWAP1 SLOAD SWAP1 PUSH2 0x100 EXP SWAP1 DIV PUSH1 0xFF AND PUSH1 0x2 DUP2 GT ISZERO PUSH2 0xB94 JUMPI PUSH2 0xB93 PUSH2 0x18D3 JUMP JUMPDEST JUMPDEST EQ PUSH2 0xBCB JUMPI PUSH1 0x40 MLOAD PUSH32 0x1E09210400000000000000000000000000000000000000000000000000000000 DUP2 MSTORE PUSH1 0x4 ADD PUSH1 0x40 MLOAD DUP1 SWAP2 SUB SWAP1 REVERT JUMPDEST PUSH1 0x6 PUSH1 0x40 MLOAD DUP1 PUSH1 0x40 ADD PUSH1 0x40 MSTORE DUP1 DUP7 DUP7 DUP1 DUP1 PUSH1 0x1F ADD PUSH1 0x20 DUP1 SWAP2 DIV MUL PUSH1 0x20 ADD PUSH1 0x40 MLOAD SWAP1 DUP2 ADD PUSH1 0x40 MSTORE DUP1 SWAP4 SWAP3 SWAP2 SWAP1 DUP2 DUP2 MSTORE PUSH1 0x20 ADD DUP4 DUP4 DUP1 DUP3 DUP5 CALLDATACOPY PUSH1 0x0 DUP2 DUP5 ADD MSTORE PUSH1 0x1F NOT PUSH1 0x1F DUP3 ADD AND SWAP1 POP DUP1 DUP4 ADD SWAP3 POP POP POP POP POP POP POP DUP2 MSTORE PUSH1 0x20 ADD DUP5 PUSH20 0xFFFFFFFFFFFFFFFFFFFFFFFFFFFFFFFFFFFFFFFF AND DUP2 MSTORE POP SWAP1 DUP1 PUSH1 0x1 DUP2 SLOAD ADD DUP1 DUP3 SSTORE DUP1 SWAP2 POP POP PUSH1 0x1 SWAP1 SUB SWAP1 PUSH1 0x0 MSTORE PUSH1 0x20 PUSH1 0x0 KECCAK256 SWAP1 PUSH1 0x2 MUL ADD PUSH1 0x0 SWAP1 SWAP2 SWAP1 SWAP2 SWAP1 SWAP2 POP PUSH1 0x0 DUP3 ADD MLOAD DUP2 PUSH1 0x0 ADD SWAP1 DUP2 PUSH2 0xC7A SWAP2 SWAP1 PUSH2 0x1B6F JUMP JUMPDEST POP PUSH1 0x20 DUP3 ADD MLOAD DUP2 PUSH1 0x1 ADD PUSH1 0x0 PUSH2 0x100 EXP DUP2 SLOAD DUP2 PUSH20 0xFFFFFFFFFFFFFFFFFFFFFFFFFFFFFFFFFFFFFFFF MUL NOT AND SWAP1 DUP4 PUSH20 0xFFFFFFFFFFFFFFFFFFFFFFFFFFFFFFFFFFFFFFFF AND MUL OR SWAP1 SSTORE POP POP POP POP POP POP POP JUMP JUMPDEST PUSH1 0x0 CALLER SWAP1 POP SWAP1 JUMP JUMPDEST PUSH1 0x0 PUSH20 0xFFFFFFFFFFFFFFFFFFFFFFFFFFFFFFFFFFFFFFFF AND DUP4 PUSH20 0xFFFFFFFFFFFFFFFFFFFFFFFFFFFFFFFFFFFFFFFF AND SUB PUSH2 0xD41 JUMPI PUSH1 0x40 MLOAD PUSH32 0x8C379A000000000000000000000000000000000000000000000000000000000 DUP2 MSTORE PUSH1 0x4 ADD PUSH2 0xD38 SWAP1 PUSH2 0x1CB3 JUMP JUMPDEST PUSH1 0x40 MLOAD DUP1 SWAP2 SUB SWAP1 REVERT JUMPDEST PUSH1 0x0 PUSH20 0xFFFFFFFFFFFFFFFFFFFFFFFFFFFFFFFFFFFFFFFF AND DUP3 PUSH20 0xFFFFFFFFFFFFFFFFFFFFFFFFFFFFFFFFFFFFFFFF AND SUB PUSH2 0xDB0 JUMPI PUSH1 0x40 MLOAD PUSH32 0x8C379A000000000000000000000000000000000000000000000000000000000 DUP2 MSTORE PUSH1 0x4 ADD PUSH2 0xDA7 SWAP1 PUSH2 0x1D45 JUMP JUMPDEST PUSH1 0x40 MLOAD DUP1 SWAP2 SUB SWAP1 REVERT JUMPDEST DUP1 PUSH1 0x1 PUSH1 0x0 DUP6 PUSH20 0xFFFFFFFFFFFFFFFFFFFFFFFFFFFFFFFFFFFFFFFF AND PUSH20 0xFFFFFFFFFFFFFFFFFFFFFFFFFFFFFFFFFFFFFFFF AND DUP2 MSTORE PUSH1 0x20 ADD SWAP1 DUP2 MSTORE PUSH1 0x20 ADD PUSH1 0x0 KECCAK256 PUSH1 0x0 DUP5 PUSH20 0xFFFFFFFFFFFFFFFFFFFFFFFFFFFFFFFFFFFFFFFF AND PUSH20 0xFFFFFFFFFFFFFFFFFFFFFFFFFFFFFFFFFFFFFFFF AND DUP2 MSTORE PUSH1 0x20 ADD SWAP1 DUP2 MSTORE PUSH1 0x20 ADD PUSH1 0x0 KECCAK256 DUP2 SWAP1 SSTORE POP DUP2 PUSH20 0xFFFFFFFFFFFFFFFFFFFFFFFFFFFFFFFFFFFFFFFF AND DUP4 PUSH20 0xFFFFFFFFFFFFFFFFFFFFFFFFFFFFFFFFFFFFFFFF AND PUSH32 0x8C5BE1E5EBEC7D5BD14F71427D1E84F3DD0314C0F7B2291E5B200AC8C7C3B925 DUP4 PUSH1 0x40 MLOAD PUSH2 0xE8E SWAP2 SWAP1 PUSH2 0x15BF JUMP JUMPDEST PUSH1 0x40 MLOAD DUP1 SWAP2 SUB SWAP1 LOG3 POP POP POP JUMP JUMPDEST PUSH1 0x0 PUSH2 0xEA7 DUP5 DUP5 PUSH2 0xACE JUMP JUMPDEST SWAP1 POP PUSH32 0xFFFFFFFFFFFFFFFFFFFFFFFFFFFFFFFFFFFFFFFFFFFFFFFFFFFFFFFFFFFFFFFF DUP2 EQ PUSH2 0xF21 JUMPI DUP2 DUP2 LT ISZERO PUSH2 0xF13 JUMPI PUSH1 0x40 MLOAD PUSH32 0x8C379A000000000000000000000000000000000000000000000000000000000 DUP2 MSTORE PUSH1 0x4 ADD PUSH2 0xF0A SWAP1 PUSH2 0x1DB1 JUMP JUMPDEST PUSH1 0x40 MLOAD DUP1 SWAP2 SUB SWAP1 REVERT JUMPDEST PUSH2 0xF20 DUP5 DUP5 DUP5 DUP5 SUB PUSH2 0xCD2 JUMP JUMPDEST JUMPDEST POP POP POP POP JUMP JUMPDEST PUSH1 0x0 PUSH20 0xFFFFFFFFFFFFFFFFFFFFFFFFFFFFFFFFFFFFFFFF AND DUP4 PUSH20 0xFFFFFFFFFFFFFFFFFFFFFFFFFFFFFFFFFFFFFFFF AND SUB PUSH2 0xF96 JUMPI PUSH1 0x40 MLOAD PUSH32 0x8C379A000000000000000000000000000000000000000000000000000000000 DUP2 MSTORE PUSH1 0x4 ADD PUSH2 0xF8D SWAP1 PUSH2 0x1E43 JUMP JUMPDEST PUSH1 0x40 MLOAD DUP1 SWAP2 SUB SWAP1 REVERT JUMPDEST PUSH1 0x0 PUSH20 0xFFFFFFFFFFFFFFFFFFFFFFFFFFFFFFFFFFFFFFFF AND DUP3 PUSH20 0xFFFFFFFFFFFFFFFFFFFFFFFFFFFFFFFFFFFFFFFF AND SUB PUSH2 0x1005 JUMPI PUSH1 0x40 MLOAD PUSH32 0x8C379A000000000000000000000000000000000000000000000000000000000 DUP2 MSTORE PUSH1 0x4 ADD PUSH2 0xFFC SWAP1 PUSH2 0x1ED5 JUMP JUMPDEST PUSH1 0x40 MLOAD DUP1 SWAP2 SUB SWAP1 REVERT JUMPDEST PUSH2 0x1010 DUP4 DUP4 DUP4 PUSH2 0x13E0 JUMP JUMPDEST PUSH1 0x0 DUP1 PUSH1 0x0 DUP6 PUSH20 0xFFFFFFFFFFFFFFFFFFFFFFFFFFFFFFFFFFFFFFFF AND PUSH20 0xFFFFFFFFFFFFFFFFFFFFFFFFFFFFFFFFFFFFFFFF AND DUP2 MSTORE PUSH1 0x20 ADD SWAP1 DUP2 MSTORE PUSH1 0x20 ADD PUSH1 0x0 KECCAK256 SLOAD SWAP1 POP DUP2 DUP2 LT ISZERO PUSH2 0x1096 JUMPI PUSH1 0x40 MLOAD PUSH32 0x8C379A000000000000000000000000000000000000000000000000000000000 DUP2 MSTORE PUSH1 0x4 ADD PUSH2 0x108D SWAP1 PUSH2 0x1F67 JUMP JUMPDEST PUSH1 0x40 MLOAD DUP1 SWAP2 SUB SWAP1 REVERT JUMPDEST DUP2 DUP2 SUB PUSH1 0x0 DUP1 DUP7 PUSH20 0xFFFFFFFFFFFFFFFFFFFFFFFFFFFFFFFFFFFFFFFF AND PUSH20 0xFFFFFFFFFFFFFFFFFFFFFFFFFFFFFFFFFFFFFFFF AND DUP2 MSTORE PUSH1 0x20 ADD SWAP1 DUP2 MSTORE PUSH1 0x20 ADD PUSH1 0x0 KECCAK256 DUP2 SWAP1 SSTORE POP DUP2 PUSH1 0x0 DUP1 DUP6 PUSH20 0xFFFFFFFFFFFFFFFFFFFFFFFFFFFFFFFFFFFFFFFF AND PUSH20 0xFFFFFFFFFFFFFFFFFFFFFFFFFFFFFFFFFFFFFFFF AND DUP2 MSTORE PUSH1 0x20 ADD SWAP1 DUP2 MSTORE PUSH1 0x20 ADD PUSH1 0x0 KECCAK256 PUSH1 0x0 DUP3 DUP3 SLOAD ADD SWAP3 POP POP DUP2 SWAP1 SSTORE POP DUP3 PUSH20 0xFFFFFFFFFFFFFFFFFFFFFFFFFFFFFFFFFFFFFFFF AND DUP5 PUSH20 0xFFFFFFFFFFFFFFFFFFFFFFFFFFFFFFFFFFFFFFFF AND PUSH32 0xDDF252AD1BE2C89B69C2B068FC378DAA952BA7F163C4A11628F55A4DF523B3EF DUP5 PUSH1 0x40 MLOAD PUSH2 0x1184 SWAP2 SWAP1 PUSH2 0x15BF JUMP JUMPDEST PUSH1 0x40 MLOAD DUP1 SWAP2 SUB SWAP1 LOG3 PUSH2 0x1197 DUP5 DUP5 DUP5 PUSH2 0x13E5 JUMP JUMPDEST POP POP POP POP JUMP JUMPDEST PUSH1 0x2 DUP1 DUP2 GT ISZERO PUSH2 0x11B0 JUMPI PUSH2 0x11AF PUSH2 0x18D3 JUMP JUMPDEST JUMPDEST PUSH1 0x5 PUSH1 0x0 SWAP1 SLOAD SWAP1 PUSH2 0x100 EXP SWAP1 DIV PUSH1 0xFF AND PUSH1 0x2 DUP2 GT ISZERO PUSH2 0x11D2 JUMPI PUSH2 0x11D1 PUSH2 0x18D3 JUMP JUMPDEST JUMPDEST EQ PUSH2 0x13DE JUMPI TIMESTAMP PUSH1 0x8 DUP2 SWAP1 SSTORE POP PUSH1 0xA SLOAD PUSH1 0x8 SLOAD PUSH2 0x11EE SWAP2 SWAP1 PUSH2 0x186B JUMP JUMPDEST PUSH1 0x9 DUP2 SWAP1 SSTORE POP PUSH1 0x0 PUSH1 0x3C PUSH1 0x7 SLOAD PUSH1 0x9 SLOAD PUSH2 0x1208 SWAP2 SWAP1 PUSH2 0x189F JUMP JUMPDEST PUSH2 0x1212 SWAP2 SWAP1 PUSH2 0x1FB6 JUMP JUMPDEST SWAP1 POP PUSH1 0x0 PUSH1 0x2 DUP2 GT ISZERO PUSH2 0x1228 JUMPI PUSH2 0x1227 PUSH2 0x18D3 JUMP JUMPDEST JUMPDEST PUSH1 0x5 PUSH1 0x0 SWAP1 SLOAD SWAP1 PUSH2 0x100 EXP SWAP1 DIV PUSH1 0xFF AND PUSH1 0x2 DUP2 GT ISZERO PUSH2 0x124A JUMPI PUSH2 0x1249 PUSH2 0x18D3 JUMP JUMPDEST JUMPDEST SUB PUSH2 0x12EF JUMPI PUSH1 0xF DUP2 LT ISZERO PUSH2 0x12EA JUMPI PUSH1 0x1 PUSH1 0x5 PUSH1 0x0 PUSH2 0x100 EXP DUP2 SLOAD DUP2 PUSH1 0xFF MUL NOT AND SWAP1 DUP4 PUSH1 0x2 DUP2 GT ISZERO PUSH2 0x127E JUMPI PUSH2 0x127D PUSH2 0x18D3 JUMP JUMPDEST JUMPDEST MUL OR SWAP1 SSTORE POP PUSH7 0x2AA1EFB94E000 PUSH1 0xB DUP2 SWAP1 SSTORE POP PUSH3 0x186A0 PUSH1 0xC DUP2 SWAP1 SSTORE POP PUSH2 0x12E8 PUSH1 0xD PUSH1 0x0 SWAP1 SLOAD SWAP1 PUSH2 0x100 EXP SWAP1 DIV PUSH20 0xFFFFFFFFFFFFFFFFFFFFFFFFFFFFFFFFFFFFFFFF AND PUSH2 0x12C9 PUSH2 0x636 JUMP JUMPDEST PUSH1 0xA PUSH2 0x12D5 SWAP2 SWAP1 PUSH2 0x211A JUMP JUMPDEST PUSH3 0x2DC6C0 PUSH2 0x12E3 SWAP2 SWAP1 PUSH2 0x2165 JUMP JUMPDEST PUSH2 0x3DC JUMP JUMPDEST POP JUMPDEST PUSH2 0x13DC JUMP JUMPDEST PUSH1 0x1 PUSH1 0x2 DUP2 GT ISZERO PUSH2 0x1303 JUMPI PUSH2 0x1302 PUSH2 0x18D3 JUMP JUMPDEST JUMPDEST PUSH1 0x5 PUSH1 0x0 SWAP1 SLOAD SWAP1 PUSH2 0x100 EXP SWAP1 DIV PUSH1 0xFF AND PUSH1 0x2 DUP2 GT ISZERO PUSH2 0x1325 JUMPI PUSH2 0x1324 PUSH2 0x18D3 JUMP JUMPDEST JUMPDEST SUB PUSH2 0x13DB JUMPI PUSH1 0xF DUP2 LT PUSH2 0x13DA JUMPI PUSH1 0x2 PUSH1 0x5 PUSH1 0x0 PUSH2 0x100 EXP DUP2 SLOAD DUP2 PUSH1 0xFF MUL NOT AND SWAP1 DUP4 PUSH1 0x2 DUP2 GT ISZERO PUSH2 0x1358 JUMPI PUSH2 0x1357 PUSH2 0x18D3 JUMP JUMPDEST JUMPDEST MUL OR SWAP1 SSTORE POP PUSH2 0x138A PUSH1 0xD PUSH1 0x0 SWAP1 SLOAD SWAP1 PUSH2 0x100 EXP SWAP1 DIV PUSH20 0xFFFFFFFFFFFFFFFFFFFFFFFFFFFFFFFFFFFFFFFF AND PUSH1 0x0 PUSH2 0x3DC JUMP JUMPDEST POP PUSH2 0x13D8 PUSH1 0xE PUSH1 0x0 SWAP1 SLOAD SWAP1 PUSH2 0x100 EXP SWAP1 DIV PUSH20 0xFFFFFFFFFFFFFFFFFFFFFFFFFFFFFFFFFFFFFFFF AND PUSH2 0x13B9 PUSH2 0x636 JUMP JUMPDEST PUSH1 0xA PUSH2 0x13C5 SWAP2 SWAP1 PUSH2 0x211A JUMP JUMPDEST PUSH3 0x5B8D80 PUSH2 0x13D3 SWAP2 SWAP1 PUSH2 0x2165 JUMP JUMPDEST PUSH2 0x3DC JUMP JUMPDEST POP JUMPDEST JUMPDEST JUMPDEST POP JUMPDEST JUMP JUMPDEST POP POP POP JUMP JUMPDEST POP POP POP JUMP JUMPDEST PUSH1 0x0 DUP2 MLOAD SWAP1 POP SWAP2 SWAP1 POP JUMP JUMPDEST PUSH1 0x0 DUP3 DUP3 MSTORE PUSH1 0x20 DUP3 ADD SWAP1 POP SWAP3 SWAP2 POP POP JUMP JUMPDEST PUSH1 0x0 JUMPDEST DUP4 DUP2 LT ISZERO PUSH2 0x1424 JUMPI DUP1 DUP3 ADD MLOAD DUP2 DUP5 ADD MSTORE PUSH1 0x20 DUP2 ADD SWAP1 POP PUSH2 0x1409 JUMP JUMPDEST PUSH1 0x0 DUP5 DUP5 ADD MSTORE POP POP POP POP JUMP JUMPDEST PUSH1 0x0 PUSH1 0x1F NOT PUSH1 0x1F DUP4 ADD AND SWAP1 POP SWAP2 SWAP1 POP JUMP JUMPDEST PUSH1 0x0 PUSH2 0x144C DUP3 PUSH2 0x13EA JUMP JUMPDEST PUSH2 0x1456 DUP2 DUP6 PUSH2 0x13F5 JUMP JUMPDEST SWAP4 POP PUSH2 0x1466 DUP2 DUP6 PUSH1 0x20 DUP7 ADD PUSH2 0x1406 JUMP JUMPDEST PUSH2 0x146F DUP2 PUSH2 0x1430 JUMP JUMPDEST DUP5 ADD SWAP2 POP POP SWAP3 SWAP2 POP POP JUMP JUMPDEST PUSH1 0x0 PUSH1 0x20 DUP3 ADD SWAP1 POP DUP2 DUP2 SUB PUSH1 0x0 DUP4 ADD MSTORE PUSH2 0x1494 DUP2 DUP5 PUSH2 0x1441 JUMP JUMPDEST SWAP1 POP SWAP3 SWAP2 POP POP JUMP JUMPDEST PUSH1 0x0 DUP1 REVERT JUMPDEST PUSH1 0x0 DUP1 REVERT JUMPDEST PUSH1 0x0 PUSH20 0xFFFFFFFFFFFFFFFFFFFFFFFFFFFFFFFFFFFFFFFF DUP3 AND SWAP1 POP SWAP2 SWAP1 POP JUMP JUMPDEST PUSH1 0x0 PUSH2 0x14D1 DUP3 PUSH2 0x14A6 JUMP JUMPDEST SWAP1 POP SWAP2 SWAP1 POP JUMP JUMPDEST PUSH2 0x14E1 DUP2 PUSH2 0x14C6 JUMP JUMPDEST DUP2 EQ PUSH2 0x14EC JUMPI PUSH1 0x0 DUP1 REVERT JUMPDEST POP JUMP JUMPDEST PUSH1 0x0 DUP2 CALLDATALOAD SWAP1 POP PUSH2 0x14FE DUP2 PUSH2 0x14D8 JUMP JUMPDEST SWAP3 SWAP2 POP POP JUMP JUMPDEST PUSH1 0x0 DUP2 SWAP1 POP SWAP2 SWAP1 POP JUMP JUMPDEST PUSH2 0x1517 DUP2 PUSH2 0x1504 JUMP JUMPDEST DUP2 EQ PUSH2 0x1522 JUMPI PUSH1 0x0 DUP1 REVERT JUMPDEST POP JUMP JUMPDEST PUSH1 0x0 DUP2 CALLDATALOAD SWAP1 POP PUSH2 0x1534 DUP2 PUSH2 0x150E JUMP JUMPDEST SWAP3 SWAP2 POP POP JUMP JUMPDEST PUSH1 0x0 DUP1 PUSH1 0x40 DUP4 DUP6 SUB SLT ISZERO PUSH2 0x1551 JUMPI PUSH2 0x1550 PUSH2 0x149C JUMP JUMPDEST JUMPDEST PUSH1 0x0 PUSH2 0x155F DUP6 DUP3 DUP7 ADD PUSH2 0x14EF JUMP JUMPDEST SWAP3 POP POP PUSH1 0x20 PUSH2 0x1570 DUP6 DUP3 DUP7 ADD PUSH2 0x1525 JUMP JUMPDEST SWAP2 POP POP SWAP3 POP SWAP3 SWAP1 POP JUMP JUMPDEST PUSH1 0x0 DUP2 ISZERO ISZERO SWAP1 POP SWAP2 SWAP1 POP JUMP JUMPDEST PUSH2 0x158F DUP2 PUSH2 0x157A JUMP JUMPDEST DUP3 MSTORE POP POP JUMP JUMPDEST PUSH1 0x0 PUSH1 0x20 DUP3 ADD SWAP1 POP PUSH2 0x15AA PUSH1 0x0 DUP4 ADD DUP5 PUSH2 0x1586 JUMP JUMPDEST SWAP3 SWAP2 POP POP JUMP JUMPDEST PUSH2 0x15B9 DUP2 PUSH2 0x1504 JUMP JUMPDEST DUP3 MSTORE POP POP JUMP JUMPDEST PUSH1 0x0 PUSH1 0x20 DUP3 ADD SWAP1 POP PUSH2 0x15D4 PUSH1 0x0 DUP4 ADD DUP5 PUSH2 0x15B0 JUMP JUMPDEST SWAP3 SWAP2 POP POP JUMP JUMPDEST PUSH1 0x0 DUP1 PUSH1 0x0 PUSH1 0x60 DUP5 DUP7 SUB SLT ISZERO PUSH2 0x15F3 JUMPI PUSH2 0x15F2 PUSH2 0x149C JUMP JUMPDEST JUMPDEST PUSH1 0x0 PUSH2 0x1601 DUP7 DUP3 DUP8 ADD PUSH2 0x14EF JUMP JUMPDEST SWAP4 POP POP PUSH1 0x20 PUSH2 0x1612 DUP7 DUP3 DUP8 ADD PUSH2 0x14EF JUMP JUMPDEST SWAP3 POP POP PUSH1 0x40 PUSH2 0x1623 DUP7 DUP3 DUP8 ADD PUSH2 0x1525 JUMP JUMPDEST SWAP2 POP POP SWAP3 POP SWAP3 POP SWAP3 JUMP JUMPDEST PUSH1 0x0 PUSH1 0xFF DUP3 AND SWAP1 POP SWAP2 SWAP1 POP JUMP JUMPDEST PUSH2 0x1643 DUP2 PUSH2 0x162D JUMP JUMPDEST DUP3 MSTORE POP POP JUMP JUMPDEST PUSH1 0x0 PUSH1 0x20 DUP3 ADD SWAP1 POP PUSH2 0x165E PUSH1 0x0 DUP4 ADD DUP5 PUSH2 0x163A JUMP JUMPDEST SWAP3 SWAP2 POP POP JUMP JUMPDEST PUSH1 0x0 PUSH1 0x20 DUP3 DUP5 SUB SLT ISZERO PUSH2 0x167A JUMPI PUSH2 0x1679 PUSH2 0x149C JUMP JUMPDEST JUMPDEST PUSH1 0x0 PUSH2 0x1688 DUP5 DUP3 DUP6 ADD PUSH2 0x14EF JUMP JUMPDEST SWAP2 POP POP SWAP3 SWAP2 POP POP JUMP JUMPDEST PUSH1 0x0 DUP1 PUSH1 0x40 DUP4 DUP6 SUB SLT ISZERO PUSH2 0x16A8 JUMPI PUSH2 0x16A7 PUSH2 0x149C JUMP JUMPDEST JUMPDEST PUSH1 0x0 PUSH2 0x16B6 DUP6 DUP3 DUP7 ADD PUSH2 0x14EF JUMP JUMPDEST SWAP3 POP POP PUSH1 0x20 PUSH2 0x16C7 DUP6 DUP3 DUP7 ADD PUSH2 0x14EF JUMP JUMPDEST SWAP2 POP POP SWAP3 POP SWAP3 SWAP1 POP JUMP JUMPDEST PUSH1 0x0 DUP1 REVERT JUMPDEST PUSH1 0x0 DUP1 REVERT JUMPDEST PUSH1 0x0 DUP1 REVERT JUMPDEST PUSH1 0x0 DUP1 DUP4 PUSH1 0x1F DUP5 ADD SLT PUSH2 0x16F6 JUMPI PUSH2 0x16F5 PUSH2 0x16D1 JUMP JUMPDEST JUMPDEST DUP3 CALLDATALOAD SWAP1 POP PUSH8 0xFFFFFFFFFFFFFFFF DUP2 GT ISZERO PUSH2 0x1713 JUMPI PUSH2 0x1712 PUSH2 0x16D6 JUMP JUMPDEST JUMPDEST PUSH1 0x20 DUP4 ADD SWAP2 POP DUP4 PUSH1 0x1 DUP3 MUL DUP4 ADD GT ISZERO PUSH2 0x172F JUMPI PUSH2 0x172E PUSH2 0x16DB JUMP JUMPDEST JUMPDEST SWAP3 POP SWAP3 SWAP1 POP JUMP JUMPDEST PUSH1 0x0 DUP1 PUSH1 0x0 PUSH1 0x40 DUP5 DUP7 SUB SLT ISZERO PUSH2 0x174F JUMPI PUSH2 0x174E PUSH2 0x149C JUMP JUMPDEST JUMPDEST PUSH1 0x0 DUP5 ADD CALLDATALOAD PUSH8 0xFFFFFFFFFFFFFFFF DUP2 GT ISZERO PUSH2 0x176D JUMPI PUSH2 0x176C PUSH2 0x14A1 JUMP JUMPDEST JUMPDEST PUSH2 0x1779 DUP7 DUP3 DUP8 ADD PUSH2 0x16E0 JUMP JUMPDEST SWAP4 POP SWAP4 POP POP PUSH1 0x20 PUSH2 0x178C DUP7 DUP3 DUP8 ADD PUSH2 0x14EF JUMP JUMPDEST SWAP2 POP POP SWAP3 POP SWAP3 POP SWAP3 JUMP JUMPDEST PUSH32 0x4E487B7100000000000000000000000000000000000000000000000000000000 PUSH1 0x0 MSTORE PUSH1 0x22 PUSH1 0x4 MSTORE PUSH1 0x24 PUSH1 0x0 REVERT JUMPDEST PUSH1 0x0 PUSH1 0x2 DUP3 DIV SWAP1 POP PUSH1 0x1 DUP3 AND DUP1 PUSH2 0x17DD JUMPI PUSH1 0x7F DUP3 AND SWAP2 POP JUMPDEST PUSH1 0x20 DUP3 LT DUP2 SUB PUSH2 0x17F0 JUMPI PUSH2 0x17EF PUSH2 0x1796 JUMP JUMPDEST JUMPDEST POP SWAP2 SWAP1 POP JUMP JUMPDEST PUSH2 0x17FF DUP2 PUSH2 0x14C6 JUMP JUMPDEST DUP3 MSTORE POP POP JUMP JUMPDEST PUSH1 0x0 PUSH1 0x60 DUP3 ADD SWAP1 POP PUSH2 0x181A PUSH1 0x0 DUP4 ADD DUP7 PUSH2 0x17F6 JUMP JUMPDEST PUSH2 0x1827 PUSH1 0x20 DUP4 ADD DUP6 PUSH2 0x15B0 JUMP JUMPDEST PUSH2 0x1834 PUSH1 0x40 DUP4 ADD DUP5 PUSH2 0x15B0 JUMP JUMPDEST SWAP5 SWAP4 POP POP POP POP JUMP JUMPDEST PUSH32 0x4E487B7100000000000000000000000000000000000000000000000000000000 PUSH1 0x0 MSTORE PUSH1 0x11 PUSH1 0x4 MSTORE PUSH1 0x24 PUSH1 0x0 REVERT JUMPDEST PUSH1 0x0 PUSH2 0x1876 DUP3 PUSH2 0x1504 JUMP JUMPDEST SWAP2 POP PUSH2 0x1881 DUP4 PUSH2 0x1504 JUMP JUMPDEST SWAP3 POP DUP3 DUP3 ADD SWAP1 POP DUP1 DUP3 GT ISZERO PUSH2 0x1899 JUMPI PUSH2 0x1898 PUSH2 0x183C JUMP JUMPDEST JUMPDEST SWAP3 SWAP2 POP POP JUMP JUMPDEST PUSH1 0x0 PUSH2 0x18AA DUP3 PUSH2 0x1504 JUMP JUMPDEST SWAP2 POP PUSH2 0x18B5 DUP4 PUSH2 0x1504 JUMP JUMPDEST SWAP3 POP DUP3 DUP3 SUB SWAP1 POP DUP2 DUP2 GT ISZERO PUSH2 0x18CD JUMPI PUSH2 0x18CC PUSH2 0x183C JUMP JUMPDEST JUMPDEST SWAP3 SWAP2 POP POP JUMP JUMPDEST PUSH32 0x4E487B7100000000000000000000000000000000000000000000000000000000 PUSH1 0x0 MSTORE PUSH1 0x21 PUSH1 0x4 MSTORE PUSH1 0x24 PUSH1 0x0 REVERT JUMPDEST PUSH32 0x45524332303A2064656372656173656420616C6C6F77616E63652062656C6F77 PUSH1 0x0 DUP3 ADD MSTORE PUSH32 0x207A65726F000000000000000000000000000000000000000000000000000000 PUSH1 0x20 DUP3 ADD MSTORE POP JUMP JUMPDEST PUSH1 0x0 PUSH2 0x195E PUSH1 0x25 DUP4 PUSH2 0x13F5 JUMP JUMPDEST SWAP2 POP PUSH2 0x1969 DUP3 PUSH2 0x1902 JUMP JUMPDEST PUSH1 0x40 DUP3 ADD SWAP1 POP SWAP2 SWAP1 POP JUMP JUMPDEST PUSH1 0x0 PUSH1 0x20 DUP3 ADD SWAP1 POP DUP2 DUP2 SUB PUSH1 0x0 DUP4 ADD MSTORE PUSH2 0x198D DUP2 PUSH2 0x1951 JUMP JUMPDEST SWAP1 POP SWAP2 SWAP1 POP JUMP JUMPDEST PUSH32 0x4E487B7100000000000000000000000000000000000000000000000000000000 PUSH1 0x0 MSTORE PUSH1 0x41 PUSH1 0x4 MSTORE PUSH1 0x24 PUSH1 0x0 REVERT JUMPDEST PUSH1 0x0 DUP2 SWAP1 POP DUP2 PUSH1 0x0 MSTORE PUSH1 0x20 PUSH1 0x0 KECCAK256 SWAP1 POP SWAP2 SWAP1 POP JUMP JUMPDEST PUSH1 0x0 PUSH1 0x20 PUSH1 0x1F DUP4 ADD DIV SWAP1 POP SWAP2 SWAP1 POP JUMP JUMPDEST PUSH1 0x0 DUP3 DUP3 SHL SWAP1 POP SWAP3 SWAP2 POP POP JUMP JUMPDEST PUSH1 0x0 PUSH1 0x8 DUP4 MUL PUSH2 0x1A25 PUSH32 0xFFFFFFFFFFFFFFFFFFFFFFFFFFFFFFFFFFFFFFFFFFFFFFFFFFFFFFFFFFFFFFFF DUP3 PUSH2 0x19E8 JUMP JUMPDEST PUSH2 0x1A2F DUP7 DUP4 PUSH2 0x19E8 JUMP JUMPDEST SWAP6 POP DUP1 NOT DUP5 AND SWAP4 POP DUP1 DUP7 AND DUP5 OR SWAP3 POP POP POP SWAP4 SWAP3 POP POP POP JUMP JUMPDEST PUSH1 0x0 DUP2 SWAP1 POP SWAP2 SWAP1 POP JUMP JUMPDEST PUSH1 0x0 PUSH2 0x1A6C PUSH2 0x1A67 PUSH2 0x1A62 DUP5 PUSH2 0x1504 JUMP JUMPDEST PUSH2 0x1A47 JUMP JUMPDEST PUSH2 0x1504 JUMP JUMPDEST SWAP1 POP SWAP2 SWAP1 POP JUMP JUMPDEST PUSH1 0x0 DUP2 SWAP1 POP SWAP2 SWAP1 POP JUMP JUMPDEST PUSH2 0x1A86 DUP4 PUSH2 0x1A51 JUMP JUMPDEST PUSH2 0x1A9A PUSH2 0x1A92 DUP3 PUSH2 0x1A73 JUMP JUMPDEST DUP5 DUP5 SLOAD PUSH2 0x19F5 JUMP JUMPDEST DUP3 SSTORE POP POP POP POP JUMP JUMPDEST PUSH1 0x0 SWAP1 JUMP JUMPDEST PUSH2 0x1AAF PUSH2 0x1AA2 JUMP JUMPDEST PUSH2 0x1ABA DUP2 DUP5 DUP5 PUSH2 0x1A7D JUMP JUMPDEST POP POP POP JUMP JUMPDEST JUMPDEST DUP2 DUP2 LT ISZERO PUSH2 0x1ADE JUMPI PUSH2 0x1AD3 PUSH1 0x0 DUP3 PUSH2 0x1AA7 JUMP JUMPDEST PUSH1 0x1 DUP2 ADD SWAP1 POP PUSH2 0x1AC0 JUMP JUMPDEST POP POP JUMP JUMPDEST PUSH1 0x1F DUP3 GT ISZERO PUSH2 0x1B23 JUMPI PUSH2 0x1AF4 DUP2 PUSH2 0x19C3 JUMP JUMPDEST PUSH2 0x1AFD DUP5 PUSH2 0x19D8 JUMP JUMPDEST DUP2 ADD PUSH1 0x20 DUP6 LT ISZERO PUSH2 0x1B0C JUMPI DUP2 SWAP1 POP JUMPDEST PUSH2 0x1B20 PUSH2 0x1B18 DUP6 PUSH2 0x19D8 JUMP JUMPDEST DUP4 ADD DUP3 PUSH2 0x1ABF JUMP JUMPDEST POP POP JUMPDEST POP POP POP JUMP JUMPDEST PUSH1 0x0 DUP3 DUP3 SHR SWAP1 POP SWAP3 SWAP2 POP POP JUMP JUMPDEST PUSH1 0x0 PUSH2 0x1B46 PUSH1 0x0 NOT DUP5 PUSH1 0x8 MUL PUSH2 0x1B28 JUMP JUMPDEST NOT DUP1 DUP4 AND SWAP2 POP POP SWAP3 SWAP2 POP POP JUMP JUMPDEST PUSH1 0x0 PUSH2 0x1B5F DUP4 DUP4 PUSH2 0x1B35 JUMP JUMPDEST SWAP2 POP DUP3 PUSH1 0x2 MUL DUP3 OR SWAP1 POP SWAP3 SWAP2 POP POP JUMP JUMPDEST PUSH2 0x1B78 DUP3 PUSH2 0x13EA JUMP JUMPDEST PUSH8 0xFFFFFFFFFFFFFFFF DUP2 GT ISZERO PUSH2 0x1B91 JUMPI PUSH2 0x1B90 PUSH2 0x1994 JUMP JUMPDEST JUMPDEST PUSH2 0x1B9B DUP3 SLOAD PUSH2 0x17C5 JUMP JUMPDEST PUSH2 0x1BA6 DUP3 DUP3 DUP6 PUSH2 0x1AE2 JUMP JUMPDEST PUSH1 0x0 PUSH1 0x20 SWAP1 POP PUSH1 0x1F DUP4 GT PUSH1 0x1 DUP2 EQ PUSH2 0x1BD9 JUMPI PUSH1 0x0 DUP5 ISZERO PUSH2 0x1BC7 JUMPI DUP3 DUP8 ADD MLOAD SWAP1 POP JUMPDEST PUSH2 0x1BD1 DUP6 DUP3 PUSH2 0x1B53 JUMP JUMPDEST DUP7 SSTORE POP PUSH2 0x1C39 JUMP JUMPDEST PUSH1 0x1F NOT DUP5 AND PUSH2 0x1BE7 DUP7 PUSH2 0x19C3 JUMP JUMPDEST PUSH1 0x0 JUMPDEST DUP3 DUP2 LT ISZERO PUSH2 0x1C0F JUMPI DUP5 DUP10 ADD MLOAD DUP3 SSTORE PUSH1 0x1 DUP3 ADD SWAP2 POP PUSH1 0x20 DUP6 ADD SWAP5 POP PUSH1 0x20 DUP2 ADD SWAP1 POP PUSH2 0x1BEA JUMP JUMPDEST DUP7 DUP4 LT ISZERO PUSH2 0x1C2C JUMPI DUP5 DUP10 ADD MLOAD PUSH2 0x1C28 PUSH1 0x1F DUP10 AND DUP3 PUSH2 0x1B35 JUMP JUMPDEST DUP4 SSTORE POP JUMPDEST PUSH1 0x1 PUSH1 0x2 DUP9 MUL ADD DUP9 SSTORE POP POP POP JUMPDEST POP POP POP POP POP POP JUMP JUMPDEST PUSH32 0x45524332303A20617070726F76652066726F6D20746865207A65726F20616464 PUSH1 0x0 DUP3 ADD MSTORE PUSH32 0x7265737300000000000000000000000000000000000000000000000000000000 PUSH1 0x20 DUP3 ADD MSTORE POP JUMP JUMPDEST PUSH1 0x0 PUSH2 0x1C9D PUSH1 0x24 DUP4 PUSH2 0x13F5 JUMP JUMPDEST SWAP2 POP PUSH2 0x1CA8 DUP3 PUSH2 0x1C41 JUMP JUMPDEST PUSH1 0x40 DUP3 ADD SWAP1 POP SWAP2 SWAP1 POP JUMP JUMPDEST PUSH1 0x0 PUSH1 0x20 DUP3 ADD SWAP1 POP DUP2 DUP2 SUB PUSH1 0x0 DUP4 ADD MSTORE PUSH2 0x1CCC DUP2 PUSH2 0x1C90 JUMP JUMPDEST SWAP1 POP SWAP2 SWAP1 POP JUMP JUMPDEST PUSH32 0x45524332303A20617070726F766520746F20746865207A65726F206164647265 PUSH1 0x0 DUP3 ADD MSTORE PUSH32 0x7373000000000000000000000000000000000000000000000000000000000000 PUSH1 0x20 DUP3 ADD MSTORE POP JUMP JUMPDEST PUSH1 0x0 PUSH2 0x1D2F PUSH1 0x22 DUP4 PUSH2 0x13F5 JUMP JUMPDEST SWAP2 POP PUSH2 0x1D3A DUP3 PUSH2 0x1CD3 JUMP JUMPDEST PUSH1 0x40 DUP3 ADD SWAP1 POP SWAP2 SWAP1 POP JUMP JUMPDEST PUSH1 0x0 PUSH1 0x20 DUP3 ADD SWAP1 POP DUP2 DUP2 SUB PUSH1 0x0 DUP4 ADD MSTORE PUSH2 0x1D5E DUP2 PUSH2 0x1D22 JUMP JUMPDEST SWAP1 POP SWAP2 SWAP1 POP JUMP JUMPDEST PUSH32 0x45524332303A20696E73756666696369656E7420616C6C6F77616E6365000000 PUSH1 0x0 DUP3 ADD MSTORE POP JUMP JUMPDEST PUSH1 0x0 PUSH2 0x1D9B PUSH1 0x1D DUP4 PUSH2 0x13F5 JUMP JUMPDEST SWAP2 POP PUSH2 0x1DA6 DUP3 PUSH2 0x1D65 JUMP JUMPDEST PUSH1 0x20 DUP3 ADD SWAP1 POP SWAP2 SWAP1 POP JUMP JUMPDEST PUSH1 0x0 PUSH1 0x20 DUP3 ADD SWAP1 POP DUP2 DUP2 SUB PUSH1 0x0 DUP4 ADD MSTORE PUSH2 0x1DCA DUP2 PUSH2 0x1D8E JUMP JUMPDEST SWAP1 POP SWAP2 SWAP1 POP JUMP JUMPDEST PUSH32 0x45524332303A207472616E736665722066726F6D20746865207A65726F206164 PUSH1 0x0 DUP3 ADD MSTORE PUSH32 0x6472657373000000000000000000000000000000000000000000000000000000 PUSH1 0x20 DUP3 ADD MSTORE POP JUMP JUMPDEST PUSH1 0x0 PUSH2 0x1E2D PUSH1 0x25 DUP4 PUSH2 0x13F5 JUMP JUMPDEST SWAP2 POP PUSH2 0x1E38 DUP3 PUSH2 0x1DD1 JUMP JUMPDEST PUSH1 0x40 DUP3 ADD SWAP1 POP SWAP2 SWAP1 POP JUMP JUMPDEST PUSH1 0x0 PUSH1 0x20 DUP3 ADD SWAP1 POP DUP2 DUP2 SUB PUSH1 0x0 DUP4 ADD MSTORE PUSH2 0x1E5C DUP2 PUSH2 0x1E20 JUMP JUMPDEST SWAP1 POP SWAP2 SWAP1 POP JUMP JUMPDEST PUSH32 0x45524332303A207472616E7366657220746F20746865207A65726F2061646472 PUSH1 0x0 DUP3 ADD MSTORE PUSH32 0x6573730000000000000000000000000000000000000000000000000000000000 PUSH1 0x20 DUP3 ADD MSTORE POP JUMP JUMPDEST PUSH1 0x0 PUSH2 0x1EBF PUSH1 0x23 DUP4 PUSH2 0x13F5 JUMP JUMPDEST SWAP2 POP PUSH2 0x1ECA DUP3 PUSH2 0x1E63 JUMP JUMPDEST PUSH1 0x40 DUP3 ADD SWAP1 POP SWAP2 SWAP1 POP JUMP JUMPDEST PUSH1 0x0 PUSH1 0x20 DUP3 ADD SWAP1 POP DUP2 DUP2 SUB PUSH1 0x0 DUP4 ADD MSTORE PUSH2 0x1EEE DUP2 PUSH2 0x1EB2 JUMP JUMPDEST SWAP1 POP SWAP2 SWAP1 POP JUMP JUMPDEST PUSH32 0x45524332303A207472616E7366657220616D6F756E7420657863656564732062 PUSH1 0x0 DUP3 ADD MSTORE PUSH32 0x616C616E63650000000000000000000000000000000000000000000000000000 PUSH1 0x20 DUP3 ADD MSTORE POP JUMP JUMPDEST PUSH1 0x0 PUSH2 0x1F51 PUSH1 0x26 DUP4 PUSH2 0x13F5 JUMP JUMPDEST SWAP2 POP PUSH2 0x1F5C DUP3 PUSH2 0x1EF5 JUMP JUMPDEST PUSH1 0x40 DUP3 ADD SWAP1 POP SWAP2 SWAP1 POP JUMP JUMPDEST PUSH1 0x0 PUSH1 0x20 DUP3 ADD SWAP1 POP DUP2 DUP2 SUB PUSH1 0x0 DUP4 ADD MSTORE PUSH2 0x1F80 DUP2 PUSH2 0x1F44 JUMP JUMPDEST SWAP1 POP SWAP2 SWAP1 POP JUMP JUMPDEST PUSH32 0x4E487B7100000000000000000000000000000000000000000000000000000000 PUSH1 0x0 MSTORE PUSH1 0x12 PUSH1 0x4 MSTORE PUSH1 0x24 PUSH1 0x0 REVERT JUMPDEST PUSH1 0x0 PUSH2 0x1FC1 DUP3 PUSH2 0x1504 JUMP JUMPDEST SWAP2 POP PUSH2 0x1FCC DUP4 PUSH2 0x1504 JUMP JUMPDEST SWAP3 POP DUP3 PUSH2 0x1FDC JUMPI PUSH2 0x1FDB PUSH2 0x1F87 JUMP JUMPDEST JUMPDEST DUP3 DUP3 DIV SWAP1 POP SWAP3 SWAP2 POP POP JUMP JUMPDEST PUSH1 0x0 DUP2 PUSH1 0x1 SHR SWAP1 POP SWAP2 SWAP1 POP JUMP JUMPDEST PUSH1 0x0 DUP1 DUP3 SWAP2 POP DUP4 SWAP1 POP JUMPDEST PUSH1 0x1 DUP6 GT ISZERO PUSH2 0x203E JUMPI DUP1 DUP7 DIV DUP2 GT ISZERO PUSH2 0x201A JUMPI PUSH2 0x2019 PUSH2 0x183C JUMP JUMPDEST JUMPDEST PUSH1 0x1 DUP6 AND ISZERO PUSH2 0x2029 JUMPI DUP1 DUP3 MUL SWAP2 POP JUMPDEST DUP1 DUP2 MUL SWAP1 POP PUSH2 0x2037 DUP6 PUSH2 0x1FE7 JUMP JUMPDEST SWAP5 POP PUSH2 0x1FFE JUMP JUMPDEST SWAP5 POP SWAP5 SWAP3 POP POP POP JUMP JUMPDEST PUSH1 0x0 DUP3 PUSH2 0x2057 JUMPI PUSH1 0x1 SWAP1 POP PUSH2 0x2113 JUMP JUMPDEST DUP2 PUSH2 0x2065 JUMPI PUSH1 0x0 SWAP1 POP PUSH2 0x2113 JUMP JUMPDEST DUP2 PUSH1 0x1 DUP2 EQ PUSH2 0x207B JUMPI PUSH1 0x2 DUP2 EQ PUSH2 0x2085 JUMPI PUSH2 0x20B4 JUMP JUMPDEST PUSH1 0x1 SWAP2 POP POP PUSH2 0x2113 JUMP JUMPDEST PUSH1 0xFF DUP5 GT ISZERO PUSH2 0x2097 JUMPI PUSH2 0x2096 PUSH2 0x183C JUMP JUMPDEST JUMPDEST DUP4 PUSH1 0x2 EXP SWAP2 POP DUP5 DUP3 GT ISZERO PUSH2 0x20AE JUMPI PUSH2 0x20AD PUSH2 0x183C JUMP JUMPDEST JUMPDEST POP PUSH2 0x2113 JUMP JUMPDEST POP PUSH1 0x20 DUP4 LT PUSH2 0x133 DUP4 LT AND PUSH1 0x4E DUP5 LT PUSH1 0xB DUP5 LT AND OR ISZERO PUSH2 0x20E9 JUMPI DUP3 DUP3 EXP SWAP1 POP DUP4 DUP2 GT ISZERO PUSH2 0x20E4 JUMPI PUSH2 0x20E3 PUSH2 0x183C JUMP JUMPDEST JUMPDEST PUSH2 0x2113 JUMP JUMPDEST PUSH2 0x20F6 DUP5 DUP5 DUP5 PUSH1 0x1 PUSH2 0x1FF4 JUMP JUMPDEST SWAP3 POP SWAP1 POP DUP2 DUP5 DIV DUP2 GT ISZERO PUSH2 0x210D JUMPI PUSH2 0x210C PUSH2 0x183C JUMP JUMPDEST JUMPDEST DUP2 DUP2 MUL SWAP1 POP JUMPDEST SWAP4 SWAP3 POP POP POP JUMP JUMPDEST PUSH1 0x0 PUSH2 0x2125 DUP3 PUSH2 0x1504 JUMP JUMPDEST SWAP2 POP PUSH2 0x2130 DUP4 PUSH2 0x162D JUMP JUMPDEST SWAP3 POP PUSH2 0x215D PUSH32 0xFFFFFFFFFFFFFFFFFFFFFFFFFFFFFFFFFFFFFFFFFFFFFFFFFFFFFFFFFFFFFFFF DUP5 DUP5 PUSH2 0x2047 JUMP JUMPDEST SWAP1 POP SWAP3 SWAP2 POP POP JUMP JUMPDEST PUSH1 0x0 PUSH2 0x2170 DUP3 PUSH2 0x1504 JUMP JUMPDEST SWAP2 POP PUSH2 0x217B DUP4 PUSH2 0x1504 JUMP JUMPDEST SWAP3 POP DUP3 DUP3 MUL PUSH2 0x2189 DUP2 PUSH2 0x1504 JUMP JUMPDEST SWAP2 POP DUP3 DUP3 DIV DUP5 EQ DUP4 ISZERO OR PUSH2 0x21A0 JUMPI PUSH2 0x219F PUSH2 0x183C JUMP JUMPDEST JUMPDEST POP SWAP3 SWAP2 POP POP JUMP INVALID LOG2 PUSH5 0x6970667358 0x22 SLT KECCAK256 CALLDATACOPY 0x4C DUP15 0xCB 0xCD 0xCB ADDMOD PUSH20 0x27DB61176E9E75D827B15DCB723ED1A165B0438B 0xF9 PUSH21 0x801364736F6C634300081200330000000000000000 "
				},
				"gasEstimates": {
					"creation": {
						"codeDepositCost": "1733800",
						"executionCost": "infinite",
						"totalCost": "infinite"
					},
					"external": {
						"IncSysLifeTime1Min()": "infinite",
						"allowance(address,address)": "infinite",
						"approve(address,uint256)": "infinite",
						"balanceOf(address)": "2936",
						"buyToken()": "233",
						"decimals()": "388",
						"decreaseAllowance(address,uint256)": "infinite",
						"increaseAllowance(address,uint256)": "infinite",
						"name()": "infinite",
						"processRequest()": "infinite",
						"symbol()": "infinite",
						"totalSupply()": "2622",
						"transfer(address,uint256)": "infinite",
						"transferFrom(address,address,uint256)": "infinite",
						"transferToken(address,uint256)": "infinite",
						"transferTokenFrom(address,address,uint256)": "infinite",
						"whitelistRequest(string,address)": "infinite"
					},
					"internal": {
						"_updatePhase()": "infinite"
					}
				},
				"methodIdentifiers": {
					"IncSysLifeTime1Min()": "dcd7f537",
					"allowance(address,address)": "dd62ed3e",
					"approve(address,uint256)": "095ea7b3",
					"balanceOf(address)": "70a08231",
					"buyToken()": "a4821719",
					"decimals()": "313ce567",
					"decreaseAllowance(address,uint256)": "a457c2d7",
					"increaseAllowance(address,uint256)": "39509351",
					"name()": "06fdde03",
					"processRequest()": "8fc5668b",
					"symbol()": "95d89b41",
					"totalSupply()": "18160ddd",
					"transfer(address,uint256)": "a9059cbb",
					"transferFrom(address,address,uint256)": "23b872dd",
					"transferToken(address,uint256)": "1072cbea",
					"transferTokenFrom(address,address,uint256)": "ad221195",
					"whitelistRequest(string,address)": "fc58a74f"
				}
			},
			"storageLayout": {
				"storage": [
					{
						"astId": 15,
						"contract": "cryptoMonster.sol:cryptoMonster",
						"label": "_balances",
						"offset": 0,
						"slot": "0",
						"type": "t_mapping(t_address,t_uint256)"
					},
					{
						"astId": 21,
						"contract": "cryptoMonster.sol:cryptoMonster",
						"label": "_allowances",
						"offset": 0,
						"slot": "1",
						"type": "t_mapping(t_address,t_mapping(t_address,t_uint256))"
					},
					{
						"astId": 23,
						"contract": "cryptoMonster.sol:cryptoMonster",
						"label": "_totalSupply",
						"offset": 0,
						"slot": "2",
						"type": "t_uint256"
					},
					{
						"astId": 25,
						"contract": "cryptoMonster.sol:cryptoMonster",
						"label": "_name",
						"offset": 0,
						"slot": "3",
						"type": "t_string_storage"
					},
					{
						"astId": 27,
						"contract": "cryptoMonster.sol:cryptoMonster",
						"label": "_symbol",
						"offset": 0,
						"slot": "4",
						"type": "t_string_storage"
					},
					{
						"astId": 739,
						"contract": "cryptoMonster.sol:cryptoMonster",
						"label": "currentPhase",
						"offset": 0,
						"slot": "5",
						"type": "t_enum(phase)722"
					},
					{
						"astId": 743,
						"contract": "cryptoMonster.sol:cryptoMonster",
						"label": "whitelistRequests",
						"offset": 0,
						"slot": "6",
						"type": "t_array(t_struct(Request)734_storage)dyn_storage"
					},
					{
						"astId": 747,
						"contract": "cryptoMonster.sol:cryptoMonster",
						"label": "Time_start",
						"offset": 0,
						"slot": "7",
						"type": "t_uint256"
					},
					{
						"astId": 750,
						"contract": "cryptoMonster.sol:cryptoMonster",
						"label": "Time_now",
						"offset": 0,
						"slot": "8",
						"type": "t_uint256"
					},
					{
						"astId": 753,
						"contract": "cryptoMonster.sol:cryptoMonster",
						"label": "Time_system",
						"offset": 0,
						"slot": "9",
						"type": "t_uint256"
					},
					{
						"astId": 756,
						"contract": "cryptoMonster.sol:cryptoMonster",
						"label": "Time_dif",
						"offset": 0,
						"slot": "10",
						"type": "t_uint256"
					},
					{
						"astId": 758,
						"contract": "cryptoMonster.sol:cryptoMonster",
						"label": "tokenCost",
						"offset": 0,
						"slot": "11",
						"type": "t_uint256"
					},
					{
						"astId": 760,
						"contract": "cryptoMonster.sol:cryptoMonster",
						"label": "transactionLimit",
						"offset": 0,
						"slot": "12",
						"type": "t_uint256"
					},
					{
						"astId": 762,
						"contract": "cryptoMonster.sol:cryptoMonster",
						"label": "privateProvider",
						"offset": 0,
						"slot": "13",
						"type": "t_address"
					},
					{
						"astId": 764,
						"contract": "cryptoMonster.sol:cryptoMonster",
						"label": "publicProvider",
						"offset": 0,
						"slot": "14",
						"type": "t_address"
					},
					{
						"astId": 769,
						"contract": "cryptoMonster.sol:cryptoMonster",
						"label": "addressToUser",
						"offset": 0,
						"slot": "15",
						"type": "t_mapping(t_address,t_struct(User)729_storage)"
					},
					{
						"astId": 773,
						"contract": "cryptoMonster.sol:cryptoMonster",
						"label": "loginToPassword",
						"offset": 0,
						"slot": "16",
						"type": "t_mapping(t_string_memory_ptr,t_uint256)"
					},
					{
						"astId": 777,
						"contract": "cryptoMonster.sol:cryptoMonster",
						"label": "whitelist",
						"offset": 0,
						"slot": "17",
						"type": "t_mapping(t_address,t_bool)"
					}
				],
				"types": {
					"t_address": {
						"encoding": "inplace",
						"label": "address",
						"numberOfBytes": "20"
					},
					"t_array(t_struct(Request)734_storage)dyn_storage": {
						"base": "t_struct(Request)734_storage",
						"encoding": "dynamic_array",
						"label": "struct cryptoMonster.Request[]",
						"numberOfBytes": "32"
					},
					"t_bool": {
						"encoding": "inplace",
						"label": "bool",
						"numberOfBytes": "1"
					},
					"t_enum(phase)722": {
						"encoding": "inplace",
						"label": "enum cryptoMonster.phase",
						"numberOfBytes": "1"
					},
					"t_mapping(t_address,t_bool)": {
						"encoding": "mapping",
						"key": "t_address",
						"label": "mapping(address => bool)",
						"numberOfBytes": "32",
						"value": "t_bool"
					},
					"t_mapping(t_address,t_mapping(t_address,t_uint256))": {
						"encoding": "mapping",
						"key": "t_address",
						"label": "mapping(address => mapping(address => uint256))",
						"numberOfBytes": "32",
						"value": "t_mapping(t_address,t_uint256)"
					},
					"t_mapping(t_address,t_struct(User)729_storage)": {
						"encoding": "mapping",
						"key": "t_address",
						"label": "mapping(address => struct cryptoMonster.User)",
						"numberOfBytes": "32",
						"value": "t_struct(User)729_storage"
					},
					"t_mapping(t_address,t_uint256)": {
						"encoding": "mapping",
						"key": "t_address",
						"label": "mapping(address => uint256)",
						"numberOfBytes": "32",
						"value": "t_uint256"
					},
					"t_mapping(t_string_memory_ptr,t_uint256)": {
						"encoding": "mapping",
						"key": "t_string_memory_ptr",
						"label": "mapping(string => uint256)",
						"numberOfBytes": "32",
						"value": "t_uint256"
					},
					"t_string_memory_ptr": {
						"encoding": "bytes",
						"label": "string",
						"numberOfBytes": "32"
					},
					"t_string_storage": {
						"encoding": "bytes",
						"label": "string",
						"numberOfBytes": "32"
					},
					"t_struct(Request)734_storage": {
						"encoding": "inplace",
						"label": "struct cryptoMonster.Request",
						"members": [
							{
								"astId": 731,
								"contract": "cryptoMonster.sol:cryptoMonster",
								"label": "login",
								"offset": 0,
								"slot": "0",
								"type": "t_string_storage"
							},
							{
								"astId": 733,
								"contract": "cryptoMonster.sol:cryptoMonster",
								"label": "wallet",
								"offset": 0,
								"slot": "1",
								"type": "t_address"
							}
						],
						"numberOfBytes": "64"
					},
					"t_struct(User)729_storage": {
						"encoding": "inplace",
						"label": "struct cryptoMonster.User",
						"members": [
							{
								"astId": 724,
								"contract": "cryptoMonster.sol:cryptoMonster",
								"label": "wallet",
								"offset": 0,
								"slot": "0",
								"type": "t_address"
							},
							{
								"astId": 726,
								"contract": "cryptoMonster.sol:cryptoMonster",
								"label": "login",
								"offset": 0,
								"slot": "1",
								"type": "t_string_storage"
							},
							{
								"astId": 728,
								"contract": "cryptoMonster.sol:cryptoMonster",
								"label": "balance",
								"offset": 0,
								"slot": "2",
								"type": "t_uint256"
							}
						],
						"numberOfBytes": "96"
					},
					"t_uint256": {
						"encoding": "inplace",
						"label": "uint256",
						"numberOfBytes": "32"
					}
				}
			},
			"userdoc": {
				"kind": "user",
				"methods": {},
				"version": 1
			}
		}
	}
}